Component: ARM Compiler 5.06 update 6 (build 750) Tool: armlink [4d35ed]

==============================================================================

Section Cross References

    startup_stm32f401xe.o(RESET) refers to startup_stm32f401xe.o(STACK) for __initial_sp
    startup_stm32f401xe.o(RESET) refers to startup_stm32f401xe.o(.text) for Reset_Handler
    startup_stm32f401xe.o(RESET) refers to stm32f4xx_it.o(i.NMI_Handler) for NMI_Handler
    startup_stm32f401xe.o(RESET) refers to stm32f4xx_it.o(i.HardFault_Handler) for HardFault_Handler
    startup_stm32f401xe.o(RESET) refers to stm32f4xx_it.o(i.MemManage_Handler) for MemManage_Handler
    startup_stm32f401xe.o(RESET) refers to stm32f4xx_it.o(i.BusFault_Handler) for BusFault_Handler
    startup_stm32f401xe.o(RESET) refers to stm32f4xx_it.o(i.UsageFault_Handler) for UsageFault_Handler
    startup_stm32f401xe.o(RESET) refers to port.o(.emb_text) for SVC_Handler
    startup_stm32f401xe.o(RESET) refers to stm32f4xx_it.o(i.DebugMon_Handler) for DebugMon_Handler
    startup_stm32f401xe.o(RESET) refers to port.o(i.SysTick_Handler) for SysTick_Handler
    startup_stm32f401xe.o(RESET) refers to stm32f4xx_it.o(i.TIM4_IRQHandler) for TIM4_IRQHandler
    startup_stm32f401xe.o(RESET) refers to stm32f4xx_it.o(i.USART1_IRQHandler) for USART1_IRQHandler
    startup_stm32f401xe.o(RESET) refers to stm32f4xx_it.o(i.USART2_IRQHandler) for USART2_IRQHandler
    startup_stm32f401xe.o(RESET) refers to stm32f4xx_it.o(i.USART6_IRQHandler) for USART6_IRQHandler
    startup_stm32f401xe.o(.text) refers to system_stm32f4xx.o(i.SystemInit) for SystemInit
    startup_stm32f401xe.o(.text) refers to entry.o(.ARM.Collect$$$$00000000) for __main
    main.o(i.HAL_TIM_PeriodElapsedCallback) refers to stm32f4xx_hal.o(i.HAL_IncTick) for HAL_IncTick
    main.o(i.SystemClock_Config) refers to memseta.o(.text) for __aeabi_memclr4
==============================================================================

Removing Unused input sections from the image.

    Removing main.o(.rev16_text), (4 bytes).
    Removing main.o(.revsh_text), (4 bytes).
    Removing main.o(.rrx_text), (6 bytes).
    Removing gpio.o(.rev16_text), (4 bytes).
    Removing gpio.o(.revsh_text), (4 bytes).
    Removing gpio.o(.rrx_text), (6 bytes).
    Removing freertos.o(.rev16_text), (4 bytes).
    Removing freertos.o(.revsh_text), (4 bytes).
    Removing freertos.o(.rrx_text), (6 bytes).
    Removing rtc.o(.rev16_text), (4 bytes).
    Removing rtc.o(.revsh_text), (4 bytes).
    Removing rtc.o(.rrx_text), (6 bytes).
    Removing rtc.o(i.HAL_RTC_MspDeInit), (24 bytes).
    Removing spi.o(.rev16_text), (4 bytes).
    Removing spi.o(.revsh_text), (4 bytes).
    Removing spi.o(.rrx_text), (6 bytes).
    Removing spi.o(i.HAL_SPI_MspDeInit), (116 bytes).
    Removing tim.o(.rev16_text), (4 bytes).
==============================================================================

Image Symbol Table

    Local Symbols

    Symbol Name                              Value     Ov Type        Size  Object(Section)

    ../Drivers/STM32F4xx_HAL_Driver/Src/stm32f4xx_hal.c 0x00000000   Number         0  stm32f4xx_hal.o ABSOLUTE
    ../Drivers/STM32F4xx_HAL_Driver/Src/stm32f4xx_hal_cortex.c 0x00000000   Number         0  stm32f4xx_hal_cortex.o ABSOLUTE
    ../Drivers/STM32F4xx_HAL_Driver/Src/stm32f4xx_hal_dma.c 0x00000000   Number         0  stm32f4xx_hal_dma.o ABSOLUTE
    ../Drivers/STM32F4xx_HAL_Driver/Src/stm32f4xx_hal_dma_ex.c 0x00000000   Number         0  stm32f4xx_hal_dma_ex.o ABSOLUTE
    ../Drivers/STM32F4xx_HAL_Driver/Src/stm32f4xx_hal_exti.c 0x00000000   Number         0  stm32f4xx_hal_exti.o ABSOLUTE
    ../Drivers/STM32F4xx_HAL_Driver/Src/stm32f4xx_hal_flash.c 0x00000000   Number         0  stm32f4xx_hal_flash.o ABSOLUTE
    ../Drivers/STM32F4xx_HAL_Driver/Src/stm32f4xx_hal_flash_ex.c 0x00000000   Number         0  stm32f4xx_hal_flash_ex.o ABSOLUTE
    ../Drivers/STM32F4xx_HAL_Driver/Src/stm32f4xx_hal_flash_ramfunc.c 0x00000000   Number         0  stm32f4xx_hal_flash_ramfunc.o ABSOLUTE
    ../Drivers/STM32F4xx_HAL_Driver/Src/stm32f4xx_hal_gpio.c 0x00000000   Number         0  stm32f4xx_hal_gpio.o ABSOLUTE
    ../Drivers/STM32F4xx_HAL_Driver/Src/stm32f4xx_hal_pwr.c 0x00000000   Number         0  stm32f4xx_hal_pwr.o ABSOLUTE
    ../Drivers/STM32F4xx_HAL_Driver/Src/stm32f4xx_hal_pwr_ex.c 0x00000000   Number         0  stm32f4xx_hal_pwr_ex.o ABSOLUTE
    ../Drivers/STM32F4xx_HAL_Driver/Src/stm32f4xx_hal_rcc.c 0x00000000   Number         0  stm32f4xx_hal_rcc.o ABSOLUTE
    ../Drivers/STM32F4xx_HAL_Driver/Src/stm32f4xx_hal_rcc_ex.c 0x00000000   Number         0  stm32f4xx_hal_rcc_ex.o ABSOLUTE
    ../Drivers/STM32F4xx_HAL_Driver/Src/stm32f4xx_hal_rtc.c 0x00000000   Number         0  stm32f4xx_hal_rtc.o ABSOLUTE
    ../Drivers/STM32F4xx_HAL_Driver/Src/stm32f4xx_hal_rtc_ex.c 0x00000000   Number         0  stm32f4xx_hal_rtc_ex.o ABSOLUTE
    ../Drivers/STM32F4xx_HAL_Driver/Src/stm32f4xx_hal_spi.c 0x00000000   Number         0  stm32f4xx_hal_spi.o ABSOLUTE
    ../Drivers/STM32F4xx_HAL_Driver/Src/stm32f4xx_hal_tim.c 0x00000000   Number         0  stm32f4xx_hal_tim.o ABSOLUTE
    ../Drivers/STM32F4xx_HAL_Driver/Src/stm32f4xx_hal_tim_ex.c 0x00000000   Number         0  stm32f4xx_hal_tim_ex.o ABSOLUTE
    ../Drivers/STM32F4xx_HAL_Driver/Src/stm32f4xx_hal_uart.c 0x00000000   Number         0  stm32f4xx_hal_uart.o ABSOLUTE
    ../Middlewares/Third_Party/FreeRTOS/Source/CMSIS_RTOS/cmsis_os.c 0x00000000   Number         0  cmsis_os.o ABSOLUTE
    ../Middlewares/Third_Party/FreeRTOS/Source/croutine.c 0x00000000   Number         0  croutine.o ABSOLUTE
    ../Middlewares/Third_Party/FreeRTOS/Source/event_groups.c 0x00000000   Number         0  event_groups.o ABSOLUTE
    ../Middlewares/Third_Party/FreeRTOS/Source/list.c 0x00000000   Number         0  list.o ABSOLUTE
    ../Middlewares/Third_Party/FreeRTOS/Source/portable/MemMang/heap_4.c 0x00000000   Number         0  heap_4.o ABSOLUTE
    ../Middlewares/Third_Party/FreeRTOS/Source/portable/RVDS/ARM_CM4F/port.c 0x00000000   Number         0  port.o ABSOLUTE
    ../Middlewares/Third_Party/FreeRTOS/Source/queue.c 0x00000000   Number         0  queue.o ABSOLUTE
    ../Middlewares/Third_Party/FreeRTOS/Source/stream_buffer.c 0x00000000   Number         0  stream_buffer.o ABSOLUTE
    ../Middlewares/Third_Party/FreeRTOS/Source/tasks.c 0x00000000   Number         0  tasks.o ABSOLUTE
    ../Middlewares/Third_Party/FreeRTOS/Source/timers.c 0x00000000   Number         0  timers.o ABSOLUTE
    ../Src/freertos.c                        0x00000000   Number         0  freertos.o ABSOLUTE
    ../Src/gpio.c                            0x00000000   Number         0  gpio.o ABSOLUTE
    ../Src/main.c                            0x00000000   Number         0  main.o ABSOLUTE
    ../Src/rtc.c                             0x00000000   Number         0  rtc.o ABSOLUTE
    ../Src/spi.c                             0x00000000   Number         0  spi.o ABSOLUTE
    ../Src/stm32f4xx_hal_msp.c               0x00000000   Number         0  stm32f4xx_hal_msp.o ABSOLUTE
    ../Src/stm32f4xx_hal_timebase_tim.c      0x00000000   Number         0  stm32f4xx_hal_timebase_tim.o ABSOLUTE
    ../Src/stm32f4xx_it.c                    0x00000000   Number         0  stm32f4xx_it.o ABSOLUTE
    ../Src/system_stm32f4xx.c                0x00000000   Number         0  system_stm32f4xx.o ABSOLUTE
    ../Src/tim.c                             0x00000000   Number         0  tim.o ABSOLUTE
    ../Src/usart.c                           0x00000000   Number         0  usart.o ABSOLUTE
    ../clib/../cmprslib/zerorunl2.c          0x00000000   Number         0  __dczerorl2.o ABSOLUTE
    ../clib/microlib/ctype/ctype.c           0x00000000   Number         0  isspace_c.o ABSOLUTE
    ../clib/microlib/ctype/ctype.c           0x00000000   Number         0  ctype_c.o ABSOLUTE
    ../clib/microlib/ctype/tolower.c         0x00000000   Number         0  tolower.o ABSOLUTE
    ../clib/microlib/division.c              0x00000000   Number         0  uldiv.o ABSOLUTE
    ../clib/microlib/division.c              0x00000000   Number         0  uidiv.o ABSOLUTE
    ../clib/microlib/init/entry.s            0x00000000   Number         0  entry.o ABSOLUTE
    ../clib/microlib/init/entry.s            0x00000000   Number         0  entry11b.o ABSOLUTE
    ../clib/microlib/init/entry.s            0x00000000   Number         0  entry2.o ABSOLUTE
    ../clib/microlib/init/entry.s            0x00000000   Number         0  entry11a.o ABSOLUTE
    ../clib/microlib/init/entry.s            0x00000000   Number         0  entry10b.o ABSOLUTE
    ../clib/microlib/init/entry.s            0x00000000   Number         0  entry10a.o ABSOLUTE
    ../clib/microlib/init/entry.s            0x00000000   Number         0  entry7a.o ABSOLUTE
    ../clib/microlib/init/entry.s            0x00000000   Number         0  entry9b.o ABSOLUTE
    ../clib/microlib/init/entry.s            0x00000000   Number         0  entry7b.o ABSOLUTE
    ../clib/microlib/init/entry.s            0x00000000   Number         0  entry9a.o ABSOLUTE
    ../clib/microlib/init/entry.s            0x00000000   Number         0  entry8b.o ABSOLUTE
    ../clib/microlib/init/entry.s            0x00000000   Number         0  entry8a.o ABSOLUTE
    ../clib/microlib/init/entry.s            0x00000000   Number         0  entry5.o ABSOLUTE
    ../clib/microlib/longlong.c              0x00000000   Number         0  llushr.o ABSOLUTE
    ../clib/microlib/longlong.c              0x00000000   Number         0  llshl.o ABSOLUTE
    ../clib/microlib/longlong.c              0x00000000   Number         0  llsshr.o ABSOLUTE
    ../clib/microlib/malloc/malloc.c         0x00000000   Number         0  malloc.o ABSOLUTE
    ../clib/microlib/malloc/malloc.c         0x00000000   Number         0  mallocr.o ABSOLUTE
    ../clib/microlib/malloc/malloc.c         0x00000000   Number         0  malloca.o ABSOLUTE
    ../clib/microlib/malloc/malloc.c         0x00000000   Number         0  mallocra.o ABSOLUTE
    ../clib/microlib/malloc/mvars.c          0x00000000   Number         0  mvars.o ABSOLUTE
    ../clib/microlib/printf/printf.c         0x00000000   Number         0  printf0.o ABSOLUTE
    ../clib/microlib/printf/printf.c         0x00000000   Number         0  printf1.o ABSOLUTE
    ../clib/microlib/printf/printf.c         0x00000000   Number         0  printf2.o ABSOLUTE
    ../clib/microlib/printf/printf.c         0x00000000   Number         0  printf6.o ABSOLUTE
    ../clib/microlib/printf/printf.c         0x00000000   Number         0  printfa.o ABSOLUTE
    ../clib/microlib/printf/printf.c         0x00000000   Number         0  printf8.o ABSOLUTE
    ../clib/microlib/printf/printf.c         0x00000000   Number         0  printfb.o ABSOLUTE
    ../clib/microlib/printf/printf.c         0x00000000   Number         0  printf7.o ABSOLUTE
    ../clib/microlib/printf/printf.c         0x00000000   Number         0  printf3.o ABSOLUTE
    ../clib/microlib/printf/printf.c         0x00000000   Number         0  printf4.o ABSOLUTE
    ../clib/microlib/printf/printf.c         0x00000000   Number         0  printf5.o ABSOLUTE
    ../clib/microlib/printf/stubs.s          0x00000000   Number         0  stubs.o ABSOLUTE
    ../clib/microlib/stdio/streams.c         0x00000000   Number         0  stdout.o ABSOLUTE
    ../clib/microlib/string/memcpy.c         0x00000000   Number         0  memcpyb.o ABSOLUTE
    ../clib/microlib/string/memcpy.c         0x00000000   Number         0  memcpya.o ABSOLUTE
    ../clib/microlib/string/memset.c         0x00000000   Number         0  memset.o ABSOLUTE
    ../clib/microlib/string/memset.c         0x00000000   Number         0  memseta.o ABSOLUTE
    ../clib/microlib/string/strcmp.c         0x00000000   Number         0  strcmp.o ABSOLUTE
    ../clib/microlib/string/strcpy.c         0x00000000   Number         0  strcpy.o ABSOLUTE
    ../clib/microlib/string/strlen.c         0x00000000   Number         0  strlen.o ABSOLUTE
    ../clib/microlib/string/strncmp.c        0x00000000   Number         0  strncmp.o ABSOLUTE
    ../clib/microlib/string/strstr.c         0x00000000   Number         0  strstr.o ABSOLUTE
    ../clib/microlib/stubs.s                 0x00000000   Number         0  iusefp.o ABSOLUTE
    ../clib/scanf.c                          0x00000000   Number         0  __0sscanf.o ABSOLUTE
    ../clib/scanf.c                          0x00000000   Number         0  _sgetc.o ABSOLUTE
    ../clib/scanf.c                          0x00000000   Number         0  strtod.o ABSOLUTE
    ../clib/scanf.c                          0x00000000   Number         0  scanf_fp.o ABSOLUTE
    ../clib/scanf.c                          0x00000000   Number         0  _scanf.o ABSOLUTE
    ../clib/scanf.c                          0x00000000   Number         0  scanf_char.o ABSOLUTE
    ../fplib/microlib/d2f.c                  0x00000000   Number         0  d2f.o ABSOLUTE
    ../fplib/microlib/f2d.c                  0x00000000   Number         0  f2d.o ABSOLUTE
    ../fplib/microlib/fpadd.c                0x00000000   Number         0  dadd.o ABSOLUTE
    ../fplib/microlib/fpdiv.c                0x00000000   Number         0  ddiv.o ABSOLUTE
    ../fplib/microlib/fpepilogue.c           0x00000000   Number         0  fepilogue.o ABSOLUTE
    ../fplib/microlib/fpepilogue.c           0x00000000   Number         0  depilogue.o ABSOLUTE
    ../fplib/microlib/fpfix.c                0x00000000   Number         0  dfixi.o ABSOLUTE
    ../fplib/microlib/fpfix.c                0x00000000   Number         0  dfixul.o ABSOLUTE
    ../fplib/microlib/fpflt.c                0x00000000   Number         0  dfltul.o ABSOLUTE
    ../fplib/microlib/fpflt.c                0x00000000   Number         0  dflti.o ABSOLUTE
    ../fplib/microlib/fpflt.c                0x00000000   Number         0  dfltui.o ABSOLUTE
    ../fplib/microlib/fpmul.c                0x00000000   Number         0  dmul.o ABSOLUTE
    ../mathlib/strtod.c                      0x00000000   Number         0  strtod.o ABSOLUTE
    ..\API\HMAC\utils_hmac.c                 0x00000000   Number         0  utils_hmac.o ABSOLUTE
    ..\API\HMAC\utils_md5.c                  0x00000000   Number         0  utils_md5.o ABSOLUTE
    ..\API\HMAC\utils_sha1.c                 0x00000000   Number         0  utils_sha1.o ABSOLUTE
    ..\API\Src\MG200.c                       0x00000000   Number         0  mg200.o ABSOLUTE
    ..\API\Src\W25Q64.c                      0x00000000   Number         0  w25q64.o ABSOLUTE
    ..\API\Src\bs8116.c                      0x00000000   Number         0  bs8116.o ABSOLUTE
    ..\API\Src\cJSON.c                       0x00000000   Number         0  cjson.o ABSOLUTE
    ..\API\Src\font1.c                       0x00000000   Number         0  font1.o ABSOLUTE
    ..\API\Src\font_down.c                   0x00000000   Number         0  font_down.o ABSOLUTE
    ..\API\Src\motor.c                       0x00000000   Number         0  motor.o ABSOLUTE
    ..\API\Src\my_ui.c                       0x00000000   Number         0  my_ui.o ABSOLUTE
    ..\API\Src\myiic.c                       0x00000000   Number         0  myiic.o ABSOLUTE
    ..\API\Src\rfid.c                        0x00000000   Number         0  rfid.o ABSOLUTE
    ..\API\Src\shartui.c                     0x00000000   Number         0  shartui.o ABSOLUTE
    ..\API\Src\st7789vm_oled.c               0x00000000   Number         0  st7789vm_oled.o ABSOLUTE
    ..\API\Src\voice.c                       0x00000000   Number         0  voice.o ABSOLUTE
    ..\API\Src\wifi.c                        0x00000000   Number         0  wifi.o ABSOLUTE
    ..\Drivers\STM32F4xx_HAL_Driver\Src\stm32f4xx_hal.c 0x00000000   Number         0  stm32f4xx_hal.o ABSOLUTE
    ..\Drivers\STM32F4xx_HAL_Driver\Src\stm32f4xx_hal_cortex.c 0x00000000   Number         0  stm32f4xx_hal_cortex.o ABSOLUTE
    ..\Drivers\STM32F4xx_HAL_Driver\Src\stm32f4xx_hal_dma.c 0x00000000   Number         0  stm32f4xx_hal_dma.o ABSOLUTE
    ..\Drivers\STM32F4xx_HAL_Driver\Src\stm32f4xx_hal_dma_ex.c 0x00000000   Number         0  stm32f4xx_hal_dma_ex.o ABSOLUTE
    ..\Drivers\STM32F4xx_HAL_Driver\Src\stm32f4xx_hal_exti.c 0x00000000   Number         0  stm32f4xx_hal_exti.o ABSOLUTE
    ..\Drivers\STM32F4xx_HAL_Driver\Src\stm32f4xx_hal_flash.c 0x00000000   Number         0  stm32f4xx_hal_flash.o ABSOLUTE
    ..\Drivers\STM32F4xx_HAL_Driver\Src\stm32f4xx_hal_flash_ex.c 0x00000000   Number         0  stm32f4xx_hal_flash_ex.o ABSOLUTE
    ..\Drivers\STM32F4xx_HAL_Driver\Src\stm32f4xx_hal_flash_ramfunc.c 0x00000000   Number         0  stm32f4xx_hal_flash_ramfunc.o ABSOLUTE
    ..\Drivers\STM32F4xx_HAL_Driver\Src\stm32f4xx_hal_gpio.c 0x00000000   Number         0  stm32f4xx_hal_gpio.o ABSOLUTE
    ..\Drivers\STM32F4xx_HAL_Driver\Src\stm32f4xx_hal_pwr.c 0x00000000   Number         0  stm32f4xx_hal_pwr.o ABSOLUTE
    ..\Drivers\STM32F4xx_HAL_Driver\Src\stm32f4xx_hal_pwr_ex.c 0x00000000   Number         0  stm32f4xx_hal_pwr_ex.o ABSOLUTE
    ..\Drivers\STM32F4xx_HAL_Driver\Src\stm32f4xx_hal_rcc.c 0x00000000   Number         0  stm32f4xx_hal_rcc.o ABSOLUTE
    ..\Drivers\STM32F4xx_HAL_Driver\Src\stm32f4xx_hal_rcc_ex.c 0x00000000   Number         0  stm32f4xx_hal_rcc_ex.o ABSOLUTE
    ..\Drivers\STM32F4xx_HAL_Driver\Src\stm32f4xx_hal_rtc.c 0x00000000   Number         0  stm32f4xx_hal_rtc.o ABSOLUTE
    ..\Drivers\STM32F4xx_HAL_Driver\Src\stm32f4xx_hal_rtc_ex.c 0x00000000   Number         0  stm32f4xx_hal_rtc_ex.o ABSOLUTE
    ..\Drivers\STM32F4xx_HAL_Driver\Src\stm32f4xx_hal_spi.c 0x00000000   Number         0  stm32f4xx_hal_spi.o ABSOLUTE
    ..\Drivers\STM32F4xx_HAL_Driver\Src\stm32f4xx_hal_tim.c 0x00000000   Number         0  stm32f4xx_hal_tim.o ABSOLUTE
    ..\Drivers\STM32F4xx_HAL_Driver\Src\stm32f4xx_hal_tim_ex.c 0x00000000   Number         0  stm32f4xx_hal_tim_ex.o ABSOLUTE
    ..\Drivers\STM32F4xx_HAL_Driver\Src\stm32f4xx_hal_uart.c 0x00000000   Number         0  stm32f4xx_hal_uart.o ABSOLUTE
    ..\Middlewares\Third_Party\FreeRTOS\Source\CMSIS_RTOS\cmsis_os.c 0x00000000   Number         0  cmsis_os.o ABSOLUTE
    ..\Middlewares\Third_Party\FreeRTOS\Source\portable\RVDS\ARM_CM4F\port.c 0x00000000   Number         0  port.o ABSOLUTE
    ..\Src\freertos.c                        0x00000000   Number         0  freertos.o ABSOLUTE
    ..\Src\gpio.c                            0x00000000   Number         0  gpio.o ABSOLUTE
    ..\Src\main.c                            0x00000000   Number         0  main.o ABSOLUTE
    ..\Src\rtc.c                             0x00000000   Number         0  rtc.o ABSOLUTE
    ..\Src\spi.c                             0x00000000   Number         0  spi.o ABSOLUTE
    ..\Src\stm32f4xx_hal_msp.c               0x00000000   Number         0  stm32f4xx_hal_msp.o ABSOLUTE
    ..\Src\stm32f4xx_hal_timebase_tim.c      0x00000000   Number         0  stm32f4xx_hal_timebase_tim.o ABSOLUTE
    ..\Src\stm32f4xx_it.c                    0x00000000   Number         0  stm32f4xx_it.o ABSOLUTE
    ..\Src\system_stm32f4xx.c                0x00000000   Number         0  system_stm32f4xx.o ABSOLUTE
    ..\Src\tim.c                             0x00000000   Number         0  tim.o ABSOLUTE
    ..\Src\usart.c                           0x00000000   Number         0  usart.o ABSOLUTE
    ..\\API\\Src\\MG200.c                    0x00000000   Number         0  mg200.o ABSOLUTE
    ..\\API\\Src\\W25Q64.c                   0x00000000   Number         0  w25q64.o ABSOLUTE
    ..\\API\\Src\\bs8116.c                   0x00000000   Number         0  bs8116.o ABSOLUTE
    ..\\API\\Src\\font1.c                    0x00000000   Number         0  font1.o ABSOLUTE
    ..\\API\\Src\\font_down.c                0x00000000   Number         0  font_down.o ABSOLUTE
    ..\\API\\Src\\motor.c                    0x00000000   Number         0  motor.o ABSOLUTE
    ..\\API\\Src\\my_ui.c                    0x00000000   Number         0  my_ui.o ABSOLUTE
    ..\\API\\Src\\myiic.c                    0x00000000   Number         0  myiic.o ABSOLUTE
    ..\\API\\Src\\rfid.c                     0x00000000   Number         0  rfid.o ABSOLUTE
    ..\\API\\Src\\shartui.c                  0x00000000   Number         0  shartui.o ABSOLUTE
    ..\\API\\Src\\st7789vm_oled.c            0x00000000   Number         0  st7789vm_oled.o ABSOLUTE
    ..\\API\\Src\\voice.c                    0x00000000   Number         0  voice.o ABSOLUTE
    ..\\API\\Src\\wifi.c                     0x00000000   Number         0  wifi.o ABSOLUTE
    cdcmple.s                                0x00000000   Number         0  cdcmple.o ABSOLUTE
    cdrcmple.s                               0x00000000   Number         0  cdrcmple.o ABSOLUTE
    dc.s                                     0x00000000   Number         0  dc.o ABSOLUTE
    handlers.s                               0x00000000   Number         0  handlers.o ABSOLUTE
    init.s                                   0x00000000   Number         0  init.o ABSOLUTE
    startup_stm32f401xe.s                    0x00000000   Number         0  startup_stm32f401xe.o ABSOLUTE
    RESET                                    0x08000000   Section      404  startup_stm32f401xe.o(RESET)
    .ARM.Collect$$$$00000000                 0x08000194   Section        0  entry.o(.ARM.Collect$$$$00000000)
    .ARM.Collect$$$$00000001                 0x08000194   Section        4  entry2.o(.ARM.Collect$$$$00000001)
    .ARM.Collect$$$$00000004                 0x08000198   Section        4  entry5.o(.ARM.Collect$$$$00000004)
    .ARM.Collect$$$$00000008                 0x0800019c   Section        0  entry7b.o(.ARM.Collect$$$$00000008)
    .ARM.Collect$$$$0000000A                 0x0800019c   Section        0  entry8b.o(.ARM.Collect$$$$0000000A)
    .ARM.Collect$$$$0000000B                 0x0800019c   Section        8  entry9a.o(.ARM.Collect$$$$0000000B)
    .ARM.Collect$$$$0000000D                 0x080001a4   Section        0  entry10a.o(.ARM.Collect$$$$0000000D)
    .ARM.Collect$$$$0000000F                 0x080001a4   Section        0  entry11a.o(.ARM.Collect$$$$0000000F)
    .ARM.Collect$$$$00002712                 0x080001a4   Section        4  entry2.o(.ARM.Collect$$$$00002712)
    __lit__00000000                          0x080001a4   Data           4  entry2.o(.ARM.Collect$$$$00002712)
    .emb_text                                0x080001a8   Section      190  port.o(.emb_text)
    $v0                                      0x080001a8   Number         0  port.o(.emb_text)
    .text                                    0x08000268   Section       36  startup_stm32f401xe.o(.text)
    $v0                                      0x08000268   Number         0  startup_stm32f401xe.o(.text)
    .text                                    0x0800028c   Section        0  uldiv.o(.text)
    .text                                    0x080002ee   Section        0  memcpya.o(.text)
    .text                                    0x08000312   Section        0  memseta.o(.text)
    .text                                    0x08000336   Section        0  strstr.o(.text)
    .text                                    0x0800035a   Section        0  strlen.o(.text)
    .text                                    0x08000368   Section        0  strcmp.o(.text)
    .text                                    0x08000384   Section        0  strcpy.o(.text)
    .text                                    0x08000398   Section        0  __0sscanf.o(.text)
    .text                                    0x080003d0   Section        0  scanf_fp.o(.text)
    _fp_value                                0x080003d1   Thumb Code   296  scanf_fp.o(.text)
    .text                                    0x08000730   Section        0  dfltui.o(.text)
    .text                                    0x0800074a   Section        0  dfixi.o(.text)
    .text                                    0x08000788   Section       48  cdcmple.o(.text)
    .text                                    0x080007b8   Section       48  cdrcmple.o(.text)
    .text                                    0x080007e8   Section        0  uidiv.o(.text)
    .text                                    0x08000814   Section        0  llshl.o(.text)
    .text                                    0x08000832   Section        0  llushr.o(.text)
    .text                                    0x08000854   Section        0  scanf_char.o(.text)
    _scanf_char_input                        0x08000855   Thumb Code    12  scanf_char.o(.text)
    .text                                    0x0800087c   Section        0  _sgetc.o(.text)
    .text                                    0x080008bc   Section        0  depilogue.o(.text)
    .text                                    0x080008bc   Section        0  iusefp.o(.text)
    .text                                    0x08000976   Section        0  dadd.o(.text)
    .text                                    0x08000ac4   Section        0  dmul.o(.text)
    .text                                    0x08000ba8   Section        0  ddiv.o(.text)
    .text                                    0x08000c86   Section        0  dfltul.o(.text)
    .text                                    0x08000c9e   Section        0  dfixul.o(.text)
    .text                                    0x08000cce   Section        0  d2f.o(.text)
    .text                                    0x08000d08   Section       36  init.o(.text)
    .text                                    0x08000d2c   Section        0  llsshr.o(.text)
    .text                                    0x08000d50   Section        0  isspace_c.o(.text)
    .text                                    0x08000d5c   Section        0  _scanf.o(.text)
    .text                                    0x08001088   Section        0  fepilogue.o(.text)
    .text                                    0x080010f8   Section        0  ctype_c.o(.text)
    .text                                    0x08001120   Section        0  __dczerorl2.o(.text)
    i.ASCII_GetFontAddr                      0x08001178   Section        0  font1.o(i.ASCII_GetFontAddr)
    i.Ali_ConnectServe                       0x0800119c   Section        0  wifi.o(i.Ali_ConnectServe)
    i.Analysis_alidata                       0x08001218   Section        0  wifi.o(i.Analysis_alidata)
    i.At24c02PageWrite                       0x080012e0   Section        0  myiic.o(i.At24c02PageWrite)
    i.At24c02ReadBytes                       0x08001332   Section        0  myiic.o(i.At24c02ReadBytes)
    i.At24c02WriteBytes                      0x0800139c   Section        0  myiic.o(i.At24c02WriteBytes)
    i.BS8116ReadKey                          0x080013d8   Section        0  bs8116.o(i.BS8116ReadKey)
    i.BusFault_Handler                       0x080014e0   Section        0  stm32f4xx_it.o(i.BusFault_Handler)
    i.CalulateCRC                            0x080014e2   Section        0  rfid.o(i.CalulateCRC)
    i.CaptureAndExtract                      0x08001548   Section        0  mg200.o(i.CaptureAndExtract)
    i.ClearBitMask                           0x080016b8   Section        0  rfid.o(i.ClearBitMask)
    i.Close_Transmission                     0x080016d0   Section        0  wifi.o(i.Close_Transmission)
    i.Connect_alCloud                        0x080016e8   Section        0  wifi.o(i.Connect_alCloud)
    i.DebugMon_Handler                       0x080017b4   Section        0  stm32f4xx_it.o(i.DebugMon_Handler)
    i.Delay_us                               0x080017b6   Section        0  rfid.o(i.Delay_us)
    i.Delayus                                0x08001860   Section        0  rfid.o(i.Delayus)
    i.Door_Start                             0x08001870   Section        0  motor.o(i.Door_Start)
    i.Enroll                                 0x080018ac   Section        0  mg200.o(i.Enroll)
    i.EraseAll                               0x08001b3c   Section        0  mg200.o(i.EraseAll)
    i.EraseOne                               0x08001ba8   Section        0  mg200.o(i.EraseOne)
    i.Error_Handler                          0x08001c14   Section        0  main.o(i.Error_Handler)
    i.Esp32_Reset                            0x08001c18   Section        0  wifi.o(i.Esp32_Reset)
    i.Esp_8266Config                         0x08001c90   Section        0  wifi.o(i.Esp_8266Config)
    i.Esp_SendStr                            0x08001cec   Section        0  wifi.o(i.Esp_SendStr)
    i.Esp_test                               0x08001d10   Section        0  wifi.o(i.Esp_test)
    i.Esp_wificon                            0x08001d70   Section        0  wifi.o(i.Esp_wificon)
    i.FLASH_SPI_WRData                       0x08001e80   Section        0  w25q64.o(i.FLASH_SPI_WRData)
    i.Find_Str                               0x08001ea0   Section        0  wifi.o(i.Find_Str)
    i.Font_Save_Flash                        0x08001f00   Section        0  font_down.o(i.Font_Save_Flash)
    i.Fontload_Config                        0x08001fc0   Section        0  font_down.o(i.Fontload_Config)
    i.Get_InitData                           0x08002054   Section        0  wifi.o(i.Get_InitData)
    i.HAL_DMA_Abort_IT                       0x080021f8   Section        0  stm32f4xx_hal_dma.o(i.HAL_DMA_Abort_IT)
    i.HAL_Delay                              0x0800221c   Section        0  stm32f4xx_hal.o(i.HAL_Delay)
    i.HAL_GPIO_Init                          0x08002240   Section        0  stm32f4xx_hal_gpio.o(i.HAL_GPIO_Init)
    i.HAL_GPIO_ReadPin                       0x080023d4   Section        0  stm32f4xx_hal_gpio.o(i.HAL_GPIO_ReadPin)
    i.HAL_GPIO_TogglePin                     0x080023de   Section        0  stm32f4xx_hal_gpio.o(i.HAL_GPIO_TogglePin)
    i.HAL_GPIO_WritePin                      0x080023ec   Section        0  stm32f4xx_hal_gpio.o(i.HAL_GPIO_WritePin)
    i.HAL_GetTick                            0x080023f8   Section        0  stm32f4xx_hal.o(i.HAL_GetTick)
    i.HAL_IncTick                            0x08002404   Section        0  stm32f4xx_hal.o(i.HAL_IncTick)
    i.HAL_Init                               0x08002414   Section        0  stm32f4xx_hal.o(i.HAL_Init)
    i.HAL_InitTick                           0x08002448   Section        0  stm32f4xx_hal_timebase_tim.o(i.HAL_InitTick)
    i.HAL_MspInit                            0x080024bc   Section        0  stm32f4xx_hal_msp.o(i.HAL_MspInit)
    i.HAL_NVIC_EnableIRQ                     0x080024f4   Section        0  stm32f4xx_hal_cortex.o(i.HAL_NVIC_EnableIRQ)
    i.HAL_NVIC_SetPriority                   0x08002510   Section        0  stm32f4xx_hal_cortex.o(i.HAL_NVIC_SetPriority)
    i.HAL_NVIC_SetPriorityGrouping           0x08002550   Section        0  stm32f4xx_hal_cortex.o(i.HAL_NVIC_SetPriorityGrouping)
    i.HAL_RCCEx_PeriphCLKConfig              0x08002574   Section        0  stm32f4xx_hal_rcc_ex.o(i.HAL_RCCEx_PeriphCLKConfig)
    i.HAL_RCC_ClockConfig                    0x080026c4   Section        0  stm32f4xx_hal_rcc.o(i.HAL_RCC_ClockConfig)
    i.HAL_RCC_GetClockConfig                 0x080027f8   Section        0  stm32f4xx_hal_rcc.o(i.HAL_RCC_GetClockConfig)
    i.HAL_RCC_GetPCLK1Freq                   0x08002838   Section        0  stm32f4xx_hal_rcc.o(i.HAL_RCC_GetPCLK1Freq)
    i.HAL_RCC_GetPCLK2Freq                   0x08002858   Section        0  stm32f4xx_hal_rcc.o(i.HAL_RCC_GetPCLK2Freq)
    i.HAL_RCC_GetSysClockFreq                0x08002878   Section        0  stm32f4xx_hal_rcc.o(i.HAL_RCC_GetSysClockFreq)
    i.HAL_RCC_OscConfig                      0x080028dc   Section        0  stm32f4xx_hal_rcc.o(i.HAL_RCC_OscConfig)
    i.HAL_RTC_GetDate                        0x08002c38   Section        0  stm32f4xx_hal_rtc.o(i.HAL_RTC_GetDate)
    i.HAL_RTC_GetTime                        0x08002c7c   Section        0  stm32f4xx_hal_rtc.o(i.HAL_RTC_GetTime)
    i.HAL_RTC_Init                           0x08002cd4   Section        0  stm32f4xx_hal_rtc.o(i.HAL_RTC_Init)
    i.HAL_RTC_MspInit                        0x08002d80   Section        0  rtc.o(i.HAL_RTC_MspInit)
    i.HAL_RTC_SetDate                        0x08002d98   Section        0  stm32f4xx_hal_rtc.o(i.HAL_RTC_SetDate)
    i.HAL_RTC_SetTime                        0x08002e60   Section        0  stm32f4xx_hal_rtc.o(i.HAL_RTC_SetTime)
    i.HAL_RTC_WaitForSynchro                 0x08002f4c   Section        0  stm32f4xx_hal_rtc.o(i.HAL_RTC_WaitForSynchro)
    i.HAL_SPI_Init                           0x08002f82   Section        0  stm32f4xx_hal_spi.o(i.HAL_SPI_Init)
    i.HAL_SPI_MspInit                        0x08003004   Section        0  spi.o(i.HAL_SPI_MspInit)
    i.HAL_SPI_TransmitReceive                0x0800311c   Section        0  stm32f4xx_hal_spi.o(i.HAL_SPI_TransmitReceive)
    i.HAL_TIMEx_BreakCallback                0x080032fe   Section        0  stm32f4xx_hal_tim_ex.o(i.HAL_TIMEx_BreakCallback)
    i.HAL_TIMEx_CommutCallback               0x08003300   Section        0  stm32f4xx_hal_tim_ex.o(i.HAL_TIMEx_CommutCallback)
    i.HAL_TIMEx_MasterConfigSynchronization  0x08003304   Section        0  stm32f4xx_hal_tim_ex.o(i.HAL_TIMEx_MasterConfigSynchronization)
    i.HAL_TIM_Base_Init                      0x08003380   Section        0  stm32f4xx_hal_tim.o(i.HAL_TIM_Base_Init)
    i.HAL_TIM_Base_MspInit                   0x080033b8   Section        0  tim.o(i.HAL_TIM_Base_MspInit)
    i.HAL_TIM_Base_Start_IT                  0x080033f4   Section        0  stm32f4xx_hal_tim.o(i.HAL_TIM_Base_Start_IT)
    i.HAL_TIM_ConfigClockSource              0x08003416   Section        0  stm32f4xx_hal_tim.o(i.HAL_TIM_ConfigClockSource)
    i.HAL_TIM_IC_CaptureCallback             0x080034ec   Section        0  stm32f4xx_hal_tim.o(i.HAL_TIM_IC_CaptureCallback)
    i.HAL_TIM_IRQHandler                     0x080034ee   Section        0  stm32f4xx_hal_tim.o(i.HAL_TIM_IRQHandler)
    i.HAL_TIM_OC_DelayElapsedCallback        0x08003654   Section        0  stm32f4xx_hal_tim.o(i.HAL_TIM_OC_DelayElapsedCallback)
    i.HAL_TIM_PWM_PulseFinishedCallback      0x08003656   Section        0  stm32f4xx_hal_tim.o(i.HAL_TIM_PWM_PulseFinishedCallback)
    i.HAL_TIM_PeriodElapsedCallback          0x08003658   Section        0  main.o(i.HAL_TIM_PeriodElapsedCallback)
    i.HAL_TIM_TriggerCallback                0x0800366c   Section        0  stm32f4xx_hal_tim.o(i.HAL_TIM_TriggerCallback)
    i.HAL_UART_ErrorCallback                 0x0800366e   Section        0  stm32f4xx_hal_uart.o(i.HAL_UART_ErrorCallback)
    i.HAL_UART_IRQHandler                    0x08003670   Section        0  stm32f4xx_hal_uart.o(i.HAL_UART_IRQHandler)
    i.HAL_UART_Init                          0x08003784   Section        0  stm32f4xx_hal_uart.o(i.HAL_UART_Init)
    i.HAL_UART_MspInit                       0x080037e8   Section        0  usart.o(i.HAL_UART_MspInit)
    i.HAL_UART_RxCpltCallback                0x08003904   Section        0  stm32f4xx_hal_uart.o(i.HAL_UART_RxCpltCallback)
    i.HAL_UART_Transmit                      0x08003906   Section        0  stm32f4xx_hal_uart.o(i.HAL_UART_Transmit)
    i.HAL_UART_TxCpltCallback                0x080039c0   Section        0  stm32f4xx_hal_uart.o(i.HAL_UART_TxCpltCallback)
    i.HardFault_Handler                      0x080039c2   Section        0  stm32f4xx_it.o(i.HardFault_Handler)
    i.IIC1_Config                            0x080039c4   Section        0  bs8116.o(i.IIC1_Config)
    i.IIC1_Revice_Ack                        0x080039e4   Section        0  bs8116.o(i.IIC1_Revice_Ack)
    i.IIC1_Revice_Byte                       0x08003a28   Section        0  bs8116.o(i.IIC1_Revice_Byte)
    i.IIC1_Send_Ack                          0x08003a84   Section        0  bs8116.o(i.IIC1_Send_Ack)
    i.IIC1_Send_Byte                         0x08003ac4   Section        0  bs8116.o(i.IIC1_Send_Byte)
    i.IIC1_Start                             0x08003b18   Section        0  bs8116.o(i.IIC1_Start)
    i.IIC1_Stop                              0x08003b68   Section        0  bs8116.o(i.IIC1_Stop)
    i.IIC3_Revice_Ack                        0x08003ba0   Section        0  myiic.o(i.IIC3_Revice_Ack)
    i.IIC3_Revice_Byte                       0x08003c00   Section        0  myiic.o(i.IIC3_Revice_Byte)
    i.IIC3_Send_Ack                          0x08003c7c   Section        0  myiic.o(i.IIC3_Send_Ack)
    i.IIC3_Send_Byte                         0x08003ccc   Section        0  myiic.o(i.IIC3_Send_Byte)
    i.IIC3_Start                             0x08003d3c   Section        0  myiic.o(i.IIC3_Start)
    i.IIC3_Stop                              0x08003d88   Section        0  myiic.o(i.IIC3_Stop)
    i.Identificate_Card                      0x08003dc8   Section        0  rfid.o(i.Identificate_Card)
    i.Iic3_config                            0x08003df0   Section        0  myiic.o(i.Iic3_config)
    i.Low                                    0x08003e14   Section        0  voice.o(i.Low)
    i.M500PcdConfigISOType                   0x08003e44   Section        0  rfid.o(i.M500PcdConfigISOType)
    i.MG200Ack                               0x08003e9c   Section        0  mg200.o(i.MG200Ack)
    i.MG200Init                              0x08003f04   Section        0  mg200.o(i.MG200Init)
    i.MG200SendByte                          0x08003f30   Section        0  mg200.o(i.MG200SendByte)
    i.MG200SendCommond                       0x08003f44   Section        0  mg200.o(i.MG200SendCommond)
    i.MX_FREERTOS_Init                       0x08003f80   Section        0  freertos.o(i.MX_FREERTOS_Init)
    i.MX_GPIO_Init                           0x0800402c   Section        0  gpio.o(i.MX_GPIO_Init)
    i.MX_RTC_Init                            0x080041a8   Section        0  rtc.o(i.MX_RTC_Init)
    i.MX_SPI1_Init                           0x08004230   Section        0  spi.o(i.MX_SPI1_Init)
    i.MX_SPI2_Init                           0x08004274   Section        0  spi.o(i.MX_SPI2_Init)
    i.MX_SPI3_Init                           0x080042b8   Section        0  spi.o(i.MX_SPI3_Init)
    i.MX_TIM2_Init                           0x08004300   Section        0  tim.o(i.MX_TIM2_Init)
    i.MX_TIM5_Init                           0x08004364   Section        0  tim.o(i.MX_TIM5_Init)
    i.MX_USART1_UART_Init                    0x080043cc   Section        0  usart.o(i.MX_USART1_UART_Init)
    i.MX_USART2_UART_Init                    0x08004404   Section        0  usart.o(i.MX_USART2_UART_Init)
    i.MX_USART6_UART_Init                    0x0800443c   Section        0  usart.o(i.MX_USART6_UART_Init)
    i.Match1N                                0x08004474   Section        0  mg200.o(i.Match1N)
    i.MemManage_Handler                      0x08004524   Section        0  stm32f4xx_it.o(i.MemManage_Handler)
    i.Mqtt_PublishQs0                        0x08004526   Section        0  wifi.o(i.Mqtt_PublishQs0)
    i.Mqtt_Setsendmode                       0x080045e4   Section        0  wifi.o(i.Mqtt_Setsendmode)
    i.Mqtt_Subscribepack                     0x08004664   Section        0  wifi.o(i.Mqtt_Subscribepack)
    i.Mqtt_del_subscribe                     0x080046f0   Section        0  wifi.o(i.Mqtt_del_subscribe)
    i.Mqtt_send_connectpack                  0x08004768   Section        0  wifi.o(i.Mqtt_send_connectpack)
    i.Mqtt_sendpack                          0x08004854   Section        0  wifi.o(i.Mqtt_sendpack)
    i.NMI_Handler                            0x0800487c   Section        0  stm32f4xx_it.o(i.NMI_Handler)
    i.Open_Transmission                      0x08004880   Section        0  wifi.o(i.Open_Transmission)
    i.PcdAntennaOff                          0x080048fc   Section        0  rfid.o(i.PcdAntennaOff)
    i.PcdAntennaOn                           0x08004904   Section        0  rfid.o(i.PcdAntennaOn)
    i.PcdAnticoll                            0x0800491e   Section        0  rfid.o(i.PcdAnticoll)
    i.PcdComMF522                            0x08004988   Section        0  rfid.o(i.PcdComMF522)
    i.PcdRequest                             0x08004aa8   Section        0  rfid.o(i.PcdRequest)
    i.PcdReset                               0x08004afc   Section        0  rfid.o(i.PcdReset)
    i.PcdSelect                              0x08004b80   Section        0  rfid.o(i.PcdSelect)
    i.RFID_Init                              0x08004be4   Section        0  rfid.o(i.RFID_Init)
    i.RTC_Bcd2ToByte                         0x08004c14   Section        0  stm32f4xx_hal_rtc.o(i.RTC_Bcd2ToByte)
    i.RTC_ByteToBcd2                         0x08004c26   Section        0  stm32f4xx_hal_rtc.o(i.RTC_ByteToBcd2)
    i.RTC_EnterInitMode                      0x08004c3c   Section        0  stm32f4xx_hal_rtc.o(i.RTC_EnterInitMode)
    i.ReadRawRC                              0x08004c78   Section        0  rfid.o(i.ReadRawRC)
    i.Reset_RC522                            0x08004cb4   Section        0  rfid.o(i.Reset_RC522)
    i.Ret_key_value                          0x08004cc8   Section        0  bs8116.o(i.Ret_key_value)
    i.SPI_EndRxTxTransaction                 0x08004dc4   Section        0  stm32f4xx_hal_spi.o(i.SPI_EndRxTxTransaction)
    SPI_EndRxTxTransaction                   0x08004dc5   Thumb Code    80  stm32f4xx_hal_spi.o(i.SPI_EndRxTxTransaction)
    i.SPI_WaitFlagStateUntilTimeout          0x08004e1c   Section        0  stm32f4xx_hal_spi.o(i.SPI_WaitFlagStateUntilTimeout)
    SPI_WaitFlagStateUntilTimeout            0x08004e1d   Thumb Code   148  stm32f4xx_hal_spi.o(i.SPI_WaitFlagStateUntilTimeout)
    i.SetBitMask                             0x08004eb0   Section        0  rfid.o(i.SetBitMask)
    i.Spi3_wr_data                           0x08004ec8   Section        0  rfid.o(i.Spi3_wr_data)
    i.StartDefaultTask                       0x08004eec   Section        0  freertos.o(i.StartDefaultTask)
    i.StartTask02                            0x08004ef4   Section        0  freertos.o(i.StartTask02)
    i.StartTask03                            0x08004f08   Section        0  freertos.o(i.StartTask03)
    i.StartTask04                            0x08004f28   Section        0  freertos.o(i.StartTask04)
    i.StartTask05                            0x08004fa0   Section        0  freertos.o(i.StartTask05)
    i.StartTask06                            0x08005010   Section        0  freertos.o(i.StartTask06)
    i.StartTask07                            0x0800501c   Section        0  freertos.o(i.StartTask07)
    i.State_ui                               0x08005044   Section        0  my_ui.o(i.State_ui)
    i.SysTick_Handler                        0x08005054   Section        0  port.o(i.SysTick_Handler)
    i.SystemClock_Config                     0x08005080   Section        0  main.o(i.SystemClock_Config)
    i.SystemInit                             0x08005120   Section        0  system_stm32f4xx.o(i.SystemInit)
    i.TIM4_IRQHandler                        0x0800513c   Section        0  stm32f4xx_it.o(i.TIM4_IRQHandler)
    i.TIM_Base_SetConfig                     0x08005148   Section        0  stm32f4xx_hal_tim.o(i.TIM_Base_SetConfig)
    i.TIM_ETR_SetConfig                      0x080051e0   Section        0  stm32f4xx_hal_tim.o(i.TIM_ETR_SetConfig)
    i.TIM_ITRx_SetConfig                     0x080051f4   Section        0  stm32f4xx_hal_tim.o(i.TIM_ITRx_SetConfig)
    TIM_ITRx_SetConfig                       0x080051f5   Thumb Code    16  stm32f4xx_hal_tim.o(i.TIM_ITRx_SetConfig)
    i.TIM_TI1_ConfigInputStage               0x08005204   Section        0  stm32f4xx_hal_tim.o(i.TIM_TI1_ConfigInputStage)
    TIM_TI1_ConfigInputStage                 0x08005205   Thumb Code    34  stm32f4xx_hal_tim.o(i.TIM_TI1_ConfigInputStage)
    i.TIM_TI2_ConfigInputStage               0x08005226   Section        0  stm32f4xx_hal_tim.o(i.TIM_TI2_ConfigInputStage)
    TIM_TI2_ConfigInputStage                 0x08005227   Thumb Code    36  stm32f4xx_hal_tim.o(i.TIM_TI2_ConfigInputStage)
    i.UART_DMAAbortOnError                   0x0800524a   Section        0  stm32f4xx_hal_uart.o(i.UART_DMAAbortOnError)
    UART_DMAAbortOnError                     0x0800524b   Thumb Code    16  stm32f4xx_hal_uart.o(i.UART_DMAAbortOnError)
    i.UART_EndRxTransfer                     0x0800525a   Section        0  stm32f4xx_hal_uart.o(i.UART_EndRxTransfer)
    UART_EndRxTransfer                       0x0800525b   Thumb Code    28  stm32f4xx_hal_uart.o(i.UART_EndRxTransfer)
    i.UART_Receive_IT                        0x08005276   Section        0  stm32f4xx_hal_uart.o(i.UART_Receive_IT)
    UART_Receive_IT                          0x08005277   Thumb Code   150  stm32f4xx_hal_uart.o(i.UART_Receive_IT)
    i.UART_SetConfig                         0x0800530c   Section        0  stm32f4xx_hal_uart.o(i.UART_SetConfig)
    UART_SetConfig                           0x0800530d   Thumb Code   286  stm32f4xx_hal_uart.o(i.UART_SetConfig)
    i.UART_Transmit_IT                       0x08005434   Section        0  stm32f4xx_hal_uart.o(i.UART_Transmit_IT)
    UART_Transmit_IT                         0x08005435   Thumb Code    98  stm32f4xx_hal_uart.o(i.UART_Transmit_IT)
    i.UART_WaitOnFlagUntilTimeout            0x08005496   Section        0  stm32f4xx_hal_uart.o(i.UART_WaitOnFlagUntilTimeout)
    UART_WaitOnFlagUntilTimeout              0x08005497   Thumb Code   100  stm32f4xx_hal_uart.o(i.UART_WaitOnFlagUntilTimeout)
    i.USART1_IRQHandler                      0x080054fc   Section        0  stm32f4xx_it.o(i.USART1_IRQHandler)
    i.USART2_IRQHandler                      0x08005570   Section        0  stm32f4xx_it.o(i.USART2_IRQHandler)
    i.USART6_IRQHandler                      0x080055e4   Section        0  stm32f4xx_it.o(i.USART6_IRQHandler)
    i.UsageFault_Handler                     0x08005628   Section        0  stm32f4xx_it.o(i.UsageFault_Handler)
    i.VoiceSendData                          0x0800562c   Section        0  voice.o(i.VoiceSendData)
    i.W25Q64ReadBytes                        0x080056ac   Section        0  w25q64.o(i.W25Q64ReadBytes)
    i.WriteRawRC                             0x08005700   Section        0  rfid.o(i.WriteRawRC)
    i.__0printf                              0x0800573c   Section        0  printfa.o(i.__0printf)
    i.__0sprintf                             0x0800575c   Section        0  printfa.o(i.__0sprintf)
    i.__NVIC_SetPriority                     0x08005784   Section        0  stm32f4xx_hal_cortex.o(i.__NVIC_SetPriority)
    __NVIC_SetPriority                       0x08005785   Thumb Code    32  stm32f4xx_hal_cortex.o(i.__NVIC_SetPriority)
    i.__free$realloc                         0x080057a4   Section        0  mallocr.o(i.__free$realloc)
    i.__malloc$realloc                       0x08005800   Section        0  mallocr.o(i.__malloc$realloc)
    i.__scatterload_copy                     0x08005850   Section       14  handlers.o(i.__scatterload_copy)
    i.__scatterload_null                     0x0800585e   Section        2  handlers.o(i.__scatterload_null)
    i.__scatterload_zeroinit                 0x08005860   Section       14  handlers.o(i.__scatterload_zeroinit)
    i._fp_digits                             0x08005870   Section        0  printfa.o(i._fp_digits)
    _fp_digits                               0x08005871   Thumb Code   366  printfa.o(i._fp_digits)
    i._is_digit                              0x080059f4   Section        0  scanf_fp.o(i._is_digit)
    i._printf_core                           0x08005a04   Section        0  printfa.o(i._printf_core)
    _printf_core                             0x08005a05   Thumb Code  1744  printfa.o(i._printf_core)
    i._printf_post_padding                   0x080060e0   Section        0  printfa.o(i._printf_post_padding)
    _printf_post_padding                     0x080060e1   Thumb Code    36  printfa.o(i._printf_post_padding)
    i._printf_pre_padding                    0x08006104   Section        0  printfa.o(i._printf_pre_padding)
    _printf_pre_padding                      0x08006105   Thumb Code    46  printfa.o(i._printf_pre_padding)
    i._sputc                                 0x08006132   Section        0  printfa.o(i._sputc)
    _sputc                                   0x08006133   Thumb Code    10  printfa.o(i._sputc)
    i.add_item_to_array                      0x0800613c   Section        0  cjson.o(i.add_item_to_array)
    add_item_to_array                        0x0800613d   Thumb Code    34  cjson.o(i.add_item_to_array)
    i.add_item_to_object                     0x0800615e   Section        0  cjson.o(i.add_item_to_object)
    add_item_to_object                       0x0800615f   Thumb Code    86  cjson.o(i.add_item_to_object)
    i.admin_ui_function                      0x080061b4   Section        0  my_ui.o(i.admin_ui_function)
    i.cJSON_AddItemToObject                  0x08006490   Section        0  cjson.o(i.cJSON_AddItemToObject)
    i.cJSON_AddNumberToObject                0x080064a4   Section        0  cjson.o(i.cJSON_AddNumberToObject)
    i.cJSON_AddStringToObject                0x080064d4   Section        0  cjson.o(i.cJSON_AddStringToObject)
    i.cJSON_CreateNumber                     0x08006504   Section        0  cjson.o(i.cJSON_CreateNumber)
    i.cJSON_CreateObject                     0x0800657c   Section        0  cjson.o(i.cJSON_CreateObject)
    i.cJSON_CreateString                     0x08006594   Section        0  cjson.o(i.cJSON_CreateString)
    i.cJSON_Delete                           0x080065c4   Section        0  cjson.o(i.cJSON_Delete)
    i.cJSON_New_Item                         0x0800660c   Section        0  cjson.o(i.cJSON_New_Item)
    cJSON_New_Item                           0x0800660d   Thumb Code    22  cjson.o(i.cJSON_New_Item)
    i.cJSON_Print                            0x08006624   Section        0  cjson.o(i.cJSON_Print)
    i.cJSON_strdup                           0x08006630   Section        0  cjson.o(i.cJSON_strdup)
    cJSON_strdup                             0x08006631   Thumb Code    40  cjson.o(i.cJSON_strdup)
    i.change_admin_ui_function               0x08006658   Section        0  shartui.o(i.change_admin_ui_function)
    i.change_user_ui_function                0x080067f4   Section        0  shartui.o(i.change_user_ui_function)
    i.del_all_finger_function                0x08006974   Section        0  shartui.o(i.del_all_finger_function)
    i.del_card_ui_function                   0x08006a88   Section        0  shartui.o(i.del_card_ui_function)
    i.del_finger_ui_function                 0x08006c28   Section        0  shartui.o(i.del_finger_ui_function)
    i.ensure                                 0x08006d6c   Section        0  cjson.o(i.ensure)
    ensure                                   0x08006d6d   Thumb Code   138  cjson.o(i.ensure)
    i.fputc                                  0x08006df8   Section        0  usart.o(i.fputc)
    i.internal_alloc                         0x08006e10   Section        0  mallocr.o(i.internal_alloc)
    internal_alloc                           0x08006e11   Thumb Code    76  mallocr.o(i.internal_alloc)
    i.main                                   0x08006e60   Section        0  main.o(i.main)
    i.main_ui_function                       0x08006f38   Section        0  my_ui.o(i.main_ui_function)
    i.makeFreeRtosPriority                   0x080070e0   Section        0  cmsis_os.o(i.makeFreeRtosPriority)
    makeFreeRtosPriority                     0x080070e1   Thumb Code    12  cmsis_os.o(i.makeFreeRtosPriority)
    i.my_delay_nms                           0x080070ec   Section        0  bs8116.o(i.my_delay_nms)
    i.my_delay_nus                           0x0800712c   Section        0  bs8116.o(i.my_delay_nus)
    i.my_json_mode                           0x08007168   Section        0  wifi.o(i.my_json_mode)
    i.my_strcmp                              0x080072e8   Section        0  my_ui.o(i.my_strcmp)
    i.osDelay                                0x08007304   Section        0  cmsis_os.o(i.osDelay)
    i.osKernelStart                          0x08007312   Section        0  cmsis_os.o(i.osKernelStart)
    i.osThreadCreate                         0x0800731c   Section        0  cmsis_os.o(i.osThreadCreate)
    i.print                                  0x08007370   Section        0  cjson.o(i.print)
    print                                    0x08007371   Thumb Code   152  cjson.o(i.print)
    i.print_array                            0x08007408   Section        0  cjson.o(i.print_array)
    print_array                              0x08007409   Thumb Code   150  cjson.o(i.print_array)
    i.print_number                           0x080074a0   Section        0  cjson.o(i.print_number)
    print_number                             0x080074a1   Thumb Code   148  cjson.o(i.print_number)
    i.print_object                           0x08007548   Section        0  cjson.o(i.print_object)
    print_object                             0x08007549   Thumb Code   320  cjson.o(i.print_object)
    i.print_string_ptr                       0x08007688   Section        0  cjson.o(i.print_string_ptr)
    print_string_ptr                         0x08007689   Thumb Code   258  cjson.o(i.print_string_ptr)
    i.print_value                            0x08007798   Section        0  cjson.o(i.print_value)
    print_value                              0x08007799   Thumb Code   182  cjson.o(i.print_value)
    i.prvAddCurrentTaskToDelayedList         0x08007868   Section        0  tasks.o(i.prvAddCurrentTaskToDelayedList)
    prvAddCurrentTaskToDelayedList           0x08007869   Thumb Code   102  tasks.o(i.prvAddCurrentTaskToDelayedList)
    i.prvAddNewTaskToReadyList               0x080078d8   Section        0  tasks.o(i.prvAddNewTaskToReadyList)
    prvAddNewTaskToReadyList                 0x080078d9   Thumb Code   194  tasks.o(i.prvAddNewTaskToReadyList)
    i.prvDeleteTCB                           0x080079a8   Section        0  tasks.o(i.prvDeleteTCB)
    prvDeleteTCB                             0x080079a9   Thumb Code    52  tasks.o(i.prvDeleteTCB)
    i.prvHeapInit                            0x080079dc   Section        0  heap_4.o(i.prvHeapInit)
    prvHeapInit                              0x080079dd   Thumb Code    66  heap_4.o(i.prvHeapInit)
    i.prvIdleTask                            0x08007a28   Section        0  tasks.o(i.prvIdleTask)
    prvIdleTask                              0x08007a29   Thumb Code    82  tasks.o(i.prvIdleTask)
    i.prvInitialiseNewTask                   0x08007a88   Section        0  tasks.o(i.prvInitialiseNewTask)
    prvInitialiseNewTask                     0x08007a89   Thumb Code   152  tasks.o(i.prvInitialiseNewTask)
    i.prvInsertBlockIntoFreeList             0x08007b20   Section        0  heap_4.o(i.prvInsertBlockIntoFreeList)
    prvInsertBlockIntoFreeList               0x08007b21   Thumb Code    72  heap_4.o(i.prvInsertBlockIntoFreeList)
    i.prvResetNextTaskUnblockTime            0x08007b6c   Section        0  tasks.o(i.prvResetNextTaskUnblockTime)
    prvResetNextTaskUnblockTime              0x08007b6d   Thumb Code    26  tasks.o(i.prvResetNextTaskUnblockTime)
    i.prvTaskExitError                       0x08007b8c   Section        0  port.o(i.prvTaskExitError)
    prvTaskExitError                         0x08007b8d   Thumb Code    36  port.o(i.prvTaskExitError)
    i.pvPortMalloc                           0x08007bb4   Section        0  heap_4.o(i.pvPortMalloc)
    i.pxPortInitialiseStack                  0x08007c8c   Section        0  port.o(i.pxPortInitialiseStack)
    i.realloc                                0x08007cb8   Section        0  mallocr.o(i.realloc)
    i.registr_card_ui_function               0x08007d24   Section        0  shartui.o(i.registr_card_ui_function)
    i.registr_finger_ui_function             0x08007eac   Section        0  shartui.o(i.registr_finger_ui_function)
    i.reset_ui_function                      0x08007fb4   Section        0  shartui.o(i.reset_ui_function)
    i.sFLASH_EraseSector                     0x08008104   Section        0  w25q64.o(i.sFLASH_EraseSector)
    i.sFLASH_ReadBuffer                      0x0800814c   Section        0  w25q64.o(i.sFLASH_ReadBuffer)
    i.sFLASH_SendByte                        0x080081a4   Section        0  w25q64.o(i.sFLASH_SendByte)
    i.sFLASH_WaitForWriteEnd                 0x080081a8   Section        0  w25q64.o(i.sFLASH_WaitForWriteEnd)
    i.sFLASH_WriteBuffer                     0x080081d8   Section        0  w25q64.o(i.sFLASH_WriteBuffer)
    i.sFLASH_WriteEnable                     0x08008294   Section        0  w25q64.o(i.sFLASH_WriteEnable)
    i.sFLASH_WritePage                       0x080082bc   Section        0  w25q64.o(i.sFLASH_WritePage)
    i.set_voice_task                         0x08008318   Section        0  shartui.o(i.set_voice_task)
    i.st7789vm_clear_display                 0x080084d8   Section        0  st7789vm_oled.o(i.st7789vm_clear_display)
    i.st7789vm_delay_microsecond             0x0800850e   Section        0  st7789vm_oled.o(i.st7789vm_delay_microsecond)
    st7789vm_delay_microsecond               0x0800850f   Thumb Code    20  st7789vm_oled.o(i.st7789vm_delay_microsecond)
    i.st7789vm_display_aciss                 0x08008524   Section        0  st7789vm_oled.o(i.st7789vm_display_aciss)
    i.st7789vm_display_hz                    0x08008594   Section        0  st7789vm_oled.o(i.st7789vm_display_hz)
    i.st7789vm_display_picture               0x080086f8   Section        0  st7789vm_oled.o(i.st7789vm_display_picture)
    i.st7789vm_display_point                 0x08008732   Section        0  st7789vm_oled.o(i.st7789vm_display_point)
    st7789vm_display_point                   0x08008733   Thumb Code    22  st7789vm_oled.o(i.st7789vm_display_point)
    i.st7789vm_display_string                0x08008748   Section        0  st7789vm_oled.o(i.st7789vm_display_string)
    i.st7789vm_init                          0x08008794   Section        0  st7789vm_oled.o(i.st7789vm_init)
    i.st7789vm_set_position                  0x08008960   Section        0  st7789vm_oled.o(i.st7789vm_set_position)
    st7789vm_set_position                    0x08008961   Thumb Code    58  st7789vm_oled.o(i.st7789vm_set_position)
    i.st7789vm_spi_read_write_byte_data      0x0800899c   Section        0  st7789vm_oled.o(i.st7789vm_spi_read_write_byte_data)
    st7789vm_spi_read_write_byte_data        0x0800899d   Thumb Code    32  st7789vm_oled.o(i.st7789vm_spi_read_write_byte_data)
    i.st7789vm_write_command                 0x080089c0   Section        0  st7789vm_oled.o(i.st7789vm_write_command)
    st7789vm_write_command                   0x080089c1   Thumb Code    50  st7789vm_oled.o(i.st7789vm_write_command)
    i.st7789vm_write_command_parameter       0x080089f8   Section        0  st7789vm_oled.o(i.st7789vm_write_command_parameter)
    st7789vm_write_command_parameter         0x080089f9   Thumb Code    48  st7789vm_oled.o(i.st7789vm_write_command_parameter)
    i.st7789vm_write_data                    0x08008a2c   Section        0  st7789vm_oled.o(i.st7789vm_write_data)
    st7789vm_write_data                      0x08008a2d   Thumb Code    54  st7789vm_oled.o(i.st7789vm_write_data)
    i.update_offset                          0x08008a68   Section        0  cjson.o(i.update_offset)
    update_offset                            0x08008a69   Thumb Code    28  cjson.o(i.update_offset)
    i.utils_hb2hex                           0x08008a84   Section        0  utils_md5.o(i.utils_hb2hex)
    i.utils_hmac_sha1                        0x08008a96   Section        0  utils_hmac.o(i.utils_hmac_sha1)
    i.utils_sha1_finish                      0x08008b6c   Section        0  utils_sha1.o(i.utils_sha1_finish)
    i.utils_sha1_init                        0x08008c44   Section        0  utils_sha1.o(i.utils_sha1_init)
    i.utils_sha1_process                     0x08008c4c   Section        0  utils_sha1.o(i.utils_sha1_process)
    i.utils_sha1_starts                      0x08009e8c   Section        0  utils_sha1.o(i.utils_sha1_starts)
    i.utils_sha1_update                      0x08009eb8   Section        0  utils_sha1.o(i.utils_sha1_update)
    i.uxListRemove                           0x08009f28   Section        0  list.o(i.uxListRemove)
    i.vApplicationGetIdleTaskMemory          0x08009f50   Section        0  freertos.o(i.vApplicationGetIdleTaskMemory)
    i.vListInitialise                        0x08009f64   Section        0  list.o(i.vListInitialise)
    i.vListInitialiseItem                    0x08009f7a   Section        0  list.o(i.vListInitialiseItem)
    i.vListInsert                            0x08009f80   Section        0  list.o(i.vListInsert)
    i.vListInsertEnd                         0x08009fb0   Section        0  list.o(i.vListInsertEnd)
    i.vPortEnterCritical                     0x08009fc8   Section        0  port.o(i.vPortEnterCritical)
    i.vPortExitCritical                      0x0800a008   Section        0  port.o(i.vPortExitCritical)
    i.vPortFree                              0x0800a030   Section        0  heap_4.o(i.vPortFree)
    i.vPortSetupTimerInterrupt               0x0800a08c   Section        0  port.o(i.vPortSetupTimerInterrupt)
    i.vTaskDelay                             0x0800a0b0   Section        0  tasks.o(i.vTaskDelay)
    i.vTaskStartScheduler                    0x0800a0fc   Section        0  tasks.o(i.vTaskStartScheduler)
    i.vTaskSuspendAll                        0x0800a168   Section        0  tasks.o(i.vTaskSuspendAll)
    i.vTaskSwitchContext                     0x0800a178   Section        0  tasks.o(i.vTaskSwitchContext)
    i.voice_sendcmd                          0x0800a1d4   Section        0  voice.o(i.voice_sendcmd)
    i.xPortStartScheduler                    0x0800a1f8   Section        0  port.o(i.xPortStartScheduler)
    i.xTaskCreate                            0x0800a2ec   Section        0  tasks.o(i.xTaskCreate)
    i.xTaskCreateStatic                      0x0800a346   Section        0  tasks.o(i.xTaskCreateStatic)
    i.xTaskIncrementTick                     0x0800a39c   Section        0  tasks.o(i.xTaskIncrementTick)
    i.xTaskResumeAll                         0x0800a464   Section        0  tasks.o(i.xTaskResumeAll)
    .constdata                               0x0800a528   Section      196  freertos.o(.constdata)
    .constdata                               0x0800a5ec   Section       16  system_stm32f4xx.o(.constdata)
    .constdata                               0x0800a5fc   Section        8  system_stm32f4xx.o(.constdata)
    .constdata                               0x0800a604   Section       64  utils_sha1.o(.constdata)
    iot_sha1_padding                         0x0800a604   Data          64  utils_sha1.o(.constdata)
    .constdata                               0x0800a644   Section    115208  my_ui.o(.constdata)
    .constdata                               0x0802684c   Section       64  ctype_c.o(.constdata)
    .conststring                             0x0802688c   Section      100  freertos.o(.conststring)
    .data                                    0x20000000   Section       28  freertos.o(.data)
    .data                                    0x2000001c   Section        4  rtc.o(.data)
    .data                                    0x20000020   Section       12  stm32f4xx_hal.o(.data)
    .data                                    0x2000002c   Section        4  system_stm32f4xx.o(.data)
    .data                                    0x20000030   Section        3  font_down.o(.data)
    .data                                    0x20000033   Section       96  font1.o(.data)
    .data                                    0x20000093   Section     1520  font1.o(.data)
    .data                                    0x20000683   Section        5  rfid.o(.data)
    .data                                    0x20000688   Section        8  rfid.o(.data)
    .data                                    0x20000690   Section       14  my_ui.o(.data)
    .data                                    0x2000069e   Section        4  shartui.o(.data)
    .data                                    0x200006a4   Section       20  cjson.o(.data)
    global_error                             0x200006a4   Data           8  cjson.o(.data)
    global_hooks                             0x200006ac   Data          12  cjson.o(.data)
    .data                                    0x200006b8   Section       60  tasks.o(.data)
    pxDelayedTaskList                        0x200006bc   Data           4  tasks.o(.data)
    pxOverflowDelayedTaskList                0x200006c0   Data           4  tasks.o(.data)
    uxDeletedTasksWaitingCleanUp             0x200006c4   Data           4  tasks.o(.data)
    uxCurrentNumberOfTasks                   0x200006c8   Data           4  tasks.o(.data)
    xTickCount                               0x200006cc   Data           4  tasks.o(.data)
    uxTopReadyPriority                       0x200006d0   Data           4  tasks.o(.data)
    xSchedulerRunning                        0x200006d4   Data           4  tasks.o(.data)
    uxPendedTicks                            0x200006d8   Data           4  tasks.o(.data)
    xYieldPending                            0x200006dc   Data           4  tasks.o(.data)
    xNumOfOverflows                          0x200006e0   Data           4  tasks.o(.data)
    uxTaskNumber                             0x200006e4   Data           4  tasks.o(.data)
    xNextTaskUnblockTime                     0x200006e8   Data           4  tasks.o(.data)
    xIdleTaskHandle                          0x200006ec   Data           4  tasks.o(.data)
    uxSchedulerSuspended                     0x200006f0   Data           4  tasks.o(.data)
    .data                                    0x200006f4   Section       24  heap_4.o(.data)
    pxEnd                                    0x200006f4   Data           4  heap_4.o(.data)
    xFreeBytesRemaining                      0x200006f8   Data           4  heap_4.o(.data)
    xMinimumEverFreeBytesRemaining           0x200006fc   Data           4  heap_4.o(.data)
    xBlockAllocatedBit                       0x20000700   Data           4  heap_4.o(.data)
    xStart                                   0x20000704   Data           8  heap_4.o(.data)
    .data                                    0x2000070c   Section       12  port.o(.data)
    ucMaxSysCallPriority                     0x2000070c   Data           1  port.o(.data)
    uxCriticalNesting                        0x20000710   Data           4  port.o(.data)
    ulMaxPRIGROUPValue                       0x20000714   Data           4  port.o(.data)
    .data                                    0x20000718   Section        4  stdout.o(.data)
    .data                                    0x2000071c   Section        4  mvars.o(.data)
    .data                                    0x20000720   Section        4  mvars.o(.data)
    .bss                                     0x20000724   Section      596  freertos.o(.bss)
    xIdleTaskTCBBuffer                       0x20000724   Data          84  freertos.o(.bss)
    xIdleStack                               0x20000778   Data         512  freertos.o(.bss)
    .bss                                     0x20000978   Section       20  rtc.o(.bss)
    .bss                                     0x2000098c   Section       32  rtc.o(.bss)
    .bss                                     0x200009ac   Section      264  spi.o(.bss)
    .bss                                     0x20000ab4   Section      128  tim.o(.bss)
    .bss                                     0x20000b34   Section      192  usart.o(.bss)
    .bss                                     0x20000bf4   Section       64  stm32f4xx_hal_timebase_tim.o(.bss)
    .bss                                     0x20000c34   Section     8198  font_down.o(.bss)
    .bss                                     0x20002c3a   Section       12  mg200.o(.bss)
    .bss                                     0x20002c46   Section      778  wifi.o(.bss)
    .bss                                     0x20002f50   Section      240  tasks.o(.bss)
    pxReadyTasksLists                        0x20002f50   Data         140  tasks.o(.bss)
    xDelayedTaskList1                        0x20002fdc   Data          20  tasks.o(.bss)
    xDelayedTaskList2                        0x20002ff0   Data          20  tasks.o(.bss)
    xPendingReadyList                        0x20003004   Data          20  tasks.o(.bss)
    xTasksWaitingTermination                 0x20003018   Data          20  tasks.o(.bss)
    xSuspendedTaskList                       0x2000302c   Data          20  tasks.o(.bss)
    .bss                                     0x20003040   Section    15360  heap_4.o(.bss)
    ucHeap                                   0x20003040   Data       15360  heap_4.o(.bss)
    HEAP                                     0x20006c40   Section     5120  startup_stm32f401xe.o(HEAP)
    STACK                                    0x20008040   Section    10240  startup_stm32f401xe.o(STACK)

    Global Symbols

    Symbol Name                              Value     Ov Type        Size  Object(Section)

    BuildAttributes$$THM_ISAv4$E$P$D$K$B$S$7EM$VFPi3$EXTD16$VFPS$VFMA$PE$A:L22UL41UL21$X:L11$S22US41US21$IEEE1$IW$USESV6$~STKCKD$USESV7$~SHL$OTIME$ROPI$IEEEJ$EBA8$MICROLIB$REQ8$PRES8$EABIv2 0x00000000   Number         0  anon$$obj.o ABSOLUTE
    __ARM_use_no_argv                        0x00000000   Number         0  main.o ABSOLUTE
    _printf_a                                0x00000000   Number         0  stubs.o ABSOLUTE
    _printf_c                                0x00000000   Number         0  stubs.o ABSOLUTE
    _printf_charcount                        0x00000000   Number         0  stubs.o ABSOLUTE
    _printf_d                                0x00000000   Number         0  stubs.o ABSOLUTE
    _printf_e                                0x00000000   Number         0  stubs.o ABSOLUTE
    _printf_f                                0x00000000   Number         0  stubs.o ABSOLUTE
    _printf_flags                            0x00000000   Number         0  stubs.o ABSOLUTE
    _printf_fp_dec                           0x00000000   Number         0  stubs.o ABSOLUTE
    _printf_fp_hex                           0x00000000   Number         0  stubs.o ABSOLUTE
    _printf_g                                0x00000000   Number         0  stubs.o ABSOLUTE
    _printf_i                                0x00000000   Number         0  stubs.o ABSOLUTE
    _printf_int_dec                          0x00000000   Number         0  stubs.o ABSOLUTE
    _printf_l                                0x00000000   Number         0  stubs.o ABSOLUTE
    _printf_lc                               0x00000000   Number         0  stubs.o ABSOLUTE
    _printf_ll                               0x00000000   Number         0  stubs.o ABSOLUTE
    _printf_lld                              0x00000000   Number         0  stubs.o ABSOLUTE
    _printf_lli                              0x00000000   Number         0  stubs.o ABSOLUTE
    _printf_llo                              0x00000000   Number         0  stubs.o ABSOLUTE
    _printf_llu                              0x00000000   Number         0  stubs.o ABSOLUTE
    _printf_llx                              0x00000000   Number         0  stubs.o ABSOLUTE
    _printf_longlong_dec                     0x00000000   Number         0  stubs.o ABSOLUTE
    _printf_longlong_hex                     0x00000000   Number         0  stubs.o ABSOLUTE
    _printf_longlong_oct                     0x00000000   Number         0  stubs.o ABSOLUTE
    _printf_ls                               0x00000000   Number         0  stubs.o ABSOLUTE
    _printf_mbtowc                           0x00000000   Number         0  stubs.o ABSOLUTE
    _printf_n                                0x00000000   Number         0  stubs.o ABSOLUTE
    _printf_o                                0x00000000   Number         0  stubs.o ABSOLUTE
    _printf_p                                0x00000000   Number         0  stubs.o ABSOLUTE
    _printf_percent                          0x00000000   Number         0  stubs.o ABSOLUTE
    _printf_pre_padding                      0x00000000   Number         0  stubs.o ABSOLUTE
    _printf_return_value                     0x00000000   Number         0  stubs.o ABSOLUTE
    _printf_s                                0x00000000   Number         0  stubs.o ABSOLUTE
    _printf_sizespec                         0x00000000   Number         0  stubs.o ABSOLUTE
    _printf_str                              0x00000000   Number         0  stubs.o ABSOLUTE
    _printf_truncate_signed                  0x00000000   Number         0  stubs.o ABSOLUTE
    _printf_truncate_unsigned                0x00000000   Number         0  stubs.o ABSOLUTE
    _printf_u                                0x00000000   Number         0  stubs.o ABSOLUTE
    _printf_wc                               0x00000000   Number         0  stubs.o ABSOLUTE
    _printf_wctomb                           0x00000000   Number         0  stubs.o ABSOLUTE
    _printf_widthprec                        0x00000000   Number         0  stubs.o ABSOLUTE
    _printf_x                                0x00000000   Number         0  stubs.o ABSOLUTE
    __cpp_initialize__aeabi_                  - Undefined Weak Reference
    __cxa_finalize                            - Undefined Weak Reference
    _clock_init                               - Undefined Weak Reference
    _microlib_exit                            - Undefined Weak Reference
    _scanf_int                                - Undefined Weak Reference
    _scanf_longlong                           - Undefined Weak Reference
    _scanf_string                             - Undefined Weak Reference
    __Vectors_Size                           0x00000194   Number         0  startup_stm32f401xe.o ABSOLUTE
    __Vectors                                0x08000000   Data           4  startup_stm32f401xe.o(RESET)
    __Vectors_End                            0x08000194   Data           0  startup_stm32f401xe.o(RESET)
    __main                                   0x08000195   Thumb Code     0  entry.o(.ARM.Collect$$$$00000000)
    _main_stk                                0x08000195   Thumb Code     0  entry2.o(.ARM.Collect$$$$00000001)
    _main_scatterload                        0x08000199   Thumb Code     0  entry5.o(.ARM.Collect$$$$00000004)
    __main_after_scatterload                 0x0800019d   Thumb Code     0  entry5.o(.ARM.Collect$$$$00000004)
    _main_clock                              0x0800019d   Thumb Code     0  entry7b.o(.ARM.Collect$$$$00000008)
    _main_cpp_init                           0x0800019d   Thumb Code     0  entry8b.o(.ARM.Collect$$$$0000000A)
    _main_init                               0x0800019d   Thumb Code     0  entry9a.o(.ARM.Collect$$$$0000000B)
    __rt_final_cpp                           0x080001a5   Thumb Code     0  entry10a.o(.ARM.Collect$$$$0000000D)
    __rt_final_exit                          0x080001a5   Thumb Code     0  entry11a.o(.ARM.Collect$$$$0000000F)
    SVC_Handler                              0x080001a9   Thumb Code    28  port.o(.emb_text)
    __asm___6_port_c_39a90d8d__prvStartFirstTask 0x080001c9   Thumb Code    36  port.o(.emb_text)
    __asm___6_port_c_39a90d8d__prvEnableVFP  0x080001f1   Thumb Code    16  port.o(.emb_text)
    PendSV_Handler                           0x08000205   Thumb Code    88  port.o(.emb_text)
    vPortGetIPSR                             0x08000261   Thumb Code     6  port.o(.emb_text)
    Reset_Handler                            0x08000269   Thumb Code     8  startup_stm32f401xe.o(.text)
    ADC_IRQHandler                           0x08000283   Thumb Code     0  startup_stm32f401xe.o(.text)
    DMA1_Stream0_IRQHandler                  0x08000283   Thumb Code     0  startup_stm32f401xe.o(.text)
    DMA1_Stream1_IRQHandler                  0x08000283   Thumb Code     0  startup_stm32f401xe.o(.text)
    DMA1_Stream2_IRQHandler                  0x08000283   Thumb Code     0  startup_stm32f401xe.o(.text)
    DMA1_Stream3_IRQHandler                  0x08000283   Thumb Code     0  startup_stm32f401xe.o(.text)
    DMA1_Stream4_IRQHandler                  0x08000283   Thumb Code     0  startup_stm32f401xe.o(.text)
    DMA1_Stream5_IRQHandler                  0x08000283   Thumb Code     0  startup_stm32f401xe.o(.text)
    DMA1_Stream6_IRQHandler                  0x08000283   Thumb Code     0  startup_stm32f401xe.o(.text)
    DMA1_Stream7_IRQHandler                  0x08000283   Thumb Code     0  startup_stm32f401xe.o(.text)
    DMA2_Stream0_IRQHandler                  0x08000283   Thumb Code     0  startup_stm32f401xe.o(.text)
    DMA2_Stream1_IRQHandler                  0x08000283   Thumb Code     0  startup_stm32f401xe.o(.text)
    DMA2_Stream2_IRQHandler                  0x08000283   Thumb Code     0  startup_stm32f401xe.o(.text)
    DMA2_Stream3_IRQHandler                  0x08000283   Thumb Code     0  startup_stm32f401xe.o(.text)
    DMA2_Stream4_IRQHandler                  0x08000283   Thumb Code     0  startup_stm32f401xe.o(.text)
    DMA2_Stream5_IRQHandler                  0x08000283   Thumb Code     0  startup_stm32f401xe.o(.text)
    DMA2_Stream6_IRQHandler                  0x08000283   Thumb Code     0  startup_stm32f401xe.o(.text)
    DMA2_Stream7_IRQHandler                  0x08000283   Thumb Code     0  startup_stm32f401xe.o(.text)
    EXTI0_IRQHandler                         0x08000283   Thumb Code     0  startup_stm32f401xe.o(.text)
    EXTI15_10_IRQHandler                     0x08000283   Thumb Code     0  startup_stm32f401xe.o(.text)
    EXTI1_IRQHandler                         0x08000283   Thumb Code     0  startup_stm32f401xe.o(.text)
    EXTI2_IRQHandler                         0x08000283   Thumb Code     0  startup_stm32f401xe.o(.text)
    EXTI3_IRQHandler                         0x08000283   Thumb Code     0  startup_stm32f401xe.o(.text)
    EXTI4_IRQHandler                         0x08000283   Thumb Code     0  startup_stm32f401xe.o(.text)
    EXTI9_5_IRQHandler                       0x08000283   Thumb Code     0  startup_stm32f401xe.o(.text)
    FLASH_IRQHandler                         0x08000283   Thumb Code     0  startup_stm32f401xe.o(.text)
    FPU_IRQHandler                           0x08000283   Thumb Code     0  startup_stm32f401xe.o(.text)
    I2C1_ER_IRQHandler                       0x08000283   Thumb Code     0  startup_stm32f401xe.o(.text)
    I2C1_EV_IRQHandler                       0x08000283   Thumb Code     0  startup_stm32f401xe.o(.text)
    I2C2_ER_IRQHandler                       0x08000283   Thumb Code     0  startup_stm32f401xe.o(.text)
    I2C2_EV_IRQHandler                       0x08000283   Thumb Code     0  startup_stm32f401xe.o(.text)
    I2C3_ER_IRQHandler                       0x08000283   Thumb Code     0  startup_stm32f401xe.o(.text)
    I2C3_EV_IRQHandler                       0x08000283   Thumb Code     0  startup_stm32f401xe.o(.text)
    OTG_FS_IRQHandler                        0x08000283   Thumb Code     0  startup_stm32f401xe.o(.text)
    OTG_FS_WKUP_IRQHandler                   0x08000283   Thumb Code     0  startup_stm32f401xe.o(.text)
    PVD_IRQHandler                           0x08000283   Thumb Code     0  startup_stm32f401xe.o(.text)
    RCC_IRQHandler                           0x08000283   Thumb Code     0  startup_stm32f401xe.o(.text)
    RTC_Alarm_IRQHandler                     0x08000283   Thumb Code     0  startup_stm32f401xe.o(.text)
    RTC_WKUP_IRQHandler                      0x08000283   Thumb Code     0  startup_stm32f401xe.o(.text)
    SDIO_IRQHandler                          0x08000283   Thumb Code     0  startup_stm32f401xe.o(.text)
    SPI1_IRQHandler                          0x08000283   Thumb Code     0  startup_stm32f401xe.o(.text)
    SPI2_IRQHandler                          0x08000283   Thumb Code     0  startup_stm32f401xe.o(.text)
    SPI3_IRQHandler                          0x08000283   Thumb Code     0  startup_stm32f401xe.o(.text)
    SPI4_IRQHandler                          0x08000283   Thumb Code     0  startup_stm32f401xe.o(.text)
    TAMP_STAMP_IRQHandler                    0x08000283   Thumb Code     0  startup_stm32f401xe.o(.text)
    TIM1_BRK_TIM9_IRQHandler                 0x08000283   Thumb Code     0  startup_stm32f401xe.o(.text)
    TIM1_CC_IRQHandler                       0x08000283   Thumb Code     0  startup_stm32f401xe.o(.text)
    TIM1_TRG_COM_TIM11_IRQHandler            0x08000283   Thumb Code     0  startup_stm32f401xe.o(.text)
    TIM1_UP_TIM10_IRQHandler                 0x08000283   Thumb Code     0  startup_stm32f401xe.o(.text)
    TIM2_IRQHandler                          0x08000283   Thumb Code     0  startup_stm32f401xe.o(.text)
    TIM3_IRQHandler                          0x08000283   Thumb Code     0  startup_stm32f401xe.o(.text)
    TIM5_IRQHandler                          0x08000283   Thumb Code     0  startup_stm32f401xe.o(.text)
    WWDG_IRQHandler                          0x08000283   Thumb Code     0  startup_stm32f401xe.o(.text)
    __aeabi_uldivmod                         0x0800028d   Thumb Code    98  uldiv.o(.text)
    __aeabi_memcpy                           0x080002ef   Thumb Code    36  memcpya.o(.text)
    __aeabi_memcpy4                          0x080002ef   Thumb Code     0  memcpya.o(.text)
    __aeabi_memcpy8                          0x080002ef   Thumb Code     0  memcpya.o(.text)
    __aeabi_memset                           0x08000313   Thumb Code    14  memseta.o(.text)
    __aeabi_memset4                          0x08000313   Thumb Code     0  memseta.o(.text)
    __aeabi_memset8                          0x08000313   Thumb Code     0  memseta.o(.text)
    __aeabi_memclr                           0x08000321   Thumb Code     4  memseta.o(.text)
    __aeabi_memclr4                          0x08000321   Thumb Code     0  memseta.o(.text)
    __aeabi_memclr8                          0x08000321   Thumb Code     0  memseta.o(.text)
    memset                                   0x08000325   Thumb Code    18  memseta.o(.text)
    strstr                                   0x08000337   Thumb Code    36  strstr.o(.text)
    strlen                                   0x0800035b   Thumb Code    14  strlen.o(.text)
    strcmp                                   0x08000369   Thumb Code    28  strcmp.o(.text)
    strcpy                                   0x08000385   Thumb Code    18  strcpy.o(.text)
    __0sscanf                                0x08000399   Thumb Code    48  __0sscanf.o(.text)
    _scanf_real                              0x080004f9   Thumb Code     0  scanf_fp.o(.text)
    _scanf_really_real                       0x080004f9   Thumb Code   556  scanf_fp.o(.text)
    __aeabi_ui2d                             0x08000731   Thumb Code    26  dfltui.o(.text)
    __aeabi_d2iz                             0x0800074b   Thumb Code    62  dfixi.o(.text)
    __aeabi_cdcmpeq                          0x08000789   Thumb Code     0  cdcmple.o(.text)
    __aeabi_cdcmple                          0x08000789   Thumb Code    48  cdcmple.o(.text)
    __aeabi_cdrcmple                         0x080007b9   Thumb Code    48  cdrcmple.o(.text)
    __aeabi_uidiv                            0x080007e9   Thumb Code     0  uidiv.o(.text)
    __aeabi_uidivmod                         0x080007e9   Thumb Code    44  uidiv.o(.text)
    __aeabi_llsl                             0x08000815   Thumb Code    30  llshl.o(.text)
    _ll_shift_l                              0x08000815   Thumb Code     0  llshl.o(.text)
    __aeabi_llsr                             0x08000833   Thumb Code    32  llushr.o(.text)
    _ll_ushift_r                             0x08000833   Thumb Code     0  llushr.o(.text)
    __vfscanf_char                           0x08000861   Thumb Code    20  scanf_char.o(.text)
    _sgetc                                   0x0800087d   Thumb Code    30  _sgetc.o(.text)
    _sbackspace                              0x0800089b   Thumb Code    34  _sgetc.o(.text)
    __I$use$fp                               0x080008bd   Thumb Code     0  iusefp.o(.text)
    _double_round                            0x080008bd   Thumb Code    30  depilogue.o(.text)
    _double_epilogue                         0x080008db   Thumb Code   156  depilogue.o(.text)
    __aeabi_dadd                             0x08000977   Thumb Code   322  dadd.o(.text)
    __aeabi_dsub                             0x08000ab9   Thumb Code     6  dadd.o(.text)
    __aeabi_drsub                            0x08000abf   Thumb Code     6  dadd.o(.text)
    __aeabi_dmul                             0x08000ac5   Thumb Code   228  dmul.o(.text)
    __aeabi_ddiv                             0x08000ba9   Thumb Code   222  ddiv.o(.text)
    __aeabi_ul2d                             0x08000c87   Thumb Code    24  dfltul.o(.text)
    __aeabi_d2ulz                            0x08000c9f   Thumb Code    48  dfixul.o(.text)
    __aeabi_d2f                              0x08000ccf   Thumb Code    56  d2f.o(.text)
    __scatterload                            0x08000d09   Thumb Code    28  init.o(.text)
    __scatterload_rt2                        0x08000d09   Thumb Code     0  init.o(.text)
    __aeabi_lasr                             0x08000d2d   Thumb Code    36  llsshr.o(.text)
    _ll_sshift_r                             0x08000d2d   Thumb Code     0  llsshr.o(.text)
    isspace                                  0x08000d51   Thumb Code    10  isspace_c.o(.text)
    __vfscanf                                0x08000d5d   Thumb Code   808  _scanf.o(.text)
    _float_round                             0x08001089   Thumb Code    18  fepilogue.o(.text)
    _float_epilogue                          0x0800109b   Thumb Code    92  fepilogue.o(.text)
    __ctype_lookup                           0x080010f9   Thumb Code    34  ctype_c.o(.text)
    __decompress                             0x08001121   Thumb Code     0  __dczerorl2.o(.text)
    __decompress1                            0x08001121   Thumb Code    86  __dczerorl2.o(.text)
    ASCII_GetFontAddr                        0x08001179   Thumb Code    30  font1.o(i.ASCII_GetFontAddr)
    Ali_ConnectServe                         0x0800119d   Thumb Code    82  wifi.o(i.Ali_ConnectServe)
    Analysis_alidata                         0x08001219   Thumb Code   164  wifi.o(i.Analysis_alidata)
    At24c02PageWrite                         0x080012e1   Thumb Code    82  myiic.o(i.At24c02PageWrite)
    At24c02ReadBytes                         0x08001333   Thumb Code   106  myiic.o(i.At24c02ReadBytes)
    At24c02WriteBytes                        0x0800139d   Thumb Code    60  myiic.o(i.At24c02WriteBytes)
    BS8116ReadKey                            0x080013d9   Thumb Code   258  bs8116.o(i.BS8116ReadKey)
    BusFault_Handler                         0x080014e1   Thumb Code     2  stm32f4xx_it.o(i.BusFault_Handler)
    CalulateCRC                              0x080014e3   Thumb Code   102  rfid.o(i.CalulateCRC)
    CaptureAndExtract                        0x08001549   Thumb Code   140  mg200.o(i.CaptureAndExtract)
    ClearBitMask                             0x080016b9   Thumb Code    24  rfid.o(i.ClearBitMask)
    Close_Transmission                       0x080016d1   Thumb Code    20  wifi.o(i.Close_Transmission)
    Connect_alCloud                          0x080016e9   Thumb Code    82  wifi.o(i.Connect_alCloud)
    DebugMon_Handler                         0x080017b5   Thumb Code     2  stm32f4xx_it.o(i.DebugMon_Handler)
    Delay_us                                 0x080017b7   Thumb Code   170  rfid.o(i.Delay_us)
    Delayus                                  0x08001861   Thumb Code    14  rfid.o(i.Delayus)
    Door_Start                               0x08001871   Thumb Code    56  motor.o(i.Door_Start)
    Enroll                                   0x080018ad   Thumb Code   374  mg200.o(i.Enroll)
    EraseAll                                 0x08001b3d   Thumb Code    56  mg200.o(i.EraseAll)
    EraseOne                                 0x08001ba9   Thumb Code    66  mg200.o(i.EraseOne)
    Error_Handler                            0x08001c15   Thumb Code     2  main.o(i.Error_Handler)
    Esp32_Reset                              0x08001c19   Thumb Code    72  wifi.o(i.Esp32_Reset)
    Esp_8266Config                           0x08001c91   Thumb Code    84  wifi.o(i.Esp_8266Config)
    Esp_SendStr                              0x08001ced   Thumb Code    32  wifi.o(i.Esp_SendStr)
    Esp_test                                 0x08001d11   Thumb Code    62  wifi.o(i.Esp_test)
    Esp_wificon                              0x08001d71   Thumb Code   146  wifi.o(i.Esp_wificon)
    FLASH_SPI_WRData                         0x08001e81   Thumb Code    28  w25q64.o(i.FLASH_SPI_WRData)
    Find_Str                                 0x08001ea1   Thumb Code    82  wifi.o(i.Find_Str)
    Font_Save_Flash                          0x08001f01   Thumb Code   150  font_down.o(i.Font_Save_Flash)
    Fontload_Config                          0x08001fc1   Thumb Code    90  font_down.o(i.Fontload_Config)
    Get_InitData                             0x08002055   Thumb Code   166  wifi.o(i.Get_InitData)
    HAL_DMA_Abort_IT                         0x080021f9   Thumb Code    36  stm32f4xx_hal_dma.o(i.HAL_DMA_Abort_IT)
    HAL_Delay                                0x0800221d   Thumb Code    32  stm32f4xx_hal.o(i.HAL_Delay)
    HAL_GPIO_Init                            0x08002241   Thumb Code   370  stm32f4xx_hal_gpio.o(i.HAL_GPIO_Init)
    HAL_GPIO_ReadPin                         0x080023d5   Thumb Code    10  stm32f4xx_hal_gpio.o(i.HAL_GPIO_ReadPin)
    HAL_GPIO_TogglePin                       0x080023df   Thumb Code    14  stm32f4xx_hal_gpio.o(i.HAL_GPIO_TogglePin)
    HAL_GPIO_WritePin                        0x080023ed   Thumb Code    10  stm32f4xx_hal_gpio.o(i.HAL_GPIO_WritePin)
    HAL_GetTick                              0x080023f9   Thumb Code     6  stm32f4xx_hal.o(i.HAL_GetTick)
    HAL_IncTick                              0x08002405   Thumb Code    12  stm32f4xx_hal.o(i.HAL_IncTick)
    HAL_Init                                 0x08002415   Thumb Code    48  stm32f4xx_hal.o(i.HAL_Init)
    HAL_InitTick                             0x08002449   Thumb Code   100  stm32f4xx_hal_timebase_tim.o(i.HAL_InitTick)
    HAL_MspInit                              0x080024bd   Thumb Code    52  stm32f4xx_hal_msp.o(i.HAL_MspInit)
    HAL_NVIC_EnableIRQ                       0x080024f5   Thumb Code    26  stm32f4xx_hal_cortex.o(i.HAL_NVIC_EnableIRQ)
    HAL_NVIC_SetPriority                     0x08002511   Thumb Code    60  stm32f4xx_hal_cortex.o(i.HAL_NVIC_SetPriority)
    HAL_NVIC_SetPriorityGrouping             0x08002551   Thumb Code    26  stm32f4xx_hal_cortex.o(i.HAL_NVIC_SetPriorityGrouping)
    HAL_RCCEx_PeriphCLKConfig                0x08002575   Thumb Code   310  stm32f4xx_hal_rcc_ex.o(i.HAL_RCCEx_PeriphCLKConfig)
    HAL_RCC_ClockConfig                      0x080026c5   Thumb Code   288  stm32f4xx_hal_rcc.o(i.HAL_RCC_ClockConfig)
    HAL_RCC_GetClockConfig                   0x080027f9   Thumb Code    54  stm32f4xx_hal_rcc.o(i.HAL_RCC_GetClockConfig)
    HAL_RCC_GetPCLK1Freq                     0x08002839   Thumb Code    20  stm32f4xx_hal_rcc.o(i.HAL_RCC_GetPCLK1Freq)
    HAL_RCC_GetPCLK2Freq                     0x08002859   Thumb Code    20  stm32f4xx_hal_rcc.o(i.HAL_RCC_GetPCLK2Freq)
    HAL_RCC_GetSysClockFreq                  0x08002879   Thumb Code    88  stm32f4xx_hal_rcc.o(i.HAL_RCC_GetSysClockFreq)
    HAL_RCC_OscConfig                        0x080028dd   Thumb Code   840  stm32f4xx_hal_rcc.o(i.HAL_RCC_OscConfig)
    HAL_RTC_GetDate                          0x08002c39   Thumb Code    62  stm32f4xx_hal_rtc.o(i.HAL_RTC_GetDate)
    HAL_RTC_GetTime                          0x08002c7d   Thumb Code    82  stm32f4xx_hal_rtc.o(i.HAL_RTC_GetTime)
    HAL_RTC_Init                             0x08002cd5   Thumb Code   166  stm32f4xx_hal_rtc.o(i.HAL_RTC_Init)
    HAL_RTC_MspInit                          0x08002d81   Thumb Code    16  rtc.o(i.HAL_RTC_MspInit)
    HAL_RTC_SetDate                          0x08002d99   Thumb Code   194  stm32f4xx_hal_rtc.o(i.HAL_RTC_SetDate)
    HAL_RTC_SetTime                          0x08002e61   Thumb Code   230  stm32f4xx_hal_rtc.o(i.HAL_RTC_SetTime)
    HAL_RTC_WaitForSynchro                   0x08002f4d   Thumb Code    54  stm32f4xx_hal_rtc.o(i.HAL_RTC_WaitForSynchro)
    HAL_SPI_Init                             0x08002f83   Thumb Code   128  stm32f4xx_hal_spi.o(i.HAL_SPI_Init)
    HAL_SPI_MspInit                          0x08003005   Thumb Code   250  spi.o(i.HAL_SPI_MspInit)
    HAL_SPI_TransmitReceive                  0x0800311d   Thumb Code   482  stm32f4xx_hal_spi.o(i.HAL_SPI_TransmitReceive)
    HAL_TIMEx_BreakCallback                  0x080032ff   Thumb Code     2  stm32f4xx_hal_tim_ex.o(i.HAL_TIMEx_BreakCallback)
    HAL_TIMEx_CommutCallback                 0x08003301   Thumb Code     2  stm32f4xx_hal_tim_ex.o(i.HAL_TIMEx_CommutCallback)
    HAL_TIMEx_MasterConfigSynchronization    0x08003305   Thumb Code   104  stm32f4xx_hal_tim_ex.o(i.HAL_TIMEx_MasterConfigSynchronization)
    HAL_TIM_Base_Init                        0x08003381   Thumb Code    54  stm32f4xx_hal_tim.o(i.HAL_TIM_Base_Init)
    HAL_TIM_Base_MspInit                     0x080033b9   Thumb Code    52  tim.o(i.HAL_TIM_Base_MspInit)
    HAL_TIM_Base_Start_IT                    0x080033f5   Thumb Code    34  stm32f4xx_hal_tim.o(i.HAL_TIM_Base_Start_IT)
    HAL_TIM_ConfigClockSource                0x08003417   Thumb Code   214  stm32f4xx_hal_tim.o(i.HAL_TIM_ConfigClockSource)
    HAL_TIM_IC_CaptureCallback               0x080034ed   Thumb Code     2  stm32f4xx_hal_tim.o(i.HAL_TIM_IC_CaptureCallback)
    HAL_TIM_IRQHandler                       0x080034ef   Thumb Code   358  stm32f4xx_hal_tim.o(i.HAL_TIM_IRQHandler)
    HAL_TIM_OC_DelayElapsedCallback          0x08003655   Thumb Code     2  stm32f4xx_hal_tim.o(i.HAL_TIM_OC_DelayElapsedCallback)
    HAL_TIM_PWM_PulseFinishedCallback        0x08003657   Thumb Code     2  stm32f4xx_hal_tim.o(i.HAL_TIM_PWM_PulseFinishedCallback)
    HAL_TIM_PeriodElapsedCallback            0x08003659   Thumb Code    14  main.o(i.HAL_TIM_PeriodElapsedCallback)
    HAL_TIM_TriggerCallback                  0x0800366d   Thumb Code     2  stm32f4xx_hal_tim.o(i.HAL_TIM_TriggerCallback)
    HAL_UART_ErrorCallback                   0x0800366f   Thumb Code     2  stm32f4xx_hal_uart.o(i.HAL_UART_ErrorCallback)
    HAL_UART_IRQHandler                      0x08003671   Thumb Code   270  stm32f4xx_hal_uart.o(i.HAL_UART_IRQHandler)
    HAL_UART_Init                            0x08003785   Thumb Code    98  stm32f4xx_hal_uart.o(i.HAL_UART_Init)
    HAL_UART_MspInit                         0x080037e9   Thumb Code   260  usart.o(i.HAL_UART_MspInit)
    HAL_UART_RxCpltCallback                  0x08003905   Thumb Code     2  stm32f4xx_hal_uart.o(i.HAL_UART_RxCpltCallback)
    HAL_UART_Transmit                        0x08003907   Thumb Code   186  stm32f4xx_hal_uart.o(i.HAL_UART_Transmit)
    HAL_UART_TxCpltCallback                  0x080039c1   Thumb Code     2  stm32f4xx_hal_uart.o(i.HAL_UART_TxCpltCallback)
    HardFault_Handler                        0x080039c3   Thumb Code     2  stm32f4xx_it.o(i.HardFault_Handler)
    IIC1_Config                              0x080039c5   Thumb Code    28  bs8116.o(i.IIC1_Config)
    IIC1_Revice_Ack                          0x080039e5   Thumb Code    64  bs8116.o(i.IIC1_Revice_Ack)
    IIC1_Revice_Byte                         0x08003a29   Thumb Code    88  bs8116.o(i.IIC1_Revice_Byte)
    IIC1_Send_Ack                            0x08003a85   Thumb Code    58  bs8116.o(i.IIC1_Send_Ack)
    IIC1_Send_Byte                           0x08003ac5   Thumb Code    78  bs8116.o(i.IIC1_Send_Byte)
    IIC1_Start                               0x08003b19   Thumb Code    76  bs8116.o(i.IIC1_Start)
    IIC1_Stop                                0x08003b69   Thumb Code    50  bs8116.o(i.IIC1_Stop)
    IIC3_Revice_Ack                          0x08003ba1   Thumb Code    88  myiic.o(i.IIC3_Revice_Ack)
    IIC3_Revice_Byte                         0x08003c01   Thumb Code   114  myiic.o(i.IIC3_Revice_Byte)
    IIC3_Send_Ack                            0x08003c7d   Thumb Code    72  myiic.o(i.IIC3_Send_Ack)
    IIC3_Send_Byte                           0x08003ccd   Thumb Code   102  myiic.o(i.IIC3_Send_Byte)
    IIC3_Start                               0x08003d3d   Thumb Code    68  myiic.o(i.IIC3_Start)
    IIC3_Stop                                0x08003d89   Thumb Code    54  myiic.o(i.IIC3_Stop)
    Identificate_Card                        0x08003dc9   Thumb Code    38  rfid.o(i.Identificate_Card)
    Iic3_config                              0x08003df1   Thumb Code    26  myiic.o(i.Iic3_config)
    Low                                      0x08003e15   Thumb Code    44  voice.o(i.Low)
    M500PcdConfigISOType                     0x08003e45   Thumb Code    88  rfid.o(i.M500PcdConfigISOType)
    MG200Ack                                 0x08003e9d   Thumb Code    98  mg200.o(i.MG200Ack)
    MG200Init                                0x08003f05   Thumb Code    36  mg200.o(i.MG200Init)
    MG200SendByte                            0x08003f31   Thumb Code    16  mg200.o(i.MG200SendByte)
    MG200SendCommond                         0x08003f45   Thumb Code    58  mg200.o(i.MG200SendCommond)
    MX_FREERTOS_Init                         0x08003f81   Thumb Code   162  freertos.o(i.MX_FREERTOS_Init)
    MX_GPIO_Init                             0x0800402d   Thumb Code   358  gpio.o(i.MX_GPIO_Init)
    MX_RTC_Init                              0x080041a9   Thumb Code   126  rtc.o(i.MX_RTC_Init)
    MX_SPI1_Init                             0x08004231   Thumb Code    60  spi.o(i.MX_SPI1_Init)
    MX_SPI2_Init                             0x08004275   Thumb Code    60  spi.o(i.MX_SPI2_Init)
    MX_SPI3_Init                             0x080042b9   Thumb Code    62  spi.o(i.MX_SPI3_Init)
    MX_TIM2_Init                             0x08004301   Thumb Code    96  tim.o(i.MX_TIM2_Init)
    MX_TIM5_Init                             0x08004365   Thumb Code    96  tim.o(i.MX_TIM5_Init)
    MX_USART1_UART_Init                      0x080043cd   Thumb Code    48  usart.o(i.MX_USART1_UART_Init)
    MX_USART2_UART_Init                      0x08004405   Thumb Code    48  usart.o(i.MX_USART2_UART_Init)
    MX_USART6_UART_Init                      0x0800443d   Thumb Code    48  usart.o(i.MX_USART6_UART_Init)
    Match1N                                  0x08004475   Thumb Code   120  mg200.o(i.Match1N)
    MemManage_Handler                        0x08004525   Thumb Code     2  stm32f4xx_it.o(i.MemManage_Handler)
    Mqtt_PublishQs0                          0x08004527   Thumb Code   188  wifi.o(i.Mqtt_PublishQs0)
    Mqtt_Setsendmode                         0x080045e5   Thumb Code    86  wifi.o(i.Mqtt_Setsendmode)
    Mqtt_Subscribepack                       0x08004665   Thumb Code   118  wifi.o(i.Mqtt_Subscribepack)
    Mqtt_del_subscribe                       0x080046f1   Thumb Code   104  wifi.o(i.Mqtt_del_subscribe)
    Mqtt_send_connectpack                    0x08004769   Thumb Code   206  wifi.o(i.Mqtt_send_connectpack)
    Mqtt_sendpack                            0x08004855   Thumb Code    34  wifi.o(i.Mqtt_sendpack)
    NMI_Handler                              0x0800487d   Thumb Code     2  stm32f4xx_it.o(i.NMI_Handler)
    Open_Transmission                        0x08004881   Thumb Code    78  wifi.o(i.Open_Transmission)
    PcdAntennaOff                            0x080048fd   Thumb Code     8  rfid.o(i.PcdAntennaOff)
    PcdAntennaOn                             0x08004905   Thumb Code    26  rfid.o(i.PcdAntennaOn)
    PcdAnticoll                              0x0800491f   Thumb Code   106  rfid.o(i.PcdAnticoll)
    PcdComMF522                              0x08004989   Thumb Code   288  rfid.o(i.PcdComMF522)
    PcdRequest                               0x08004aa9   Thumb Code    82  rfid.o(i.PcdRequest)
    PcdReset                                 0x08004afd   Thumb Code   126  rfid.o(i.PcdReset)
    PcdSelect                                0x08004b81   Thumb Code   100  rfid.o(i.PcdSelect)
    RFID_Init                                0x08004be5   Thumb Code    38  rfid.o(i.RFID_Init)
    RTC_Bcd2ToByte                           0x08004c15   Thumb Code    18  stm32f4xx_hal_rtc.o(i.RTC_Bcd2ToByte)
    RTC_ByteToBcd2                           0x08004c27   Thumb Code    22  stm32f4xx_hal_rtc.o(i.RTC_ByteToBcd2)
    RTC_EnterInitMode                        0x08004c3d   Thumb Code    58  stm32f4xx_hal_rtc.o(i.RTC_EnterInitMode)
    ReadRawRC                                0x08004c79   Thumb Code    56  rfid.o(i.ReadRawRC)
    Reset_RC522                              0x08004cb5   Thumb Code    18  rfid.o(i.Reset_RC522)
    Ret_key_value                            0x08004cc9   Thumb Code   246  bs8116.o(i.Ret_key_value)
    SetBitMask                               0x08004eb1   Thumb Code    24  rfid.o(i.SetBitMask)
    Spi3_wr_data                             0x08004ec9   Thumb Code    32  rfid.o(i.Spi3_wr_data)
    StartDefaultTask                         0x08004eed   Thumb Code     8  freertos.o(i.StartDefaultTask)
    StartTask02                              0x08004ef5   Thumb Code    16  freertos.o(i.StartTask02)
    StartTask03                              0x08004f09   Thumb Code    32  freertos.o(i.StartTask03)
    StartTask04                              0x08004f29   Thumb Code   112  freertos.o(i.StartTask04)
    StartTask05                              0x08004fa1   Thumb Code    54  freertos.o(i.StartTask05)
    StartTask06                              0x08005011   Thumb Code    12  freertos.o(i.StartTask06)
    StartTask07                              0x0800501d   Thumb Code    36  freertos.o(i.StartTask07)
    State_ui                                 0x08005045   Thumb Code    16  my_ui.o(i.State_ui)
    SysTick_Handler                          0x08005055   Thumb Code    38  port.o(i.SysTick_Handler)
    SystemClock_Config                       0x08005081   Thumb Code   150  main.o(i.SystemClock_Config)
    SystemInit                               0x08005121   Thumb Code    22  system_stm32f4xx.o(i.SystemInit)
    TIM4_IRQHandler                          0x0800513d   Thumb Code     6  stm32f4xx_it.o(i.TIM4_IRQHandler)
    TIM_Base_SetConfig                       0x08005149   Thumb Code   122  stm32f4xx_hal_tim.o(i.TIM_Base_SetConfig)
    TIM_ETR_SetConfig                        0x080051e1   Thumb Code    20  stm32f4xx_hal_tim.o(i.TIM_ETR_SetConfig)
    USART1_IRQHandler                        0x080054fd   Thumb Code   100  stm32f4xx_it.o(i.USART1_IRQHandler)
    USART2_IRQHandler                        0x08005571   Thumb Code   104  stm32f4xx_it.o(i.USART2_IRQHandler)
    USART6_IRQHandler                        0x080055e5   Thumb Code    56  stm32f4xx_it.o(i.USART6_IRQHandler)
    UsageFault_Handler                       0x08005629   Thumb Code     2  stm32f4xx_it.o(i.UsageFault_Handler)
    VoiceSendData                            0x0800562d   Thumb Code   122  voice.o(i.VoiceSendData)
    W25Q64ReadBytes                          0x080056ad   Thumb Code    80  w25q64.o(i.W25Q64ReadBytes)
    WriteRawRC                               0x08005701   Thumb Code    54  rfid.o(i.WriteRawRC)
    __0printf                                0x0800573d   Thumb Code    22  printfa.o(i.__0printf)
    __1printf                                0x0800573d   Thumb Code     0  printfa.o(i.__0printf)
    __2printf                                0x0800573d   Thumb Code     0  printfa.o(i.__0printf)
    __c89printf                              0x0800573d   Thumb Code     0  printfa.o(i.__0printf)
    printf                                   0x0800573d   Thumb Code     0  printfa.o(i.__0printf)
    __0sprintf                               0x0800575d   Thumb Code    34  printfa.o(i.__0sprintf)
    __1sprintf                               0x0800575d   Thumb Code     0  printfa.o(i.__0sprintf)
    __2sprintf                               0x0800575d   Thumb Code     0  printfa.o(i.__0sprintf)
    __c89sprintf                             0x0800575d   Thumb Code     0  printfa.o(i.__0sprintf)
    sprintf                                  0x0800575d   Thumb Code     0  printfa.o(i.__0sprintf)
    free                                     0x080057a5   Thumb Code    88  mallocr.o(i.__free$realloc)
    malloc                                   0x08005801   Thumb Code    64  mallocr.o(i.__malloc$realloc)
    __scatterload_copy                       0x08005851   Thumb Code    14  handlers.o(i.__scatterload_copy)
    __scatterload_null                       0x0800585f   Thumb Code     2  handlers.o(i.__scatterload_null)
    __scatterload_zeroinit                   0x08005861   Thumb Code    14  handlers.o(i.__scatterload_zeroinit)
    _is_digit                                0x080059f5   Thumb Code    14  scanf_fp.o(i._is_digit)
    admin_ui_function                        0x080061b5   Thumb Code   550  my_ui.o(i.admin_ui_function)
    cJSON_AddItemToObject                    0x08006491   Thumb Code    14  cjson.o(i.cJSON_AddItemToObject)
    cJSON_AddNumberToObject                  0x080064a5   Thumb Code    42  cjson.o(i.cJSON_AddNumberToObject)
    cJSON_AddStringToObject                  0x080064d5   Thumb Code    44  cjson.o(i.cJSON_AddStringToObject)
    cJSON_CreateNumber                       0x08006505   Thumb Code    98  cjson.o(i.cJSON_CreateNumber)
    cJSON_CreateObject                       0x0800657d   Thumb Code    18  cjson.o(i.cJSON_CreateObject)
    cJSON_CreateString                       0x08006595   Thumb Code    44  cjson.o(i.cJSON_CreateString)
    cJSON_Delete                             0x080065c5   Thumb Code    66  cjson.o(i.cJSON_Delete)
    cJSON_Print                              0x08006625   Thumb Code     8  cjson.o(i.cJSON_Print)
    change_admin_ui_function                 0x08006659   Thumb Code   354  shartui.o(i.change_admin_ui_function)
    change_user_ui_function                  0x080067f5   Thumb Code   332  shartui.o(i.change_user_ui_function)
    del_all_finger_function                  0x08006975   Thumb Code   212  shartui.o(i.del_all_finger_function)
    del_card_ui_function                     0x08006a89   Thumb Code   340  shartui.o(i.del_card_ui_function)
    del_finger_ui_function                   0x08006c29   Thumb Code   238  shartui.o(i.del_finger_ui_function)
    fputc                                    0x08006df9   Thumb Code    20  usart.o(i.fputc)
    main                                     0x08006e61   Thumb Code   164  main.o(i.main)
    main_ui_function                         0x08006f39   Thumb Code   382  my_ui.o(i.main_ui_function)
    my_delay_nms                             0x080070ed   Thumb Code    60  bs8116.o(i.my_delay_nms)
    my_delay_nus                             0x0800712d   Thumb Code    54  bs8116.o(i.my_delay_nus)
    my_json_mode                             0x08007169   Thumb Code   264  wifi.o(i.my_json_mode)
    my_strcmp                                0x080072e9   Thumb Code    28  my_ui.o(i.my_strcmp)
    osDelay                                  0x08007305   Thumb Code    14  cmsis_os.o(i.osDelay)
    osKernelStart                            0x08007313   Thumb Code    10  cmsis_os.o(i.osKernelStart)
    osThreadCreate                           0x0800731d   Thumb Code    84  cmsis_os.o(i.osThreadCreate)
    pvPortMalloc                             0x08007bb5   Thumb Code   210  heap_4.o(i.pvPortMalloc)
    pxPortInitialiseStack                    0x08007c8d   Thumb Code    40  port.o(i.pxPortInitialiseStack)
    realloc                                  0x08007cb9   Thumb Code   102  mallocr.o(i.realloc)
    registr_card_ui_function                 0x08007d25   Thumb Code   328  shartui.o(i.registr_card_ui_function)
    registr_finger_ui_function               0x08007ead   Thumb Code   212  shartui.o(i.registr_finger_ui_function)
    reset_ui_function                        0x08007fb5   Thumb Code   264  shartui.o(i.reset_ui_function)
    sFLASH_EraseSector                       0x08008105   Thumb Code    66  w25q64.o(i.sFLASH_EraseSector)
    sFLASH_ReadBuffer                        0x0800814d   Thumb Code    82  w25q64.o(i.sFLASH_ReadBuffer)
    sFLASH_SendByte                          0x080081a5   Thumb Code     4  w25q64.o(i.sFLASH_SendByte)
    sFLASH_WaitForWriteEnd                   0x080081a9   Thumb Code    44  w25q64.o(i.sFLASH_WaitForWriteEnd)
    sFLASH_WriteBuffer                       0x080081d9   Thumb Code   188  w25q64.o(i.sFLASH_WriteBuffer)
    sFLASH_WriteEnable                       0x08008295   Thumb Code    34  w25q64.o(i.sFLASH_WriteEnable)
    sFLASH_WritePage                         0x080082bd   Thumb Code    88  w25q64.o(i.sFLASH_WritePage)
    set_voice_task                           0x08008319   Thumb Code   380  shartui.o(i.set_voice_task)
    st7789vm_clear_display                   0x080084d9   Thumb Code    54  st7789vm_oled.o(i.st7789vm_clear_display)
    st7789vm_display_aciss                   0x08008525   Thumb Code   108  st7789vm_oled.o(i.st7789vm_display_aciss)
    st7789vm_display_hz                      0x08008595   Thumb Code   346  st7789vm_oled.o(i.st7789vm_display_hz)
    st7789vm_display_picture                 0x080086f9   Thumb Code    58  st7789vm_oled.o(i.st7789vm_display_picture)
    st7789vm_display_string                  0x08008749   Thumb Code    76  st7789vm_oled.o(i.st7789vm_display_string)
    st7789vm_init                            0x08008795   Thumb Code   446  st7789vm_oled.o(i.st7789vm_init)
    utils_hb2hex                             0x08008a85   Thumb Code    18  utils_md5.o(i.utils_hb2hex)
    utils_hmac_sha1                          0x08008a97   Thumb Code   214  utils_hmac.o(i.utils_hmac_sha1)
    utils_sha1_finish                        0x08008b6d   Thumb Code   212  utils_sha1.o(i.utils_sha1_finish)
    utils_sha1_init                          0x08008c45   Thumb Code     6  utils_sha1.o(i.utils_sha1_init)
    utils_sha1_process                       0x08008c4d   Thumb Code  4670  utils_sha1.o(i.utils_sha1_process)
    utils_sha1_starts                        0x08009e8d   Thumb Code    32  utils_sha1.o(i.utils_sha1_starts)
    utils_sha1_update                        0x08009eb9   Thumb Code   112  utils_sha1.o(i.utils_sha1_update)
    uxListRemove                             0x08009f29   Thumb Code    38  list.o(i.uxListRemove)
    vApplicationGetIdleTaskMemory            0x08009f51   Thumb Code    16  freertos.o(i.vApplicationGetIdleTaskMemory)
    vListInitialise                          0x08009f65   Thumb Code    22  list.o(i.vListInitialise)
    vListInitialiseItem                      0x08009f7b   Thumb Code     6  list.o(i.vListInitialiseItem)
    vListInsert                              0x08009f81   Thumb Code    48  list.o(i.vListInsert)
    vListInsertEnd                           0x08009fb1   Thumb Code    24  list.o(i.vListInsertEnd)
    vPortEnterCritical                       0x08009fc9   Thumb Code    54  port.o(i.vPortEnterCritical)
    vPortExitCritical                        0x0800a009   Thumb Code    34  port.o(i.vPortExitCritical)
    vPortFree                                0x0800a031   Thumb Code    88  heap_4.o(i.vPortFree)
    vPortSetupTimerInterrupt                 0x0800a08d   Thumb Code    32  port.o(i.vPortSetupTimerInterrupt)
    vTaskDelay                               0x0800a0b1   Thumb Code    66  tasks.o(i.vTaskDelay)
    vTaskStartScheduler                      0x0800a0fd   Thumb Code    90  tasks.o(i.vTaskStartScheduler)
    vTaskSuspendAll                          0x0800a169   Thumb Code    10  tasks.o(i.vTaskSuspendAll)
    vTaskSwitchContext                       0x0800a179   Thumb Code    82  tasks.o(i.vTaskSwitchContext)
    voice_sendcmd                            0x0800a1d5   Thumb Code    30  voice.o(i.voice_sendcmd)
    xPortStartScheduler                      0x0800a1f9   Thumb Code   222  port.o(i.xPortStartScheduler)
    xTaskCreate                              0x0800a2ed   Thumb Code    90  tasks.o(i.xTaskCreate)
    xTaskCreateStatic                        0x0800a347   Thumb Code    86  tasks.o(i.xTaskCreateStatic)
    xTaskIncrementTick                       0x0800a39d   Thumb Code   192  tasks.o(i.xTaskIncrementTick)
    xTaskResumeAll                           0x0800a465   Thumb Code   182  tasks.o(i.xTaskResumeAll)
    AHBPrescTable                            0x0800a5ec   Data          16  system_stm32f4xx.o(.constdata)
    APBPrescTable                            0x0800a5fc   Data           8  system_stm32f4xx.o(.constdata)
    gImage_niutou                            0x0800a644   Data       115208  my_ui.o(.constdata)
    __ctype_categories                       0x0802684c   Data          64  ctype_c.o(.constdata)
    Region$$Table$$Base                      0x080268f0   Number         0  anon$$obj.o(Region$$Table)
    Region$$Table$$Limit                     0x08026910   Number         0  anon$$obj.o(Region$$Table)
    defaultTaskHandle                        0x20000000   Data           4  freertos.o(.data)
    my_ui_taskHandle                         0x20000004   Data           4  freertos.o(.data)
    my_finger_taskHandle                     0x20000008   Data           4  freertos.o(.data)
    my_rfid_taskHandle                       0x2000000c   Data           4  freertos.o(.data)
    my_aliyun_taskHandle                     0x20000010   Data           4  freertos.o(.data)
    my_analysis_tasHandle                    0x20000014   Data           4  freertos.o(.data)
    myTask_ledHandle                         0x20000018   Data           4  freertos.o(.data)
    sdatestructure                           0x2000001c   Data           4  rtc.o(.data)
    uwTickFreq                               0x20000020   Data           1  stm32f4xx_hal.o(.data)
    uwTickPrio                               0x20000024   Data           4  stm32f4xx_hal.o(.data)
    uwTick                                   0x20000028   Data           4  stm32f4xx_hal.o(.data)
    SystemCoreClock                          0x2000002c   Data           4  system_stm32f4xx.o(.data)
    font_buf_flag                            0x20000030   Data           1  font_down.o(.data)
    fontoffest                               0x20000031   Data           1  font_down.o(.data)
    flag1                                    0x20000032   Data           1  font_down.o(.data)
    ASCII_List                               0x20000033   Data          96  font1.o(.data)
    ASCII_FontBuf                            0x20000093   Data        1520  font1.o(.data)
    CardId                                   0x20000683   Data           5  rfid.o(.data)
    CardType                                 0x20000688   Data           2  rfid.o(.data)
    KEY                                      0x2000068a   Data           6  rfid.o(.data)
    now_state                                0x20000690   Data           1  my_ui.o(.data)
    last_state                               0x20000691   Data           1  my_ui.o(.data)
    password                                 0x20000692   Data           6  my_ui.o(.data)
    adminpassword                            0x20000698   Data           6  my_ui.o(.data)
    voice                                    0x2000069e   Data           1  shartui.o(.data)
    finger_num                               0x2000069f   Data           1  shartui.o(.data)
    finger_id                                0x200006a0   Data           1  shartui.o(.data)
    flag                                     0x200006a1   Data           1  shartui.o(.data)
    pxCurrentTCB                             0x200006b8   Data           4  tasks.o(.data)
    __stdout                                 0x20000718   Data           4  stdout.o(.data)
    __microlib_freelist                      0x2000071c   Data           4  mvars.o(.data)
    __microlib_freelist_initialised          0x20000720   Data           4  mvars.o(.data)
    stimestructure                           0x20000978   Data          20  rtc.o(.bss)
    hrtc                                     0x2000098c   Data          32  rtc.o(.bss)
    hspi1                                    0x200009ac   Data          88  spi.o(.bss)
    hspi2                                    0x20000a04   Data          88  spi.o(.bss)
    hspi3                                    0x20000a5c   Data          88  spi.o(.bss)
    htim2                                    0x20000ab4   Data          64  tim.o(.bss)
    htim5                                    0x20000af4   Data          64  tim.o(.bss)
    huart1                                   0x20000b34   Data          64  usart.o(.bss)
    huart2                                   0x20000b74   Data          64  usart.o(.bss)
    huart6                                   0x20000bb4   Data          64  usart.o(.bss)
    htim4                                    0x20000bf4   Data          64  stm32f4xx_hal_timebase_tim.o(.bss)
    my_data                                  0x20000c34   Data        8198  font_down.o(.bss)
    MG200rev                                 0x20002c3a   Data          12  mg200.o(.bss)
    ali_data                                 0x20002c46   Data         520  wifi.o(.bss)
    esp_data                                 0x20002e4e   Data         258  wifi.o(.bss)
    __heap_base                              0x20006c40   Data           0  startup_stm32f401xe.o(HEAP)
    __heap_limit                             0x20008040   Data           0  startup_stm32f401xe.o(HEAP)
    __initial_sp                             0x2000a840   Data           0  startup_stm32f401xe.o(STACK)



==============================================================================

Memory Map of the image

  Image Entry point : 0x08000195

  Load Region LR_IROM1 (Base: 0x08000000, Size: 0x00027034, Max: 0x00080000, ABSOLUTE, COMPRESSED[0x00026c9c])

    Execution Region ER_IROM1 (Exec base: 0x08000000, Load base: 0x08000000, Size: 0x00026910, Max: 0x00080000, ABSOLUTE)

    Exec Addr    Load Addr    Size         Type   Attr      Idx    E Section Name        Object

    0x08000000   0x08000000   0x00000194   Data   RO            3    RESET               startup_stm32f401xe.o
    0x08000194   0x08000194   0x00000000   Code   RO         6977  * .ARM.Collect$$$$00000000  mc_w.l(entry.o)
    0x08000194   0x08000194   0x00000004   Code   RO         7309    .ARM.Collect$$$$00000001  mc_w.l(entry2.o)
    0x08000198   0x08000198   0x00000004   Code   RO         7312    .ARM.Collect$$$$00000004  mc_w.l(entry5.o)
    0x0800019c   0x0800019c   0x00000000   Code   RO         7314    .ARM.Collect$$$$00000008  mc_w.l(entry7b.o)
    0x0800019c   0x0800019c   0x00000000   Code   RO         7316    .ARM.Collect$$$$0000000A  mc_w.l(entry8b.o)
    0x0800019c   0x0800019c   0x00000008   Code   RO         7317    .ARM.Collect$$$$0000000B  mc_w.l(entry9a.o)
    0x080001a4   0x080001a4   0x00000000   Code   RO         7319    .ARM.Collect$$$$0000000D  mc_w.l(entry10a.o)
    0x080001a4   0x080001a4   0x00000000   Code   RO         7321    .ARM.Collect$$$$0000000F  mc_w.l(entry11a.o)
    0x080001a4   0x080001a4   0x00000004   Code   RO         7310    .ARM.Collect$$$$00002712  mc_w.l(entry2.o)
    0x080001a8   0x080001a8   0x000000be   Code   RO         6894    .emb_text           port.o
    0x08000266   0x08000266   0x00000002   PAD
    0x08000268   0x08000268   0x00000024   Code   RO            4    .text               startup_stm32f401xe.o
    0x0800028c   0x0800028c   0x00000062   Code   RO         6980    .text               mc_w.l(uldiv.o)
    0x080002ee   0x080002ee   0x00000024   Code   RO         6984    .text               mc_w.l(memcpya.o)
    0x08000312   0x08000312   0x00000024   Code   RO         6988    .text               mc_w.l(memseta.o)
    0x08000336   0x08000336   0x00000024   Code   RO         6990    .text               mc_w.l(strstr.o)
    0x0800035a   0x0800035a   0x0000000e   Code   RO         6992    .text               mc_w.l(strlen.o)
    0x08000368   0x08000368   0x0000001c   Code   RO         6994    .text               mc_w.l(strcmp.o)
    0x08000384   0x08000384   0x00000012   Code   RO         6996    .text               mc_w.l(strcpy.o)
    0x08000396   0x08000396   0x00000002   PAD
    0x08000398   0x08000398   0x00000038   Code   RO         7291    .text               mc_w.l(__0sscanf.o)
    0x080003d0   0x080003d0   0x00000360   Code   RO         7293    .text               mc_w.l(scanf_fp.o)
    0x08000730   0x08000730   0x0000001a   Code   RO         7299    .text               mf_w.l(dfltui.o)
    0x0800074a   0x0800074a   0x0000003e   Code   RO         7301    .text               mf_w.l(dfixi.o)
    0x08000788   0x08000788   0x00000030   Code   RO         7305    .text               mf_w.l(cdcmple.o)
    0x080007b8   0x080007b8   0x00000030   Code   RO         7307    .text               mf_w.l(cdrcmple.o)
    0x080007e8   0x080007e8   0x0000002c   Code   RO         7324    .text               mc_w.l(uidiv.o)
    0x08000814   0x08000814   0x0000001e   Code   RO         7326    .text               mc_w.l(llshl.o)
    0x08000832   0x08000832   0x00000020   Code   RO         7328    .text               mc_w.l(llushr.o)
    0x08000852   0x08000852   0x00000002   PAD
    0x08000854   0x08000854   0x00000028   Code   RO         7332    .text               mc_w.l(scanf_char.o)
    0x0800087c   0x0800087c   0x00000040   Code   RO         7334    .text               mc_w.l(_sgetc.o)
    0x080008bc   0x080008bc   0x00000000   Code   RO         7338    .text               mc_w.l(iusefp.o)
    0x080008bc   0x080008bc   0x000000ba   Code   RO         7339    .text               mf_w.l(depilogue.o)
    0x08000976   0x08000976   0x0000014e   Code   RO         7341    .text               mf_w.l(dadd.o)
    0x08000ac4   0x08000ac4   0x000000e4   Code   RO         7343    .text               mf_w.l(dmul.o)
    0x08000ba8   0x08000ba8   0x000000de   Code   RO         7345    .text               mf_w.l(ddiv.o)
    0x08000c86   0x08000c86   0x00000018   Code   RO         7347    .text               mf_w.l(dfltul.o)
    0x08000c9e   0x08000c9e   0x00000030   Code   RO         7349    .text               mf_w.l(dfixul.o)
    0x08000cce   0x08000cce   0x00000038   Code   RO         7351    .text               mf_w.l(d2f.o)
    0x08000d06   0x08000d06   0x00000002   PAD
    0x08000d08   0x08000d08   0x00000024   Code   RO         7353    .text               mc_w.l(init.o)
    0x08000d2c   0x08000d2c   0x00000024   Code   RO         7355    .text               mc_w.l(llsshr.o)
    0x08000d50   0x08000d50   0x0000000a   Code   RO         7357    .text               mc_w.l(isspace_c.o)
    0x08000d5a   0x08000d5a   0x00000002   PAD
    0x08000d5c   0x08000d5c   0x0000032c   Code   RO         7359    .text               mc_w.l(_scanf.o)
    0x08001088   0x08001088   0x0000006e   Code   RO         7361    .text               mf_w.l(fepilogue.o)
    0x080010f6   0x080010f6   0x00000002   PAD
    0x080010f8   0x080010f8   0x00000028   Code   RO         7363    .text               mc_w.l(ctype_c.o)
    0x08001120   0x08001120   0x00000056   Code   RO         7374    .text               mc_w.l(__dczerorl2.o)
    0x08001176   0x08001176   0x00000002   PAD
    0x08001178   0x08001178   0x00000024   Code   RO         4136    i.ASCII_GetFontAddr  font1.o
    0x0800119c   0x0800119c   0x0000007c   Code   RO         4652    i.Ali_ConnectServe  wifi.o
    0x08001218   0x08001218   0x000000c8   Code   RO         4653    i.Analysis_alidata  wifi.o
    0x080012e0   0x080012e0   0x00000052   Code   RO         4358    i.At24c02PageWrite  myiic.o
    0x08001332   0x08001332   0x0000006a   Code   RO         4359    i.At24c02ReadBytes  myiic.o
    0x0800139c   0x0800139c   0x0000003c   Code   RO         4361    i.At24c02WriteBytes  myiic.o
    0x080013d8   0x080013d8   0x00000108   Code   RO         4442    i.BS8116ReadKey     bs8116.o
    0x080014e0   0x080014e0   0x00000002   Code   RO          606    i.BusFault_Handler  stm32f4xx_it.o
    0x080014e2   0x080014e2   0x00000066   Code   RO         4168    i.CalulateCRC       rfid.o
    0x08001548   0x08001548   0x00000170   Code   RO         4526    i.CaptureAndExtract  mg200.o
    0x080016b8   0x080016b8   0x00000018   Code   RO         4170    i.ClearBitMask      rfid.o
    0x080016d0   0x080016d0   0x00000018   Code   RO         4654    i.Close_Transmission  wifi.o
    0x080016e8   0x080016e8   0x000000cc   Code   RO         4655    i.Connect_alCloud   wifi.o
    0x080017b4   0x080017b4   0x00000002   Code   RO          607    i.DebugMon_Handler  stm32f4xx_it.o
    0x080017b6   0x080017b6   0x000000aa   Code   RO         4171    i.Delay_us          rfid.o
    0x08001860   0x08001860   0x0000000e   Code   RO         4172    i.Delayus           rfid.o
    0x0800186e   0x0800186e   0x00000002   PAD
    0x08001870   0x08001870   0x0000003c   Code   RO         4953    i.Door_Start        motor.o
    0x080018ac   0x080018ac   0x00000290   Code   RO         4527    i.Enroll            mg200.o
    0x08001b3c   0x08001b3c   0x0000006c   Code   RO         4528    i.EraseAll          mg200.o
    0x08001ba8   0x08001ba8   0x0000006c   Code   RO         4529    i.EraseOne          mg200.o
    0x08001c14   0x08001c14   0x00000002   Code   RO           13    i.Error_Handler     main.o
    0x08001c16   0x08001c16   0x00000002   PAD
    0x08001c18   0x08001c18   0x00000078   Code   RO         4656    i.Esp32_Reset       wifi.o
    0x08001c90   0x08001c90   0x0000005c   Code   RO         4657    i.Esp_8266Config    wifi.o
    0x08001cec   0x08001cec   0x00000024   Code   RO         4658    i.Esp_SendStr       wifi.o
    0x08001d10   0x08001d10   0x00000060   Code   RO         4660    i.Esp_test          wifi.o
    0x08001d70   0x08001d70   0x00000110   Code   RO         4661    i.Esp_wificon       wifi.o
    0x08001e80   0x08001e80   0x00000020   Code   RO         4036    i.FLASH_SPI_WRData  w25q64.o
    0x08001ea0   0x08001ea0   0x00000060   Code   RO         4662    i.Find_Str          wifi.o
    0x08001f00   0x08001f00   0x000000c0   Code   RO         3999    i.Font_Save_Flash   font_down.o
    0x08001fc0   0x08001fc0   0x00000094   Code   RO         4000    i.Fontload_Config   font_down.o
    0x08002054   0x08002054   0x000001a4   Code   RO         4663    i.Get_InitData      wifi.o
    0x080021f8   0x080021f8   0x00000024   Code   RO         1238    i.HAL_DMA_Abort_IT  stm32f4xx_hal_dma.o
    0x0800221c   0x0800221c   0x00000024   Code   RO         1680    i.HAL_Delay         stm32f4xx_hal.o
    0x08002240   0x08002240   0x00000194   Code   RO         1130    i.HAL_GPIO_Init     stm32f4xx_hal_gpio.o
    0x080023d4   0x080023d4   0x0000000a   Code   RO         1132    i.HAL_GPIO_ReadPin  stm32f4xx_hal_gpio.o
    0x080023de   0x080023de   0x0000000e   Code   RO         1133    i.HAL_GPIO_TogglePin  stm32f4xx_hal_gpio.o
    0x080023ec   0x080023ec   0x0000000a   Code   RO         1134    i.HAL_GPIO_WritePin  stm32f4xx_hal_gpio.o
    0x080023f6   0x080023f6   0x00000002   PAD
    0x080023f8   0x080023f8   0x0000000c   Code   RO         1686    i.HAL_GetTick       stm32f4xx_hal.o
    0x08002404   0x08002404   0x00000010   Code   RO         1692    i.HAL_IncTick       stm32f4xx_hal.o
    0x08002414   0x08002414   0x00000034   Code   RO         1693    i.HAL_Init          stm32f4xx_hal.o
    0x08002448   0x08002448   0x00000074   Code   RO          712    i.HAL_InitTick      stm32f4xx_hal_timebase_tim.o
    0x080024bc   0x080024bc   0x00000038   Code   RO          688    i.HAL_MspInit       stm32f4xx_hal_msp.o
    0x080024f4   0x080024f4   0x0000001a   Code   RO         1543    i.HAL_NVIC_EnableIRQ  stm32f4xx_hal_cortex.o
    0x0800250e   0x0800250e   0x00000002   PAD
    0x08002510   0x08002510   0x00000040   Code   RO         1549    i.HAL_NVIC_SetPriority  stm32f4xx_hal_cortex.o
    0x08002550   0x08002550   0x00000024   Code   RO         1550    i.HAL_NVIC_SetPriorityGrouping  stm32f4xx_hal_cortex.o
    0x08002574   0x08002574   0x00000150   Code   RO          857    i.HAL_RCCEx_PeriphCLKConfig  stm32f4xx_hal_rcc_ex.o
    0x080026c4   0x080026c4   0x00000134   Code   RO          752    i.HAL_RCC_ClockConfig  stm32f4xx_hal_rcc.o
    0x080027f8   0x080027f8   0x00000040   Code   RO          756    i.HAL_RCC_GetClockConfig  stm32f4xx_hal_rcc.o
    0x08002838   0x08002838   0x00000020   Code   RO          759    i.HAL_RCC_GetPCLK1Freq  stm32f4xx_hal_rcc.o
    0x08002858   0x08002858   0x00000020   Code   RO          760    i.HAL_RCC_GetPCLK2Freq  stm32f4xx_hal_rcc.o
    0x08002878   0x08002878   0x00000064   Code   RO          761    i.HAL_RCC_GetSysClockFreq  stm32f4xx_hal_rcc.o
    0x080028dc   0x080028dc   0x0000035c   Code   RO          764    i.HAL_RCC_OscConfig  stm32f4xx_hal_rcc.o
    0x08002c38   0x08002c38   0x00000044   Code   RO         1936    i.HAL_RTC_GetDate   stm32f4xx_hal_rtc.o
    0x08002c7c   0x08002c7c   0x00000058   Code   RO         1938    i.HAL_RTC_GetTime   stm32f4xx_hal_rtc.o
    0x08002cd4   0x08002cd4   0x000000ac   Code   RO         1939    i.HAL_RTC_Init      stm32f4xx_hal_rtc.o
    0x08002d80   0x08002d80   0x00000018   Code   RO          401    i.HAL_RTC_MspInit   rtc.o
    0x08002d98   0x08002d98   0x000000c8   Code   RO         1945    i.HAL_RTC_SetDate   stm32f4xx_hal_rtc.o
    0x08002e60   0x08002e60   0x000000ec   Code   RO         1946    i.HAL_RTC_SetTime   stm32f4xx_hal_rtc.o
    0x08002f4c   0x08002f4c   0x00000036   Code   RO         1947    i.HAL_RTC_WaitForSynchro  stm32f4xx_hal_rtc.o
    0x08002f82   0x08002f82   0x00000080   Code   RO         2307    i.HAL_SPI_Init      stm32f4xx_hal_spi.o
    0x08003002   0x08003002   0x00000002   PAD
    0x08003004   0x08003004   0x00000118   Code   RO          445    i.HAL_SPI_MspInit   spi.o
    0x0800311c   0x0800311c   0x000001e2   Code   RO         2316    i.HAL_SPI_TransmitReceive  stm32f4xx_hal_spi.o
    0x080032fe   0x080032fe   0x00000002   Code   RO         3295    i.HAL_TIMEx_BreakCallback  stm32f4xx_hal_tim_ex.o
    0x08003300   0x08003300   0x00000002   Code   RO         3296    i.HAL_TIMEx_CommutCallback  stm32f4xx_hal_tim_ex.o
    0x08003302   0x08003302   0x00000002   PAD
    0x08003304   0x08003304   0x0000007c   Code   RO         3313    i.HAL_TIMEx_MasterConfigSynchronization  stm32f4xx_hal_tim_ex.o
    0x08003380   0x08003380   0x00000036   Code   RO         2620    i.HAL_TIM_Base_Init  stm32f4xx_hal_tim.o
    0x080033b6   0x080033b6   0x00000002   PAD
    0x080033b8   0x080033b8   0x0000003c   Code   RO          499    i.HAL_TIM_Base_MspInit  tim.o
    0x080033f4   0x080033f4   0x00000022   Code   RO         2625    i.HAL_TIM_Base_Start_IT  stm32f4xx_hal_tim.o
    0x08003416   0x08003416   0x000000d6   Code   RO         2629    i.HAL_TIM_ConfigClockSource  stm32f4xx_hal_tim.o
    0x080034ec   0x080034ec   0x00000002   Code   RO         2649    i.HAL_TIM_IC_CaptureCallback  stm32f4xx_hal_tim.o
    0x080034ee   0x080034ee   0x00000166   Code   RO         2663    i.HAL_TIM_IRQHandler  stm32f4xx_hal_tim.o
    0x08003654   0x08003654   0x00000002   Code   RO         2666    i.HAL_TIM_OC_DelayElapsedCallback  stm32f4xx_hal_tim.o
    0x08003656   0x08003656   0x00000002   Code   RO         2693    i.HAL_TIM_PWM_PulseFinishedCallback  stm32f4xx_hal_tim.o
    0x08003658   0x08003658   0x00000014   Code   RO           14    i.HAL_TIM_PeriodElapsedCallback  main.o
    0x0800366c   0x0800366c   0x00000002   Code   RO         2706    i.HAL_TIM_TriggerCallback  stm32f4xx_hal_tim.o
    0x0800366e   0x0800366e   0x00000002   Code   RO         3567    i.HAL_UART_ErrorCallback  stm32f4xx_hal_uart.o
    0x08003670   0x08003670   0x00000114   Code   RO         3570    i.HAL_UART_IRQHandler  stm32f4xx_hal_uart.o
    0x08003784   0x08003784   0x00000062   Code   RO         3571    i.HAL_UART_Init     stm32f4xx_hal_uart.o
    0x080037e6   0x080037e6   0x00000002   PAD
    0x080037e8   0x080037e8   0x0000011c   Code   RO          547    i.HAL_UART_MspInit  usart.o
    0x08003904   0x08003904   0x00000002   Code   RO         3577    i.HAL_UART_RxCpltCallback  stm32f4xx_hal_uart.o
    0x08003906   0x08003906   0x000000ba   Code   RO         3579    i.HAL_UART_Transmit  stm32f4xx_hal_uart.o
    0x080039c0   0x080039c0   0x00000002   Code   RO         3582    i.HAL_UART_TxCpltCallback  stm32f4xx_hal_uart.o
    0x080039c2   0x080039c2   0x00000002   Code   RO          608    i.HardFault_Handler  stm32f4xx_it.o
    0x080039c4   0x080039c4   0x00000020   Code   RO         4443    i.IIC1_Config       bs8116.o
    0x080039e4   0x080039e4   0x00000044   Code   RO         4444    i.IIC1_Revice_Ack   bs8116.o
    0x08003a28   0x08003a28   0x0000005c   Code   RO         4445    i.IIC1_Revice_Byte  bs8116.o
    0x08003a84   0x08003a84   0x00000040   Code   RO         4446    i.IIC1_Send_Ack     bs8116.o
    0x08003ac4   0x08003ac4   0x00000054   Code   RO         4447    i.IIC1_Send_Byte    bs8116.o
    0x08003b18   0x08003b18   0x00000050   Code   RO         4448    i.IIC1_Start        bs8116.o
    0x08003b68   0x08003b68   0x00000038   Code   RO         4449    i.IIC1_Stop         bs8116.o
    0x08003ba0   0x08003ba0   0x00000060   Code   RO         4362    i.IIC3_Revice_Ack   myiic.o
    0x08003c00   0x08003c00   0x0000007c   Code   RO         4363    i.IIC3_Revice_Byte  myiic.o
    0x08003c7c   0x08003c7c   0x00000050   Code   RO         4364    i.IIC3_Send_Ack     myiic.o
    0x08003ccc   0x08003ccc   0x00000070   Code   RO         4365    i.IIC3_Send_Byte    myiic.o
    0x08003d3c   0x08003d3c   0x0000004c   Code   RO         4366    i.IIC3_Start        myiic.o
    0x08003d88   0x08003d88   0x00000040   Code   RO         4367    i.IIC3_Stop         myiic.o
    0x08003dc8   0x08003dc8   0x00000026   Code   RO         4173    i.Identificate_Card  rfid.o
    0x08003dee   0x08003dee   0x00000002   PAD
    0x08003df0   0x08003df0   0x00000024   Code   RO         4368    i.Iic3_config       myiic.o
    0x08003e14   0x08003e14   0x00000030   Code   RO         4610    i.Low               voice.o
    0x08003e44   0x08003e44   0x00000058   Code   RO         4174    i.M500PcdConfigISOType  rfid.o
    0x08003e9c   0x08003e9c   0x00000068   Code   RO         4531    i.MG200Ack          mg200.o
    0x08003f04   0x08003f04   0x0000002c   Code   RO         4532    i.MG200Init         mg200.o
    0x08003f30   0x08003f30   0x00000014   Code   RO         4533    i.MG200SendByte     mg200.o
    0x08003f44   0x08003f44   0x0000003a   Code   RO         4534    i.MG200SendCommond  mg200.o
    0x08003f7e   0x08003f7e   0x00000002   PAD
    0x08003f80   0x08003f80   0x000000ac   Code   RO          310    i.MX_FREERTOS_Init  freertos.o
    0x0800402c   0x0800402c   0x0000017c   Code   RO          286    i.MX_GPIO_Init      gpio.o
    0x080041a8   0x080041a8   0x00000088   Code   RO          402    i.MX_RTC_Init       rtc.o
    0x08004230   0x08004230   0x00000044   Code   RO          446    i.MX_SPI1_Init      spi.o
    0x08004274   0x08004274   0x00000044   Code   RO          447    i.MX_SPI2_Init      spi.o
    0x080042b8   0x080042b8   0x00000048   Code   RO          448    i.MX_SPI3_Init      spi.o
    0x08004300   0x08004300   0x00000064   Code   RO          500    i.MX_TIM2_Init      tim.o
    0x08004364   0x08004364   0x00000068   Code   RO          501    i.MX_TIM5_Init      tim.o
    0x080043cc   0x080043cc   0x00000038   Code   RO          548    i.MX_USART1_UART_Init  usart.o
    0x08004404   0x08004404   0x00000038   Code   RO          549    i.MX_USART2_UART_Init  usart.o
    0x0800443c   0x0800443c   0x00000038   Code   RO          550    i.MX_USART6_UART_Init  usart.o
    0x08004474   0x08004474   0x000000b0   Code   RO         4535    i.Match1N           mg200.o
    0x08004524   0x08004524   0x00000002   Code   RO          609    i.MemManage_Handler  stm32f4xx_it.o
    0x08004526   0x08004526   0x000000bc   Code   RO         4664    i.Mqtt_PublishQs0   wifi.o
    0x080045e2   0x080045e2   0x00000002   PAD
    0x080045e4   0x080045e4   0x00000080   Code   RO         4665    i.Mqtt_Setsendmode  wifi.o
    0x08004664   0x08004664   0x0000008c   Code   RO         4666    i.Mqtt_Subscribepack  wifi.o
    0x080046f0   0x080046f0   0x00000078   Code   RO         4667    i.Mqtt_del_subscribe  wifi.o
    0x08004768   0x08004768   0x000000ec   Code   RO         4668    i.Mqtt_send_connectpack  wifi.o
    0x08004854   0x08004854   0x00000028   Code   RO         4669    i.Mqtt_sendpack     wifi.o
    0x0800487c   0x0800487c   0x00000002   Code   RO          610    i.NMI_Handler       stm32f4xx_it.o
    0x0800487e   0x0800487e   0x00000002   PAD
    0x08004880   0x08004880   0x0000007c   Code   RO         4670    i.Open_Transmission  wifi.o
    0x080048fc   0x080048fc   0x00000008   Code   RO         4175    i.PcdAntennaOff     rfid.o
    0x08004904   0x08004904   0x0000001a   Code   RO         4176    i.PcdAntennaOn      rfid.o
    0x0800491e   0x0800491e   0x0000006a   Code   RO         4177    i.PcdAnticoll       rfid.o
    0x08004988   0x08004988   0x00000120   Code   RO         4179    i.PcdComMF522       rfid.o
    0x08004aa8   0x08004aa8   0x00000052   Code   RO         4182    i.PcdRequest        rfid.o
    0x08004afa   0x08004afa   0x00000002   PAD
    0x08004afc   0x08004afc   0x00000084   Code   RO         4183    i.PcdReset          rfid.o
    0x08004b80   0x08004b80   0x00000064   Code   RO         4184    i.PcdSelect         rfid.o
    0x08004be4   0x08004be4   0x00000030   Code   RO         4186    i.RFID_Init         rfid.o
    0x08004c14   0x08004c14   0x00000012   Code   RO         1948    i.RTC_Bcd2ToByte    stm32f4xx_hal_rtc.o
    0x08004c26   0x08004c26   0x00000016   Code   RO         1949    i.RTC_ByteToBcd2    stm32f4xx_hal_rtc.o
    0x08004c3c   0x08004c3c   0x0000003a   Code   RO         1950    i.RTC_EnterInitMode  stm32f4xx_hal_rtc.o
    0x08004c76   0x08004c76   0x00000002   PAD
    0x08004c78   0x08004c78   0x0000003c   Code   RO         4188    i.ReadRawRC         rfid.o
    0x08004cb4   0x08004cb4   0x00000012   Code   RO         4190    i.Reset_RC522       rfid.o
    0x08004cc6   0x08004cc6   0x00000002   PAD
    0x08004cc8   0x08004cc8   0x000000fc   Code   RO         4450    i.Ret_key_value     bs8116.o
    0x08004dc4   0x08004dc4   0x00000058   Code   RO         2345    i.SPI_EndRxTxTransaction  stm32f4xx_hal_spi.o
    0x08004e1c   0x08004e1c   0x00000094   Code   RO         2350    i.SPI_WaitFlagStateUntilTimeout  stm32f4xx_hal_spi.o
    0x08004eb0   0x08004eb0   0x00000018   Code   RO         4191    i.SetBitMask        rfid.o
    0x08004ec8   0x08004ec8   0x00000024   Code   RO         4192    i.Spi3_wr_data      rfid.o
    0x08004eec   0x08004eec   0x00000008   Code   RO          311    i.StartDefaultTask  freertos.o
    0x08004ef4   0x08004ef4   0x00000014   Code   RO          312    i.StartTask02       freertos.o
    0x08004f08   0x08004f08   0x00000020   Code   RO          313    i.StartTask03       freertos.o
    0x08004f28   0x08004f28   0x00000078   Code   RO          314    i.StartTask04       freertos.o
    0x08004fa0   0x08004fa0   0x00000070   Code   RO          315    i.StartTask05       freertos.o
    0x08005010   0x08005010   0x0000000c   Code   RO          316    i.StartTask06       freertos.o
    0x0800501c   0x0800501c   0x00000028   Code   RO          317    i.StartTask07       freertos.o
    0x08005044   0x08005044   0x00000010   Code   RO         4977    i.State_ui          my_ui.o
    0x08005054   0x08005054   0x0000002c   Code   RO         6895    i.SysTick_Handler   port.o
    0x08005080   0x08005080   0x000000a0   Code   RO           15    i.SystemClock_Config  main.o
    0x08005120   0x08005120   0x0000001c   Code   RO         3873    i.SystemInit        system_stm32f4xx.o
    0x0800513c   0x0800513c   0x0000000c   Code   RO          611    i.TIM4_IRQHandler   stm32f4xx_it.o
    0x08005148   0x08005148   0x00000098   Code   RO         2708    i.TIM_Base_SetConfig  stm32f4xx_hal_tim.o
    0x080051e0   0x080051e0   0x00000014   Code   RO         2719    i.TIM_ETR_SetConfig  stm32f4xx_hal_tim.o
    0x080051f4   0x080051f4   0x00000010   Code   RO         2720    i.TIM_ITRx_SetConfig  stm32f4xx_hal_tim.o
    0x08005204   0x08005204   0x00000022   Code   RO         2726    i.TIM_TI1_ConfigInputStage  stm32f4xx_hal_tim.o
    0x08005226   0x08005226   0x00000024   Code   RO         2728    i.TIM_TI2_ConfigInputStage  stm32f4xx_hal_tim.o
    0x0800524a   0x0800524a   0x00000010   Code   RO         3584    i.UART_DMAAbortOnError  stm32f4xx_hal_uart.o
    0x0800525a   0x0800525a   0x0000001c   Code   RO         3594    i.UART_EndRxTransfer  stm32f4xx_hal_uart.o
    0x08005276   0x08005276   0x00000096   Code   RO         3596    i.UART_Receive_IT   stm32f4xx_hal_uart.o
    0x0800530c   0x0800530c   0x00000128   Code   RO         3597    i.UART_SetConfig    stm32f4xx_hal_uart.o
    0x08005434   0x08005434   0x00000062   Code   RO         3598    i.UART_Transmit_IT  stm32f4xx_hal_uart.o
    0x08005496   0x08005496   0x00000064   Code   RO         3599    i.UART_WaitOnFlagUntilTimeout  stm32f4xx_hal_uart.o
    0x080054fa   0x080054fa   0x00000002   PAD
    0x080054fc   0x080054fc   0x00000074   Code   RO          612    i.USART1_IRQHandler  stm32f4xx_it.o
    0x08005570   0x08005570   0x00000074   Code   RO          613    i.USART2_IRQHandler  stm32f4xx_it.o
    0x080055e4   0x080055e4   0x00000044   Code   RO          614    i.USART6_IRQHandler  stm32f4xx_it.o
    0x08005628   0x08005628   0x00000002   Code   RO          615    i.UsageFault_Handler  stm32f4xx_it.o
    0x0800562a   0x0800562a   0x00000002   PAD
    0x0800562c   0x0800562c   0x00000080   Code   RO         4612    i.VoiceSendData     voice.o
    0x080056ac   0x080056ac   0x00000054   Code   RO         4037    i.W25Q64ReadBytes   w25q64.o
    0x08005700   0x08005700   0x0000003c   Code   RO         4194    i.WriteRawRC        rfid.o
    0x0800573c   0x0800573c   0x00000020   Code   RO         7235    i.__0printf         mc_w.l(printfa.o)
    0x0800575c   0x0800575c   0x00000028   Code   RO         7237    i.__0sprintf        mc_w.l(printfa.o)
    0x08005784   0x08005784   0x00000020   Code   RO         1556    i.__NVIC_SetPriority  stm32f4xx_hal_cortex.o
    0x080057a4   0x080057a4   0x0000005c   Code   RO         7267    i.__free$realloc    mc_w.l(mallocr.o)
    0x08005800   0x08005800   0x00000050   Code   RO         7268    i.__malloc$realloc  mc_w.l(mallocr.o)
    0x08005850   0x08005850   0x0000000e   Code   RO         7368    i.__scatterload_copy  mc_w.l(handlers.o)
    0x0800585e   0x0800585e   0x00000002   Code   RO         7369    i.__scatterload_null  mc_w.l(handlers.o)
    0x08005860   0x08005860   0x0000000e   Code   RO         7370    i.__scatterload_zeroinit  mc_w.l(handlers.o)
    0x0800586e   0x0800586e   0x00000002   PAD
    0x08005870   0x08005870   0x00000184   Code   RO         7242    i._fp_digits        mc_w.l(printfa.o)
    0x080059f4   0x080059f4   0x0000000e   Code   RO         7295    i._is_digit         mc_w.l(scanf_fp.o)
    0x08005a02   0x08005a02   0x00000002   PAD
    0x08005a04   0x08005a04   0x000006dc   Code   RO         7243    i._printf_core      mc_w.l(printfa.o)
    0x080060e0   0x080060e0   0x00000024   Code   RO         7244    i._printf_post_padding  mc_w.l(printfa.o)
    0x08006104   0x08006104   0x0000002e   Code   RO         7245    i._printf_pre_padding  mc_w.l(printfa.o)
    0x08006132   0x08006132   0x0000000a   Code   RO         7247    i._sputc            mc_w.l(printfa.o)
    0x0800613c   0x0800613c   0x00000022   Code   RO         5104    i.add_item_to_array  cjson.o
    0x0800615e   0x0800615e   0x00000056   Code   RO         5105    i.add_item_to_object  cjson.o
    0x080061b4   0x080061b4   0x000002dc   Code   RO         4978    i.admin_ui_function  my_ui.o
    0x08006490   0x08006490   0x00000014   Code   RO         5113    i.cJSON_AddItemToObject  cjson.o
    0x080064a4   0x080064a4   0x00000030   Code   RO         5116    i.cJSON_AddNumberToObject  cjson.o
    0x080064d4   0x080064d4   0x00000030   Code   RO         5119    i.cJSON_AddStringToObject  cjson.o
    0x08006504   0x08006504   0x00000078   Code   RO         5130    i.cJSON_CreateNumber  cjson.o
    0x0800657c   0x0800657c   0x00000018   Code   RO         5131    i.cJSON_CreateObject  cjson.o
    0x08006594   0x08006594   0x00000030   Code   RO         5134    i.cJSON_CreateString  cjson.o
    0x080065c4   0x080065c4   0x00000048   Code   RO         5138    i.cJSON_Delete      cjson.o
    0x0800660c   0x0800660c   0x00000016   Code   RO         5167    i.cJSON_New_Item    cjson.o
    0x08006622   0x08006622   0x00000002   PAD
    0x08006624   0x08006624   0x0000000c   Code   RO         5170    i.cJSON_Print       cjson.o
    0x08006630   0x08006630   0x00000028   Code   RO         5182    i.cJSON_strdup      cjson.o
    0x08006658   0x08006658   0x0000019c   Code   RO         5028    i.change_admin_ui_function  shartui.o
    0x080067f4   0x080067f4   0x00000180   Code   RO         5029    i.change_user_ui_function  shartui.o
    0x08006974   0x08006974   0x00000114   Code   RO         5030    i.del_all_finger_function  shartui.o
    0x08006a88   0x08006a88   0x000001a0   Code   RO         5031    i.del_card_ui_function  shartui.o
    0x08006c28   0x08006c28   0x00000144   Code   RO         5032    i.del_finger_ui_function  shartui.o
    0x08006d6c   0x08006d6c   0x0000008a   Code   RO         5184    i.ensure            cjson.o
    0x08006df6   0x08006df6   0x00000002   PAD
    0x08006df8   0x08006df8   0x00000018   Code   RO          551    i.fputc             usart.o
    0x08006e10   0x08006e10   0x00000050   Code   RO         7269    i.internal_alloc    mc_w.l(mallocr.o)
    0x08006e60   0x08006e60   0x000000d8   Code   RO           16    i.main              main.o
    0x08006f38   0x08006f38   0x000001a8   Code   RO         4979    i.main_ui_function  my_ui.o
    0x080070e0   0x080070e0   0x0000000c   Code   RO         6466    i.makeFreeRtosPriority  cmsis_os.o
    0x080070ec   0x080070ec   0x00000040   Code   RO         4451    i.my_delay_nms      bs8116.o
    0x0800712c   0x0800712c   0x0000003c   Code   RO         4452    i.my_delay_nus      bs8116.o
    0x08007168   0x08007168   0x00000180   Code   RO         4671    i.my_json_mode      wifi.o
    0x080072e8   0x080072e8   0x0000001c   Code   RO         4980    i.my_strcmp         my_ui.o
    0x08007304   0x08007304   0x0000000e   Code   RO         6468    i.osDelay           cmsis_os.o
    0x08007312   0x08007312   0x0000000a   Code   RO         6471    i.osKernelStart     cmsis_os.o
    0x0800731c   0x0800731c   0x00000054   Code   RO         6505    i.osThreadCreate    cmsis_os.o
    0x08007370   0x08007370   0x00000098   Code   RO         5194    i.print             cjson.o
    0x08007408   0x08007408   0x00000096   Code   RO         5195    i.print_array       cjson.o
    0x0800749e   0x0800749e   0x00000002   PAD
    0x080074a0   0x080074a0   0x000000a8   Code   RO         5196    i.print_number      cjson.o
    0x08007548   0x08007548   0x00000140   Code   RO         5197    i.print_object      cjson.o
    0x08007688   0x08007688   0x00000110   Code   RO         5198    i.print_string_ptr  cjson.o
    0x08007798   0x08007798   0x000000d0   Code   RO         5199    i.print_value       cjson.o
    0x08007868   0x08007868   0x00000070   Code   RO         6160    i.prvAddCurrentTaskToDelayedList  tasks.o
    0x080078d8   0x080078d8   0x000000d0   Code   RO         6161    i.prvAddNewTaskToReadyList  tasks.o
    0x080079a8   0x080079a8   0x00000034   Code   RO         6162    i.prvDeleteTCB      tasks.o
    0x080079dc   0x080079dc   0x0000004c   Code   RO         6833    i.prvHeapInit       heap_4.o
    0x08007a28   0x08007a28   0x00000060   Code   RO         6163    i.prvIdleTask       tasks.o
    0x08007a88   0x08007a88   0x00000098   Code   RO         6164    i.prvInitialiseNewTask  tasks.o
    0x08007b20   0x08007b20   0x0000004c   Code   RO         6834    i.prvInsertBlockIntoFreeList  heap_4.o
    0x08007b6c   0x08007b6c   0x00000020   Code   RO         6165    i.prvResetNextTaskUnblockTime  tasks.o
    0x08007b8c   0x08007b8c   0x00000028   Code   RO         6896    i.prvTaskExitError  port.o
    0x08007bb4   0x08007bb4   0x000000d8   Code   RO         6835    i.pvPortMalloc      heap_4.o
    0x08007c8c   0x08007c8c   0x0000002c   Code   RO         6897    i.pxPortInitialiseStack  port.o
    0x08007cb8   0x08007cb8   0x0000006c   Code   RO         7270    i.realloc           mc_w.l(mallocr.o)
    0x08007d24   0x08007d24   0x00000188   Code   RO         5033    i.registr_card_ui_function  shartui.o
    0x08007eac   0x08007eac   0x00000108   Code   RO         5034    i.registr_finger_ui_function  shartui.o
    0x08007fb4   0x08007fb4   0x00000150   Code   RO         5035    i.reset_ui_function  shartui.o
    0x08008104   0x08008104   0x00000048   Code   RO         4039    i.sFLASH_EraseSector  w25q64.o
    0x0800814c   0x0800814c   0x00000058   Code   RO         4041    i.sFLASH_ReadBuffer  w25q64.o
    0x080081a4   0x080081a4   0x00000004   Code   RO         4044    i.sFLASH_SendByte   w25q64.o
    0x080081a8   0x080081a8   0x00000030   Code   RO         4046    i.sFLASH_WaitForWriteEnd  w25q64.o
    0x080081d8   0x080081d8   0x000000bc   Code   RO         4047    i.sFLASH_WriteBuffer  w25q64.o
    0x08008294   0x08008294   0x00000028   Code   RO         4048    i.sFLASH_WriteEnable  w25q64.o
    0x080082bc   0x080082bc   0x0000005c   Code   RO         4049    i.sFLASH_WritePage  w25q64.o
    0x08008318   0x08008318   0x000001c0   Code   RO         5036    i.set_voice_task    shartui.o
    0x080084d8   0x080084d8   0x00000036   Code   RO         3910    i.st7789vm_clear_display  st7789vm_oled.o
    0x0800850e   0x0800850e   0x00000014   Code   RO         3911    i.st7789vm_delay_microsecond  st7789vm_oled.o
    0x08008522   0x08008522   0x00000002   PAD
    0x08008524   0x08008524   0x00000070   Code   RO         3912    i.st7789vm_display_aciss  st7789vm_oled.o
    0x08008594   0x08008594   0x00000164   Code   RO         3913    i.st7789vm_display_hz  st7789vm_oled.o
    0x080086f8   0x080086f8   0x0000003a   Code   RO         3914    i.st7789vm_display_picture  st7789vm_oled.o
    0x08008732   0x08008732   0x00000016   Code   RO         3915    i.st7789vm_display_point  st7789vm_oled.o
    0x08008748   0x08008748   0x0000004c   Code   RO         3916    i.st7789vm_display_string  st7789vm_oled.o
    0x08008794   0x08008794   0x000001cc   Code   RO         3917    i.st7789vm_init     st7789vm_oled.o
    0x08008960   0x08008960   0x0000003a   Code   RO         3918    i.st7789vm_set_position  st7789vm_oled.o
    0x0800899a   0x0800899a   0x00000002   PAD
    0x0800899c   0x0800899c   0x00000024   Code   RO         3919    i.st7789vm_spi_read_write_byte_data  st7789vm_oled.o
    0x080089c0   0x080089c0   0x00000038   Code   RO         3920    i.st7789vm_write_command  st7789vm_oled.o
    0x080089f8   0x080089f8   0x00000034   Code   RO         3921    i.st7789vm_write_command_parameter  st7789vm_oled.o
    0x08008a2c   0x08008a2c   0x0000003c   Code   RO         3922    i.st7789vm_write_data  st7789vm_oled.o
    0x08008a68   0x08008a68   0x0000001c   Code   RO         5201    i.update_offset     cjson.o
    0x08008a84   0x08008a84   0x00000012   Code   RO         4836    i.utils_hb2hex      utils_md5.o
    0x08008a96   0x08008a96   0x000000d6   Code   RO         4800    i.utils_hmac_sha1   utils_hmac.o
    0x08008b6c   0x08008b6c   0x000000d8   Code   RO         4898    i.utils_sha1_finish  utils_sha1.o
    0x08008c44   0x08008c44   0x00000006   Code   RO         4900    i.utils_sha1_init   utils_sha1.o
    0x08008c4a   0x08008c4a   0x00000002   PAD
    0x08008c4c   0x08008c4c   0x0000123e   Code   RO         4901    i.utils_sha1_process  utils_sha1.o
    0x08009e8a   0x08009e8a   0x00000002   PAD
    0x08009e8c   0x08009e8c   0x0000002c   Code   RO         4902    i.utils_sha1_starts  utils_sha1.o
    0x08009eb8   0x08009eb8   0x00000070   Code   RO         4903    i.utils_sha1_update  utils_sha1.o
    0x08009f28   0x08009f28   0x00000026   Code   RO         5799    i.uxListRemove      list.o
    0x08009f4e   0x08009f4e   0x00000002   PAD
    0x08009f50   0x08009f50   0x00000014   Code   RO          318    i.vApplicationGetIdleTaskMemory  freertos.o
    0x08009f64   0x08009f64   0x00000016   Code   RO         5800    i.vListInitialise   list.o
    0x08009f7a   0x08009f7a   0x00000006   Code   RO         5801    i.vListInitialiseItem  list.o
    0x08009f80   0x08009f80   0x00000030   Code   RO         5802    i.vListInsert       list.o
    0x08009fb0   0x08009fb0   0x00000018   Code   RO         5803    i.vListInsertEnd    list.o
    0x08009fc8   0x08009fc8   0x00000040   Code   RO         6899    i.vPortEnterCritical  port.o
    0x0800a008   0x0800a008   0x00000028   Code   RO         6900    i.vPortExitCritical  port.o
    0x0800a030   0x0800a030   0x0000005c   Code   RO         6836    i.vPortFree         heap_4.o
    0x0800a08c   0x0800a08c   0x00000024   Code   RO         6901    i.vPortSetupTimerInterrupt  port.o
    0x0800a0b0   0x0800a0b0   0x0000004c   Code   RO         6173    i.vTaskDelay        tasks.o
    0x0800a0fc   0x0800a0fc   0x0000006c   Code   RO         6186    i.vTaskStartScheduler  tasks.o
    0x0800a168   0x0800a168   0x00000010   Code   RO         6188    i.vTaskSuspendAll   tasks.o
    0x0800a178   0x0800a178   0x0000005c   Code   RO         6189    i.vTaskSwitchContext  tasks.o
    0x0800a1d4   0x0800a1d4   0x00000024   Code   RO         4613    i.voice_sendcmd     voice.o
    0x0800a1f8   0x0800a1f8   0x000000f4   Code   RO         6903    i.xPortStartScheduler  port.o
    0x0800a2ec   0x0800a2ec   0x0000005a   Code   RO         6191    i.xTaskCreate       tasks.o
    0x0800a346   0x0800a346   0x00000056   Code   RO         6192    i.xTaskCreateStatic  tasks.o
    0x0800a39c   0x0800a39c   0x000000c8   Code   RO         6199    i.xTaskIncrementTick  tasks.o
    0x0800a464   0x0800a464   0x000000c4   Code   RO         6205    i.xTaskResumeAll    tasks.o
    0x0800a528   0x0800a528   0x000000c4   Data   RO          320    .constdata          freertos.o
    0x0800a5ec   0x0800a5ec   0x00000010   Data   RO         3874    .constdata          system_stm32f4xx.o
    0x0800a5fc   0x0800a5fc   0x00000008   Data   RO         3875    .constdata          system_stm32f4xx.o
    0x0800a604   0x0800a604   0x00000040   Data   RO         4904    .constdata          utils_sha1.o
    0x0800a644   0x0800a644   0x0001c208   Data   RO         4981    .constdata          my_ui.o
    0x0802684c   0x0802684c   0x00000040   Data   RO         7364    .constdata          mc_w.l(ctype_c.o)
    0x0802688c   0x0802688c   0x00000064   Data   RO          321    .conststring        freertos.o
    0x080268f0   0x080268f0   0x00000020   Data   RO         7366    Region$$Table       anon$$obj.o


    Execution Region RW_IRAM1 (Exec base: 0x20000000, Load base: 0x08026910, Size: 0x0000a840, Max: 0x00018000, ABSOLUTE, COMPRESSED[0x0000038c])

    Exec Addr    Load Addr    Size         Type   Attr      Idx    E Section Name        Object

    0x20000000   COMPRESSED   0x0000001c   Data   RW          322    .data               freertos.o
    0x2000001c   COMPRESSED   0x00000004   Data   RW          405    .data               rtc.o
    0x20000020   COMPRESSED   0x0000000c   Data   RW         1700    .data               stm32f4xx_hal.o
    0x2000002c   COMPRESSED   0x00000004   Data   RW         3876    .data               system_stm32f4xx.o
    0x20000030   COMPRESSED   0x00000003   Data   RW         4002    .data               font_down.o
    0x20000033   COMPRESSED   0x00000060   Data   RW         4137    .data               font1.o
    0x20000093   COMPRESSED   0x000005f0   Data   RW         4138    .data               font1.o
    0x20000683   COMPRESSED   0x00000005   Data   RW         4197    .data               rfid.o
    0x20000688   COMPRESSED   0x00000008   Data   RW         4199    .data               rfid.o
    0x20000690   COMPRESSED   0x0000000e   Data   RW         4982    .data               my_ui.o
    0x2000069e   COMPRESSED   0x00000004   Data   RW         5038    .data               shartui.o
    0x200006a2   COMPRESSED   0x00000002   PAD
    0x200006a4   COMPRESSED   0x00000014   Data   RW         5204    .data               cjson.o
    0x200006b8   COMPRESSED   0x0000003c   Data   RW         6208    .data               tasks.o
    0x200006f4   COMPRESSED   0x00000018   Data   RW         6841    .data               heap_4.o
    0x2000070c   COMPRESSED   0x0000000c   Data   RW         6904    .data               port.o
    0x20000718   COMPRESSED   0x00000004   Data   RW         7323    .data               mc_w.l(stdout.o)
    0x2000071c   COMPRESSED   0x00000004   Data   RW         7330    .data               mc_w.l(mvars.o)
    0x20000720   COMPRESSED   0x00000004   Data   RW         7331    .data               mc_w.l(mvars.o)
    0x20000724        -       0x00000254   Zero   RW          319    .bss                freertos.o
    0x20000978        -       0x00000014   Zero   RW          403    .bss                rtc.o
    0x2000098c        -       0x00000020   Zero   RW          404    .bss                rtc.o
    0x200009ac        -       0x00000108   Zero   RW          449    .bss                spi.o
    0x20000ab4        -       0x00000080   Zero   RW          502    .bss                tim.o
    0x20000b34        -       0x000000c0   Zero   RW          552    .bss                usart.o
    0x20000bf4        -       0x00000040   Zero   RW          715    .bss                stm32f4xx_hal_timebase_tim.o
    0x20000c34        -       0x00002006   Zero   RW         4001    .bss                font_down.o
    0x20002c3a        -       0x0000000c   Zero   RW         4536    .bss                mg200.o
    0x20002c46        -       0x0000030a   Zero   RW         4673    .bss                wifi.o
    0x20002f50        -       0x000000f0   Zero   RW         6207    .bss                tasks.o
    0x20003040        -       0x00003c00   Zero   RW         6840    .bss                heap_4.o
    0x20006c40        -       0x00001400   Zero   RW            2    HEAP                startup_stm32f401xe.o
    0x20008040        -       0x00002800   Zero   RW            1    STACK               startup_stm32f401xe.o


==============================================================================

Image component sizes


      Code (inc. data)   RO Data    RW Data    ZI Data      Debug   Object Name

      1116         80          0          0          0       6659   bs8116.o
      2010        118          0         20          0      20803   cjson.o
       120          0          0          0          0      23121   cmsis_os.o
         0          0          0          0          0      15748   event_groups.o
        36          6          0       1616          0       1244   font1.o
       340        100          0          3       8198       2109   font_down.o
       536         88        296         28        596       6383   freertos.o
       380         22          0          0          0       1067   gpio.o
       460         24          0         24      15360       7307   heap_4.o
       138          0          0          0          0       3534   list.o
       398         68          0          0          0     466480   main.o
      1642        678          0          0         12       7426   mg200.o
        60          4          0          0          0        493   motor.o
      1200        248     115208         14          0       4418   my_ui.o
       836         64          0          0          0       6627   myiic.o
       702         72          0         12          0      11064   port.o
      1424         30          0         13          0      13008   rfid.o
       160         18          0          4         52       1621   rtc.o
      3252        640          0          4          0       7770   shartui.o
       488         56          0          0        264       3051   spi.o
      1420         48          0          0          0      10001   st7789vm_oled.o
        36          8        404          0      15360        836   startup_stm32f401xe.o
       116         18          0         12          0       8562   stm32f4xx_hal.o
       158         14          0          0          0      33146   stm32f4xx_hal_cortex.o
        36          0          0          0          0       1211   stm32f4xx_hal_dma.o
       438         34          0          0          0       3656   stm32f4xx_hal_gpio.o
        56          4          0          0          0        834   stm32f4xx_hal_msp.o
      1396         86          0          0          0       5877   stm32f4xx_hal_rcc.o
       336         26          0          0          0       1396   stm32f4xx_hal_rcc_ex.o
       916         30          0          0          0       7500   stm32f4xx_hal_rtc.o
       846          8          0          0          0       4729   stm32f4xx_hal_spi.o
       926         30          0          0          0       9969   stm32f4xx_hal_tim.o
       128         20          0          0          0       2449   stm32f4xx_hal_tim_ex.o
       116         16          0          0         64       1391   stm32f4xx_hal_timebase_tim.o
      1254         16          0          0          0       9515   stm32f4xx_hal_uart.o
       324         46          0          0          0       4927   stm32f4xx_it.o
        28          6         24          4          0       1127   system_stm32f4xx.o
      1516        110          0         60        240      19458   tasks.o
       264         20          0          0        128       2311   tim.o
       476         52          0          0        192       3628   usart.o
       214          0          0          0          0       2238   utils_hmac.o
        18          0          0          0          0        507   utils_md5.o
      5048         38         64          0          0       6349   utils_sha1.o
       212         16          0          0          0       2006   voice.o
       648         34          0          0          0       6582   w25q64.o
      3044        974          0          0        778      14527   wifi.o

    ----------------------------------------------------------------------
     35320       3970     116028       1816      41244     774665   Object Totals
         0          0         32          0          0          0   (incl. Generated)
        52          0          0          2          0          0   (incl. Padding)

    ----------------------------------------------------------------------

      Code (inc. data)   RO Data    RW Data    ZI Data      Debug   Library Member Name

        56          8          0          0          0         84   __0sscanf.o
        86          0          0          0          0          0   __dczerorl2.o
       812          4          0          0          0        112   _scanf.o
        64          0          0          0          0         84   _sgetc.o
        40          6         64          0          0         68   ctype_c.o
         0          0          0          0          0          0   entry.o
         0          0          0          0          0          0   entry10a.o
         0          0          0          0          0          0   entry11a.o
         8          4          0          0          0          0   entry2.o
         4          0          0          0          0          0   entry5.o
         0          0          0          0          0          0   entry7b.o
         0          0          0          0          0          0   entry8b.o
         8          4          0          0          0          0   entry9a.o
        30          0          0          0          0          0   handlers.o
        36          8          0          0          0         68   init.o
        10          0          0          0          0         68   isspace_c.o
         0          0          0          0          0          0   iusefp.o
        30          0          0          0          0         68   llshl.o
        36          0          0          0          0         68   llsshr.o
        32          0          0          0          0         68   llushr.o
       360         30          0          0          0        356   mallocr.o
        36          0          0          0          0         68   memcpya.o
        36          0          0          0          0        108   memseta.o
         0          0          0          8          0          0   mvars.o
      2308         96          0          0          0        604   printfa.o
        40          8          0          0          0         84   scanf_char.o
       878         12          0          0          0        216   scanf_fp.o
         0          0          0          4          0          0   stdout.o
        28          0          0          0          0         76   strcmp.o
        18          0          0          0          0         68   strcpy.o
        14          0          0          0          0         68   strlen.o
        36          0          0          0          0         80   strstr.o
        44          0          0          0          0         80   uidiv.o
        98          0          0          0          0         92   uldiv.o
        48          0          0          0          0         68   cdcmple.o
        48          0          0          0          0         68   cdrcmple.o
        56          0          0          0          0         88   d2f.o
       334          0          0          0          0        148   dadd.o
       222          0          0          0          0        100   ddiv.o
       186          0          0          0          0        176   depilogue.o
        62          0          0          0          0         80   dfixi.o
        48          0          0          0          0         68   dfixul.o
        26          0          0          0          0         76   dfltui.o
        24          0          0          0          0         76   dfltul.o
       228          0          0          0          0         96   dmul.o
       110          0          0          0          0        168   fepilogue.o

    ----------------------------------------------------------------------
      6556        180         64         12          0       3800   Library Totals
        16          0          0          0          0          0   (incl. Padding)

    ----------------------------------------------------------------------

      Code (inc. data)   RO Data    RW Data    ZI Data      Debug   Library Name

      5148        180         64         12          0       2588   mc_w.l
      1392          0          0          0          0       1212   mf_w.l

    ----------------------------------------------------------------------
      6556        180         64         12          0       3800   Library Totals

    ----------------------------------------------------------------------

==============================================================================


      Code (inc. data)   RO Data    RW Data    ZI Data      Debug   

     41876       4150     116092       1828      41244     750069   Grand Totals
     41876       4150     116092        908      41244     750069   ELF Image Totals (compressed)
     41876       4150     116092        908          0          0   ROM Totals

==============================================================================

    Total RO  Size (Code + RO Data)               157968 ( 154.27kB)
    Total RW  Size (RW Data + ZI Data)             43072 (  42.06kB)
    Total ROM Size (Code + RO Data + RW Data)     158876 ( 155.15kB)

==============================================================================

