:020000040800F2
:1000000040A80020690200087D480008C3390008A4
:1000100025450008E11400082956000800000000EA
:10002000000000000000000000000000A90100081E
:10003000B517000800000000050200085550000830
:10004000830200088302000883020008830200087C
:10005000830200088302000883020008830200086C
:10006000830200088302000883020008830200085C
:10007000830200088302000883020008830200084C
:1000800083020008830200088302000800000000C9
:1000900000000000000000000000000083020008D3
:1000A000830200088302000883020008830200081C
:1000B00083020008830200083D5100088302000803
:1000C00083020008830200088302000883020008FC
:1000D00083020008FD54000871550008000000006C
:1000E0008302000883020008830200080000000069
:1000F0000000000000000000000000008302000873
:100100000000000083020008830200088302000848
:1001100000000000000000000000000000000000DF
:10012000830200088302000883020008830200089B
:100130008302000800000000000000000000000032
:100140000000000000000000000000008302000822
:10015000830200088302000883020008E5550008B6
:100160008302000883020008000000000000000075
:10017000000000000000000000000000000000007F
:1001800000000000830200080000000000000000E2
:1001900083020008DFF80CD000F0B6FD00480047ED
:1001A000616E000840A800202C4B19680868B0E870
:1001B000F04F80F30988BFF36F8F4FF0000080F39A
:1001C000118870470000000008480068006880F34C
:1001D00008884FF0000080F3148862B661B6BFF360
:1001E0004F8FBFF36F8F00DF00BF00BF08ED00E04F
:1001F000DFF80C00016841F470010160704700BF36
:1002000088ED00E0EFF30980BFF36F8F134B1A689E
:100210001EF0100F08BF20ED108A20E9F04F10608B
:1002200009B44FF0500080F31188BFF34F8FBFF334
:100230006F8F09F0A1FF4FF0000080F3118809BC17
:1002400019680868B0E8F04F1EF0100F08BFB0EC56
:10025000108A80F30988BFF36F8F7047B8060020BB
:10026000EFF30580704700000648804706480047C6
:10027000FEE7FEE7FEE7FEE7FEE7FEE7FEE7FEE756
:10028000FEE7FEE721510008950100082DE9F05F27
:100290000546002092469B468846064681464024F5
:1002A0001BE0284641464746224600F0C2FA534624
:1002B0005A46C01A914110D311461846224600F002
:1002C000A9FA2D1A67EB01084F46224601200021AA
:1002D00000F0A0FA17EB00094E41201EA4F1010422
:1002E000DFDC484631462A464346BDE8F09F40EAF7
:1002F00001039B0703D009E008C9121F08C0042AA4
:10030000FAD203E011F8013B00F8013B521EF9D28A
:100310007047D2B201E000F8012B491EFBD27047B2
:100320000022F6E710B513460A4604461946FFF7C1
:10033000F0FF204610BD30B505462A460B4612F8A0
:10034000010B13F8014B08B1A042F8D01CB10028F2
:1003500002D06D1CF1E7284630BD421C10F8011B8D
:100360000029FBD1801A704710B5002200E0521C12
:10037000835C8C5CA34201D1002BF8D1D8B2E1B2EE
:10038000401A10BD034611F8012B00F8012B002A7A
:10039000F9D11846704700000FB400B58DB010A910
:1003A00009900B9000914FF0FF300A9000200C90C4
:1003B00005480690054807906A4609A80F9900F07D
:1003C0004FFA0DB05DF814FB7D0800089B0800088B
:1003D0002DE9FF4F087883B09946FF2805D0491CC6
:1003E0002D2804D00024002008E000200BE0012488
:1003F000F9E700EB800003EB4000491C0B78FF2B72
:10040000F7D104B1404200230293147819461D46E7
:100410002D2C01D02B2C04D1521C2D2C13D00024B8
:100420000294AA461478FF2C0FD00A25A3FB057866
:1004300001FB05814FF0000C03FB0C11521CE3196A
:100440004AEB0101EEE70124EAE7814453EA0100A7
:1004500002D019F5C87F06DA03980021C0E900111F
:1004600007B0BDE8F08F0025AE4E2F46DFF8B8820A
:10047000184600F008FCCDE90001B9F1000002DAED
:10048000C9F1000400E004460023A74A1AEB030B5D
:1004900042EB045A12E0E00707D02A4633463846BA
:1004A000414600F00FFB074688462A463346104671
:1004B000194600F007FB05460E466410002CEAD1F1
:1004C000DDE90001B9F1000F5A46534606DA00F0A3
:1004D0006BFB3A46434600F067FB05E000F0F2FA9A
:1004E0003A46434600F0EEFA029A0AB181F0004122
:1004F000039AC2E90001B3E72DE9FF4F1F468DB013
:10050000D7E901464FF0FF382E2045464FF000094D
:100510000B90B9696D1C0E988847396A82468847E6
:100520000028F6D1BAF1FF3F0AD024F4D064002E9F
:1005300011DDBAF12B0F08D0BAF12D0F0BD102E06B
:10054000404611B08DE744F48064B9696D1C0E9883
:1005500088478246761E6946600501D52D2000E059
:100560002B208DF8000001F1010B0DF1200809E0AE
:10057000B9696D1C0E98884782460F9844F4007440
:10058000761E0560002E02DDBAF1300FF0D00B9917
:100590008A453ED144F0800406E00F99681CA9F119
:1005A000010944F400740860B9696D1C761E0E9848
:1005B000884782463028F0D02BE00B998A4505D138
:1005C000200603D444F08004761E18E0504605F05F
:1005D00011FA08B30DF11301761E44F400748B4533
:1005E00008D2AAF130000BF8010B200607D5A9F1BB
:1005F000010003E0200602D409F101008146A005B4
:1006000002D50F99681C0860B9696D1C0E9888475F
:100610008246002ED1DC53E0002E51DDBAF1650F89
:1006200002D0BAF1450F4BD1A00549D5B9696D1C6F
:1006300024F44074761E0E9888478246002E0CDD06
:100640002B2804D0BAF12D0F07D144F48074B96976
:100650006D1C0E9888478246761EE00501D52D2137
:1006600000E02B2108F8011BCDF82C8021E00DF1D2
:100670002901761E44F4007488450CD2AAF130009A
:1006800010F0FF0088F8000002D10B99884509D9C5
:1006900008F1010806E0E00501D5244801E042F236
:1006A0000F708146B9696D1C0E98884782460F9875
:1006B0000560002E04DD504605F09CF90028D6D1D7
:1006C000F9690E988847FF208BF8000088F8000031
:1006D0000020069007904B466A4608A906A8FFF737
:1006E00077FEA00502D46FF001002AE714F0240F72
:1006F0000AD0E00714D1DDE906123868031D3B601B
:100700000068C0E900120BE0DDE9060100F0DFFA45
:100710000146E00704D13868021D3A6000680160B4
:1007200028460EE7000014400000F03FF1D8FFFF1C
:100730000EB540F2334102910021CDE900110A4685
:100740000B4600F0CAF803B000BD70B5C1F30A5201
:1007500001F000450024C1F3130140F2FF3341F4DE
:1007600080119A4201DA002070BD40F233439A4270
:10077000A2F2334203DC524200F05BF800E090400A
:100780002C43F1D0404270BD30B5041E71F100041D
:1007900004DB4FF00044404264EB0101141E73F18E
:1007A000000405DB1C464FF00043524263EB040398
:1007B0008B4208BF824230BD30B5041E71F1000487
:1007C00004DB4FF00044404264EB0101141E73F15E
:1007D000000405DB1C464FF00043524263EB040368
:1007E000994208BF904230BD30B50B46014600200B
:1007F0002022012409E021FA02F59D4205D303FAE3
:1008000002F5491B04FA02F52844151EA2F1010263
:10081000F1DC30BD202A04DB203A00FA02F100208E
:1008200070479140C2F1200320FA03F3194390402E
:100830007047202A04DB203A21FA02F00021704799
:1008400021FA02F3D040C2F1200291400843194638
:100850007047000002681144137801601846704721
:10086000D1600449516104491162002111611146AE
:1008700000F074BA55080008510D0008426842B1F2
:10088000016811F8013B23B1521EC0E9001218465D
:1008900070470121C160881E704742685AB1C36821
:1008A000016843B983688B4205D0491E521CC0E9D8
:1008B0000012002070474FF0FF30704710B5141E33
:1008C00073F1000408DA401C41F1000192185B4109
:1008D0001A4301D120F0010010BD2DE9F04D9246E0
:1008E0009B4611B1B1FA81F202E0B0FA80F22032F7
:1008F0009046FFF78FFF04460F4640EA0A0041EAA0
:100900000B0153465A46084313D0114653EA0100DF
:1009100019D0C8F140025046FFF78BFF05460E463E
:10092000504659464246FFF775FF084305D001205F
:1009300004E020463946BDE8F08D0020054346EA34
:10094000E0762C4337430A986305E40AA0EB0800DD
:100950000022FD0A44EA47540A3002D5002001462D
:10096000E9E7010510196941DDE908450019694108
:10097000BDE8F04DA2E72DE9FE4F804681EA030075
:10098000C00F0C46009021F0004123F00045B8EB69
:100990000200A94105D24046214690461C460B461E
:1009A000024623F00040104347D0270DC7F30A004A
:1009B000C3F30A510290401A019040286BDAC3F346
:1009C000130040F4801B0098924620B10023D2EB24
:1009D000030A63EB0B0B01985946C0F140025046E5
:1009E000FFF718FF06460D4650465946019A00F09B
:1009F0009DF910EB08006141002487EA115284EA56
:100A0000E7731A4340D0009A62B3019A012A4FEA71
:100A1000075215DC001B61EB02014FF0004202EAB5
:100A20000752CDE90042001C41F5801132462B46A9
:100A3000FFF753FF03B0BDE8F08F40462146F9E7CA
:100A4000001B61EB0201001C41F5801300185B41A3
:100A50002018A2F5001747EB030140EAD570B6193C
:100A60006D4111E06D084FEA360645EAC0754FEA60
:100A70000752001B61EB0201001C41F5801149087F
:100A80004FEA30000019514132462B4603B0BDE811
:100A9000F04FFFF713BF0098012240000023D0EB76
:100AA000020263EBE073009821464FEAE074B8EB72
:100AB000000061EB0401E9E783F000435BE781F0AC
:100AC000004158E72DE9FE4F81EA030404F0004499
:100AD00021F0004100944FF0000B23F0004350EA56
:100AE00001045ED052EA03045BD0C3F30A54C1F39D
:100AF0000A552C44A4F2F3340194A0FB0254C1F330
:100B0000130141F48011C3F3130343F4801301FB79
:100B1000024400FB034E840A970A44EA815447EAE0
:100B20008357A4FB076802958D0A05FB07854FEAEA
:100B3000932C04FB0C542705029D4FEA065847EA04
:100B40001637B5EB08056EEB070C870E920E47EAD9
:100B5000811742EA8312A7FB0201B6EB0B0164EB9B
:100B600000042B0D43EA0C335E1844EB1C50DA46AC
:100B70005146E7FB0201C5F313044FEA0B3343EA86
:100B800014534FEA0432019C43EA0603A4F10C0417
:100B90000294009CCDE900B4FFF79FFE03B0BDE8CE
:100BA000F08F00200146F9E72DE9F04D81EA0304BA
:100BB00004F0004B21F0004514464FF0000A23F0EA
:100BC000004150EA050220D054EA01021DD0C5F3CD
:100BD0000A570246C5F31303C1F31300C1F30A56C3
:100BE00040F4801543F48013A7EB0608101BD6468B
:100BF00008F2FD3873EB050002D308F1010801E0AB
:100C000092185B41B8F1000F03DA00200146BDE8FD
:100C1000F08D00204FF48011064684460EE0171B2D
:100C200073EB050705D3121B63EB050306434CEA80
:100C3000010C49084FEA300092185B4150EA010765
:100C4000EDD152EA030012D082EA040083EA0501E2
:100C5000084305D0101BAB4106D20122002306E059
:100C600000224FF0004302E06FF0010253101AEB34
:100C700006004CEB085110EB0A0041EB0B01BDE8FC
:100C8000F04DFFF71BBE0EB540F233420292002238
:100C9000CDE900221346FFF720FE03B000BDC1F3EB
:100CA0000A52C1F3130140F2FF3341F480119A421A
:100CB00002DA00200146704740F233439A42A2F222
:100CC000334202DC5242FFF7B4BDFFF7A3BD01F08F
:100CD000004330B421F0004150EA010206D00A0D71
:100CE000A2F56072C1F31301002A02DC30BC0020BF
:100CF0007047440F44EAC104C100E01830BC00EB67
:100D0000C25000F0C1B90000064C074D06E0E06893
:100D100040F0010394E8070098471034AC42F6D342
:100D2000FFF73CFAF068020810690208202A06DB87
:100D3000CB17203A41FA02F043EAE07306E041FAA9
:100D400002F3D040C2F12002914008431946704797
:100D5000C0B24FF4F05100F0CFB900002DE9F34FCD
:100D60008BB04FF0000801F10C000C464FF0010B66
:100D700046460DF1080A01906269012101989047E9
:100D8000051E2DD0252D2CD0216A8847C0B162695F
:100D9000012101989047216A88470028F7D1411E18
:100DA00062690198904700E0761CA1690B9888471A
:100DB000216A88470028F7D1E1690B988847DBE76B
:100DC000A1690B9888470746A84201D1761CD3E752
:100DD000E1690B9888477F1C02D1B8F1000F6FD0F2
:100DE00046E1002762693D463946019890472A2826
:100DF00004D162690121019890470125DFF88492AE
:100E00006269012101989047A0F130010A290AD2B4
:100E10004F45E5DC07EB870100EB4107303FDFD4AE
:100E200045F01005ECE7E90601D46FF000476C28A7
:100E30000AD04C2814D0682815D06A280DD0742800
:100E40001CD07A281AD01DE06269012101989047D0
:100E50006C2802D045F0040514E045F002050DE0D1
:100E600045F020050AE06269012101989047682851
:100E700002D045F0080505E045F4006562690121EE
:100E800001989047C4E9015765283DD019DC5828DE
:100E90007AD00CDC452837D004DC252826D0412820
:100EA00031D131E046282FD047282CD12CE05B28C7
:100EB00077D0612828D063287CD0642823D15AE0D9
:100EC000D0E06F2848D008DC66281DD067281BD0EA
:100ED000692821D06E2816D127E0702845D07328C4
:100EE00068D0752847D078280DD14DE0A1690B98BE
:100EF0008847054625283FF469AFE1690B98884784
:100F00006D1C3FF46AAFB3E023466A466FF0010000
:100F10000B99FFF7F1FA9EE045F040006060A807EA
:100F200023464FF0000236D43EE0E8077FF447AF97
:100F30002068011D21600068290501D506701BE7A6
:100F4000290701D5068017E7A90703D5F117C0E9DE
:100F5000006111E706600FE745F040006060A807F8
:100F600023464FF0080216D41EE040F60E0125EA93
:100F70000100606016E045F040006060A80723466D
:100F80004FF00A0207D40FE045F040006060A80768
:100F900008D5234610226FF001000B99AFF30080B3
:100FA00059E007E0234610226FF001000B99AFF3E0
:100FB000008050E04FF000094F464B46632802D0B6
:100FC0005B2806D040E0E80601D40120A06001279C
:100FD0003AE062690121019890475E2805D14FF0FF
:100FE00001096269494601989047216939B9002190
:100FF0000A46534643F82120491C0829FADBB0B3BE
:10100000216969B9C11700EBD16253110AEB830161
:1010100022F01F02821A01200B68904003430B60EC
:1010200062690121019890475D28E8D1B9F1000F6C
:1010300009D00020514651F82020D24341F8202009
:10104000401C0828F7DB02AB224600976FF0010036
:101050000B99AFF3008000280CDA401C08D1BBF1DB
:10106000000F05D04FF0FF300DB0BDE8F08FFFE767
:101070004046F9E7E90701D108F1010806444FF0BD
:10108000000B79E6CCCCCC0C0029A8BF7047401CE3
:10109000490008BF20F00100704710B4B0FA80FC8E
:1010A00000FA0CF050EA010404BF10BC704749B1CB
:1010B000CCF1200421FA04F411FA0CF118BF01213B
:1010C00021430843A3EB0C01CB1D4FEA00614FEA1B
:1010D000102042BF002010BC704700EBC3501044EA
:1010E0000029A4BF10BC7047401C490008BF20F075
:1010F000010010BC704700007F2801D9002208E0E1
:10110000064A02EB5002C007127800D1120902F021
:101110000F02012090400840704700004C68020810
:1011200070B58C1810F8015B15F0070301D110F8A9
:10113000013B2A1106D110F8012B03E010F8016BD6
:1011400001F8016B5B1EF9D12B0705D40023521E59
:101150000DD401F8013BFAE710F8013BCB1A921CC1
:1011600003E013F8015B01F8015B521EF9D5A142BF
:10117000D8D3002070BD0000024610B50020064BF9
:1011800060211C5C944205D0401C80B28842F8D398
:101190004FF0FF3010BD0000330000202DE9F0417A
:1011A000A2B00F4680461546802101A8FFF7B8F887
:1011B00002244FF4FA5613E03B4642460CA101A824
:1011C000009504F0CBFA01A800F090FD642001F036
:1011D00025F832460DA10F4800F062FE012803D029
:1011E0002046641EE4B2E7D222B0BDE8F0810000E0
:1011F00041542B43495053544152543D22257322AC
:101200002C222573222C25640D0A0000434F4E4EDC
:10121000454354004E2E00207CB5284D95F8010121
:1012200001284AD195F8001125A004F087FA00247E
:1012300005E0295D24A004F081FA641CA4B295F8AD
:101240000001A042F5D821A004F078FA20A12C4694
:10125000281DFFF770F84FF00005010000956E465D
:1012600001950BD000200A18927A3254401CC0B26B
:101270000628F8D30621324664200FE016A1201D6F
:10128000FFF759F880B100214218527A7254491C74
:10129000C9B20629F8D36A4606210A2000F07EF872
:1012A00010B9112008F096FF84F8015184F800511C
:1012B0004FF480710148FFF733F87CBD4E2E0020BB
:1012C00025640D0A00000000256300000D0A0000DF
:1012D000444F4F525057440041444D505744000032
:1012E00070B515460C46064602F028FDA02002F017
:1012F000EDFC18B102F048FD042070BDF0B202F020
:10130000E5FC60B102F040FD052070BD287802F0D8
:10131000DDFC18B102F038FD032070BD6D1C641EA9
:10132000E4B2F3D202F030FD052000F077FF002098
:1013300070BD70B515460C46064602F0FFFCA020B5
:1013400002F0C4FC18B102F01FFD0B2070BDF0B21A
:1013500002F0BCFC18B102F017FD162070BD02F0BF
:10136000EDFCA12002F0B2FC90B102F00DFD2120B5
:1013700070BD641E2404240C05D0002002F040FC43
:1013800005F8010BF5E7012002F03AFC287001E0B6
:10139000002CEED102F0F8FC002070BD2DE9F041E8
:1013A00017460D464FEA000606F00700C0F1080494
:1013B000AC4200D3ECB23A4621463046FFF790FFEC
:1013C000002801D1AC4201D1BDE8F081301986B2CC
:1013D000281B85B22744E7E710B502F09DFBA0204B
:1013E00002F070FBE0B9022005F0A0FE3B4C40216A
:1013F000204600F0EFFF0028F9D0082002F062FB41
:1014000070B9022005F092FE4021204600F0E2FF74
:101410000028F9D002F080FBA12002F053FB18B1A4
:1014200002F0A2FBFF2010BD022005F07FFE40214C
:10143000204600F0CFFF0028F9D0002002F0F4FA97
:101440000446012002F0F0FA44EA002402F08CFB8A
:1014500048F2A001601A8C4237D015DC48F28401B2
:10146000A4EB01008C4232D009DC04F5FF44B4F552
:1014700080341ED0012C18D0022C14D11BE004287B
:101480001FD00C280FD126E0B0F5F07F21D004DC6E
:10149000202814D0E02806D115E0B0F5787F06D0DA
:1014A000B0F5FC6F09D0002010BD312010BD3220F6
:1014B00010BD332010BD342010BD352010BD3620A6
:1014C00010BD372010BD382010BD392010BD2A2096
:1014D00010BD302010BD232010BD000000040240CC
:1014E000FEE72DE9F0410E4607461546042105208A
:1014F00000F0E2F80021012004F002F980210A2026
:1015000003F0D6FC002405E0395D092004F0F8F86A
:10151000641CE4B2B442F7D30321012004F0F0F8D4
:10152000FF24052003F0A8FB641E14F0FF0401D083
:101530004007F6D5222003F09FFB2870212003F0FE
:101540009BFB6870BDE8F0811CB50146512002F09C
:10155000F9FC01AA6946512002F0A0FC08B1AB20B9
:101560001CBD9DF80000B52828D00BDCB2281FD088
:1015700003DCA8B1B12811D114E0B3281AD0B428E3
:101580000CD119E0B8281FD004DCB62818D0B72831
:1015900004D117E0C02819D0C22819D00DA002E04C
:1015A00014A000E01BA004F0C9F89DF800001CBDC9
:1015B0001CA0F8E71EA0F6E721A0F4E724A0F2E7BC
:1015C00026A0F0E729A0EEE72CA0ECE72FA0EAE7A1
:1015D00032A0E8E7D7A5C8A1D6B8CEC6CDBCCFF11A
:1015E000BCB0CCD8D5F7C1BFCCE1C8A1B4EDCEF327
:1015F0000D0A0000D7A5C8A1D6B8CEC6CDBCCFF184
:10160000BCB0CCD8D5F7C1BFCCE1C8A1B3C9B9A68D
:101610000D0A0000736D616C6C2066696E676572FF
:101620000D0A00006E6F2066696E6765720D0A0014
:101630006C6566742066696E6765720D0A0000004D
:1016400072696768742066696E6765720D0A0000CA
:1016500075702066696E6765720D0A00646F776E3B
:101660002066696E6765720D0A0000007765742058
:1016700066696E6765720D0A000000006472792069
:1016800066696E6765720D0A00000000CCD8D5F758
:10169000CCE1C8A1B4EDCEF30D0A0000CCD8D5F74B
:1016A000CCE1C8A1B4EDCEF32028CDBCCFF1D6CA91
:1016B000C1BFB2EE290D0A0070B50C46054603F015
:1016C000DBFA20EA04012846BDE8704004F018B8AF
:1016D00010B504A000F00AFBBDE810404FF47A708A
:1016E00000F09CBD2B2B2B0070B5144C40F25B75A9
:1016F0002A46214612A0FFF751FD002819D002F01A
:1017000071FF002815D003F02FF84FF4FA6420463B
:1017100000F084FD00210BA002F0A4FF204600F0A1
:101720007DFD15A002F0E4FF2046BDE8704000F00A
:1017300075BD0A2000F072FDDAE70000CC2D002014
:10174000544350002F7379732F61316E74334938CD
:10175000413479682F6D795F6C6F636B2F746869A2
:101760006E672F736572766963652F70726F70652F
:101770007274792F736574002F7379732F61316ED2
:1017800074334938413479682F6D795F6C6F636BBE
:101790002F7468696E672F6576656E742F70726F2F
:1017A00070657274792F706F73745F7265706C7985
:1017B00000000000704700BF00BF00BF00BF00BFB7
:1017C00000BF00BF00BF00BF00BF00BF00BF00BF21
:1017D00000BF00BF00BF00BF00BF00BF00BF00BF11
:1017E00000BF00BF00BF00BF00BF00BF00BF00BF01
:1017F00000BF00BF00BF00BF00BF00BF00BF00BFF1
:1018000000BF00BF00BF00BF00BF00BF00BF00BFE0
:1018100000BF00BF00BF00BF00BF00BF00BF00BFD0
:1018200000BF00BF00BF00BF00BF00BF00BF00BFC0
:1018300000BF00BF00BF00BF00BF00BF00BF00BFB0
:1018400000BF00BF00BF00BF00BF00BF00BF00BFA0
:1018500000BF00BF00BF00BF00BF00BF00BF704798
:1018600000B501E0FFF7A7FF401EFBD200BD00005E
:1018700010B50D4C00221021204600F0B7FD0122CA
:101880000821204600F0B2FD4FF4FA7000F0C6FCCB
:1018900000221021204600F0A9FD20460022BDE8CC
:1018A0001040082100F0A2BD000402402DE9FF41D4
:1018B0005CA003F043FF162008F08CFC604C012173
:1018C000204600F087FD0028F9D00020FFF73CFEFD
:1018D00010254FF6FF76CDE900658DF808004FF42E
:1018E00078473B4657A26421002006F02DFF0AE00E
:1018F0000121204600F06EFD0028F9D00020FFF7FE
:1019000023FE8DF808009DF808000028F0D151A0B2
:1019100003F014FF162008F05DFC0121204600F0C2
:1019200059FD0028F9D00120FFF70EFECDE9006532
:101930008DF808003B464EA27421002006F004FFFB
:101940000AE00121204600F045FD0028F9D00120E1
:10195000FFF7FAFD8DF808009DF808000028F0D187
:1019600047A003F0EBFE162008F034FC01212046CE
:1019700000F030FD0028F9D00220FFF7E5FDCDE9A9
:1019800000658DF80800B8463B4644A2842100203B
:1019900006F0DAFE0AE00121204600F01BFD0028D7
:1019A000F9D00220FFF7D0FD8DF808009DF808005F
:1019B0000028F0D100217F2002F0C4FA03AA02A976
:1019C0007F2002F06BFA18B1AB2004B0BDE8F081C3
:1019D0009DF808000124354F912817D003DC38B159
:1019E000832817D110E0932817D0942812D116E03D
:1019F0002FA003F0A3FECDE90065502143462FA29E
:101A0000084606F0A1FE05E02FA000E03BA003F091
:101A100095FE3C709DF80800D7E73FA0F7E742A08D
:101A2000F5E70000B5DAD2BBB4CEC2BCC8EBA3ACBC
:101A3000C7EBB7C5CFC2CAD6D6B80D0A00000000A2
:101A400000080240B5DAD2BBB4CEB7C5CFC2CAD601
:101A5000D6B80000B5DAB6FEB4CEC2BCC8EBA3ACB3
:101A6000C7EBB7C5CFC2CAD6D6B80D0A0000000072
:101A7000B5DAB6FEB4CEB7C5CFC2CAD6D6B8000066
:101A8000B5DAC8FDB4CEC2BCC8EBA3ACC7EBB7C5D2
:101A9000CFC2CAD6D6B80D0A00000000B5DAC8FD1C
:101AA000B4CEB7C5CFC2CAD6D6B80000A1060020B2
:101AB000D7A2B2E1B3C9B9A60D0A0000D7A2B2E11C
:101AC000B3C9B9A600000000494420B4EDCEF32804
:101AD0004944203C203020BBF2D5DF204944203E41
:101AE00020D7EEB4F3D3C3BBA7CAFD29BBF2D5DF21
:101AF000CDA8D0C5B4EDCEF30D0A0000D7A2B2E157
:101B0000CAA7B0DC28D3C3BBA7C7F8D3F2D2D1C2CF
:101B1000FA290D0A00000000D2D1BEADD7A2B2E171
:101B2000B5C42049440D0A00D6B8CEC6CCE1C8A140
:101B3000B4CECAFD203C20330D0A00001CB50021A4
:101B4000542002F0FFF901AA6946542002F0A6F9D8
:101B500008B1AB201CBD9DF8000018B1902803D03F
:101B600004A002E006A000E008A003F0E7FD9DF855
:101B700000001CBDC9BEB3FDCAA7B0DC0D0A000041
:101B8000C9BEB3FDB3C9B9A60D0A0000C9BEB3FDF5
:101B9000CAA7B0DCA3A8D7A2B2E1CAFDC1BFCEAA32
:101BA0002030A3A90D0A00001CB50146732002F0E5
:101BB000C9F901AA6946732002F070F908B1AB2097
:101BC0001CBD9DF8000030B1832806D090280AD0B3
:101BD000FF2805D107E005A000E007A003F0AEFD57
:101BE0009DF800001CBD07A0F8E70000C9BEB3FDCA
:101BF000B3C9B9A60D0A0000B2CECAFDB4EDCEF34A
:101C00000D0A0000CEB4D7A2B2E1B5C4D3C3BBA7BE
:101C10000D0A00007047000070B54FF48076314621
:101C20000F48FEF77DFB0E4C00250EA084F80051F6
:101C300084F8015100F05AF8642000F0EFFA0DA189
:101C40002046FEF778FB10B10CA003F077FD31467B
:101C50000348FEF765FB84F8005184F8015170BD1C
:101C60004E2E002041542B524553544F52450D0ADD
:101C70000000000072656164790000004553503334
:101C80003220524553544F5245204F4B0D0A00000D
:101C9000144810B50168CA6842F02002CA600068A2
:101CA000C16841F01001C1604FF480710E48FEF729
:101CB00037FB0D49002081F8000181F80101642003
:101CC00000F0ACFAFFF704FDFFF7A6FF642000F078
:101CD000A5FA00F01DF8642000F0A0FABDE810405D
:101CE00000F046B8740B00204E2E002070B504465C
:101CF0004FF47A7506E02B4601222146034801F095
:101D000002FE641C20780028F5D170BD740B002001
:101D100010B50FA0FFF7EAFF642000F07FFA4FF440
:101D20007A720DA10D4800F0BBF858B14FF48071E4
:101D30000A48FEF7F5FA0948002180F8001180F8FA
:101D4000011110BDBDE8104005A003F0F7BC000074
:101D500041540D0A000000004F4B00004E2E0020A1
:101D600045737038323636206F6B0D0A0000000064
:101D7000F0B5A1B023A0FFF7B9FF642000F04EFA40
:101D80004FF4967223A1244800F08AF810B123A0E2
:101D900003F0D4FC80216846FEF7C2FA4FF40071CC
:101DA0001D48FEF7BDFA1C4C002522A384F8005103
:101DB00084F8015122A224A1684603F0CFFC4FF41D
:101DC000FA664FF480776846FFF790FF304600F0E0
:101DD00025FA324622A1104800F062F801280BD003
:101DE00039460D48FEF79CFA84F8005184F80151F9
:101DF0000A2000F013FAE6E71CA003F09FFC21B0D4
:101E0000F0BD000041542B43574D4F44453D310D2B
:101E10000A0000004F4B00004E2E0020C9E8D6C338
:101E200073746174696F6EC4A3CABDB3C9B9A60DDA
:101E30000A000000313233343536373839000000BB
:101E40007669766F6E65780041542B43574A41504E
:101E50003D222573222C222573220D0A000000004A
:101E60005749464920474F542049500077696669D1
:101E700020636F6E6E656374206F6B0D0A00000047
:101E800001B582B04FF47A700090012301AA02A933
:101E9000024801F043F99DF804000EBDAC09002092
:101EA0002DE9F047002780460A20B2FBF0F689466C
:101EB0003C46104D0BE049464046FEF73CFA08B15F
:101EC000012706E085F801410A2000F0A7F9761EF7
:101ED000F1D2414608A003F031FC4FF4807105486F
:101EE000FEF71EFA85F8004185F801413846BDE845
:101EF000F08700004E2E002025730D0A0000000020
:101F0000F8B5254C254D6078697806030020A5F5C5
:101F10000057012923D0297901291FD1287120A038
:101F200000680090304606F0EDF86A88207878B3B3
:101F30005FF0000007EB0030314606F04DF94FF43A
:101F4000C005284606F0DEF802222946684606F05B
:101F500043F90120A07013A003F0F0FBF8BD6870F6
:101F6000304606F0CFF8207880B1002007EB003033
:101F70004FF48052314606F02FF96078401CC1B210
:101F80006170BDE8F84009A003F0D8BB0120EDE77F
:101F9000FFE70120CEE7000030000020342C0020B5
:101FA00012340000656E640D0A000000D7D6BFE24F
:101FB000CFC2D4D8D6D02E2E2E2E3A25640D0A00AC
:101FC00038B5002402224FF4C0016846009406F0A0
:101FD000BDF89DF800101148122903D19DF8011099
:101FE000342914D004700EA003F0A8FB104942F26B
:101FF0003C00C8600FA003F0A1FB124CFFF780FF6C
:10200000A078012808D00A2000F008F9F6E701219D
:1020100001700DA003F092FB38BD0000342C0020AD
:10202000C7EBCFC2D4D8D7D6BFE20D0A000000005C
:1020300000100140BFAACABCCFC2D4D82E2E2E0D8C
:102040000A00000030000020D2D1D3D0D7D6BFE2A2
:102050000D0A0000F0B5A1B028A22AA1334803F070
:102060007DFB3248FEF779F9304C31A323A2A4F866
:10207000800004F1820031A1074603F06FFB38466F
:10208000FEF76BF9A4F80201802101A8FEF748F9D8
:1020900027A0009019A319A22AA101A803F05EFBB2
:1020A00004F5C37022A230A1064603F057FB01A835
:1020B000FEF753F90146202004F58272009034A304
:1020C000154601A806F0E7FC2846FEF746F9A4F8F5
:1020D000840140F25B72314636A003F02FFB2146AB
:1020E00039A003F02BFB39463BA003F027FB294620
:1020F0003DA003F023FB21B0F0BD00006D795F6CC3
:102100006F636B0025737C7365637572656D6F64B7
:10211000653D332C7369676E6D6574686F643D68E7
:102120006D6163736861317C00000000462C002003
:1021300061316E743349384134796800257326253E
:1021400073000000636C69656E744964257364658F
:10215000766963654E616D65257370726F64756332
:10216000744B65792573000025732E696F742D619A
:10217000732D6D7174742E636E2D7368616E676854
:1021800061692E616C6979756E63732E636F6D0082
:102190003761306633386431646565393565663476
:1021A00037306463613064656665303234393735A1
:1021B00000000000B7FE20CEF120C6F73A257320BC
:1021C00025640D0A00000000BFCDBBA7B6CB494473
:1021D0003A25730D0A000000D3C320BBA720C3FB20
:1021E0003A25730D0A000000C3DC20202020C2EB3A
:1021F0003A25730D0A00000090F83510022903D02B
:102200008021416501207047052180F83510006864
:10221000016821F0010101600020704770B504469B
:1022200000F0EAF80546601C02D004480078044437
:1022300000F0E2F8401BA042FAD370BD200000205D
:102240002DE9F84F00224FF0010803254FF00F0E43
:102250000B6808FA02F42340A34271D14E68012EA4
:1022600005D0022E03D0112E01D0122E15D1866872
:10227000570005FA07FC26EA0C06D1F80CC00CFA48
:1022800007FC4CEA060CC0F808C04668A6430C7967
:10229000C4F30014944034434460C668570005FA00
:1022A00007FC8C6826EA0C06BC403443C4604C68CA
:1022B000022C01D0122C13D1D40800EB8404A346C5
:1022C000D4F8209054074FEAD46A0EFA0AF629EAA5
:1022D00006090E6906FA0AF646EA0906CBF82060F6
:1022E00004680E7924EA0C0406F00306BE40264377
:1022F00006604C68E40056D52E4C266846F48046AD
:102300002660246822F0030604F4804400942A4CDA
:102310003444A446D4F808489607370F0EFA07F657
:10232000B443264EB04201D1002615E0244EB042FF
:1023300001D1012610E0234EB04202D102260BE06B
:1023400031E0214EB04201D1032605E01F4EB042DC
:1023500001D1042600E00726BE402643CCF80868D9
:102360001B4E34684F689C43FF0300D51C43346008
:10237000174E361D34684F689C43BF0300D51C437D
:102380003460134E083634684F689C43FF0200D512
:102390001C4334600E4E0C3634684F689C43BF02B9
:1023A00000D51C433460521C102AFFF451AFBDE825
:1023B000F88F000044380240003001400000024025
:1023C0000004024000080240000C024000100240DD
:1023D000003C01400069084000D00120704742697C
:1023E00031EA020200D10904816170470AB18161BA
:1023F00070470904FBE7000001488068704700004F
:1024000020000020024881680278114481607047F2
:10241000200000200B4810B5016841F400710160F4
:10242000016841F480610160016841F480710160DC
:10243000032000F08DF8002000F006F800F03EF8D0
:10244000002010BD003C024010B5014688B00022BB
:102450001E2000F05DF81E2000F04CF81348002408
:10246000016841F004010160006805A900F0040062
:102470000690684600F0C0F900F0DEF90C49400013
:10248000B0FBF1F10C480B4A491E026040F2E73202
:10249000C0E90324C0E9011400F072FF10B101206B
:1024A00008B010BD044800F0A5FFF9E7403802402D
:1024B00040420F0000080040F40B00200C4882B09E
:1024C000016841F480410160006800F480400090A0
:1024D0000748001F016841F0805101600068002238
:1024E00000F0805000900F21901E02B000F010B854
:1024F00044380240002809DB00F01F02012191400E
:102500004009800000F1E020C0F800117047000091
:10251000F0B40E4B1B680C46C3F30223C3F107054E
:10252000042D00D90425191D072901D2002300E03C
:10253000DB1E012606FA05F1491E214099409E4006
:10254000761E16403143F0BC03F01CB90CED00E0E0
:10255000064900F0070208684FF6FF03184040EAFA
:102560000220034A10430860704700000CED00E0B1
:102570000000FA052DE9F843044600684FF0010910
:10258000C1074FF0000601D1400727D5DFF81C81B5
:10259000C8F86860FFF730FF0746454D05E000BF0B
:1025A000FFF72AFFC01B022857D828680001F7D47C
:1025B00060688101207A41EA00703D4984310860F9
:1025C000C8F86890FFF718FF074604E0FFF714FF0C
:1025D000C01B022841D828680001F7D52078800761
:1025E00052D533484030016841F0805101600068A5
:1025F000304D00F080500090286840F480702860D2
:10260000FFF7FAFE074604E0FFF7F6FEC01B0228BC
:1026100023D82868C005F7D5254D7035286810F4F3
:10262000407020D0A18901F4407181421BD02868FC
:1026300020F440712048C0F80090066029602868A6
:10264000C00710D0FFF7D8FE064641F2883707E0F2
:10265000FFF7D2FE801BB84202D90320BDE8F88301
:1026600028688007F4D5E1681148C1F301220830D9
:10267000032A12D0016821F4F81101602868A189A9
:10268000C1F30B01084328602078000703D50B49EC
:10269000207CC1F8E0010020E0E70268084B22F44A
:1026A000F81219400A430260E8E7000000004742C0
:1026B0000038024000700040400E47420010474280
:1026C000FFFCFF0F2DE9F0470E46050065D0DFF84F
:1026D0001481D8F80000F7B200F00F00B04207D222
:1026E00088F80070D8F8000000F00F00B04254D114
:1026F00028683D4C810712D5400703D5206840F477
:10270000E05020602878000703D5206840F460403E
:1027100020602068A96820F0F00008432060287835
:10272000C0072DD0304968680839012812D0022826
:1027300013D0032811D00968890700292DDA2168F0
:1027400021F0030101432160FFF756FE814641F26B
:10275000883A0EE009688903EFE709688901ECE728
:10276000FFF74AFEA0EB0901514502D90320BDE85D
:10277000F0872068696800F00C00B0EB810FEFD1A2
:10278000D8F80010404601F00F01B14207D9077098
:10279000006800F00F00B04201D00120E7E7287880
:1027A000400705D52068E96820F4E0500843206020
:1027B0002878000706D52068296920F4604040EA9F
:1027C000C100206000F058F82168084AC1F30311E5
:1027D000515CC8400649086006480068FFF734FEAF
:1027E0000020C4E7003C024008380240ECA5000885
:1027F0002C000020240000200F2202600C4A1368E5
:1028000003F003034360136803F0F003836013686D
:1028100003F4E053C36012684FF4E05303EAD202BA
:1028200002610448006800F00F0008607047000073
:1028300008380240003C0240044805490068096825
:10284000044AC1F38221515CC84070472C0000202B
:1028500008380240FCA500080448054900680968DA
:10286000044AC1F34231515CC84070472C0000203B
:1028700008380240FCA50008154810B5006810F0A3
:102880000C02144813D01449042A0FD0082A0ED180
:102890000F4C241F2268236802F03F025B0207D519
:1028A0002068C0F38810A0FB010106E0084610BDB7
:1028B0002168C1F38811A1FB00010023FDF7E6FCAC
:1028C0002168C1F30141491C4900B0FBF1F010BD82
:1028D000083802400024F40040787D012DE9F84FCB
:1028E00004006ED02078DFF83C93C007A9F10405FE
:1028F0004AD009F104000168C1F38101012908D01F
:102900000068C0F3810002280AD1D9F80000400213
:1029100006D52868800337D560680028E1D033E009
:102920006068B0F5803F10D0B0F5A02F286810D0B7
:1029300020F480302860286820F4802028606068B7
:10294000A8B1FFF759FD06460DE0286840F4803035
:10295000F4E740F480202860F7E700BFFFF74CFD64
:10296000801B642873D828688003F7D50CE0FFF734
:1029700043FD064605E000BFFFF73EFD801B6428CF
:10298000F0D828688003F7D42078DFF89C8280078D
:102990004FF0000A3ED5A348001D016811F00C0F4E
:1029A00008D00068C0F3810002280BD1D9F80000DC
:1029B000400207D42868800716D5E068012800D1B6
:1029C00012E02BE1E068B8B10120C8F80000FFF781
:1029D00013FD064605E000BFFFF70EFD801B022831
:1029E000C0D828688007F7D52868216920F0F8004A
:1029F00040EAC10028600DE0C8F800A0FFF7FCFC29
:102A0000064604E0FFF7F8FC801B02281FD8286860
:102A10008007F7D42078000722D5824E8348616969
:102A2000703671B101210160FFF7E6FC074604E052
:102A3000FFF7E2FCC01B022809D830688007F7D5F1
:102A40000EE0C0F800A0FFF7D7FC074605E082E0E3
:102A5000FFF7D2FCC01B02287DD830688007F7D46E
:102A60002078400768D5DFF8BCB100270BF13C0B9C
:102A7000DBF80000C0000BD4DBF8001041F08051FF
:102A8000CBF80010DBF80000012700F08050009028
:102A9000674E3068C00510D4306840F480703060F4
:102AA000FFF7AAFC009005E0FFF7A6FC0099401A8A
:102AB000022850D83068C005F6D55A4EA0686C364A
:102AC00001280FD00528306810D020F001003060B8
:102AD000306820F004003060A068B8B1FFF78CFCCB
:102AE00000900FE0306840F00100F4E740F004008F
:102AF0003060F7E7FFF780FC0099411A41F2883017
:102B0000814266D830688007F4D50EE0FFF774FC88
:102B1000009007E0FFF770FC0099411A41F28830FD
:102B2000814256D830688007F4D42FB1DBF800100A
:102B300021F08051CBF80010A069C8B33949091DB4
:102B40000968C1F3810102294AD00228504607D002
:102B5000C8F8600000E03CE0FFF74EFC04463BE0B4
:102B60004746C8F86000FFF747FC064605E000BF8F
:102B7000FFF742FC801B02282BD828688001F7D47D
:102B8000D4E907010843A16A2A4A490802EB014136
:102B9000626A41EA8211084394F82C1040EA01610C
:102BA000C9F8001001203866FFF726FC044606E04D
:102BB00036E000BFFFF720FC001B022809D8286878
:102BC0008001F7D52CE000BFFFF716FC001B0228A0
:102BD00002D90320BDE8F88F28688001F4D41FE0F3
:102BE0000128F7D0D9F80000E26900F48001914291
:102BF00014D1226A00F03F0191420FD147F6C07113
:102C0000626A0140914209D1A26A00F440319142C6
:102C100004D1E16A00F07060884201D00120D9E758
:102C20000020D7E70438024000004742800E4742A8
:102C3000007000400000FFFF10B500680B464168BF
:102C40000D480140080CD870C1F304245C7001F0F9
:102C50003F049C70C1F34231197052B901F0DAFFA0
:102C6000D870587801F0D6FF5870987801F0D2FFEC
:102C70009870002010BD00003FFFFF0010B50B460C
:102C80000168896A596001680969C1F30E01996098
:102C9000006801680E480140C1F305401870C1F397
:102CA00006245C7001F07F049C70402404EA11410A
:102CB000D97052B901F0AEFF1870587801F0AAFF30
:102CC0005870987801F0A6FF9870002010BD0000A1
:102CD0007F7F7F0070B5040002D0607F10B106E0F6
:102CE000012070BD00202077204600F049F8022026
:102CF00060772168CA2048622168532048622046D4
:102D000001F09CFFFF25042618BB206881681B4A40
:102D1000114081602168886862681043D4E9042307
:102D20001A43104388602168E068086120680169DF
:102D3000228941EA024101612068C16821F08001D5
:102D4000C16020688068800607D4204600F0FEF845
:102D500018B1206845626677C2E72068016C21F4EB
:102D6000802101642068016CA2691143016420681C
:102D7000456201206077002070BD0000BFFF8FFF1B
:102D800000680349884202D1024901200860704767
:102D9000002800403C0E47422DE9F0470446007FE2
:102DA0000B4601281FD04FF0010984F81C90022027
:102DB0006077DAB19878D97840EA0145587819787F
:102DC000000240EA413005432168CA204862216878
:102DD00053204862204601F031FF0026FF274FF0C4
:102DE000040860BB1AE00220BDE8F0875878C106ED
:102DF00003D500F0EF000A305870D87801F013FFC7
:102E00000204587801F00FFF42EA0022987801F09E
:102E10000AFF0243187842EA4035D5E70F480540DB
:102E2000206845602068C16821F08001C160206889
:102E3000806880060AD4204600F088F830B1206807
:102E4000476284F81D8026770120CDE7206847621D
:102E500084F81D9026770020C6E700003FFFFF00A2
:102E60002DE9F0470446007F0D46012827D04FF09A
:102E7000010A84F81CA00220607720680026806880
:102E80004FEA4060F2B1002800DBEE70A8782978A4
:102E900040EA01476878E978000240EA01400743C8
:102EA0002168CA204862216853204862204601F008
:102EB000C5FE4FF0FF084FF00409A0BB16E002204A
:102EC000BDE8F087002800DBEE70287801F0ABFE4B
:102ED0000204687801F0A7FE42EA0022A87801F017
:102EE000A2FE0243E87842EA0047D9E716480740C5
:102EF000206807602068816821F480218160D5E91D
:102F00000301084321688A68104388602068C1680B
:102F100021F08001C1602068806880060BD42046C3
:102F200000F014F838B12168C1F8248084F81D90AD
:102F300026770120C4E72168C1F8248084F81DA009
:102F400026770020BCE700007F7F7F0070B5044635
:102F50000068C16821F0A001C160FFF74DFA054685
:102F60004FF47A7607E000BFFFF746FA401BB04205
:102F700001D9032070BD2068C0688006F4D5002008
:102F800070BD70B5040005D00025A56294F851000D
:102F900010B106E0012070BD84F85050204600F0CA
:102FA00031F8022084F851002068016821F04001C6
:102FB0000160D4E901010843D4E903121143084335
:102FC00061690843218B01F400710843E1690843FA
:102FD000216A0843A16A084321680860A0690421A6
:102FE00001EA1040616A0843216848602068C169AD
:102FF00021F40061C1616565012084F85100002061
:1030000070BD0000F0B587B0044614216846FDF796
:1030100087F93B48236800243A49022503260527FF
:1030200083421AD137481430026842F48052026059
:10303000006800F480500590086840F001000860C6
:10304000086802AA00F001000590E020CDE9000523
:1030500082E8D00069462C4830E02A4ADFF8ACC04C
:1030600010322B4863452DD1136843F4804313601D
:10307000126802F4804205920A6842F004020A6073
:103080000A6802F0040205920A6842F002020A602D
:10309000096802AB01F0020105910421CDE9001598
:1030A00083E8D0006946FFF7CBF84FF42040CDE924
:1030B000000502AB694683E8D0001648FFF7C0F868
:1030C00007B0F0BD144FBB42FAD1136843F400437C
:1030D0001360126802F4004205920A6842F004028A
:1030E0000A600968029401F0040105914FF4E0516F
:1030F000CDE900150621CDE903616946DEE7000050
:1031000000300140303802400000024000380040EA
:103110000008024000040240003C00402DE9F84F46
:10312000044690F8500000270A9E1D4692468B46A2
:103130004FF0010901280ED0012084F85000FFF75C
:103140005BF9804694F85100616801280CD0B1F514
:10315000827F07D102E00220BDE8F88FA16809B99B
:10316000042801D00227C2E0BBF1000F27D0BAF13A
:10317000000F24D01DB394F85100042802D005207C
:1031800084F8510000206065C4F838A0E587A58761
:10319000C4F830B0E586A5862064606420680168C4
:1031A000490603D4016841F040010160E068B0F5D0
:1031B000006F606805D0E8B3012D46D07FE001279D
:1031C00095E008B1012D39D1206B21680088C860D5
:1031D000206B801C2063E08E401EE0862EE020687D
:1031E000816889070FD5E18E69B1B9F1010F0AD164
:1031F000216B0988C160206B801C2063E08E401E1B
:10320000E0864FF0000920688168C9070CD0E18F83
:1032100051B1C068A16B0880A06B801CA063E08FD7
:10322000401EE0874FF00109FFF7E6F8A0EB080029
:10323000B04200E009E001D3701C50D1E08E0028BC
:10324000CDD1E08F0028CAD13FE0206B2168007803
:103250000873206B401C2063E08E401EE0862EE049
:103260002068816889070FD5E18E69B1B9F1010F36
:103270000AD1216B09780173206B401C2063E08E1A
:10328000401EE0864FF0000920688168C9070CD015
:10329000E18F51B1C068A16B0870A06B401CA063A6
:1032A000E08F401EE0874FF00109FFF7A5F8A0EB83
:1032B0000800B04202D3701C01D010E07EB1E08E55
:1032C0000028CDD1E08F0028CAD1424631462046A1
:1032D00001F078FD28B101272020606507E0032771
:1032E00005E0A06818B92068C168806800900120D6
:1032F00084F85100002084F8500038462CE77047CD
:103300007047000070B590F83C20012A2CD00124B1
:1033100080F83C40022280F83D2003685A689D688E
:1033200022F070060A6832435A60104B02689A42D3
:103330000ED0B2F1804F0BD00D4B9A4208D00D4BFE
:103340009A4205D00C4B9A4202D00C4B9A4204D1BF
:10335000496825F080031943916080F83D400021C1
:1033600080F83C10084670BD022070BD000001408E
:103370000004004000080040000C004000400140F4
:1033800010B5040003D094F83D0010B107E001200F
:1033900010BD002084F83C00204600F00DF802200B
:1033A00084F83D00211D206801F0CEFE012084F844
:1033B0003D00002010BD000008B501680B48B1F1C8
:1033C000804F0BD00A4A914207D1016841F00801B1
:1033D0000160006800F00800009008BD016841F03D
:1033E00001010160006800F00100F5E7403802408B
:1033F000000C00400168CA6842F00102CA6000681F
:10340000816801F00701062903D0016841F001013C
:1034100001600020704770B5044690F83C00012818
:1034200017D0012584F83C50022084F83D00206824
:10343000826822F0770222F47F4282600868502876
:1034400030D00DDC20284DD005DC98B310283BD1BE
:1034500048E0022070BD302844D0402834D139E003
:10346000602828D0702806D0B0F5805F2CD0B0F549
:10347000005F29D10AE0CB68D1E90121206801F081
:10348000AFFE2068816841F0770109E0CB68D1E99F
:103490000121206801F0A4FE2068816841F4804188
:1034A000816011E0CA684968206801F0ABFE5021D4
:1034B000206807E016E0CA684968206801F0B3FE9A
:1034C0006021206801F096FE84F83D50002084F8C9
:1034D0003C0070BDCA684968206801F093FE402135
:1034E0002068EFE7226801461046EBE7704770B5A9
:1034F0000446006801694FF00005C943890715D4E7
:10350000C168C943890711D4E91E016101202077F0
:10351000206880698007204602D0FFF7E7FF04E0BB
:1035200000F098F8204600F096F8257720680169A9
:10353000C943490717D4C168C943490713D46FF079
:1035400004010161022020772068806910F4407F27
:10355000204602D0FFF7CAFF04E000F07BF82046C7
:1035600000F079F8257720680169C943090716D466
:10357000C168C943090712D46FF008010161042032
:1035800020772068C0698007204602D0FFF7AEFF91
:1035900004E000F05FF8204600F05DF82577206831
:1035A0000169C943C90617D4C168C943C90613D400
:1035B0006FF010010161082020772068C06910F4C5
:1035C000407F204602D0FFF791FF04E000F042F870
:1035D000204600F040F8257720680169C943C907F3
:1035E00008D1C168C943C90704D1891E01612046B9
:1035F00000F032F820680169C943090609D4C1689E
:10360000C943090605D46FF0800101612046FFF728
:1036100076FE20680169C943490609D4C168C943D7
:10362000490605D46FF040010161204600F01EF804
:1036300020680169C94389060BD4C168C94389065A
:1036400007D46FF0200101612046BDE87040FFF70C
:1036500057BE70BD7047704700680349884201D16A
:10366000FEF7D0BE7047000000080040704770476A
:1036700070B5026804461068D168536910F00F0FE6
:1036800052D003F0010501F490762E435FD0C207BB
:1036900005D0CA0503D5E26B42F00102E26342079E
:1036A00005D5DA0703D0E26B42F00202E26382073B
:1036B00005D5DA0703D0E26B42F00402E2630207A9
:1036C00007D501F020022A4303D0E26B42F0080242
:1036D000E263E26B002A33D0800604D5880602D567
:1036E000204601F0C8FD20684069E16BC0F38010FE
:1036F000090700D428B3204601F0AFFD20684169D6
:1037000049061AD5416921F040014161606BA0B1C1
:103710001B490165606BFEF76FFD002810D0606BE0
:10372000016DBDE870400847830610D58B060ED5A5
:103730002046BDE8704001F09EBD2046FFF797FF90
:1037400070BD2046FFF793FF0020E06370BD0306C5
:1037500006D50B0604D52046BDE8704001F06ABED0
:103760004006F3D54806F1D5D168204621F0400146
:10377000D160202184F8391000F022F970BD0000DA
:103780004B52000870B5040004D094F839000025AD
:1037900010B106E0012070BD84F83850204600F0DA
:1037A00023F8242084F839002068C16821F40051EE
:1037B000C160204601F0AAFD2068016921F4904112
:1037C00001612068416921F02A0141612068C168D6
:1037D00041F40051C160E563202084F8390084F889
:1037E0003A00002070BD0000F0B587B004461421F7
:1037F0006846FCF795FD3E49DFF8F0C027680022D7
:103800003B4B14390224032507263A4867451FD14C
:103810001F6847F010071F601B6803F01003059333
:103820000B6843F001030B60096802AF01F001016E
:1038300005916902CDE9001487E864006946FEF746
:10384000FFFC002205212520FEF762FE252024E052
:10385000DFF8A4C0674524D1254B1B1F1F6847F420
:1038600000371F601B6803F4003305930B6843F0B7
:1038700001030B60096802AB01F0010105910C2105
:10388000CDE9001483E864006946FEF7D9FC002204
:1038900005212620FEF73CFE2620FEF72BFE07B072
:1038A000F0BD16488742FAD1186840F02000186031
:1038B000186800F020000590086840F004000860D7
:1038C0000868029200F004000590C020CDE90004D1
:1038D0000820CDE9035069460948FEF7B1FC0022F3
:1038E00005214720FEF714FE4720D6E700100140CF
:1038F00044380240000002400044004000140140EF
:103900000008024070472DE9F843044690F839005A
:103910001F4616460D46202850D1B5B1AEB194F8D9
:10392000380001284AD0012084F838004FF0000800
:10393000C4F83C80212084F83900FEF75DFDA684A0
:103940008146E68484F8388026E00120BDE8F883CB
:10395000E08C401EE084A0684B46B0F5805F4FF0DD
:1039600000024FF080012046009703D001F093FD44
:10397000E8B90DE001F08FFDC8B928882168C0F3CF
:1039800008004860206908B16D1C05E0AD1C03E02B
:10399000216815F8010B4860E08C0028D8D14B460F
:1039A000002240212046009701F075FD08B1032058
:1039B000CCE7202084F839000020C7E70220C5E7C3
:1039C0007047FEE710B5064C012240212046FEF765
:1039D0000DFD20460122BDE810408021FEF706BD06
:1039E0000004024070B50F4D0024224640212846B5
:1039F000FEF7FCFC012280212846FEF7F7FC06209A
:103A000003F094FB012240212846FEF7EFFC06203C
:103A100003F08CFB80212846FEF7DCFC00B101247A
:103A2000204670BD000402402DE9F0410024144EF0
:103A300007462546002240213046FEF7D7FC0122EA
:103A400080213046FEF7D2FC062003F06FFB0122F6
:103A500040213046FEF7CAFC80213046FEF7BAFC12
:103A600040EA4500C5B2062003F060FB641CE4B2E6
:103A7000082CDFD3384600F005F82846BDE8F08171
:103A80000004024070B50E4D044600224021284635
:103A9000FEF7ACFC0CB1012200E000228021284698
:103AA000FEF7A4FC062003F041FB0122402128463A
:103AB000FEF79CFCBDE87040062003F037BB000019
:103AC0000004024070B5134D064600240022402138
:103AD0002846FEF78BFC06FA04F0000601D5012209
:103AE00000E0002280212846FEF780FC062003F03B
:103AF0001DFB012240212846FEF778FC062003F03A
:103B000015FB641CE4B2082CE0D3BDE87040FFF75D
:103B100069BF00000004024010B5124C0022402191
:103B20002046FEF763FC062003F000FB0122802103
:103B30002046FEF75BFC012240212046FEF756FCA2
:103B4000062003F0F3FA002280212046FEF74EFC07
:103B5000062003F0EBFA20460022BDE81040402189
:103B6000FEF744BC0004024010B50C4C002280213A
:103B70002046FEF73BFC012240212046FEF736FCA2
:103B8000062003F0D3FA012280212046FEF72EFC06
:103B9000BDE81040062003F0C9BA0000000402404E
:103BA0002DE9F041144E00244FF480752246294639
:103BB0003046FEF71BFC0122DFF8408057023946F1
:103BC0004046FEF713FC022003F0B0FA012229461A
:103BD0003046FEF70BFC012003F0A8FA39464046B8
:103BE000FEF7F8FB00B10124002229463046FEF71B
:103BF000FDFB2046BDE8F0810000024000080240C5
:103C00002DE9F04700251B4FDFF86C9082462C46CB
:103C10004FF480764FF40078002231463846FEF7A4
:103C2000E5FB012241464846FEF7E0FB022003F097
:103C30007DFA012231463846FEF7D8FB6006040EB5
:103C400041464846FEF7C6FB08B144F00104012096
:103C500003F06CFA6D1CEDB2082DDDD30022314665
:103C60003846FEF7C3FB504600F008F82046BDE892
:103C7000F0870000000002400008024070B5114CBF
:103C800006464FF48075002229462046FEF7AEFB1B
:103C90000D4861150EB1012200E00022FEF7A6FBDF
:103CA000022003F043FA012229462046FEF79EFB3C
:103CB000012003F03BFA29462046BDE8704000226F
:103CC000FEF794BB00000240000802402DE9F047D7
:103CD000DFF86090184F054600244FF400784FF449
:103CE0008076002231463846FEF780FB05FA04F064
:103CF000000601D5012200E0002241464846FEF7B9
:103D000075FB022003F012FA012231463846FEF715
:103D10006DFB012003F00AFA641CE4B2082CE0D326
:103D2000002231463846FEF761FBBDE8F047FFF759
:103D300037BF000000080240000002402DE9F041BA
:103D400001220F4D140221462846FEF74FFB0122A7
:103D50000C4F560231463846FEF748FB012003F06F
:103D6000E5F9002231463846FEF740FB012003F01A
:103D7000DDF921462846BDE8F0410022FEF736BBBA
:103D8000000002400008024070B50D4D4FF4007471
:103D9000002221462846FEF729FB0122110209488C
:103DA000FEF724FB012003F0C1F901222146284639
:103DB000FEF71CFBBDE87040012003F0B7B900001E
:103DC000000802400000024070B50D460146022482
:103DD000522000F069FE40B9284600F0A0FD20B94D
:103DE000284600F0CDFE00B90024204670BD00003A
:103DF00010B5012251020548FEF7F8FA0122BDE88C
:103E0000104011020248FEF7F1BA0000000802401B
:103E10000000024010B50A4C012220212046FEF786
:103E2000E5FA4FF4FA7003F081F9002220212046D0
:103E3000FEF7DCFABDE8104040F2DC5003F076B942
:103E40000008024010B5412801D0012010BD082112
:103E50000846FDF731FC3D21112001F051FC86217F
:103E6000172001F04DFC7F21262001F049FC1E2186
:103E70002D2001F045FC00212C2001F041FC8D217A
:103E80002A2001F03DFC3E212B2001F039FC0220CC
:103E9000FDF7E6FC00F036FD002010BD2DE9F041F5
:103EA00016460F460546164C02E00A20FEF7B6F904
:103EB000E07A0028F9D00020E07221786C2908D13E
:103EC0006178622905D1A178632902D1E178A942FC
:103ED00002D00120BDE8F08121796279C5350A441C
:103EE0002A44E379D2B2934201D00220F2E739703A
:103EF000617931702060606020810020EAE7000075
:103F00003A2C002010B5012202210748FEF76EFA74
:103F100006480168CA6842F01002CA600068C168B9
:103F200041F02001C16010BD00080240B40B002028
:103F300001B56423012269460148FFF7E4FC08BD8E
:103F4000B40B002070B50C4606462044C530C5B2FF
:103F50006C20FFF7EDFF6320FFF7EAFF6220FFF719
:103F6000E7FF3046FFF7E4FF2046FFF7E1FF0020C0
:103F7000FFF7DEFF2846BDE87040FFF7D9BF00001D
:103F800010B5B2B01C2227496846FCF7B0F90021F1
:103F9000684603F0C3F9244C22491C2220601C31DE
:103FA00007A8FCF7A4F9002107A803F0B7F91D49F9
:103FB00060601C2238310EA8FCF799F900210EA888
:103FC00003F0ACF91749A0601C22543115A8FCF786
:103FD0008EF9002115A803F0A1F91249E0601C2216
:103FE00070311CA8FCF783F900211CA803F096F996
:103FF0000C4920611C228C3123A8FCF778F90021A0
:1040000023A803F08BF9074960611C22A8312AA874
:10401000FCF76DF900212AA803F080F9A06132B005
:1040200010BD000028A50008000000202DE9F04F79
:1040300087B014216846FCF773F9564800240168DC
:1040400041F004010160016801F00401059101687B
:1040500041F080010160016801F080010591016873
:1040600041F001010160016801F001010591016861
:1040700041F002010160016801F00201059101684F
:1040800041F0080101600068DFF80C8100F00800D1
:104090000590002222214046FEF7A8F9DFF8FC90A7
:1040A00001224FF488714846FEF7A0F9DFF8F0B01E
:1040B000002244F2DA715846FEF798F90122110302
:1040C0005846FEF793F90122570239464046FEF75B
:1040D0008DF90022B9014846FEF788F9DFF8C4A03F
:1040E000002204215046FEF781F91125CDE9005444
:1040F000694640460294FEF7A3F82220009001266C
:10410000CDE90164694640460394FEF799F803201F
:10411000CDE90004694648460294FEF791F848F25A
:1041200010000090CDE90164694648460394FEF70B
:1041300087F845F21A700090CDE901646946584647
:104140000394FEF77DF80097CDE901546946404697
:104150000394FEF775F830020090CDE901546946EA
:1041600048460394FEF76CF804200090CDE9016402
:10417000694650460394FEF763F8C0200090CDE9ED
:104180000154694658460394FEF75AF807B0BDE853
:10419000F08F00003038024000080240000002406A
:1041A00000040240000C024030B587B0142168467C
:1041B000FCF7B6F81D4800241B490594C0E900141B
:1041C0007F218160FF21C0E9031444618461FEF70F
:1041D00081FD08B1FDF71EFD09208DF800002025A6
:1041E0008DF801508DF802400394012269460F4872
:1041F0000494FEF735FE08B1FDF70CFD01208DF8A3
:10420000140003218DF815108DF8160002468DF864
:10421000175005A90548FEF7BFFD002801D0FDF79E
:10422000F9FC07B030BD0000002800408C090020D8
:104230000F4810B50D4901604FF4827141600021B3
:104240008160C1604FF400720161C0E90512C16173
:104250000162416281620A21C162FEF792FE00287A
:1042600003D0BDE81040FDF7D5BC10BD00300140C3
:10427000AC0900200F4810B50D4901604FF4827160
:10428000416000218160C1604FF400720161C0E9AA
:104290000512C1610162416281620A21C162FEF7B9
:1042A00070FE002803D0BDE81040FDF7B3BC10BD80
:1042B00000380040040A0020104810B50E49016083
:1042C0004FF48271416000218160C1604FF400723F
:1042D0000161C0E905122022C0E907214162816223
:1042E0000A21C162FEF74DFE002803D0BDE8104050
:1042F000FDF790BC10BD0000003C00405C0A0020AF
:1043000010B586B0002416480094019402940394DA
:1043100004944FF08041059401605321C0E90114D9
:104320004FF6FF71C0E903148461FFF729F808B163
:10433000FDF770FC4FF48050009069460848FFF785
:104340006AF808B1FDF766FC049404A904480594D2
:10435000FEF7D8FF002801D0FDF75CFC06B010BDC9
:10436000B40A002010B586B00024174800940194C8
:1043700002940394049413490594016042F2D0011D
:10438000C0E901144FF6FF71C0E903148461FEF720
:10439000F7FF08B1FDF73EFC4FF4805000906946EE
:1043A0000948FFF738F808B1FDF734FC049404A974
:1043B00005480594FEF7A6FF002801D0FDF72AFC6A
:1043C00006B010BD000C0040F40A00200C4810B5E7
:1043D0000A4901604FF4E1314160002181600C2203
:1043E000C160C0E904128161C161FFF7CBF9002807
:1043F00003D0BDE81040FDF70DBC10BD001001401A
:10440000340B00200C4810B50A4901604FF4E1312B
:104410004160002181600C22C160C0E90412816109
:10442000C161FFF7AFF9002803D0BDE81040FDF7E8
:10443000F1BB10BD00440040740B00200C4810B5C7
:104440000A4901604FF4E1314160002181600C2292
:10445000C160C0E904128161C161FFF793F90028CE
:1044600003D0BDE81040FDF7D5BB10BD00140140DE
:10447000B40B00201CB51DA001F060F91F4C02E038
:104480000A2002F03FFF01212046FDF7A3FF00288C
:10449000F6D00020FDF758F88DF8000010F0FF0F5F
:1044A00006D001212046FDF795FF0028F9D0F0E75E
:1044B00000217120FFF746FD01AA69467120FFF730
:1044C000EDFC08B1AB201CBD9DF8000030B1922876
:1044D00006D00BA001F032F9FF201CBD0AA000E0BD
:1044E0000CA001F02BF99DF804001CBDC7EBB7C56B
:1044F000CFC2CAD6D6B80D0A00000000000802409C
:10450000CAA7B0DC0D0A0000B1C8B6D4B3C9B9A6B9
:104510000D0A0000C3BBD3D0B8C3D6B8CEC60D0AAF
:1045200000000000FEE72DE9F043ADF5017D1546E2
:10453000894680460227FBF710FF801C86B23902AD
:104540006846FBF7EDFE30208DF8000070198DF8FD
:1045500001006C4680281ED301208DF8020003273D
:104560004046FBF7FAFE000A8DF803004046FBF7D1
:10457000F4FE8DF804004046FBF7EFFE024641468C
:10458000601DFBF7B4FE4046FBF7E7FE20442A46D9
:104590004946401D19E04046FBF7DFFE000A8DF852
:1045A00002004046FBF7D9FE8DF803004046FBF7BA
:1045B000D4FE02464146201DFBF799FE4046FBF71C
:1045C000CCFE20442A464946001DFBF790FEB81950
:1045D000284481B2684600F03DF90DF5017DBDE843
:1045E000F08300002DE9F041032400F049F910B3F5
:1045F000124E00254FF40077641EE4B21BD310A0C6
:10460000FDF774FB6420FDF709FEC82210A10B48DA
:10461000FDF746FC012808D086F8005186F80151C4
:1046200039460648FBF77CFEE6E70AA001F086F86B
:104630000120BDE8F0810020FBE700004E2E0020A5
:1046400041542B43495053454E440D0A000000008D
:104650003E0000007365742073656E64206F6B0DFF
:104660000A000000F0B5C1B00D460646FBF775FE26
:10467000C41C4FF480716846FBF752FE82208DF80F
:104680000000A01C8DF8010000208DF8020005201C
:104690008DF803003046FBF760FE000A8DF8040039
:1046A0003046FBF75AFE8DF805003046FBF755FE05
:1046B00002466F463146B81DFBF719FE3046FBF740
:1046C0004CFE3844241D8571A1B2684600F0C2F842
:1046D00002A001F033F841B0F0BD0000B6A9D4C487
:1046E000B1A8CEC4B7A2CBCDB3C9B9A60D0A0000FC
:1046F00030B5A1B00546FBF730FE841C802168462A
:10470000FBF70EFEA2208DF80000A01C8DF8010022
:1047100000208DF8020002208DF803002846FBF7E8
:104720001CFE000A8DF804002846FBF716FE8DF8E3
:1047300005002846FBF711FE024629460DF106004A
:10474000FBF7D5FD241DA1B2684600F083F802A056
:1047500000F0F4FF21B030BDC8A1CFFBB6A9D4C48E
:10476000B3C9B9A60D0A000070B5ADF5007D4FF4D0
:1047700000716846FBF7D4FD2F4C10208DF8000027
:1047800034F8802F4D23B4F882001118B4F80401D6
:104790008DF80430801D0D1805F10A008DF8010018
:1047A000002004218DF802008DF803108DF8081008
:1047B000C2218DF809108DF80A003C208DF80B00FD
:1047C0005123100A8DF805308DF80C0054238DF814
:1047D00006300DF10E008DF807308DF80D201649CA
:1047E0000646FBF784FDB4F882202088110A815523
:1047F0000DF10F0104AE42540F4930448231FBF7F2
:1048000076FD2088B4F88230B4F804211844110AE7
:104810008155711C4254491C08440849FBF767FD47
:104820000C35A9B2684600F015F805A000F086FF27
:104830000DF5007D70BD0000462C00204A2D0020A3
:10484000B7A2CBCDC1ACBDD3B1A8CEC4B3C9B9A6B4
:104850000D0A000070B50D4604464FF47A7606E066
:104860003346012221460448FFF74DF8641C6D1EB3
:10487000ADB2F5D270BD0000740B0020704700008F
:104880002DE9F04102240025114EE70114E011A0AA
:10489000FDF72CFA6420FDF7C1FCC82211A10C48D9
:1048A000FDF7FEFA01280DD039460948FBF738FD1F
:1048B00086F8005186F801512046641EE4B2E6D223
:1048C000BDE8F08108A000F039FF0120F8E7000002
:1048D0004E2E002041542B4349504D4F44453D310D
:1048E0000D0A00004F4B0000CDB8B4ABC4A3CABD45
:1048F000C9E8D6C3B3C9B9A60D0A00000321142024
:10490000FCF7DABE10B5142000F0B6F9800705D127
:104910000321BDE81040142000F0CABA10BD70B5E4
:104920000646082188B000240846FCF7C5FE002191
:104930000D2000F0E5FE80210E20FCF7BDFE932047
:104940008DF8040020208DF8050006A801AB00902A
:10495000022219460C2000F017F805000DD10021A5
:1049600001A8425C7254425C491C5440C9B20429FB
:10497000F7D3405CA04200D0022580210E2000F039
:1049800097FA08B0284670BD2DE9FF5F0027022680
:10499000DDF838A015468B468146B8460C2805D070
:1049A000B9F10E0F05D11227102001E07727302032
:1049B000804647F08001022000F0A2FE8021042002
:1049C000FCF77AFE0021012000F09AFE80210A20E7
:1049D00000F06EFA002406E01BF80410092000F035
:1049E0008FFE641CA4B2AC42F6D34946012000F00D
:1049F00087FEB9F10C0F03D180210D2000F058FA89
:104A00004FF41675042000F037F96D1E2D0404468E
:104A10002D0C04D0E00702D114EA080FF2D0802157
:104A20000D20FCF749FE35B1062000F025F910F005
:104A30001B0F0CD0022680210C2000F039FA002137
:104A4000012000F05DFE04B03046BDE8F09F002676
:104A50003C40E00700D00126B9F10C0FEBD10A2051
:104A600000F00AF904460C2000F006F910F00700E7
:104A700003D0E1000839084400E0E0008AF80000B3
:104A800024B1122C04D91224002503E00124FBE7F1
:104A9000002506E0092000F0EFF8039948556D1C49
:104AA000ADB2A542F6D3C6E730B50C46054608219F
:104AB00087B00846FCF700FE07210D2000F020FE1D
:104AC0000321142000F0F4F906A801AB00908DF842
:104AD0000450012219460C20FFF756FF18B99DF823
:104AE0001810102902D0022007B030BD9DF8041024
:104AF00021709DF805106170F6E7000010B51F4C9D
:104B0000012204212046FDF771FC0220FCF7A8FEDB
:104B1000002204212046FDF769FC0220FCF7A0FEDC
:104B2000012204212046FDF761FC0220FCF798FEDB
:104B30000F21012000F0E4FD0F21012000F0E0FD35
:104B40000220FCF78DFE3D21112000F0D9FD1E2131
:104B50002D2000F0D5FD00212C2000F0D1FD8D216D
:104B60002A2000F0CDFD3E212B2000F0C9FD402180
:104B7000152000F0C5FD002010BD0000000C024013
:104B800010B588B093218DF8041070218DF80510B0
:104B900000218DF80A1001AA5418435CA370445CEC
:104BA0009DF80A30491C6340C9B28DF80A300429C7
:104BB000F2D3072101A8D21DFCF793FC0821084677
:104BC000FCF77AFD06A801AB0090092219460C20DB
:104BD000FFF7DAFE18B99DF81810182900D0022046
:104BE00008B010BD094810B50068016841F04001E7
:104BF0000160012204210648FDF7F8FB00F05AF895
:104C0000BDE810404120FFF71DB900005C0A0020FC
:104C1000000C0240010901EB810100F00F0000EBE4
:104C20004100C0B27047002102E00A38C0B2491CFE
:104C30000A28FAD2090740EA1160704770B50446A5
:104C40000068C168490614D44FF0FF31C160FDF718
:104C5000D3FB05464FF47A7607E000BFFDF7CCFBA7
:104C6000401BB04201D9032070BD2068C0684006D7
:104C7000F4D5002070BD000070B50D4E04464FF411
:104C80000045002229463046FDF7B0FB7E2000EAB1
:104C9000440040F0800000F017F9002000F014F903
:104CA0000446012229463046FDF7A0FB204670BD90
:104CB0000000024010B5FFF721FFFFF71FFEBDE81F
:104CC0001040FFF71FBE000010B53D4C02212046EA
:104CD000FDF780FB002819D1FCF77EFB233817284D
:104CE00014D2DFE800F05C131313131313541313DF
:104CF000131313640C141C242C343C444C00022168
:104D00002046FDF767FB0028F9D0312010BD0221B5
:104D10002046FDF75FFB0028F9D0322010BD0221AC
:104D20002046FDF757FB0028F9D0332010BD0221A3
:104D30002046FDF74FFB0028F9D0342010BD02219A
:104D40002046FDF747FB0028F9D0352010BD022191
:104D50002046FDF73FFB0028F9D0362010BD022188
:104D60002046FDF737FB0028F9D0372010BD02217F
:104D70002046FDF72FFB0028F9D0382010BD022176
:104D80002046FDF727FB0028F9D0392010BD02216D
:104D90002046FDF71FFB0028F9D02A2010BD022174
:104DA0002046FDF717FB0028F9D0232010BD022173
:104DB0002046FDF70FFB0028F9D0302010BD000081
:104DC0000000024038B504461248134B0068B0FB9F
:104DD000F3F04FF47A73584300906068B0F5827F27
:104DE0000DD10B46009200228021204600F016F8DB
:104DF00070B1606D40F020006065032038BD009800
:104E000030B1401E009020688068C0430006F6D58F
:104E1000002038BD2C00002000366E012DE9F04145
:104E20001D4617460E460446DDF8188008E0681C4B
:104E300006D0FDF7E1FAA0EB0800A8420BD255B16D
:104E40002068806836EA000030D00020B842EED1F9
:104E50000020BDE8F0812068416821F0E001416058
:104E60006068B0F5827F0BD1A068B0F5004F02D02A
:104E7000B0F5806F04D12068016821F04001016025
:104E8000A06AB0F5005F09D12068016821F40051E3
:104E900001602068016841F400510160012084F83C
:104EA0005100002084F850000320D2E70120CDE714
:104EB00070B50C460546FFF7DFFE40EA04012846C0
:104EC000BDE8704000F01CBC01B582B000208DF838
:104ED00004000A200090012301AA02A90248FEF75B
:104EE0001DF99DF804000EBD5C0A0020012002F0AF
:104EF00009FAFBE7034C207800F0A4F8322002F016
:104F000001FAF8E790060020FFF7B4FA40B1FFF786
:104F1000B1FAFF2804D0FCF7ABFC182005F05AF9D1
:104F2000C82002F0EFF9EFE788B01B4F00266D466E
:104F30003E603E7100248DF81C6007AA01213220DA
:104F4000FCF7F7F99DF81C0010B300BF04EB8400D8
:104F5000421905211430FCF7ECF9641CE4B2052C6D
:104F6000F4D30D490D48FEF72FFF88B95FF0000418
:104F700004EB840041190848FBF7F6F920B9FCF767
:104F800077FC182005F026F9641CE4B2052CEFD359
:104F9000C82002F0B7F9CBE783060020880600207E
:104FA00008B541F288350CA00221006800906846DF
:104FB000FFF750FC02F0D8F80446FBF7CEF982B2B6
:104FC000214606A0FFF7AFFA204600F0EBFB28468B
:104FD00002F098F9E7E70000C00000002F73797332
:104FE0002F61316E74334938413479682F6D795FA0
:104FF0006C6F636B2F7468696E672F6576656E746E
:105000002F70726F70657274792F706F73740000F7
:10501000FCF702F9322002F075F9F9E7084C4FF479
:10502000807566154FF4FA7729462046FDF7D7F9C3
:1050300031462046FDF7D3F9384602F063F9F3E72D
:105040000004024018B1012803D101F0B3B801F007
:1050500073BF704710B5502080F31188BFF34F8F96
:10506000BFF36F8F05F09AF918B104494FF08050E3
:105070000860002080F3118810BD000004ED00E0FE
:1050800030B597B030216846FBF74AF914210CA8D7
:10509000FBF746F9142111A8FBF742F91E48002539
:1050A000016841F080510160006800F08050169066
:1050B0001A48016821F4404141F400410160006850
:1050C000022400F440401690052000904FF48030F8
:1050D0000190012002908005CDE90640192008903A
:1050E000A820CDE9090404200B906846FDF7F6FBE3
:1050F0000CA90F2081E83100E002CDE90F05022163
:105100000CA8FDF7DFFAE0011490119411A8FDF747
:1051100031FA17B030BD0000403802400070004046
:105120000548016841F47001016003494FF00060D7
:10513000803908607047000088ED00E00148FEF704
:10514000D6B90000F40B0020F0B502681D4B1E4CD0
:105150009F031E4D1E4E984207D0B84205D0A04274
:1051600003D0A84201D0B04204D122F0700C4A68AA
:1051700042EA0C02984210D0B8420ED0A0420CD0A5
:10518000A8420AD0B04208D0124CA04205D0124C1E
:10519000A04202D0114CA04203D122F44074CA684C
:1051A00022434C6922F08002224302608A68C26274
:1051B0000A688262984201D1096901630121416153
:1051C000F0BD000000000140000400400008004065
:1051D000000C0040004001400044014000480140F4
:1051E00010B5846842EA032224F47F440A43224330
:1051F000826010BD826822F070020A4342F007010B
:105200008160704710B5036A046A24F001040462E7
:10521000846924F0F00444EA021423F00A020A43E9
:105220008461026210BD10B5036A23F010030362AB
:105230008369046A23F4704343EA023224F0A00332
:1052400043EA01118261016210BD10B5806B00213B
:10525000C185C184FEF70BFA10BD0168CA6822F44B
:105260009072CA6001684A6922F001024A612021F5
:1052700080F83A10704710B590F83A10222901D002
:10528000022010BD8168B1F5805F11D0016900294D
:1052900001681FD0496801F07F03816A4A1C82625D
:1052A0000B70C18D491E0904090CC18518D02BE073
:1052B0000269816A002A0268526805D0D2B20A8067
:1052C000816A491C8162ECE7C2F308020A80816AA4
:1052D000891CF7E74A68816A4B1C83620A70E0E721
:1052E0000168CA6822F02002CA600168CA6822F414
:1052F0008072CA6001684A6922F001024A61202175
:1053000080F83A10FEF7FEFA002010BD2DE9F041BA
:10531000044600680169E26821F4405111430161CB
:105320002169A068E2690843616911430843216863
:10533000CA6849F20C639A430243CA602068416913
:10534000A26921F4407111434161E0691927642584
:105350003226B0F5004F354A354920684FF0000835
:1053600006D0884201D0904236D1FDF775FA35E07B
:10537000884201D0904202D1FDF76EFA01E0FDF7BC
:105380005BFA61684A18A0FB070148EB0803FAF7CB
:105390007DFF0146B0FBF5F00201B1FBF5F06FF0C7
:1053A0001803584301EB800006EBC000B0FBF5F09A
:1053B00000F0F80002EB4002B1FBF5F0584301EBBE
:1053C000800006EBC000B0FBF5F000F0070021689C
:1053D00010448860BDE8F081FDF72EFA61688B0FFC
:1053E0008A00A0FB0701FAF751FF0146B0FBF5F078
:1053F0006FF01802504301EB800006EB0010B0FB89
:10540000F5F000F0F002B1FBF5F002EB0012B1FB99
:10541000F5F06FF01803584301EB800006EB001025
:10542000B0FBF5F000F00F00D1E7000000140140E0
:105430000010014090F83910212901D00220704756
:105440008168B1F5805F016A0BD04A1C0262026874
:1054500009785160C18C491E0904090CC1840ED021
:1054600017E009880268C1F3080151600169002949
:10547000016A02D0491C0162ECE7891CFBE7016864
:10548000CA6822F08002CA600068C16841F0400129
:10549000C160002070472DE9F041984617460E463E
:1054A0000446069D1DE0681C1BD02DB1FCF7A4FF2F
:1054B000A0EB0800A84214D92068C16821F4D0717B
:1054C000C1602068416921F001014161202084F818
:1054D000390084F83A00002084F838000320BDE841
:1054E000F0812068006836EA000004D00020B8424D
:1054F000D9D00020F3E70120F9E70000F0B4184B01
:1055000019680868174C820617484FF001051BD52B
:105510006FF020020A600178B1B9666813494788C4
:10552000A0F5005C0A780CEB023C07F80C6046889A
:10553000761CB6B24680B6F5805F05D172B1002206
:105540000A7000214180457019680968C90601D5B3
:1055500061680571F0BC0248FEF78AB80122EFE7E6
:10556000340B002000100140342C002030000020BB
:10557000194810B502681168194C8B0617490ED5E9
:105580006FF02003136094F8012142B90A6894F87F
:105590000031E25494F80021521C84F80021006884
:1055A0000268D20613D56FF010020260086894F802
:1055B0000001022801D9012007E04FF4807108485A
:1055C000FAF7AEFE002084F8000184F80101BDE87E
:1055D00010400148FEF74CB8740B00200444004012
:1055E0004E2E00200D48016808680D4A83060D48BC
:1055F00006D51168827A8154817A491C81720AE049
:105600000968C90607D50649091F096811680021FC
:1056100081720121C1720148FEF72AB8B40B002043
:10562000041401403A2C0020FEE700002DE9F0416F
:105630001D4E0546012220213046FCF7D7FE4FF4CF
:10564000FA5001F073FD002220213046FCF7CEFE17
:105650004FF47A7001F06AFD002440F2DC574FF4F9
:10566000FA78280610D5012220213046FCF7BEFE2C
:10567000384601F05BFD002220213046FCF7B6FEE3
:10568000404601F053FD01E0FEF7C4FB6806641CD0
:10569000050EE4B2082CE4D33046BDE8F041002208
:1056A0002021FCF7A3BE0000000802402DE9F041D4
:1056B000124F15460C460646002210213846FCF7CC
:1056C00095FE0320FCF7DCFBC6F30740FCF7D8FB94
:1056D000C6F30720FCF7D4FBF0B2FCF7D1FB04E0E3
:1056E000FF20FCF7CDFB05F8010B641EF8D238460D
:1056F000BDE8F04101221021FCF778BE0000024015
:105700002DE9F0410C4E0F4604464FF400450022AF
:1057100029463046FCF76AFE7E2000EA4400FFF787
:10572000D3FB3846FFF7D0FB29463046BDE8F041B1
:105730000122FCF75BBE0000000002400FB4054BE5
:1057400010B503A9044A029800F05CF910BC5DF89A
:1057500014FB0000F96D0008180700200FB4084B77
:1057600010B504A902AA039800F04CF9044602A956
:10577000002000F0DEFC204610BC5DF814FB0000A9
:10578000336100080907090E002804DB00F1E0205E
:1057900080F80014704700F00F0000F1E02080F85E
:1057A000141D704730B528B1144C031F0020216828
:1057B0000A4605E0084630BD9A4203D810465268B2
:1057C000002AF9D1002800D041680BD00468A3EB6F
:1057D0000005A54204D11B681C440346046002E096
:1057E000436000E023603AB11C68D51AA54203D19A
:1057F00015682C441C6052685A6030BD1C0700209C
:105800002DE9F04782460F4C10480D4E0E4F001BFD
:105810004FF0000820F007054FF001090022114663
:10582000504601F0F5FA002802D1306810B100208E
:10583000BDE8F0873C60C4E90058C6F80090EDE789
:1058400020070020446C00201C070020408000201E
:1058500002E008C8121F08C1002AFAD17047704739
:10586000002001E001C1121F002AFBD17047000097
:105870002DE9FF5F82B00021DDE90430020DDDF883
:1058800040B0034318D044F61050A2F2FF32424316
:105890001514119801281FD0A5EB0B00401C5FEADE
:1058A000000A4FF000064E4FDFF83891B0465046E0
:1058B00015D5CAF1000413E0119801244AA3012868
:1058C00001D16FEA0B010298119AC0E90031C0E9D9
:1058D000024206B0BDE8F09FCBF10000DFE70446CE
:1058E0000021404A491842EB0450CDE9001012E073
:1058F000E00707D032463B4640464946FBF7E2F810
:105900008046894632463B4610461946FBF7DAF890
:1059100006460F466410002CEAD1DDE90401DDE9FA
:105920000023BAF1000F06DAFBF7CCF842464B46EB
:10593000FBF7C8F805E0FBF737F942464B46FBF7A3
:1059400033F904460E460022284BFAF735FF03D8F8
:105950004FF0FF30014607E00022254B204631463C
:10596000FBF709F8FBF79BF9102409E0002C0ADB90
:105970000A220023FAF78AFC039B30321A55641E70
:1059800050EA0102F2D1641C039AC4F111031444D9
:10599000119A012A03D0012208430DD10AE00843DD
:1059A00004D000204FF0110B119072E7A3EB0B0510
:1059B0006D1E0DE05B4504DD4FF0000205F10105B1
:1059C00004E003DA4FF00002A5F10105002AECD053
:1059D00002981199C0E90231C0E9004579E7000059
:1059E000000014400000F03F300000000000F043D1
:1059F0000000E03F30380A2801D201207047002023
:105A0000704700002DE9FF4F95B09B46894606463A
:105A100000250FE2252877D100242746F84A0121E6
:105A2000059400E0044316F8013F203B01FA03F01F
:105A30001042F7D130782A2811D06FF02F03307838
:105A4000A0F13002092A16D8059A44F0020402EBAC
:105A5000820203EB42021044761C0590EFE759F8EE
:105A6000042B0592002A03DA504244F400540590B6
:105A700044F00204761C30782E2816D116F8010F57
:105A800044F004042A280DD06FF02F023078A0F1E2
:105A90003003092B09D807EB870302EB4303C71830
:105AA000761CF3E759F8047B761C30786C280FD00D
:105AB00006DC4C2817D068280DD06A2814D104E0E1
:105AC000742810D07A280FD10DE044F400140AE0B5
:105AD00044F4801401E044F440147278824202D10C
:105AE00004F58014761C761C307866280BD013DC05
:105AF000582877D009DC002875D04528F6D04628EC
:105B0000F4D047281AD19DE118E0632835D06428E5
:105B100079D0652812D195E1702873D008DC672808
:105B2000F1D069286FD06E280DD06F2806D1B5E06E
:105B300073282CD0752875D0782874D05A461799B8
:105B400090476D1C75E1C4F30250022809D0032868
:105B50000DD0D9F8001004280DD00D6009F104090A
:105B600067E1D9F80010EA17C1E90052F6E7D9F861
:105B700000100D80F2E70D70F0E719F8041B8DF8A6
:105B8000001000208DF80100EA46012003E059F8DA
:105B900004AB4FF0FF3061074FF0000102D40DE07D
:105BA00008F101018846B9420FDA8045F8DB1AF89E
:105BB00008100029F4D108E008F10101884681426B
:105BC000FADB1AF808100029F6D105985B46A0EB1D
:105BD000080721463846179A00F094FA284400EB4B
:105BE000080507E04DE029E10DE01AF8010B5A46DF
:105BF00017999047B8F10108F7D25B46214638461D
:105C0000179A13E142E00A220092C4F302524FF0C5
:105C1000000A022A08D059F804CB032A4FEAEC7193
:105C20000AD00DE029E02AE009F1070121F007027E
:105C3000F2E802C1914609E00FFA8CFC4FEAEC71E0
:105C4000042A03D14FFA8CFC4FEAEC71002907DAE1
:105C50000A460021DCF1000C61EB02012D2202E07A
:105C6000220504D52B228DF80420012203E0E2074F
:105C700001D02022F7E7904659E00A2102E01022E5
:105C80000DE010214FF0000A00910BE010224FF0C0
:105C9000000A44F004040827009203E008224FF0B1
:105CA000000A0092C4F30252022A05D059F804CB2C
:105CB0000021032A08D009E009F1070121F00702B9
:105CC000F2E802C1914605E01FFA8CFC042A01D1DA
:105CD0000CF0FF0C4FF00008220728D5702806D0E2
:105CE000009B83F0100353EA0A0305D00EE0402224
:105CF0008DF80420012208E05CEA010206D030227F
:105D00008DF804208DF8050002229046009B83F058
:105D1000080353EA0A030AD15CEA010201D16207CF
:105D200005D530228DF804204FF001087F1E582839
:105D300004D034A003900EA802900DE036A0F9E73D
:105D400053466046009AFAF7A1FA84460398825CAB
:105D50000298401E029002705CEA0100F0D10298A5
:105D600006A9081A00F1200A600702D524F480343D
:105D700000E00127574502DDA7EB0A0000E0002004
:105D800000EB0A01009005984144401A0590E00399
:105D900006D45B462146179A059800F0B3F90544EE
:105DA000002706E001A85A46C05D179990476D1C70
:105DB0007F1C4745F6DBE0030CD55B462146179A6E
:105DC000059800F09FF9054404E030205A461799E1
:105DD00090476D1C0099481E00900029F5DC08E0F2
:105DE000029802995A460078491C029117999047E7
:105DF0006D1CBAF10001AAF1010AF1DC65E10000B5
:105E00000928010030313233343536373839616290
:105E10006364656600000000303132333435363754
:105E200038394142434445460000000000F058F92B
:105E30000544761C307800287FF4ECAD19B0284674
:105E4000BDE8F08F620700D4062709F1070222F0AF
:105E5000070CFCE80223E14603F000485FEA080C67
:105E600002D00FF2702C0DE05FEA045C02D50FF255
:105E7000682C07E05FEAC47C02D00FF2602C01E0DE
:105E8000AFF2700C4FF0FF3823F00043CDF850C054
:105E900065280CD006DC452809D046281DD04728A7
:105EA0003DD13DE0662818D067287ED138E000213A
:105EB000112F01DB112000E0781CCDE9000106A9BB
:105EC0000EA8FFF7D5FCDDE90F010E9A0391002122
:105ED000009207F1010A04914DE04FF00040009755
:105EE000CDE9011006A90EA8FFF7C2FCDDE90F02FB
:105EF00003920E9B11990022DDF80CA000930492EE
:105F000011B9791C00EB010AB7EB0A0004D4C0F107
:105F1000FF3007F1010A0490AAEB0700019044E06A
:105F2000012F00DA01270021112F01DD112000E0EF
:105F30003846CDE9000106A90EA8FFF799FCDDE976
:105F40000F010E9A0391002104910092BA46210795
:105F50000CD40399514500DA8A46BAF1010F05DDE8
:105F6000009AAAF10101515C302908D0B84202DA46
:105F700010F1040F06DA0121CDE9011015E0AAF1B4
:105F80000101E9E7002805DC049901440491AAEB2A
:105F9000000102E0411C514500DD8A460499401A87
:105FA000401C01904FF000400290200704D401985B
:105FB000504501DBCDF8048000208DF84F00029899
:105FC0000DF14F07B0F1004F25D02B200E90029815
:105FD0004FF0020800280CDA404202902D200E906B
:105FE00007E00A210298FAF7FFFB3031029007F828
:105FF000011DB8F10001A8F10108F2DC02980028A7
:10600000EFD1791E0E980870307800F0200040F033
:10601000450007F8020D12A8C01B00F107081498EC
:10602000007800B1012000EB0A01019801EBE0715A
:1060300005984144401A401E0590E00306D45B4693
:106040002146179A059800F05DF8054414980078E9
:1060500018B15A46179990476D1CE00324D55B464A
:106060002146179A059800F04DF805441CE0049865
:10607000002807DBDDE90301884203DD0098405C6E
:10608000179901E0179930205A469047049805F176
:106090000105401C04900198401E019004D12E205F
:1060A0005A46179990476D1CBAF10001AAF1010AEE
:1060B000DDDC05E017F8010B5A46179990476D1C77
:1060C000B8F10001A8F10108F4DC5B462146179AFB
:1060D0000598ABE62D0000002B000000200000001A
:1060E0002DE9F041044600251E461746880404D4D5
:1060F00005E039462020B0476D1C641EF9D52846BE
:10610000BDE8F0812DE9F041044600251E46904689
:10611000C80301D5302700E02027880404D505E016
:1061200041463846B0476D1C641EF9D52846BDE887
:10613000F0810A68531C0B601070704719B110B1E0
:10614000826812B104E000207047816005E00246D9
:1061500010680028FBD111604A60012070472DE9CA
:10616000F0415FEA000806981E4614460D461ED010
:10617000EDB1E4B118B1E06840F4007708E01946E9
:10618000284600F055FA050011D0E06820F40077A9
:10619000A089800503D4206A08B171688847E76048
:1061A000214640462562BDE8F041FFF7C7BF002009
:1061B000BDE8F0817CB54FF6FF74EF2300211A464D
:1061C0000846009402F088F910254FF478463346CB
:1061D00082A200215020CDE9004502F0B5FA3346F5
:1061E00081A210213220CDE9004502F0ADFA3346FC
:1061F00082A220213220CDE9004502F0A5FA3346E3
:1062000082A230213220CDE9004502F09DFA3346CA
:1062100082A240213220CDE9004502F095FA3346B2
:1062200082A250213220CDE9004502F08DFA33469A
:1062300081A260213220CDE9004502F085FA334683
:1062400081A270213220CDE9004502F07DFA33466B
:1062500081A280213220CDE9004502F075FA334653
:1062600080A290213220CDE9004502F06DFA33463C
:1062700080A2A0213220CDE9004502F065FA834CCE
:10628000FEF722FD352878D024DC322839D010DC06
:10629000232854D03128F3D11D2003F09BFF022086
:1062A0006070217801292AD02170BDE87C4000F07F
:1062B000D3B9332834D03428E2D11D2003F08AFF2B
:1062C000052060702178012945D02170BDE87C400F
:1062D00000F0DABB36285FD037286CD038283CD0A5
:1062E0003928CDD11D2003F075FF0A206070217878
:1062F000012970D02170BDE87C4001F05BBE2070A8
:10630000D3E71D2003F066FF032060702178012988
:1063100004D02170BDE87C4000F06CBA2070F9E731
:106320001D2003F057FF042060702178012904D05C
:106330002170BDE87C4001F0F5BC2070F9E71D201C
:1063400003F048FF002060702178012901D02170FE
:106350007CBD20707CBD2070B8E71D2003F03AFFA3
:10636000062060702178012904D02170BDE87C40AE
:1063700001F0D2BF2070F9E7FFE71D2003F02AFFEC
:10638000072060702178012904D02170BDE87C408D
:1063900001F08CBD2070F9E71D2003F01BFF0820E1
:1063A00060702178012904D02170BDE87C4000F0A4
:1063B0003BBC2070F9E71D2003F00CFF0920607042
:1063C0002178012904D02170BDE87C4000F0D2BAC8
:1063D0002070F9E7FFE720708DE70000B9DCC0ED21
:1063E000D4B1C4A3CABD0000313AD0DEB8C4B9DC10
:1063F000C0EDD4B1C3DCC2EB00000000323AD0DE05
:10640000B8C4D3C3BBA7C3DCC2EB0000333AB5C7E3
:10641000BCC752464944BFA8C6AC0000343AC9BE06
:10642000B3FDD6B8B6A8C3C5BFA80000353AB5C7F6
:10643000BCC7D6B8CEC60000363AC9BEB3FDD6B882
:10644000B6A8D6B8CEC60000373AC9BEB3FDC8ABB1
:10645000B2BFD6B8CEC60000383AC9E8D6C3D2F427
:10646000C1BF0000393ABBD6B8B4B3F6B3A1C9E88E
:10647000D6C3000031303A23BCFCCDCBB3F6B9DC37
:10648000C0EDD4B1C4A3CABD000000009006002036
:1064900008B500230093024BFFF761FE08BD000022
:1064A000AC060020F8B50C46054600F02BF8064671
:1064B00000200090064B324621462846FFF74FFE4B
:1064C0000028304602D100F07DF80020F8BD000021
:1064D000AC060020F8B505460C46104600F05AF808
:1064E000064600200090064B324621462846FFF71C
:1064F00036FE0028304602D100F064F80020F8BDD6
:10650000AC06002010B518482DED028BB0EE408A85
:10651000F0EE608A00F07AF8040020D00820E060F5
:106520009FED120B84ED068B53EC102B51EC180BE6
:10653000FAF742F902D86FF000400FE09FED0D0B23
:1065400051EC180B53EC102BFAF71EF902D84FF050
:10655000004003E051EC180BFAF7F7F860612046B1
:10656000BDEC028B10BD0000AC0600200000C0FF97
:10657000FFFFDF41000000000000E0C110B504484B
:1065800000F044F8002801D04021C16010BD000097
:10659000AC06002070B50546094800F037F8040045
:1065A00007D01020E0600649284600F041F820613D
:1065B00008B1204670BD204600F004F8002070BDF0
:1065C000AC06002070B504460F4E19E0A08925687E
:1065D000C0050AD4A06820B1FFF7F4FFA089C00568
:1065E00003D4206908B171688847A089800503D465
:1065F000206A08B1716888477168204688472C4630
:10660000002CE3D170BD0000AC06002010B501687D
:1066100028208847040002D02821F9F781FE20466F
:1066200010BD0000014A012100F0A2BEAC0600200E
:1066300070B50E4605000DD0F9F78FFE401C31688D
:1066400004468847060005D022462946F9F74FFE42
:10665000304670BD002070BD2DE9FF470024029434
:106660000120039403F0B6FD4FF6FF76EF230021DF
:106670001A460846009601F02FFF10254FF4784A7D
:10668000CDE90065574653464CA200213C2002F05C
:106690005BF80D2003F09EFDCDE900653B464CA262
:1066A000DC21002002F050F8CDE900653B464AA20B
:1066B000DC21B42002F048F81B2003F08BFD484F8A
:1066C0000DF10808DFF81C91FEF7FEFAA0F1230196
:1066D000172921D2DFE801F05D2020202020206151
:1066E00020202020205B0C0F4D4F5153555759004F
:1066F00008F8040001E032214CE01D2003F06AFD9F
:10670000CDE90065E00608EB0402000E534678214F
:1067100002F01AF8641CE4B218F804002A2849D0E0
:10672000062CD1D14FF001084FEA0904FEF7CCFA4C
:1067300084F800802A2839D02328F7D11D2003F0BF
:1067400049FD02AA06210A20FAF728FE112003F0CB
:1067500041FDCDE900655021534623A2084601F0D2
:10676000F3FF4FF49670FBF759FD20783870BDE8C1
:10677000FF8733210EE034210CE035210AE0362179
:1067800008E0372106E0382104E0392102E0302119
:1067900000E0232108F80410AFE708F804001D20EA
:1067A00003F018FD99F800003870B3E71D2003F0DE
:1067B00011FDDAE7062CB5D0D9E70000C7EBCAE433
:1067C000C8EBB9DCC0EDD4B1C3DCC2EB0000000003
:1067D00023BCFCC8B7C8CF002ABCFCCDCBB3F600A5
:1067E0009006002091060020D0DEB8C4B3C9B9A637
:1067F000000000002DE9FF470024029402200394CA
:1068000003F0E8FC4FF6FF76EF2300211A46084616
:10681000009601F061FE10254FF4784ACDE900653D
:106820005746534646A200213C2001F08DFF0D2023
:1068300003F0D0FCCDE900653B4645A2DC210020F9
:1068400001F082FFCDE900653B4643A2DC21B42084
:1068500001F07AFF1B2003F0BDFC414F0DF1080849
:10686000DFF80091FEF730FAA0F1230117291ED2BC
:10687000DFE801F0571D1D1D1D1D1D5B1D1D1D1D8C
:106880001D550C0F47494B4D4F51530008F804005C
:1068900001E0322146E0CDE90065E00608EB0402A4
:1068A000000E5346782101F04FFF641CE4B218F843
:1068B00004002A2841D0062CD4D14C464FF00108C0
:1068C000FEF702FA414684F800802A2833D02328B4
:1068D000F6D102AA06216420FAF760FD112003F028
:1068E00079FCCDE90065502153461FA2084601F00E
:1068F0002BFF4FF49670FBF791FC20783870BDE8C1
:10690000FF8733210EE034210CE035210AE03621E7
:1069100008E0372106E0382104E0392102E0302187
:1069200000E0232108F80410B5E708F8040099F8FE
:1069300000003870B9E7C8B2E0E7062CBDD0DEE74A
:10694000C7EBCAE4C8EBBFAAC3C5C3DCC2EB0000F7
:1069500023BCFCC8B7C8CF002ABCFCCDCBB3F60023
:106960009006002091060020D0DEB8C4B3C9B9A6B5
:10697000000000002DE9FE43334E01204FF6FF7466
:106980003070EF2300211A460846009401F0A4FD60
:106990004FF478481025474643462CA2002150204A
:1069A000CDE9004501F0D0FE062003F013FC3B4684
:1069B0002AA2DC210020CDE9004501F0C5FE1B2004
:1069C00003F008FC3B4627A2DC21B420CDE90045BA
:1069D00001F0BAFE152003F0FDFB0020234F8DF8D7
:1069E000080000BFFEF770F9232808D02A28F9D143
:1069F0001D2003F0EFFB30783870BDE8FE831D20CA
:106A000003F0E8FBFBF79AF84FF4FA7958B15021FC
:106A1000434617A20846CDE9004501F095FE4846D9
:106A2000FBF7FCFBE7E702AA01214B20FAF7B6FCD3
:106A30005021434611A20846CDE9004501F084FEED
:106A4000112003F0C7FBEAE791060020C9BEB3FDA1
:106A5000C8ABB2BFD6B8CEC60000000023BCFCC88D
:106A6000B7C8CF002ABCFCCDCBB3F60090060020FF
:106A7000C9BEB3FDCAA7B0DC00000000C9BEB3FDAB
:106A8000B3C9B9A6000000002DE9F04F8DB01C215C
:106A900002A8F9F745FC0024504D0A9401200B94FC
:106AA00028704FF6FF79EF23A0464E461A4621463E
:106AB0002046CDF8009001F00FFD4FF0100ACDE90F
:106AC000006A4FF4784B57465B4645A200215020A0
:106AD00001F03AFE0B2003F07DFB5B4644A2DC2173
:106AE0000020CDE9006701F02FFE132003F072FBB8
:106AF0005B4641A2DC21B420CDE9006701F024FE11
:106B00008DF830800CAA01213220FAF712FC3C4E9D
:106B10000DF1080704EB8400C21905211430FAF7BF
:106B200008FC641CE4B2052CF4D3BB46FEF7CCF899
:106B300080460AA93348FDF747F9F0B95FF0000431
:106B400004EB840159440F460AA8F9F70DFC58B12B
:106B5000052C0ED1CDE9009A50214FF478432AA29A
:106B6000084601F0F1FD11E039460AA8F9F7FCFBEF
:106B700088B1641CE4B2052CE2D3B8F12A0F02D02C
:106B8000B8F1230FD2D11D2003F024FB28783070F8
:106B90000DB0BDE8F08F04EB84001EA20521143077
:106BA000FAF7FCFB9DF8300010B1401E8DF8300064
:106BB0000CAA01213220FAF7F1FB112003F00AFBA5
:106BC000CDE9009A50214FF4784314A2084601F011
:106BD000BBFD4FF49670FBF721FBD7E79106002031
:106BE000C9BEB3FDD6B8B6A8C3C5BFA80000000093
:106BF00023BCFCCDCBB3F6002ABCFCCDCBB3F60056
:106C00009006002088060020C3BBD3D0B8C3BFA81D
:106C1000000000003030303030000000C9BEB3FD4D
:106C2000B3C9B9A6000000002DE9FC5F3A4C012071
:106C30004FF6FF752070EF2300211A460846009595
:106C400001F04AFC10264FF47849CDE900564F4632
:106C50004B4632A20021502001F076FD072003F0C0
:106C6000B9FACDE900563B4630A2DC21002001F004
:106C70006BFDCDE900563B462EA2DC21B42001F08D
:106C800063FD162003F0A6FA2C4FDFF8B4804FF412
:106C9000FA7A00BFFEF718F88346FDF7EBFB88F899
:106CA000020088B1FF2812D0FAF77EFFD8B1BBF1FD
:106CB0002A0F02D0BBF1230FECD11D2003F08AFA7A
:106CC00020783870BDE8FC9F4B461EA201E04B4681
:106CD0001FA2CDE900565021084601F035FD50466F
:106CE000FBF79CFAECE798F8010010B1401E88F819
:106CF0000100134A0121521C4B20FAF74FFBCDE94A
:106D0000005650214B4615A2084601F01DFD1120EA
:106D100003F060FAE3E7000091060020C9BEB3FD6E
:106D2000D6B8B6A8D6B8CEC60000000023BCFCCDAD
:106D3000CBB3F6002ABCFCCDCBB3F6009006002006
:106D40009E060020C3BBD3D0B8C3D6B8CEC60000C1
:106D5000B1C8B6D4CAA7B0DC00000000C9BEB3FDFC
:106D6000D6B8CEC6B3C9B9A6000000002DE9F041DF
:106D700004001CD02268D2B1636813B1A0689842A5
:106D800015D24FF00046B14211D2A568491C6818CF
:106D9000834202D35019BDE8F081216939B9B0F1BD
:106DA000804F06D3B04202D26FF0004702E00020CD
:106DB000F1E74700236A00262BB139461046984771
:106DC000050012D00CE0A1693846884705000CD0B8
:106DD000A2682168521CF9F78AFAE169206888479D
:106DE000C4E90057A0682844D5E7E16920688847CE
:106DF00066602660DBE7000013B54FF47A7301226A
:106E000069460248FCF77FFD00981CBD340B00204A
:106E10002DE9F0410B3020F00706104D19E02068F5
:106E2000B04215D3B0420AD9871B201DD4F8048084
:106E3000F9F75DFAA019C0E90078286004E06068FD
:106E40002860201DF9F753FA201D2660BDE8F08167
:106E5000251D2C68002CE2D10020F7E71C0700203C
:106E60001CB5FBF7D7FAFEF70BF9FDF7DFF8FDF7D6
:106E700001FAFDF7DDF9FDF71FFAFDF741FAFDF71D
:106E8000A5FAFDF7DBFAFDF7BDFAFDF78DF9FDF781
:106E900069FAFDF7A7FE1BA0FEF750FC01F07AFC93
:106EA000FBF78EF8FCF7A4FFFCF78CFDFDF72AF842
:106EB00010254FF6FF744FF47846334613A278211D
:106EC0002820CDE9004501F03FFCFAF7E1FEFBF791
:106ED000C1F8FAF709FCEF2300211A46084600948E
:106EE00001F0FAFA334610A278212820CDE90045B6
:106EF00001F02AFC272003F06DF9FDF741F800F0BE
:106F000008FAFEE74F4B0D0A0000000057494649BA
:106F1000B3F5CABCBBAFA3ACC7EBB5C8B4FD2E2E4E
:106F20002E2E2E2E0000000057494649B3F5CABC4C
:106F3000BBAFB3C9B9A600002DE9F04F002487B05C
:106F40005D4A0494059421462046069401F0D4FB42
:106F5000DFF868A14FF00109DFF864B18AF8019009
:106F6000029410254FF6FF764FF478480394554F5E
:106F700001213846FBF72EFA01280BD11420FBF72C
:106F80004DF901213846FBF725FA012802D11E20D0
:106F900003F020F900224A494B48FBF76FFE00221C
:106FA0004A494948FBF748FE9BF8021000919BF8BC
:106FB00001309BF8002046A104A8FEF7CFFBCDE9E5
:106FC00000650021434604AA084601F0BDFBFDF719
:106FD0007BFE0746C82000F095F9A7F1230017288B
:106FE00041D2DFE800F02D40404040404031404079
:106FF0004040402B0C0F1D1F21232527290002A8EC
:10700000075501E032211CE00219CDE90065E006D8
:10701000000E4346782101F097FB641CE4B222E0A5
:1070200033210EE034210CE035210AE0362108E05E
:10703000372106E0382104E0392102E0302100E068
:10704000232102A80155DFE70CB1641EE4B202A8B7
:10705000202101550219CDE90065E006000E4346E6
:10706000782101F071FB062C81D1144A06210832E7
:107070000A20FAF75EF9114A0621921C6420FAF7F9
:1070800058F90E4902A8891C00F02EF958B10B4995
:1070900002A8083100F028F948B1102003F09AF84E
:1070A00007B0BDE8F08FFAF7E3FB1820F6E78AF89F
:1070B00000901D20F2E7000044A600089006002082
:1070C00078090020000002408C0900201C000020EC
:1070D000253032643A253032643A2530326400007B
:1070E00001460020842900D0C81C70470E490A6858
:1070F000136843F0010313600B6800225A6200EB2F
:1071000080020868416AB1EB420FFBD3016A41F289
:107110001112114207D1016A9210114203D1016884
:1071200021F0010101607047F40A00200D490A684E
:10713000136843F0010313600B6800225A62096868
:107140004A6A8242FCD3086A41F21112104207D106
:10715000086A9210104203D1086820F0010008600C
:1071600070470000B40A002030B58BB000200690B4
:107170000790049005908DF804008DF808008DF8B4
:107180000C0003AA01214B20FAF7D3F802AA01212F
:107190004620FAF7CEF801AA01213220FAF7C9F801
:1071A00004AA06216420FAF7C4F806AA06210A20D8
:1071B000FAF7BFF8FFF7E2F905462DA233A1FFF772
:1071C00089F9002850D033A235A12846FFF782F96B
:1071D000002849D0FFF7D2F9044606AA31A1FFF7EB
:1071E00079F9002840D004AA30A12046FFF772F9AF
:1071F000002839D09DF80400F9F79AFA41EC100BF9
:107200002CA12046FFF74EF970B39DF80800F9F75E
:107210008FFA41EC100B29A12046FFF743F918B370
:107220009DF80C00F9F784FA41EC100B25A12046DB
:10723000FFF738F9C0B1224624A12846FFF728F904
:1072400024A225A12846FFF745F968B12846FFF793
:10725000E9F90446014622A0FEF770FA2846FFF736
:10726000B1F920460BB030BDFFF7ACF90020F9E7CB
:107270007468696E672E736572766963652E7072C5
:107280006F70657274792E73657400006D65746833
:107290006F64000032303231303332310000000090
:1072A0006964000041444D5057440000444F4F5220
:1072B00050574400434152444E554D00564F4943A8
:1072C0004500000046494E4745520000706172611A
:1072D0006D730000312E300076657273696F6E0039
:1072E00025730D0A0000000010B50022835C8C5C41
:1072F000A34201D0012010BD521CD2B2062AF5D300
:10730000002010BD10B500B9012002F0D1FE002010
:1073100010BD10B502F0F2FE002010BD7FB50D4685
:1073200004464169B0F9080081B1A16971B1FFF764
:10733000D7FED4E905128DE80700D4E900102B46EA
:10734000226903F000F8039004B070BDFFF7C8FE97
:1073500003A9CDE90001208A2B4682B2D4E90010AE
:1073600002F0C4FF012801D00020EDE70398EBE70D
:10737000F0B589B00E460746144624216846F8F752
:10738000CFFF4FF480752168284688470596CDE9E0
:10739000000594E8070006AB83E80700009888B36F
:1073A0006946384600F0F8F940B3684601F05CFBE6
:1073B000A26800263AB102990098491C904705003E
:1073C0001CD0009617E002982168401C88470500F1
:1073D00014D0DDE90110401C814201D20A4601E0CF
:1073E000029A521C28460099F8F781FF02982E5401
:1073F000616800988847284609B0F0BD009808B138
:10740000616888470020F7E72DE9F04185680C00A6
:107410000FD001212046FFF7A9FC00280AD05B21EC
:107420000170A068401CA060E068401C0026E0607D
:1074300025E00020BDE8F0812146284600F0ACF9A7
:107440000028F7D0204601F00FFB2868B0B1606932
:1074500008B1022700E00127791C2046FFF786FCCF
:107460000028E7D02C2100F8011B616911B120210F
:1074700000F8011B0670A0683844A0602D68002D3C
:10748000DAD102212046FFF771FC0028D2D05D211D
:1074900001704670E068401EE0600120CAE700000D
:1074A000F0B52DED028B8BB090ED068B0E004FF0FA
:1074B00000044FF02E071FD053EC182B1DA1684677
:1074C000FEF74CF9054608AA1CA16846F8F764FFC8
:1074D000012808D19DED080B53EC182B51EC100B33
:1074E000F9F752F906D053EC182B15A16846FEF7B0
:1074F00035F905461A2D04D300200BB0BDEC028BE4
:10750000F0BD691C3046FFF731FC0028F5D0694614
:107510002E2306E00A5DBA4201D1035500E0025570
:10752000641CAC42F6D300210155B0682844B06019
:107530000120E2E725312E3135670000256C670018
:1075400025312E31376700002DE9F04785680C00A2
:1075500003D0606920B1022603E00020BDE8F08777
:107560000126711C2046FFF701FC0028F6D07B2184
:1075700000F8011BE168491CE16061690A2701B15B
:107580000770A0684FF0000830440926A06059E059
:1075900088B12046E168FFF7E9FB0028DED0002132
:1075A00003E000BF00F8016B491CE2688A42F9D889
:1075B000A0681044A0602146286A00F065F8002801
:1075C000CCD0204601F050FA606908B1022000E0FA
:1075D0000120814601462046FFF7C8FB0028BDD0A8
:1075E0003A2100F8011B616901B10670A16801EB45
:1075F0000900A0602146284600F0CEF80028ADD052
:10760000204601F031FA606900B10120296801B11A
:10761000012100EB010909F101012046FFF7A6FB5A
:1076200000289BD0296811B12C2100F8011B616949
:1076300009B100F8017B80F80080A16801EB090026
:10764000A0602D686069002DA2D110B1E168491CCD
:1076500000E002212046FFF789FB002886D06169FF
:1076600049B1002103E000BF00F8016B491CE2684A
:10767000521E8A42F8D87D21017080F80180E068AE
:10768000401EE060012069E72DE9F0470A00054649
:107690004FF0000601D01DB120E00020BDE8F087CA
:1076A00003211046FFF762FB0028F7D037A1F8F757
:1076B00069FE5AE00C2927D006DC082924D00929C4
:1076C00022D00A2906D11FE00D291DD022291BD066
:1076D0005C2919D0202900D2761D401C0178002990
:1076E000E8D1401B8719F91C1046FFF73FFB041E29
:1076F000D4D04FF022084FF0000984F800802EB15A
:10770000661C4FF05C0A28E0761CE6E73A462946FC
:10771000601CF8F7ECFD23E01F2803D9222801D0D4
:107720005C2830D106F801AB2A7850460C2A23D0C9
:1077300006DC082A1ED0092A24D00A2A06D11DE018
:107740000D2A1DD0222A12D05C2A1CD010A130464E
:10775000FEF704F8361D6D1C761C28780028DBD156
:10776000E01980F8018080F80290012096E786F801
:107770000080F0E7622006E0662004E06E2002E070
:10778000722000E074203070E5E700002222000043
:10779000752530347800000070B504000E4613D013
:1077A00096B1207B102843D008DC012816D002288F
:1077B0001ED004280AD0082806D121E020283CD079
:1077C00040283FD0802820D0002070BD05213046C1
:1077D000FFF7CCFA0028F8D01DA106E006213046BC
:1077E000FFF7C4FA0028F0D01BA1F8F7CBFD1DE08D
:1077F00005213046FFF7BAFA0028E6D018A1F4E7D1
:107800002046BDE87040FFF74BBE20690028DCD061
:10781000F8F7A3FD401C054601463046FFF7A6FADF
:107820000028D2D02A462169F8F761FD012070BDF9
:107830002069BDE87040FFF727BF2046BDE87040D3
:10784000FFF7E2BD2046BDE87040FFF77DBE0000B7
:107850006E756C6C0000000066616C736500000062
:1078600074727565000000002DE9F041184C0F4658
:10787000054666692068001D02F056FB38B920688D
:1078800090F82C1001208840A1698143A161681CF7
:1078900007D137B12168BDE8F0410E48091D02F05B
:1078A00087BB20683544B5424560216805D2A06891
:1078B000BDE8F041091D02F063BB6068091D02F0DC
:1078C0005FFB206B854200D22563BDE8F08100009C
:1078D000B80600202C3000202DE9F041054602F0CA
:1078E00073FB2E4C2069401C206120682C4F10B186
:1078F000E06940B32DE025602069012829D10026E8
:1079000006EB860007EB800002F02CFB761C072EAE
:10791000F6D323488C3002F025FB2148A03002F03A
:1079200021FB1F48B43002F01DFB1D48C83002F097
:1079300019FB1B48DC3002F015FB19488C306060E5
:107940001430A06005E02068E96AC06A884200D867
:107950002560E06A401CE062E96A0120A269884073
:107960001043A06101EB810007EB8000291D02F0AC
:107970001FFB02F049FBE06900280CD02068E96A8F
:10798000C06A884207D207494FF080500860BFF3B1
:107990004F8FBFF36F8FBDE8F0810000B806002065
:1079A000502F002004ED00E010B5044690F851007F
:1079B00058B101280CD002280FD0502080F3118834
:1079C000BFF34F8FBFF36F8FFEE7206B02F030FBEA
:1079D0002046BDE8104002F02BBB10BD10484FF40C
:1079E0007051420706D0C01D0D4920F00700411A12
:1079F000C1F570510B4A00230144C2E90003083964
:107A0000103A21F0070111604B600B600B1AC0E9BE
:107A1000001393604FF000405360D0607047000047
:107A20004030002004070020144E154CA6F1C80772
:107A30004FF08058DFF84C9012E000BF02F0C4FA1B
:107A4000F068C568281D02F06FFA2069401E2061A9
:107A5000E068401EE06002F0D7FA2846FFF7A4FF76
:107A6000E0680028EAD138680128F9D9C9F800800F
:107A7000BFF34F8FBFF36F8FF2E700001830002085
:107A8000B806002004ED00E02DE9F0479A46DDE954
:107A9000098481466FF00303206B03EB82021044DC
:107AA000089E20F00707780707D0502080F3118840
:107AB000BFF34F8FBFF36F8FFEE7002561B100204A
:107AC00023180A5C83F834200A5C12B1401C102889
:107AD000F6D384F8435001E084F83450072E00D3E5
:107AE0000626E662C4E91165201D02F046FA04F19B
:107AF000180002F042FA2461C6F107006462A06136
:107B0000E56484F8505052464946384600F0BEF8C5
:107B10002060B8F1000F01D0C8F80040BDE8F08740
:107B200030B5114900E011460A688242FBD34B6828
:107B30005C18844203D14068184448600846436892
:107B40001C18944209D1084C103C2468A24209D068
:107B500052681A4442600A6812680260814200D08A
:107B6000086030BD0460F9E704070020064841685A
:107B7000096829B14168C968C968496801637047E3
:107B80004FF0FF31FAE70000B806002008484068CF
:107B9000401C4FF0500080F3118804D0BFF34F8F8A
:107BA000BFF36F8FFEE7BFF34F8FBFF36F8FFEE71B
:107BB0000C0700202DE9F0410546002702F0D4FA19
:107BC000314E306808B9FFF709FFF06805424BD124
:107BD000C5B3083568070ED005F00700C0F10800EE
:107BE0000544680707D0502080F31188BFF34F8FFA
:107BF000BFF36F8FFEE72DB37068854234D82248FB
:107C0000103001460C6801E020460C466168A9422C
:107C100002D221680029F7D131688C4224D007684C
:107C20002168016060680837411B10290FD960196D
:107C3000420708D0502080F31188BFF34F8FBFF365
:107C40006F8FFEE710E041606560FFF769FF6168D4
:107C50007068401A7060B268904200D2B060F068FC
:107C600001430020C4E9000102F0FCFB780707D0C3
:107C7000502080F31188BFF34F8FBFF36F8FFEE763
:107C80003846BDE8F0810000F406002010B5031F5F
:107C90004FF080741C601B1F21F001011960191F37
:107CA000044B0B6014390A60091F6FF0020244385C
:107CB0000A6010BD8D7B00082DE9F04704008A465C
:107CC00016D054F8047CD4F800903E1F564500D9D5
:107CD00056462046FDF766FD054688463246214653
:107CE0005046FFF795F840B1C0F80090BDE8F08726
:107CF000BDE8F0470846FDF783BD44E9017955B179
:107D000029686A18211F8A4202D9611B091F29604C
:107D1000C5F80480EAE7024AC2F80080E6E70000FE
:107D20001C0700202DE9F04F8BB0042002F052FA1E
:107D30004FF6FF78EF23002144461A460846CDF857
:107D4000008000F0C9FB4FF01009CDE900494FF465
:107D500078464D46334645A20021502000F0F4FC01
:107D6000132002F037FA334643A2DC210020CDE98C
:107D7000004500F0E9FC334641A2DC21B420CDE906
:107D8000004500F0E1FC1B2002F024FA00208DF8F1
:107D900024001C2102A8F8F7C3FA3B4E012001463B
:107DA000307009AA3220F9F7C4FA384FFCF78CFF7B
:107DB000834637493748FCF707F8B0B900240DF17E
:107DC000080A00BF04EB840000EB0A052A460521DF
:107DD0001430F9F7AEFA29462D48F8F7C5FA90B1F4
:107DE000641CE4B2052CEDD31CD0BBF12A0F02D0E9
:107DF000BBF1230FDAD11D2002F0ECF93078387096
:107E00000BB0BDE8F08F50214FF4784322A2084612
:107E1000CDE9008900F098FC4FF4FA70FAF7FEF90A
:107E20001420E9E79DF82400194A00EB80000521A1
:107E30001430F9F7B3FA9DF8240009AA401C8DF814
:107E4000240001213220F9F7A9FA112002F0C2F929
:107E500050214FF4784312A20846CDE9008900F082
:107E600073FC4FF49670FAF7D9F9C7E7B5C7BCC7EA
:107E7000BFA8C6AC0000000023BCFCCDCBB3F6000D
:107E80002ABCFCCDCBB3F600910600209006002062
:107E90008306002088060020BFA8D6D8B8B400000A
:107EA000B5C7BCC7B3C9B9A6000000002DE9FC479F
:107EB000334E01204FF6FF743070EF2300211A4635
:107EC0000846009400F008FB4FF4784A1025574606
:107ED00053462CA200215020CDE9004500F034FC8F
:107EE000032002F077F93B4629A2DC210020CDE9EE
:107EF000004500F029FC3B4627A2DC21B420CDE957
:107F0000004500F021FC264A01214B20F9F711FA27
:107F1000DFF88C90234FA9F1010900BFFCF7D4FED4
:107F20008046F9F7C3FCA8B1B8F12A0F24D0B8F104
:107F3000230F21D099F803000128EFD153461AA24C
:107F400078215020CDE9004500F0FEFB30783870F4
:107F5000BDE8FC8799F80110114A491C89F8011005
:107F600001214B20F9F71AFA112002F033F94FF4EE
:107F7000FA70FAF753F9E9E71D2002F02BF9E5E76B
:107F800091060020B5C7BCC7D6B8CEC60000000019
:107F900023BCFCCDCBB3F6002ABCFCCDCBB3F600A2
:107FA0009F06002090060020B2D9D7F7CAA7B0DC00
:107FB000000000002DE9FF47404E01274FF6FF74F7
:107FC0003770EF2300211A460846009400F084FA27
:107FD0004FF01008CDE900484FF4784945464B462C
:107FE00037A20021502000F0AFFB082002F0F2F889
:107FF0004B4637A2DC210020CDE9004500F0A4FB70
:108000001B2002F0E7F84B4633A2DC21B420CDE977
:10801000004500F099FB8DF80C700025304F8DF86D
:10802000085000BFFCF750FE232808D02A28F9D1B9
:108030001D2002F0CFF830783870BDE8FF871D2092
:1080400002F0C8F8274A01214B20F9F7A7F903AA43
:1080500001214620F9F7A2F9F9F770FD02AA0121E2
:108060003220F9F79BF98DF808509DF8080002AA14
:1080700001211430F9F792F99DF80800401CC0B2B4
:108080008DF808001928F0D317A206216420F9F70B
:1080900085F917A206210A20F9F780F9CDE90048F1
:1080A00050214B4614A2084600F04EFB112002F06E
:1080B00091F84FF4FA70FAF7B1F8BCE79106002096
:1080C000BBD6B8B4B3F6B3A1C9E8D6C3000000006C
:1080D00023BCFCC8B7C8CF002ABCFCCDCBB3F6008C
:1080E000900600209F0600203132333435360000E0
:1080F0003838383838380000C9E8D6C3B3C9B9A60B
:108100000000000070B5044600F0C4F80E4D0022D7
:1081100010212846FAF76AF92020F9F7B1FEC4F3D6
:108120000740F9F7ADFEC4F30720F9F7A9FEE0B266
:10813000F9F7A6FE012210212846FAF757F9BDE803
:10814000704000F031B80000000002402DE9F0411D
:10815000134F14460D460646002210213846FAF702
:1081600045F90320F9F78CFEC5F30740F9F788FEBF
:10817000C5F30720F9F784FEE8B2F9F781FE04E0C1
:10818000FF2000F00FF806F8010B641EA4B2F7D22E
:108190003846BDE8F04101221021FAF727B9000066
:1081A00000000240F9F76CBE10B50A4C0022102105
:1081B0002046FAF71BF90520F9F762FEFF20FFF7CA
:1081C000F1FFC007FAD120460122BDE8104010217E
:1081D000FAF70CB9000002402DE9F04707460E46B9
:1081E00011F0FF00C0F10001CDB24FEA122402F0FD
:1081F000FF094FF4807A13D0F0B24042C0B206EBD0
:1082000000080CB3501B80B2040A00F0FF092A4694
:108210003146384600F052F83D44464657462AE07B
:108220006CB15546641EE4B20CD32A46314638463A
:1082300000F044F806F5807607F58077F2E73146DE
:10824000384621E04A46FAE7A945F8D9A9EB0500E6
:10825000C4B22A463146384600F030F84146781913
:10826000224611E03A463146284600F027F805F547
:10827000807506F58076641EE4B2F3D2B9F1000091
:1082800006D0024631462846BDE8F04700F016B851
:10829000BDE8F08710B5084C002210212046FAF7FF
:1082A000A5F80620F9F7ECFD20460122BDE81040B4
:1082B0001021FAF79BB80000000002402DE9F041C0
:1082C00014460D460646FFF7E5FF124F0022102127
:1082D0003846FAF78BF80220F9F7D2FDC5F30740CC
:1082E000F9F7CEFDC5F30720F9F7CAFDE8B2F9F7B3
:1082F000C7FD03E03078F9F7C3FD761C641EA4B215
:10830000F8D2012210213846FAF770F8BDE8F041A2
:10831000FFF74ABF000002402DE9FC5F5D4D4FF0C2
:1083200001094FF6FF7685F80090EF2300211A46E9
:108330000846009600F0D0F810244FF4784ACDE9B2
:1083400000645746534654A20021502000F0FCF927
:10835000092001F03FFFCDE900643B4651A25021C6
:108360003C2000F0F1F9CDE900643B4651A2DC214C
:10837000002000F0E9F9CDE900643B464FA2DC2182
:10838000B42000F0E1F9DFF83C814FF4967B4E4FCA
:10839000FCF79AFC312819D032281ED0332837D068
:1083A00034283DD0352843D0362849D037284FD0FF
:1083B000382855D02A2801D02328E9D15FF01D00A4
:1083C00001F008FF28783870BDE8FC9F1D2001F0FF
:1083D00001FF88F80090272049E01D2001F0FAFEF7
:1083E000022188F80010262001F0F4FECDE9006497
:1083F000534636A27821502000F0A6F95846F9F7E6
:108400000DFF304A01214620F8F7C8FF1120D7E7B9
:108410001D2001F0DFFE032188F80010252026E052
:108420001D2001F0D7FE042188F8001024201EE052
:108430001D2001F0CFFE052188F80010232016E052
:108440001D2001F0C7FE062188F8001022200EE052
:108450001D2001F0BFFE072188F80010212006E052
:108460001D2001F0B7FE082188F80010202001F03F
:10847000B1FECDE90064534614A27821502000F0EB
:1084800063F9104A01214620F8F788FF5846F9F7AA
:10849000C5FEBBE791060020C9E8D6C3D2F4C1BF30
:1084A00000000000D2F4C1BFB5C8BCB6CEAA312DC1
:1084B0003800000023BCFCCDCBB3F6002ABCFCCDB9
:1084C000CBB3F6009E06002090060020C9E8D6C374
:1084D000B3C9B9A6000000002DE9F0471D461646B5
:1084E00088460746DDF8209000F03AFAF01B002499
:1084F000A5EB0801401C491C10FB01F503E04846B0
:1085000000F094FA641CA542F9D8BDE8F087C0EBEE
:10851000C00000EB4001002000E0401C8842FCD37A
:10852000704700002DE9F04F91B089461B999B469A
:108530008046102929D11046F8F71EFE144B002161
:108540004FEA0D0201EB00141C5D5454491CC9B2E2
:108550001029F7D30025924600241AF8056009EB8C
:108560000507300608EB0400F9B2C0B201D55A463F
:1085700000E01A9A00F0DDF8641C7600A4B2082C22
:10858000EFD36D1CADB2102DE6D311B0BDE8F08F66
:10859000930000202DE9F04FA1B005462B989B4693
:1085A00088466E4610282AD0182859D0202854D141
:1085B00010785178A138C0EB001202EB401001EBAB
:1085C00040004B49324601EBC0108021FDF76EF8A8
:1085D0000024B2460AEB84005AF82410C07809BA85
:1085E00021F0FF070743002608EB040905EB06000E
:1085F000002F09F0FF01C0B26BDA5A466AE010782A
:108600005178A138C0EB001202EB401001EB4000A2
:10861000410120223046A1F5A151FFF797FD00242A
:108620004FEA060A00263AF8140008EB040947BA94
:10863000380405EB060009F0FF01C0B201D55A4627
:1086400000E02A9A00F075F8761C7F00B6B2102E72
:10865000EED3641CA4B2102CE4D321B0BDE8F08F9B
:1086600010785178A138C0EB001202EB401001EBFA
:108670004000204900EBC00001EBC0014822304619
:10868000FFF764FD0024B24604EB440101EB0A004D
:108690001AF8012041781204807842EA0127074342
:1086A000002608EB0409380205EB060009F0FF017B
:1086B000C0B201D55A4600E02A9A00F03AF8761C7A
:1086C0007F00B6B2182EEED3641CA4B2182CDBD3F4
:1086D000C3E72A9A00F02DF8761C7F00B6B2202E50
:1086E00084D3641CA4B2202CFFF474AFB5E700005F
:1086F000EEE90C000AF103002DE9F041144653792C
:108700000E460746D27800F02BF9002507E000BF9F
:1087100004EB4500008940BA00F088F96D1CE07850
:108720006179C01B891B10FB01F0A842F0D8BDE89D
:10873000F08110B514460B46024600F011F92046B0
:10874000BDE8104000F072B92DE9FC479846DDE91C
:108750000A7614468946054617E0A02A43460AD9F8
:10876000CDE90076224649462846FFF713FFA819AF
:10877000C5B2A41C09E0CDE9007649462846FFF7BA
:10878000D1FE05EB5600C5B2641C2278002AE4D164
:10879000BDE8FC87F8B56F480068016841F040010A
:1087A00001606D4D4FF48064002221462846F9F7A0
:1087B0001DFE6A4E3046FFF7AAFE012221462846DA
:1087C000F9F714FE3046FFF7A2FE362000F0F8F865
:1087D000002000F011F93A2000F0F2F8052000F036
:1087E0000BF9B22000F0ECF80C2000F005F90C2099
:1087F00000F002F9002000F0FFF8332000F0FCF850
:10880000332000F0F9F8B72000F0DAF8352000F056
:10881000F3F8BB2000F0D4F8192000F0EDF8C020E8
:1088200000F0CEF82C2000F0E7F8C22000F0C8F8E5
:10883000012000F0E1F8C32000F0C2F8122000F09F
:10884000DBF8C42000F0BCF8202000F0D5F8C620EA
:1088500000F0B6F80F2000F0CFF8D02000F0B0F80C
:10886000A42000F0C9F8A12000F0C6F8E02000F034
:10887000A7F8D02000F0C0F8042000F0BDF80D20CB
:1088800000F0BAF8112000F0B7F8132000F0B4F8A7
:108890002B2000F0B1F83F2000F0AEF8542000F09B
:1088A000ABF84C2000F0A8F8182000F0A5F80D2037
:1088B00000F0A2F80B2000F09FF81F2000F09CF8B9
:1088C000232000F099F8E12000F07AF8D02000F0A1
:1088D00093F8042000F090F80C2000F08DF811209F
:1088E00000F08AF8132000F087F82C2000F084F8BC
:1088F0003F2000F081F8442000F07EF8512000F085
:108900007BF82F2000F078F81F2000F075F81F206A
:1089100000F072F8202000F06FF8232000F06CF8CF
:10892000212000F04DF8112000F04AF8292000F035
:1089300047F84FF6FF70EF23002100901A460846D3
:10894000FFF7CAFD2846BDE8F84001220221F9F7E9
:108950004DBD0000040A002000040240400D030049
:108960002DE9F04104461D4616460F462A2000F028
:1089700027F8204600F05AF8304600F057F82B2030
:1089800000F01EF8384600F051F8284600F04EF886
:10899000BDE8F0412C2000F013B8000001B582B012
:1089A00000208DF804000A200090012301AA02A9EA
:1089B0000248FAF7B3FB9DF804000EBD040A00203C
:1089C00070B50C4C064600224FF480412046F9F762
:1089D0000DFDA514002229462046F9F707FD304673
:1089E000FFF7DCFF29462046BDE870400122F9F779
:1089F000FDBC00000004024070B50B4C064601228D
:108A000091032046F9F7F2FCA514002229462046DE
:108A1000F9F7ECFC3046FFF7C1FF29462046BDE8D8
:108A200070400122F9F7E2BC0004024070B50D4D20
:108A30000446012291032846F9F7D8FCAE1400221F
:108A400031462846F9F7D2FC200AFFF7A7FFE0B22B
:108A5000FFF7A4FF31462846BDE870400122F9F730
:108A6000C5BC00000004024010B5040009D0206815
:108A7000002806D0A1680844F7F76FFCA1680844F5
:108A8000A06010BD00F00F000A2801D2303000E0D5
:108A9000573040B270472DE9F041BCB01E46429FAE
:108AA0001546884604005ED0002D5CD0002E5AD0BA
:108AB000402F58DC402117A8F7F732FC402127A8A7
:108AC000F7F72EFC3A46314617A8F7F710FC3A465E
:108AD000314627A8F7F70BFC002117A827AA435C0B
:108AE00083F036034354535C83F05C035354491CB6
:108AF0004029F4DB684600F0A5F8684601F0C6F9A5
:108B0000402217A9684601F0D7F942462146684637
:108B100001F0D2F937A9684600F028F8684600F05D
:108B200091F8684601F0B2F9402227A9684601F0A1
:108B3000C3F9142237A9684601F0BEF937A968467F
:108B400000F014F8002437AE305D0009FFF79AFFFB
:108B500005F81400305DFFF795FF05EB4401641C38
:108B60004870142CF0DB3CB0BDE8F0817CB50D46BC
:108B7000044601686268480F40EAC200020E8DF8A0
:108B80000020020C8DF80120020A8DF80220C90095
:108B90008DF80300080E8DF80400080C8DF8050010
:108BA000080A8DF806008DF80710207800F03F00C5
:108BB000382802D2C0F1380201E0C0F17802204921
:108BC000204601F079F908226946204601F074F93F
:108BD000A068000E2870A068000C68702089000A48
:108BE000A870207AE870E068000E2871E068000C38
:108BF0006871A089000AA871207BE8712069000EC5
:108C000028722069000C6872208A000AA872207CF1
:108C1000E8726069000E28736069000C6873A08AAE
:108C2000000AA873207DE873A069000E2874A0696B
:108C3000000C6874208B000AA874207EE8747CBD48
:108C400004A600085C21F7F76BBB00002DE9F04F8C
:108C50000A689BB012BA22F0FF0CCA784CEA020CE8
:108C6000CDF864C04A6812BA22F0FF06CA791643EA
:108C700016968A6812BA22F0FF06CA7A164315962B
:108C8000CA6812BA22F0FF0CCA7B4CEA020CCDF87B
:108C900050C00A6912BA22F0FF06CA7C16430E962B
:108CA0004A6912BA22F0FF0CCA7D4CEA020CCDF8D8
:108CB00034C08A6912BA22F0FF06CA7E16430C96A7
:108CC000CA6912BA22F0FF05CA7F15430A950A6ADB
:108CD00012BA22F0FF0691F8232046EA020E4A6AF1
:108CE00012BA22F0FF0691F82720164308968A6AE6
:108CF00012BA22F0FF0691F82B2016430796CA6A93
:108D000012BA22F0FF0791F82F2017430A6B12BA0C
:108D100022F0FF0591F8332091F8373045EA020A36
:108D20004A6B91F83B4012BA22F0FF021A438B6B58
:108D3000D0F808C01BBA23F0FF032343CC6B91F893
:108D40003F10CDF84CC0C668129603960569E346FD
:108D5000119524BAD0F814C024F0FF040C43CDF8C8
:108D600060C081690B91884685EA0C013140E1467B
:108D700081EA0C01DDF864C001EBFB660CEB080135
:108D80000E44FE4906EB0108039ECDF800804FEA31
:108D9000B60603966E4006EA0B066E4006EBF868D0
:108DA000169E4FEABB0B4E44464406EB0108CDF835
:108DB0000480039EDDF800808BEA060C0CEA080CA8
:108DC0008CEA060CDDF80480159E0CEBF86C35443B
:108DD000DDF8008065444FEAB809DDF8048089EACF
:108DE0000B0605EB010C06EA080686EA0B0606EB05
:108DF000FC65CDF808C0DDF850C0039E66443544DC
:108E000005EB010CCDF80CC04FEAB805DDF808C041
:108E100085EA090808EA0C08DDF80CC088EA0908A8
:108E20000E9E08EBFC685E44464406EB0108DDF844
:108E300008C0CDF810804FEABC060296DDF80CC0E1
:108E40006E4006EA0C066E40DDF834C006EBF868AA
:108E50000CEB090646440E440096DDF80CC0029E59
:108E60004FEABC0BDDF810808BEA060C0CEA080C0C
:108E70008CEA060C009E4FEAB8090CEBF66C0C9ECF
:108E800089EA0B083544009E654405EB010C08EAAD
:108E90000608029E0A9DCDF804C088EA0B083544F6
:108EA00008EBFC6C654405EB010C009ECDF808C096
:108EB0004FEAB605DDF804C085EA090606EA0C06A5
:108EC000DDF808C086EA090606EBFC680EEB0B0627
:108ED0004644DDF804C006EB010B4FEABC060196E0
:108EE000DDF808C06E4006EA0C066E4006EBFB6C2F
:108EF000089E4E44664406EB0108DDF808C0019E5A
:108F00004FEABC0989EA060C0CEA0B0C8CEA060C49
:108F1000079E4FEABB0B35440CEBF86C8BEA090655
:108F2000654406EA080605EB010C86EA090606EB2D
:108F3000FC65019ECDF810803E4435446E184FEA22
:108F4000B805049585EA0B0505EA0C05019685EA46
:108F50000B0505EBF6660AEB09053544CDF800C0B4
:108F60006E18DDF800C00296049D4FEABC0C019E0D
:108F70008CEA050808EA0608029E88EA050808EB5C
:108F8000F66502EB0B063544019E05EB01094FEA3D
:108F9000B60B029E8BEA0C05354085EA0C0505EB05
:108FA000F966049D1D443544029E05EB01084FEA15
:108FB000B606029686EA0B0606EA090686EA0B065C
:108FC00006EBF86504EB0C0635446E180096DDF8E8
:108FD00064C0159ECDF810804FEAB90982EA0E05EB
:108FE00086EA0C067540029EDDF8108089EA060CC0
:108FF0000CEA080C8CEA060C009E4FEAF5750CEBA7
:10900000F66619952E4406EB0B056E180196089E20
:109010004FEAB80583EA0608DDF850C0169E8CEAD0
:10902000060C88EA0C0B009E85EA090808EA060887
:10903000019E88EA090808EBF66C4FEAFB76B44417
:109040001696029EDDF85480664406EB010B079EDF
:10905000DDF838C066408CEA080C009986EA0C06F8
:109060001A964FEAB101DDF804C081EA050606EA66
:109070000C066E4006EBFB681A9E4FEAF67CCDF8B4
:1090800054C0C4443D4ECC44B444019ECDF80CC001
:109090004FEAB6060196199EDDF834C0DDF850801F
:1090A0007E408CEA080C86EA0C09019EDDF80CC0B3
:1090B0004E4006EA0B064E4006EBFC684FEAF97C90
:1090C00008EB0C062E442D4DCDF850C035440495C8
:1090D000DDF838C00C9E169D86EA0C0685EA0A0566
:1090E00085EA06084FEABB09DDF80CC0019E8CEA50
:1090F000090C049D8CEA060C0CEBF5664FEAF87B34
:1091000006EB0B050D441E49DDF80CC06E184FEA46
:10911000BC080096CDF80C80DDF854C00D9E0A9D69
:109120008CEA020C75408CEA050C049D009E85EAD1
:10913000080585EA090505EBF6654FEAFC76354436
:109140000D96019EDDF850C035440D440195049DF7
:109150000C9E4FEAB5088EEA0605009ECDF81080F9
:109160008CEA030C86EA08068CEA050CDDF80C8014
:10917000019D86EA080606EBF56503E09979825AB7
:10918000A1EBD96E4FEAFC7635444D4405EB01095D
:10919000CDF808900C96009E089D4FEAB60CCDF8CD
:1091A00000C00A9E8BEA0408754088EA0506019D06
:1091B000DDF8108085EA0C0585EA08054FEAF676A9
:1091C00005EBF965DDF80C803544454405EB010CF1
:1091D000019D0A964FEAB508CDF80CC0DDF800C035
:1091E0000D9E199D89EA080989EA0C096E40DDF88F
:1091F0000CC0079D09EBFC6C85EA0E056E40CDF8AE
:1092000004804FEAF675DDF808900CEB0506DDF8F2
:1092100010804FEAB9094644CDF8089006EB0108E2
:10922000DDF858C00C9ECDF8108086EA0C06DDF8FB
:1092300020C0DDF8048087EA0C0C86EA0C06DDF815
:109240000CC04FEAF67E8CEA090C8CEA080CDDF8BB
:1092500010800CEBF86C0CEB0E06DDF800C0DDF8AE
:109260001C80664406EB010CCDF800C0DDF80CC094
:109270000A9E4FEABC09DDF854C0CDF80C9086EA8E
:109280000C068AEA080CDDF8108086EA0C0688EAEB
:109290000908DDF80890DDF800C088EA090808EB45
:1092A000FC6C4FEAF6780CEB0806CDF81C80DDF874
:1092B0000480DDF850C0464406EB0108CDF8048078
:1092C000DDF8108085EA0C064FEAB809DDF800C029
:1092D000CDF810908CEA090C5740DDF80C907E40D8
:1092E0008CEA090CDDF804804FEAF6770CEBF86C99
:1092F0000CEB0706DDF80890DDF800C04E44069739
:1093000077184FEABC09029788EA0908CDF800905F
:109310008EEA0B0683EA0A07DDF810907E4088EAA1
:109320000908029F4FEAF67A08EBF76CDDF80C901B
:109330000CEB0A064E44DDF8048006EB010C4FEA04
:10934000B8060196DDF81C800D9E624088EA06088A
:10935000DDE90167DDF80090774087EA090788EAD0
:10936000020807EBFC664FEAF872029F179232443C
:109370004FEAB708069F0C9EDDF8109077404A44EC
:10938000199E0A445E407740019E8CEA08037340B0
:1093900003EBF2664FEAF773109333444FEABC06CF
:1093A00003960A9EDDF800908AEA0607169E4B4453
:1093B00066407740039E0B4482EA060484EA080470
:1093C00004EBF3664FEAF7740F943444019E4FEABE
:1093D000B20734440C440194DDF854C0199C179A28
:1093E0008CEA040C6A4082EA0C0283EA070C039EB2
:1093F000019C8CEA060C0CEBF4664FEAF27432190D
:109400004244199456184FEAB3090296109BDDF8AE
:1094100050C0169A019C83EA0E038CEA020C83EA80
:109420000C0384EA09047C404FEAF37204EBF6640F
:1094300016922244019CDDF81C804FEAB40CCDF852
:1094400004C00F9C039EDDF854C084EA0804324433
:109450008BEA0C08DDE901C60A4484EA080486EABE
:109460000C0686EA09064FEAF47406EBF26323441D
:109470003B445E180496029E15944FEAB607029785
:10948000069F199CDDF850C07C400D9E029F86EA25
:109490000C06744082EA0703DDF804C0049E83EAE8
:1094A0000C0303EBF6664FEAF473149333444FEA6C
:1094B000B204169A0C9E82EA0A0286EA0B067240F1
:1094C000049E029F4B4466400B447E404FEAF2727A
:1094D00006EBF3660E92324462445618049A179FC4
:1094E0004FEAB208159ADDF834C07A400A9F87EA3D
:1094F0000C077A4083EA080767404FEAF27207EBED
:10950000F66717440D92029A3A4402EB010B4FEAB8
:10951000B3070097149A109986EA07034A400C99FA
:1095200083EA080369404A4003EBFB614FEAF272A9
:1095300011440C920A19FE490A9C5318DDE90E21C8
:109540004A408EEA04014A404FEAB609009F8BEA7E
:109550000901794001EBF3614FEAF274214401EB18
:109560000802F3490A9454180D9A19994FEABB0658
:109570004A400799009F69404A4043EA060503EACA
:10958000060105EA090529434FEAF27501EBF4618A
:109590002944CA19E749099555184FEAB307169B9C
:1095A0000C9A44EA070C5A40069B0CEA060C83EA24
:1095B0000E035A4004EA070343EA0C034FEAF2722F
:1095C00003EBF56308921A444FEAB40C0A9C159B0E
:1095D000DDF81C805C408AEA08035C4045EA0C0820
:1095E0004A4405EA0C0308EA07080A4443EA080368
:1095F0004FEAF47403EBF2632344334407945C189A
:109600004FEAB509099D149B069E5D40179B4FEAE2
:10961000B20B73405D4042EA090602EA090306EA1A
:109620000C06334303EBF4664FEAF573F5180E9E10
:10963000089A3D447240109E44EA0B0786EA0A06E7
:10964000724004EA0B0607EA09073E430D444FEA5D
:10965000F27206EBF56605923244624456184FEA00
:10966000B407079C0D9ADDF85CC054400F9A82EA5B
:109670000C02544045EA070C05EA07020CEA0B0C01
:1096800042EA0C0202EBF66C4FEAF4721792624463
:109690004A4402EB010C0C9A4FEAB50983EA020432
:1096A000109D199A6A40544046EA090506EA0902E3
:1096B0003D402A434FEAF47E02EBFC6272445A4476
:1096C00002EB01080A9C059A0F9D6240169C4FEA26
:1096D000B60B6C4062404CEA0B050CEA0B0405EA41
:1096E00009052C434FEAF27204EBF8640F9222440E
:1096F0003A445418099D179A199E6A40159D4FEADD
:10970000BC07754082EA050C48EA070508EA07022B
:1097100005EA0B052A434FEAFC7A02EBF46505EBF8
:109720000A024A445518089A4FEAB80CCDF864A0CA
:109730008EEA0208169E149A8AEA030A724088EAA0
:10974000020844EA0C0604EA0C023E4032434FEAA7
:10975000F87602EBF56232445A44169656184FEAF0
:10976000B40B079C0F9ADDF8548062400E9C84EA8B
:109770000804624045EA0B0405EA0B0804EA0C04FD
:1097800048EA040808EBF6644FEAF27904EB0902B0
:109790003A445418149F0D9A4FEAB5057A408AEA64
:1097A000020A46EA050706EA050207EA0B073A43FA
:1097B000CDF8549002EBF4674FEAFA7214923A44EF
:1097C000624457184FEAB608169E059ADDF838C06D
:1097D00056400C9ADDF8549082EA0C02564044EA56
:1097E000080204EA080C2A404CEA020C4FEAF6761A
:1097F0000CEBF76232445A440E965618179A4FEA09
:10980000B40A89EA02090A9C0D9ADFF828B154408B
:1098100089EA040947EA0A0407EA0A0204EA080492
:1098200022434FEAF97402EBF66222442A445518A7
:109830000D940C9C099A1499624081EA0E0181EA08
:10984000020C4FEAB70746EA070206EA070102EAF6
:109850000A0211434FEAFC7C01EBF56202EB0C01BA
:1098600001EB08024FEAB604DDE90E61CDF830C025
:109870004E40DDF828C008995A4481EA0C014E4058
:1098800045EA040C05EA04010CEA070C41EA0C0164
:109890004FEAF67601EBF2610A960E44564406EB67
:1098A0000B01DDF864C00D9EDDF8248086EA0C060D
:1098B000DDF81CC04FEAB5058CEA080C86EA0C06F8
:1098C00042EA050802EA050C08EA04084CEA080C1A
:1098D0004FEAF6760CEBF16C099666444FEAB20952
:1098E000DDF830C0169A37448CEA020C089A41EA37
:1098F00009065A408CEA020C07EB0B0801EA090240
:109900002E40324302EBF8664FEAFC7216442644BE
:1099100006EB0B04159F0A9EDDF81CC07E40059FD8
:109920004FEAB10187EA0C0786EA070A04E0000063
:10993000A1EBD96EDCBC1B8F48EA010C08EA0107D9
:109940000CEA090C47EA0C0707EBF46C4FEAFA77CC
:109950000CEB07062E4406EB0B0A099E149D4FEAFA
:10996000B80C6E40179D4FEAB4085D406E4044EA63
:109970000C0504EA0C030D402B4303EBFA654FEA98
:10998000F6731D4405EB0906B3440E9C059E544036
:109990008EEA06056C408AEA080585EA0C0505EBA7
:1099A000FB654FEAF47425440D44FF49CDF8088067
:1099B00005EB01080D9ECDF8008087EA0605DDF86D
:1099C0005C800F9E4FEABA0A86EA08067540DDF809
:1099D00008808BEA0A0686EA0806DDF800804FEA6E
:1099E000F57506EBF8662E44664406EB010CCDF8DF
:1099F00004C0DDF830C04FEABB0983EA0C06DDF88D
:109A000064C088EA09088CEA0E0C86EA0C06DDF8C8
:109A100004C088EA0A0808EBFC6C4FEAF67EDDF821
:109A200008800CEB0E0646440E44CDF810900296CA
:109A3000DDF80080DDF858C04FEAB808CDF80080A6
:109A40000A9EDDF83C8066408CEA080C86EA0C0B26
:109A5000DDE9008C8CEA080CDDF81090029E8CEA9F
:109A6000090C0CEBF66C4FEAFB7B0CEB0B06564437
:109A7000DDF804C006EB010A4FEABC09099ECDF8E7
:109A8000049085EA060CDDF86480159E86EA0806D7
:109A90008CEA060C029EDDF8008086EA090686EA5A
:109AA00008064FEAFC7C06EBFA66DDF81090664487
:109AB000CDF864C04E4406EB010C029ECDF810C0F8
:109AC0004FEAB609CDF80890DDF850C0DDF85880AF
:109AD0008EEA02068CEA080C8AEA090886EA0C0675
:109AE000DDF80490DDF810C088EA090808EBFC6C8A
:109AF0004FEAF678CDF858800CEB0806DDF80080C8
:109B0000DDF838C046444FEABA08CDF80C800E4460
:109B1000DDF8548000968BEA07068CEA080C86EA8A
:109B20000C0ADDE9038CDDF808908CEA080C009E35
:109B30008CEA090C0CEBF6684FEAFA7C08EB0C0691
:109B4000CDF854C0DDF80490DDF810C04E4406EBAB
:109B500001094FEABC0ADDF864C0DDF850800D9EB3
:109B60008CEA030C86EA08068CEA060C009EDDF8F7
:109B70000C8086EA0A0686EA0806CDF8049006EB11
:109B8000F9664FEAFC78DDF8089046444E440E44EE
:109B9000CDF850800296009EDDF858804FEAB60C52
:109BA000CDF800C0DDF830C00E9E88EA04088CEACB
:109BB000060C88EA0C08DDE900C989EA0C09029E56
:109BC00089EA0A094FEAF87C09EBF6666644DDF893
:109BD0000C80DDF804904644CDF838C006EB01084F
:109BE0004FEAB90CCDF80C80CDF804C0DDF854C0B4
:109BF000DDF834800A9E8CEA050C86EA08068CEAB9
:109C00000609DDE901C686EA0C06DDF800C0DDF8CC
:109C10000C8086EA0C0606EBF8664FEAF9784644B3
:109C2000564406EB010C029ECDF810C04FEAB60672
:109C30000296CDF83480DDF85080DDF830C0099E02
:109C400088EA0E0886EA0C0688EA0609DDE9026859
:109C500088EA0608DDF804C04FEAF97688EA0C08BD
:109C6000DDF810C00C9608EBFC6C6644DDF800C013
:109C7000DDF80C80664406EB0109DDF838C00A9E69
:109C80008CEA0B0C56408CEA060A4FEAB808DDF85D
:109C900010C0029E8CEA080C8CEA060CCDF80C80F1
:109CA0000CEBF9684FEAFA760A96DDF804C04644F0
:109CB0006644DDF810C006EB010A4FEABC08CDF897
:109CC0001080DDF864C0DDF83480099E88EA0C0855
:109CD0007E4088EA0608CDF86880DDF810805A409A
:109CE00089EA0806DDF80C804FEAB90986EA080619
:109CF000DDF8688006EBFA6C4FEAF876B444099612
:109D0000029E664406EB0108CDF80880DDF8588015
:109D10000C9E8AEA090C86EA0806DDF81080564097
:109D20008CEA080CDDF808804FEAF6720CEBF86C50
:109D300008926244DDF80C804FEABA0CCDF804C0FA
:109D40004244DDF854C00A440A9E674086EA0C0685
:109D5000DDE901C888EA0C087E4088EA090808EBBA
:109D6000F26C4FEAF677DDF810800CEB07060797E8
:109D70004644DDF8088077184FEAB80CDDF85080CB
:109D8000099E6B4086EA08065E40CDF808C082EA6C
:109D90000C03DDF804C083EA0C0303EBF76C4FEA15
:109DA000F6730693634401E0D6C162CA4FEAB20A71
:109DB0008EEA0406DDF838C0089A4B4482EA0C02A9
:109DC00087EA0A047240DDF808C00B4484EA0C04F8
:109DD0004FEAB7094FEAF27204EBF36405922244AA
:109DE000DDF83480079FDDF804C087EA08078BEAB6
:109DF000050683EA0904624477400A4484EA0A04B7
:109E000004EBF26404EBF7744FEAB305DDF808C025
:109E10000C9E069B64447340DDF864C082EA05062C
:109E20000C448CEA0E0C86EA090683EA0C0306EB66
:109E3000F46606EBF3734FEAB2070A9E059ADDF863
:109E400058807240534484EA07060B4488EA0B08A2
:109E50006E4082EA080206EBF36606EBF2724A44B1
:109E600011444FEAB402139C2144816012991944B1
:109E7000C1601199114401611899394441610B99EC
:109E8000294481611BB0BDE8F08F00000021016012
:109E90004160064981600649C1600449C9430161C6
:109EA0000349C94341610349816170470123456703
:109EB00089ABCDEFF0E1D2C32DE9F04114000546A6
:109EC00088462FD0286800F03F062044C6F140079E
:109ED0002860A04202D26868401C6860B6B1BC42EB
:109EE00014D3A8193A461C30F6F701FA05F11C0103
:109EF0002846FEF7ABFEE41BB844002606E04146C8
:109F00002846FEF7A3FE08F14008403C402CF6D25C
:109F1000002C07D0A81922464146BDE8F0411C306C
:109F2000F6F7E5B9BDE8F081D0E9013201699A6040
:109F3000D0E901235A604A68824201D182684A60AE
:109F4000002202610868401E08600868704700002F
:109F5000034B036003F154000860802010607047D9
:109F60002407002000F108014FF0FF32C0E9011280
:109F7000C1600161002101607047002101617047EB
:109F800030B50B685A1C02D000F1080202E00269E9
:109F900004E02246546825689D42FAD953684B6014
:109FA00099608A60516008610168491C016030BD98
:109FB00042684A6093688B60936859609160086159
:109FC0000168491C01607047502080F31188BFF37D
:109FD0004F8FBFF36F8F0A494868401C48600128C3
:109FE0000CD10848006810F0FF0F07D0502080F314
:109FF0001188BFF34F8FBFF36F8FFEE770470000EC
:10A000000C07002004ED00E00849486828B1401E14
:10A01000486001D180F311887047502080F3118887
:10A02000BFF34F8FBFF36F8FFEE700000C070020D8
:10A0300070B5002827D0144DA0F108046168E868C5
:10A04000014207D1502080F31188BFF34F8FBFF337
:10A050006F8FFEE722683AB1502080F31188BFF37A
:10A060004F8FBFF36F8FFEE78143616000F07CF894
:10A0700060686968084468602046FDF751FDBDE8E6
:10A08000704000F0EFB970BDF40600204FF0E02002
:10A0900000210161816105494FF47A720968B1FBC1
:10A0A000F2F1491E41610721016170472C00002037
:10A0B00010B5020014D00F48806B38B1502080F3E7
:10A0C0001188BFF34F8FBFF36F8FFEE700F04CF89E
:10A0D00000211046FDF7C8FB00F0C4F9002807D1A5
:10A0E00005494FF080500860BFF34F8FBFF36F8F6B
:10A0F00010BD0000B806002004ED00E010B586B0E9
:10A100000024039405AA04A903A80494FFF720FFE0
:10A11000DDE903010094CDE9011000230EA11048F0
:10A12000059A00F010F90F490028486311D050201B
:10A1300080F31188BFF34F8FBFF36F8F4FF0FF3065
:10A1400008630120C8614C6106B0BDE8104000F012
:10A1500053B806B010BD000049444C450000000053
:10A16000297A0008B80600200248816B491C8163E7
:10A1700070470000B80600201448816B11B101211E
:10A1800041627047002141628169B1FA81F1C1F1F8
:10A190001F0101EB81020E4951F822306BB101EB36
:10A1A000820101F108034A6852684A609A4201D16B
:10A1B00052684A60D16801607047502080F311886E
:10A1C000BFF34F8FBFF36F8FFEE70000B80600208C
:10A1D000502F002010B5FBF729FA4FF4FA70FCF766
:10A1E00085FF044C10212046F8F7F4F80028F9D137
:10A1F00010BD0000000802401CB537480168374A0E
:10A20000914207D1502080F31188BFF34F8FBFF3E5
:10A210006F8FFEE700683149491E884207D1502000
:10A2200080F31188BFF34F8FBFF36F8FFEE72C4988
:10A2300008780190FF20087008788DF800009DF8DC
:10A2400000009DF8002000F0F000904207D0502060
:10A2500080F31188BFF34F8FBFF36F8FFEE79DF838
:10A260000000204B00F0500018700720986005E0B7
:10A270009DF8002052008DF80020401E9DF800201F
:10A280001206F5D49860032807D0502080F3118877
:10A29000BFF34F8FBFF36F8FFEE74FF440709860AE
:10A2A000019808700C482030016841F47001016089
:10A2B000016841F070410160FFF7E8FE002058603E
:10A2C000F5F796FF0848016841F040410160F5F755
:10A2D0007BFF00201CBD000000ED00E071C20F41BB
:10A2E00000E400E00C07002034EF00E02DE9FF5F00
:10A2F0008346DDE90E87994616468A469000FDF7AB
:10A3000059FC05001CD05420FDF754FC040014D067
:10A310000020256384F85100CDE90240CDE9008793
:10A320004B46324651465846FDF7AEFB2046FDF7F8
:10A33000D3FA012004B0BDE8F09F2846FFF778FE6D
:10A340004FF0FF30F6E7F0B585B0DDE90B640A9D0C
:10A35000A6B1DCB1542700972663022684F8516029
:10A36000002604AFCDE90246CDE90057FDF78CFB8E
:10A370002046FDF7B1FA049805B0F0BD502080F3F7
:10A380001188BFF34F8FBFF36F8FFEE7502080F32C
:10A390001188BFF34F8FBFF36F8FFEE72DE9F041B8
:10A3A0002E4C0027A06B40B1206A401C2062606ADE
:10A3B00000B101273846BDE8F0816669761C666108
:10A3C00013D16068006838B1502080F31188BFF362
:10A3D0004F8FBFF36F8FFEE76068A1686160A06078
:10A3E000A06A401CA062FDF7C1FB206BDFF8708003
:10A3F000864209D36068006880B16068C068C5683B
:10A40000686886420DD220632068C06A00EB800134
:10A4100058F821000128CAD90127C8E74FF0FF30BA
:10A42000F1E7281DFFF780FDA86A18B105F11800B3
:10A43000FFF77AFDE86A0121A26981401143A16119
:10A4400000EB800108EB8100291DFFF7B1FDE86AF0
:10A450002168C96A8842CDD30127CBE7B80600201E
:10A46000502F00202DE9F0472C4D00242746A86BE3
:10A4700038B1FFF7A9FDA86B401EA863A86B40B1D7
:10A4800046E0502080F31188BFF34F8FBFF36F8FEA
:10A49000FEE72969224E0120D1B3A6F1B409804616
:10A4A0003068E8B1F068C46804F11800FFF73CFDBB
:10A4B000201DFFF739FDE06AAA6908FA00F111438F
:10A4C000A96100EB800109EB8100211DFFF770FD00
:10A4D000E06A2968C96A8842E2D3C5F82480DFE7C8
:10A4E0000CB1FDF743FB2C6A44B14646FFF756FF1B
:10A4F00000B16E62641EF9D100202862686A38B12A
:10A500000849012738070860BFF34F8FBFF36F8FEB
:10A51000FFF77AFD3846BDE8F0870000B806002056
:10A520000430002004ED00E098680208ED4E0008B9
:10A53000000000000000000080000000000000009B
:10A5400000000000B4680208F54E0008FFFF00009C
:10A5500000000000000100000000000000000000FA
:10A56000D0680208094F0008FEFF0000000000004C
:10A57000000100000000000000000000A4680208C4
:10A58000294F0008FDFF000000000000000100004E
:10A590000000000000000000C0680208A14F000891
:10A5A000FDFF0000000000000001000000000000AE
:10A5B00000000000E068020811500008FEFF0000E3
:10A5C000000000000001000000000000000000008A
:10A5D0008C6802081D500008FDFF0000000000000C
:10A5E00080000000000000000000000000000000EB
:10A5F0000000000001020304060708090000000033
:10A6000001020304800000000000000000000000C0
:10A61000000000000000000000000000000000003A
:10A62000000000000000000000000000000000002A
:10A63000000000000000000000000000000000001A
:10A6400000000000101000F000F0011BF7BEF7BE84
:10A65000F7BEF7BEF7BEF7BEF7BEF7BEF7BEF7BE52
:10A66000F7BEF7BEF7BEF7BEF7BEF7BEF7BEF7BE42
:10A67000F7BEF7BEF7BEF7BEF7BEF7BEF7BEF7BE32
:10A68000F7BEF7BEF7BEF7BEF7BEF7BEF7BEF7BE22
:10EDF000F7BEF7BEF7BEF7BEFF9EFF9EF7BEF7DE7B
:10EE0000EF9DFFDFF79EFFBFFFFFFFFFFFFFFFFF4D
:10EE1000F7DEEFBFEFDFF7BFF7BEF7BEF7BEF7BE17
:10EE2000F7BEF79EF79EF7BEF7BEF7BEF7BEF7BE7A
:10EE3000F7BEF7BEF7BEF7BEF7BEF7BEF7BEF7BE2A
:10EE4000F7BEF7BEF7BEF7BEF7BEF7BEF7BEF7BE1A
:10EE5000F7BEF7BEF7BEF7BEF7BEF7BEF7BEF7BE0A
:10EE6000F7BEF7BEF7BEF7BEF7BEF7BEF7BEF7BEFA
:10EE7000F7BEF7BEF7BEF7BEF7BEF7BEF7BEF7BEEA
:10EE8000F7BEF7BEF7BEF7BEF7BEF7BEF7BEF7BEDA
:10EE9000F7BEF7BEF7BEF7BEF7BEF7BEF7BEF7BECA
:10EEA000F7BEF7BEF7BEF7BEF7BEF7BEF7BEF7BEBA
:10EEB000F7BEF7BEF7BEF7BEF7BEF7BEF7BEF7BEAA
:10EEC000F7BEF7BEF7BEF7BEF7BEF7BEF7BEF7BE9A
:10EED000F7BEF7BEF7BEF7BEF7BEF7BEF7BEF79FA9
:10EEE000F7BFF7BFF79FFFBFFFDFFFFFFFFFFFDEAB
:10EEF000FFBEF7BEF7BFF7BEF79EFFBEF7DEF7BE59
:10EF0000F7BEF7BEF7BEF7BEF7BEF7BEF7BEF7BE59
:10EF1000F7BEF7BEF7BEF7BEF7BEF7BEF7BEF7BE49
:10EF2000F7BEF7BEF7BEF7BEF7BEF7BEF7BEF7BE39
:10EF3000F7BEF7BEF7BEF7BEF7BEF7BEF7BEF7BE29
:10EF4000F7BEF7BEF7BEF7BEF7BEF7BEF7BEF7BE19
:10EF5000F7BEF7BEF7BEF7BEF7BEF7BEF7BEF7BE09
:10EF6000F7BEF7BEF7BEF7BEF7BEF7BEF7BEF7BEF9
:10EF7000F7BEF7BEF7BEF7BEF7BEF7BEF7BEF7BEE9
:10EF8000F7BEF7BEF7BEF7BEF7BEF7BEF7BEF7BED9
:10EF9000F7BEF7BEF7BEF7BEF7BEF7BEF7BEF7BEC9
:10EFA000F7BEF7BEF7BEF7BEF7BEF7BEF7BEF7BEB9
:10EFB000F7BEF7BEF7BEF7BEF7BEF7BEF7BEF7BEA9
:10EFC000F7BEF7BEF7BEF7BEF7BEF7BEF7BEF7BE99
:10EFD000F7BEF7BEF7BEFFBEFF9EFF9EF7BEEF9DDA
:10EFE000FFFEF77DFFFFFF7CEEB8DE36E677EED85A
:10EFF000FFBDFFFFEFBFF7BFF7BFF7BEF7BEF7BE1E
:10F00000F7BEF7BEF7BEF7BEF7BEF7BEF7BEF7BE58
:10F01000F7BEF7BEF7BEF7BEF7BEF7BEF7BEF7BE48
:10F02000F7BEF7BEF7BEF7BEF7BEF7BEF7BEF7BE38
:10F03000F7BEF7BEF7BEF7BEF7BEF7BEF7BEF7BE28
:10F04000F7BEF7BEF7BEF7BEF7BEF7BEF7BEF7BE18
:10F05000F7BEF7BEF7BEF7BEF7BEF7BEF7BEF7BE08
:10F06000F7BEF7BEF7BEF7BEF7BEF7BEF7BEF7BEF8
:10F07000F7BEF7BEF7BEF7BEF7BEF7BEF7BEF7BEE8
:10F08000F7BEF7BEF7BEF7BEF7BEF7BEF7BEF7BED8
:10F09000F7BEF7BEF7BEF7BEF7BEF7BEF7BEF7BEC8
:10F0A000F7BEF7BEF7BEF7BEF7BEF7BEF7BEF7BEB8
:10F0B000F7BEF7BEF7BEF7BEF7BEF7BEF7BEF7BFA7
:10F0C000F7BFF79EFFDEFFBEEEF9E677E677EEB715
:10F0D000FF7CFFFEF79EF79EFFBEFF9EF79EF7BEEA
:10F0E000F7BEF7BEF7BEF7BEF7BEF7BEF7BEF7BE78
:10F0F000F7BEF7BEF7BEF7BEF7BEF7BEF7BEF7BE68
:10F10000F7BEF7BEF7BEF7BEF7BEF7BEF7BEF7BE57
:10F11000F7BEF7BEF7BEF7BEF7BEF7BEF7BEF7BE47
:10F12000F7BEF7BEF7BEF7BEF7BEF7BEF7BEF7BE37
:10F13000F7BEF7BEF7BEF7BEF7BEF7BEF7BEF7BE27
:10F14000F7BEF7BEF7BEF7BEF7BEF7BEF7BEF7BE17
:10F15000F7BEF7BEF7BEF7BEF7BEF7BEF7BEF7BE07
:10F16000F7BEF7BEF7BEF7BEF7BEF7BEF7BEF7BEF7
:10F17000F7BEF7BEF7BEF7BEF7BEF7BEF7BEF7BEE7
:10F18000F7BEF7BEF7BEF7BEF7BEF7BEF7BEF7BED7
:10F19000F7BEF7BEF7BEF7BEF7BEF7BEF7BEF7BEC7
:10F1A000F7BEF7BEF7BEF7BEF7BEF7BEF7BEF7BEB7
:10F1B000F7BEF7BEF7BEF7BEFFBEF7BEF7BFF7DF7D
:10F1C000F77DFFDEEED9D592D5B2DDB2DD91DDD28D
:10F1D000DDF4F719FFDDF7BEF7BEF7BEF7BEF7BEE9
:10F1E000F7BEF7BEF7BEF7BEF7BEF7BEF7BEF7BE77
:10F1F000F7BEF7BEF7BEF7BEF7BEF7BEF7BEF7BE67
:10F20000F7BEF7BEF7BEF7BEF7BEF7BEF7BEF7BE56
:10F21000F7BEF7BEF7BEF7BEF7BEF7BEF7BEF7BE46
:10F22000F7BEF7BEF7BEF7BEF7BEF7BEF7BEF7BE36
:10F23000F7BEF7BEF7BEF7BEF7BEF7BEF7BEF7BE26
:10F24000F7BEF7BEF7BEF7BEF7BEF7BEF7BEF7BE16
:10F25000F7BEF7BEF7BEF7BEF7BEF7BEF7BEF7BE06
:10F26000F7BEF7BEF7BEF7BEF7BEF7BEF7BEF7BEF6
:10F27000F7BEF7BEF7BEF7BEF7BEF7BEF7BEF7BEE6
:10F28000F7BEF7BEF7BEF7BEF7BEF7BEF7BEF7BED6
:10F29000F7BEF7BEF7BEF7BEF7BEF7BEF7BEFFDE9E
:10F2A000F7BDFFFEEF19DE35D5F3D5D2D5D2D5B3F4
:10F2B000CD92E698FFFEFFDEF79EF7BFF79EF7BE02
:10F2C000F7BEF7BEF7BEF7BEF7BEF7BEF7BEF7BE96
:10F2D000F7BEF7BEF7BEF7BEF7BEF7BEF7BEF7BE86
:10F2E000F7BEF7BEF7BEF7BEF7BEF7BEF7BEF7BE76
:10F2F000F7BEF7BEF7BEF7BEF7BEF7BEF7BEF7BE66
:10F30000F7BEF7BEF7BEF7BEF7BEF7BEF7BEF7BE55
:10F31000F7BEF7BEF7BEF7BEF7BEF7BEF7BEF7BE45
:10F32000F7BEF7BEF7BEF7BEF7BEF7BEF7BEF7BE35
:10F33000F7BEF7BEF7BEF7BEF7BEF7BEF7BEF7BE25
:10F34000F7BEF7BEF7BEF7BEF7BEF7BEF7BEF7BE15
:10F35000F7BEF7BEF7BEF7BEF7BEF7BEF7BEF7BE05
:10F36000F7BEF7BEF7BEF7BEF7BEF7BEF7BEF7BEF5
:10F37000F7BEF7BEF7BEF7BEF7BEF7BEF7BEF7BEE5
:10F38000F7BEF7BEF7BEF7BEF7BEF7BEF7BEF7BED5
:10F39000F7BEF7BEF7BEF7BEF7BDF7BFF7BFF79FE3
:10F3A000FFDFF719CD71E5F2EDF2EDF1F5F2F612AE
:10F3B000EE33E614FF19FFBEF7BEF7BEF7BEF7BE89
:10F3C000F7BEF7BEF7BEF7BEF7BEF7BEF7BEF7BE95
:10F3D000F7BEF7BEF7BEF7BEF7BEF7BEF7BEF7BE85
:10F3E000F7BEF7BEF7BEF7BEF7BEF7BEF7BEF7BE75
:10F3F000F7BEF7BEF7BEF7BEF7BEF7BEF7BEF7BE65
:10F40000F7BEF7BEF7BEF7BEF7BEF7BEF7BEF7BE54
:10F41000F7BEF7BEF7BEF7BEF7BEF7BEF7BEF7BE44
:10F42000F7BEF7BEF7BEF7BEF7BEF7BEF7BEF7BE34
:10F43000F7BEF7BEF7BEF7BEF7BEF7BEF7BEF7BE24
:10F44000F7BEF7BEF7BEF7BEF7BEF7BEF7BEF7BE14
:10F45000F7BEF7BEF7BEF7BEF7BEF7BEF7BEF7BE04
:10F46000F7BEF7BEF7BEF7BEF7BEF7BEF7BEF7BEF4
:10F47000F7BEF7BEF7BEF7BEF7BEF7BEF7BEF7BCE6
:10F48000FFDDF75ADE55E654EE53EE53EE12E5D2A9
:10F49000DDD2D5D3E6B8FFDEF79EF7DFF7BFF7BEC4
:10F4A000F7BEF7BEF7BEF7BEF7BEF7BEF7BEF7BEB4
:10F4B000F7BEF7BEF7BEF7BEF7BEF7BEF7BEF7BEA4
:10F4C000F7BEF7BEF7BEF7BEF7BEF7BEF7BEF7BE94
:10F4D000F7BEF7BEF7BEF7BEF7BEF7BEF7BEF7BE84
:10F4E000F7BEF7BEF7BEF7BEF7BEF7BEF7BEF7BE74
:10F4F000F7BEF7BEF7BEF7BEF7BEF7BEF7BEF7BE64
:10F50000F7BEF7BEF7BEF7BEF7BEF7BEF7BEF7BE53
:10F51000F7BEF7BEF7BEF7BEF7BEF7BEF7BEF7BE43
:10F52000F7BEF7BEF7BEF7BEF7BEF7BEF7BEF7BE33
:10F53000F7BEF7BEF7BEF7BEF7BEF7BEF7BEF7BE23
:10F54000F7BEF7BEF7BEF7BEF7BEF7BEF7BEF7BE13
:10F55000F7BEF7BEF7BEF7BEF7BEF7BEF7BEF7BE03
:10F56000F7BEF7BEF7BEF7BEF7BEF7BEF7BEF7BEF3
:10F57000F7BEF7BEF7BEF7BEF7DEF7BFF79FFF9FF8
:10F58000FFBDD592E5F1E5D1E5F2EE12EE32EE33B4
:10F59000EE74EE75E655FF9CFFBEFFBEFFBEF79F03
:10F5A000F7BEF7BEF7BEF7BEF7BEF7BEF7BEF7BEB3
:10F5B000F7BEF7BEF7BEF7BEF7BEF7BEF7BEF7BEA3
:10F5C000F7BEF7BEF7BEF7BEF7BEF7BEF7BEF7BE93
:10F5D000F7BEF7BEF7BEF7BEF7BEF7BEF7BEF7BE83
:10F5E000F7BEF7BEF7BEF7BEF7BEF7BEF7BEF7BE73
:10F5F000F7BEF7BEF7BEF7BEF7BEF7BEF7BEF7BE63
:10F60000F7BEF7BEF7BEF7BEF7BEF7BEF7BEF7BE52
:10F61000F7BEF7BEF7BEF7BEF7BEF7BEF7BEF7BE42
:10F62000F7BEF7BEF7BEF7BEF7BEF7BEF7BEF7BE32
:10F63000F7BEF7BEF7BEF7BEF7BEF7BEF7BEF7BE22
:10F64000F7BEF7BEF7BEF7BEF7BEF7BEF7BEF7BE12
:10F65000F7BEF7BEF7BEF7BEF7BEF7BEF7BEFFBEFA
:10F66000FF9DE677EE55F654EE53EE12F612F5F1E5
:10F67000EDF1E5D2D5B3F77BF7BEF7DFF79EF7BE26
:10F68000F7BEF7BEF7BEF7BEF7BEF7BEF7BEF7BED2
:10F69000F7BEF7BEF7BEF7BEF7BEF7BEF7BEF7BEC2
:10F6A000F7BEF7BEF7BEF7BEF7BEF7BEF7BEF7BEB2
:10F6B000F7BEF7BEF7BEF7BEF7BEF7BEF7BEF7BEA2
:10F6C000F7BEF7BEF7BEF7BEF7BEF7BEF7BEF7BE92
:10F6D000F7BEF7BEF7BEF7BEF7BEF7BEF7BEF7BE82
:10F6E000F7BEF7BEF7BEF7BEF7BEF7BEF7BEF7BE72
:10F6F000F7BEF7BEF7BEF7BEF7BEF7BEF7BEF7BE62
:10F70000F7BEF7BEF7BEF7BEF7BEF7BEF7BEF7BE51
:10F71000F7BEF7BEF7BEF7BEF7BEF7BEF7BEF7BE41
:10F72000F7BEF7BEF7BEF7BEF7BEF7BEF7BEF7BE31
:10F73000F7BEF7BEF7BEF7BEF7BEF7BEF7BEF7BE21
:10F74000F7BEF7BEF7BEF7BEF7BEF7BEF7BEF7BE11
:10F75000F7BEF7BEF7BEF7BEF7BEF7BEF7BEFFBEF9
:10F76000E678DDD2E5D0E5F1E613E633E654EE5473
:10F77000E675EE96E696EF1AFFBDFF9EFF9EF7BF79
:10F78000F7BEF7BEF7BEF7BEF7BEF7BEF7BEF7BED1
:10F79000F7BEF7BEF7BEF7BEF7BEF7BEF7BEF7BEC1
:10F7A000F7BEF7BEF7BEF7BEF7BEF7BEF7BEF7BEB1
:10F7B000F7BEF7BEF7BEF7BEF7BEF7BEF7BEF7BEA1
:10F7C000F7BEF7BEF7BEF7BEF7BEF7BEF7BEF7BE91
:10F7D000F7BEF7BEF7BEF7BEF7BEF7BEF7BEF7BE81
:10F7E000F7BEF7BEF7BEF7BEF7BEF7BEF7BEF7BE71
:10F7F000F7BEF7BEF7BEF7BEF7BEF7BEF7BEF7BE61
:10F80000F7BEF7BEF7BEF7BEF7BEF7BEF7BEF7BE50
:10F81000F7BEF7BEF7BEF7BEF7BEF7BEF7BEF7BE40
:10F82000F7BEF7BEF7BEF7BEF7BEF7BEF7BEF7BE30
:10F83000F7BEF7BEF7BEF7BEF7BEF7BEF7BEFFBE18
:10F84000F73BE697EE76F655F654EE54EE33EDF2CE
:10F85000EDF1EDF2DDB2E676FFDDF7DFF7BFF7BEE3
:10F86000F7BEF7BEF7BEF7BEF7BEF7BEF7BEF7BEF0
:10F87000F7BEF7BEF7BEF7BEF7BEF7BEF7BEF7BEE0
:10F88000F7BEF7BEF7BEF7BEF7BEF7BEF7BEF7BED0
:10F89000F7BEF7BEF7BEF7BEF7BEF7BEF7BEF7BEC0
:10F8A000F7BEF7BEF7BEF7BEF7BEF7BEF7BEF7BEB0
:10F8B000F7BEF7BEF7BEF7BEF7BEF7BEF7BEF7BEA0
:10F8C000F7BEF7BEF7BEF7BEF7BEF7BEF7BEF7BE90
:10F8D000F7BEF7BEF7BEF7BEF7BEF7BEF7BEF7BE80
:10F8E000F7BEF7BEF7BEF7BEF7BEF7BEF7BEF7BE70
:10F8F000F7BEF7BEF7BEF7BEF7BEF7BEF7BEF7BE60
:10F90000F7BEF7BEF7BEF7BEF7BEF7BEF7BEF7BE4F
:10F91000F7BEF7BEF7BEF7BEF7BEF7BEF7BEF7BE3F
:10F92000F7BEF7BEF7BEF7BEF7BEF7BEF7BEF7BE2F
:10F93000F7BEF7BEF7BEF7BEF7BEF7BEFFBDFFDDF1
:10F94000D5F4E5F3EDD1E5F2E633E654E654E67599
:10F95000EE95EE96EEB6E6B8FFBDFF9DFF9EFFBFAB
:10F96000F7BFF7BEF7BEF7BEF7BEF7BEF7BEF7BEEE
:10F97000F7BEF7BEF7BEF7BEF7BEF7BEF7BEF7BEDF
:10F98000F7BEF7BEF7BEF7BEF7BEF7BEF7BEF7BECF
:10F99000F7BEF7BEF7BEF7BEF7BEF7BEF7BEF7BEBF
:10F9A000F7BEF7BEF7BEF7BEF7BEF7BEF7BEF7BEAF
:10F9B000F7BEF7BEF7BEF7BEF7BEF7BEF7BEF7BE9F
:10F9C000F7BEF7BEF7BEF7BEF7BEF7BEF7BEF7BE8F
:10F9D000F7BEF7BEF7BEF7BEF7BEF7BEF7BEF7BE7F
:10F9E000F7BEF7BEF7BEF7BEF7BEF7BEF7BEF7BE6F
:10F9F000F7BEF7BEF7BEF7BEF7BEF7BEF7BEF7BE5F
:10FA0000F7BEF7BEF7BEF7BEF7BEF7BEF7BEF7BE4E
:10FA1000F7BEF7BEF7BEF7BEF7BEF7BEF7BEFFBD37
:10FA2000E6D9EE97EE95F675EE75EE75E654EE3383
:10FA3000EDF2EDF2E5F2D5D3FFBDF7BEF7BEF7BEAE
:10FA4000F7BEF7BEF7BEF7BEF7BEF7BEF7BEF7BE0E
:10FA5000F7BEF7BEF7BEF7BEF7BEF7BEF7BEF7BEFE
:10FA6000F7BEF7BEF7BEF7BEF7BEF7BEF7BEF7BEEE
:10FA7000F7BEF7BEF7BEF7BEF7BEF7BEF7BEF7BEDE
:10FA8000F7BEF7BEF7BEF7BEF7BEF7BEF7BEF7BECE
:10FA9000F7BEF7BEF7BEF7BEF7BEF7BEF7BEF7BEBE
:10FAA000F7BEF7BEF7BEF7BEF7BEF7BEF7BEF7BEAE
:10FAB000F7BEF7BEF7BEF7BEF7BEF7BEF7BEF7BE9E
:10FAC000F7BEF7BEF7BEF7BEF7BEF7BEF7BEF7BE8E
:10FAD000F7BEF7BEF7BEF7BEF7BEF7BEF7BEF7BE7E
:10FAE000F7BEF7BEF7BEF7BEF7BEF7BEF7BEF7BE6E
:10FAF000F7BEF7BEF7BEF7BEF7BEF7BEF7BEF7BE5E
:10FB0000F7BEF7BEF7BEF7BEF7BEF7BEF7BEF7BE4D
:10FB1000F7BEF7BEF7BEF7BFF79FF7BEFFDDF75999
:10FB2000D5D2E5F2F5F3EDF2E653EE54EE74EE9530
:10FB3000EEB5F6B5F6B5E6D8F77BFFBEF79EFF9FAC
:10FB4000F7BFF7BEF7BEF7BEF7BEF7BEF7BEF7BE0C
:10FB5000F7BEF7BEF7BEF7BEF7BEF7BEF7BEF7BEFD
:10FB6000F7BEF7BEF7BEF7BEF7BEF7BEF7BEF7BEED
:10FB7000F7BEF7BEF7BEF7BEF7BEF7BEF7BEF7BEDD
:10FB8000F7BEF7BEF7BEF7BEF7BEF7BEF7BEF7BECD
:10FB9000F7BEF7BEF7BEF7BEF7BEF7BEF7BEF7BEBD
:10FBA000F7BEF7BEF7BEF7BEF7BEF7BEF7BEF7BEAD
:10FBB000F7BEF7BEF7BEF7BEF7BEF7BEF7BEF7BE9D
:10FBC000F7BEF7BEF7BEF7BEF7BEF7BEF7BEF7BE8D
:10FBD000F7BEF7BEF7BEF7BEF7BEF7BEF7BEF7BE7D
:10FBE000F7BEF7BEF7BEF7BEF7BEF7BEF7BEF7BE6D
:10FBF000F7BEF7BEF7BEF7BEF7BEF7BEF7BEF7BC5F
:10FC0000E6D7EED6F6B5F6B4EEB4E695E695E6544C
:10FC1000EE33EDF2E5D2DDD3F71AFFBEF7BEF7BE45
:10FC2000F7BEF7BEF7BEF7BEF7BEF7BEF7BEF7BE2C
:10FC3000F7BEF7BEF7BEF7BEF7BEF7BEF7BEF7BE1C
:10FC4000F7BEF7BEF7BEF7BEF7BEF7BEF7BEF7BE0C
:10FC5000F7BEF7BEF7BEF7BEF7BEF7BEF7BEF7BEFC
:10FC6000F7BEF7BEF7BEF7BEF7BEF7BEF7BEF7BEEC
:10FC7000F7BEF7BEF7BEF7BEF7BEF7BEF7BEF7BEDC
:10FC8000F7BEF7BEF7BEF7BEF7BEF7BEF7BEF7BECC
:10FC9000F7BEF7BEF7BEF7BEF7BEF7BEF7BEF7BEBC
:10FCA000F7BEF7BEF7BEF7BEF7BEF7BEF7BEF7BEAC
:10FCB000F7BEF7BEF7BEF7BEF7BEF7BEF7BEF7BE9C
:10FCC000F7BEF7BEF7BEF7BEF7BEF7BEF7BEF7BE8C
:10FCD000F7BEF7BEF7BEF7BEF7BEF7BEF7BEF7BE7C
:10FCE000F7BEF7BEF7BEF7BEF7BEF7BEF7BEF7BE6C
:10FCF000F7BEF7BEF7BEF7BEFFBEF7BEFFDEEED81B
:10FD0000DDD2E5F2E613E633E634EE74EE75EE95F9
:10FD1000EE95EEB6EED6E6D7F73AFFBDF7BEF7BFE3
:10FD2000F7BFF7BEF7BEF7BEF7BEF7BEF7BEF7BE2A
:10FD3000F7BEF7BEF7BEF7BEF7BEF7BEF7BEF7BE1B
:10FD4000F7BEF7BEF7BEF7BEF7BEF7BEF7BEF7BE0B
:10FD5000F7BEF7BEF7BEF7BEF7BEF7BEF7BEF7BEFB
:10FD6000F7BEF7BEEFDEEFDEF7BEF7BEF79EFF9EF3
:10FD7000FF9EFFBEF7BEF7BEF7BEF7BEF7BEF7BEEB
:10FD8000F7BEF7BEF7BEF7BEF7BEF7BEFF9EFF9EFB
:10FD9000F79EF7BEF7BEF7BEF7BEF7BEF7BEF7BEDB
:10FDA000F7BEF7BEF7BEF7BEF7BEF7BEF7BEF7BEAB
:10FDB000F7BEF7BEF7BEF7BEF7BEF7BEF7BEF7BE9B
:10FDC000F7BEF7BEF7BEF7BEF7BEF7BEF7BEF7BE8B
:10FDD000FFBEFFBEF7BEF7BEF7BEF7BFF7BFFF7AA5
:10FDE000EED7EED7EED6EEB6EEB5EE94EE74EE5458
:10FDF000E634E613E5D2E5F2EE97FFBEF7BEF7BEB6
:10FE0000F7BEF7BEF7BEF7BEF7BEF7BEF7BEF7BE4A
:10FE1000F7BEF7BEF7BEF7BEF7BEF7BEF7BEF7BE3A
:10FE2000F7BEF7BEF7BEF7BEF7BEF7BEF7BEF7BE2A
:10FE3000F7BEF7BEF7BEF7BEF7BEF7BEF7BEF7BE1A
:10FE4000F7BEF7BEF7BEF7BEF7BEF7BEF7BEF7BE0A
:10FE5000F7BEF7BEF7BEF7BEF7BEF7BEF7BEF7BEFA
:10FE6000F7BEF7BEF7BEF7BEF7BEF7BEF7BEF7BEEA
:10FE7000F7BEF7BEF7BEF7BEF7BEF7BEF7BEF7BEDA
:10FE8000F7BEF7BEF7BEF7BEF7BEF7BEF7BEF7BECA
:10FE9000F7BEF7BEF7BEF7BEF7BEF7BEF7BEF7BEBA
:10FEA000F7BEF7BEF7BEF7BEF7BEF7BEF7BEF7BEAA
:10FEB000F7BEF7BEF7BEF7BEF7BEF7BEF7BEF7BE9A
:10FEC000F7BEF7BEF7BEF7BEF7BEF7BEF7BEF7BE8A
:10FED000F7BEF7BEF7BEF7BEFFBEF7BEFFDEEE977A
:10FEE000E5D2E5F2E613E634E654EE55EE75EE950E
:10FEF000EEB6EEB6EED6EED7EF3AFFBDF7BEF7BFE1
:10FF0000F7BFF7BEF7BEF7BEF7BEF7BEF7BEF7BE48
:10FF1000F7BEF7BEF7BEF7BEF7BEF7BEF7BEF7BE39
:10FF2000F7BEF7BEF7BEF7BEF7BEF7BEF7BEF7BE29
:10FF3000F7BEF7BEF7BEF7BEF7BEF7BEF7BEF7BE19
:10FF4000F7BEF7BEF7BEF7BEF7BEF7BEF7BEF7BE09
:10FF5000F7BEEFBEEFBEF7BEF7DFF7DFF7BEF7BEC7
:10FF6000F7BFF7BEF7BEF7BEF7BEF7BEF7BEF7BEE8
:10FF7000F7BEF7BEF7BEF7BEF7BEF7BEF7BEF7BED9
:10FF8000F7BEF7BEF7BEF7BEF7BEF7BEF7BEF7BEC9
:10FF9000F7BEF7BEF7BEF7BEF7BEF7BEF7BEF7BEB9
:10FFA000F7BEF7BEF7BEF7BEF7BEF7BEF7BEF79EC9
:10FFB000FFBEFFBEF79EF7BEF7BEF79FF7DFFF5A03
:10FFC000EED7EED7EED7EEB6EEB5EE95EE74EE5474
:10FFD000E654E613EE12E5F2E656FFBEF7BFF7BEB3
:10FFE000F7BEF7BEF7BEF7BEF7BEF7BEF7BEF7BE69
:10FFF000F7BEF7BEF7BEF7BEF7BEF7BEF7BEF7BE59
:020000040801F1
:10000000F7BEF7BEF7BEF7BEF7BEF7BEF7BEF7BE48
:10001000F7BEF7BEF7BEF7BEF7BEF7BEF7BEF7BE38
:10002000F7BEF7BEF7BEF7BEF7BEF7BEF7BEF7BE28
:10003000F7BEF7BEF7BEF7BEF7BEF7BEF7BEF7BE18
:10004000F7BEF7BEF7BEF7BEF7BEF7BEF7BEF7BE08
:10005000F7BEF7BEF7BEF7BEF7BEF7BEF7BEF7BEF8
:10006000F7BEF7BEF7BEF7BEF7BEF7BEF7BEF7BEE8
:10007000F7BEF7BEF7BEF7BEF7BEF7BEF7BEF7BED8
:10008000F7BEF7BEF7BEF7BEF7BEF7BEF7BEF7BEC8
:10009000F7BEF7BEF7BEF7BEF7BEF7BEF7BEF7BEB8
:1000A000F7BEF7BEF7BEF7BEF7BEF7BEF7BEF7BEA8
:1000B000F7BEF7BEF7BEF7BEF7BEF79EFFDDDE1553
:1000C000E5F2E5F2E633EE54EE54EE75EE95EEB65B
:1000D000EED6EED6F6F7EEF7EEF8FFBCF7BEF79FDA
:1000E000F7BFF7BEF7BEF7BEF7BEF7BEF7BEF7BE67
:1000F000F7BEF7BEF7BEF7BEF7BEF7BEF7BEF7BE58
:10010000F7BEF7BEF7BEF7BEF7BEF7BEF7BEF7BE47
:10011000F7BEF7BEF7BEF7BEF7BEF7BEF7BEF7BE37
:10012000F7BEF79FFF9FFFBFF7BFF7BEF7BEF7DE33
:10013000F7FEFFFFFFFFFFFFFFFFFFFFFFFFFFFFD8
:10014000FFDFF7BEF7BEF7BFF7BFF7BFF7BFF7BFD9
:10015000F7BFF7BEF7BEF7BEF7BEF7BEF7BEF7BEF6
:10016000F7BEF7BEF7BEF7BEF7BEF7BEF7BEF7BEE7
:10017000F7BEF7BEF7BEF7BEF7BEF7BEF7BEF7BED7
:10018000F7BEF7BEF7BEF7BEF7BEF7BEF7BEF7BEC7
:10019000F79EF7BEF7BEF7BEF7BEF7BEFFBEEEF89E
:1001A000EEF8EEF8EED7EED6EED6EEB5EE95EE75AD
:1001B000EE54E633EE12E5F2D5F4FFDEF7BEF7BEFD
:1001C000F7BEF7BEF7BEF7BEF7BEF7BEF7BEF7BE87
:1001D000F7BEF7BEF7BEF7BEF7BEF7BEF7BEF7BE77
:1001E000F7BEF7BEF7BEF7BEF7BEF7BEF7BEF7BE67
:1001F000F7BEF7BEF7BEF7BEF7BEF7BEF7BEF7BE57
:10020000F7BEF7BEF7BEF7BEF7BEF7BEF7BEF7BE46
:10021000F7BEF7BEF7BEF7BEF7BEF7BEF7BEF7BE36
:10022000F7BEF7BEF7BEF7BEF7BEF7BEF7BEF7BE26
:10023000F7BEF7BEF7BEF7BEF7BEF7BEF7BEF7BE16
:10024000F7BEF7BEF7BEF7BEF7BEF7BEF7BEF7BE06
:10025000F7BEF7BEF7BEF7BEF7BEF7BEF7BEF7BEF6
:10026000F7BEF7BEF7BEF7BEF7BEF7BEF7BEF7BEE6
:10027000F7BEF7BEF7BEF7BEF7BEF7BEF7BEF7BED6
:10028000F7BEF7BEF7BEF7BEF7BEF7BEF7BEF7BEC6
:10029000F7BEF7BEF7BEF7BEF7BEF7BEFFBDD5F49B
:1002A000E5F2EDF2E633EE54EE74EE75EE95EEB651
:1002B000EED6F6D7F6F7EEF7EEF8FF9CFFBEF79F07
:1002C000F7BFF7BEF7BEF7BEF7BEF7BEF7BEF7BE85
:1002D000F7BEF7BEF7BEF7BEF7BEF7BEF7BEF7BE76
:1002E000F7BEF7BEF7BEF7BEF7BEF7BEF7BEF7BE66
:1002F000F7BEF7BEF7BEF7BEF7BEF7BEF7BEF7BE56
:10030000F7BEF7BFF7BFF77EF7BEFFBEFFFFFFFFE9
:10031000FFFFFF9CF73BEEFAE6B9E6BAEF1BF77C6E
:10032000FFFFFFFFFFDFFFBEF79EF7BFF7BFEF9FA7
:10033000F7BFF7BEF7BEF7BEF7BEF7BEF7BEF7BE14
:10034000F7BEF7BEF7BEF7BEF7BEF7BEF7BEF7BE05
:10035000F7BEF7BEF7BEF7BEF7BEF7BEF7BEF7BEF5
:10036000F7BEF7BEF7BEF7BEF7BEF7BEF7BEF7BEE5
:10037000F7BEF7BEF7BEF7BEFFBEFFBEFFBDEEF88D
:10038000EEF8F6F8EEF7EED6EED6EEB5EE95EE75A3
:10039000EE54E633EE32E5F2D5F4FFDEF7BEF7BEFB
:1003A000F7BEF7BEF7BEF7BEF7BEF7BEF7BEF7BEA5
:1003B000F7BEF7BEF7BEF7BEF7BEF7BEF7BEF7BE95
:1003C000F7BEF7BEF7BEF7BEF7BEF7BEF7BEF7BE85
:1003D000F7BEF7BEF7BEF7BEF7BEF7BEF7BEF7BE75
:1003E000F7BEF7BEF7BEF7BEF7BEF7BEF7BEF7BE65
:1003F000F7BEF7BEF7BEF7BEF7BEF7BEF7BEF7BE55
:10040000F7BEF7BEF7BEF7BEF7BEF7BEF7BEF7BE44
:10041000F7BEF7BEF7BEF7BEF7BEF7BEF7BEF7BE34
:10042000F7BEF7BEF7BEF7BEF7BEF7BEF7BEF7BE24
:10043000F7BEF7BEF7BEF7BEF7BEF7BEF7BEF7BE14
:10044000F7BEF7BEF7BEF7BEF7BEF7BEF7BEF7BE04
:10045000F7BEF7BEF7BEF7BEF7BEF7BEF7BEF7BEF4
:10046000F7BEF7BEF7BEF7BEF7BEF7BEF7BEF7BEE4
:10047000F7BEF7BEF7BEF7BEF7BFFFBEFFBDDDF4A8
:10048000E5F1EDF2E633E654EE54EE95EE95EEB678
:10049000EED6F6F7F6F7EF17EEF7FF9CFFBEF7BFC5
:1004A000F79FF7BEF7BEF7BEF7BEF7BEF7BEF7BEC3
:1004B000F7BEF7BEF7BEF7BEF7BEF7BEF7BEF7BE94
:1004C000F7BEF7BEF7BEF7BEF7BEF7BEF7BEF7BE84
:1004D000F7BEF7BEF7BEF7BEF7BEF7BEF7BEF7BE74
:1004E000F7BEF7BEEFDEFFFFFFFFFFFFF6FAAC70CF
:1004F00082EA728759E461E559C459C4620561E52D
:100500007AE9ACF2FFFFFFFFFFDFF79EF7BFF7BF0F
:10051000F7DFF7BEF7BEF7BEF7BEF7BEF7BEF7BE12
:10052000F7BEF7BEF7BEF7BEF7BEF7BEF7BEF7BE23
:10053000F7BEF7BEF7BEF7BEF7BEF7BEF7BEF7BE13
:10054000F7BEF7BEF7BEF7BEF7BEF7BEF7BEF7BE03
:10055000F7BEF7BEF79FFFBFF7BEFFDEF77CEF18D1
:10056000F6F8EEF7F6F7EED6F6D6EEB6EE95EE75B1
:10057000E674E633EE32E5D1DDF4FF9CF7BEF7BE5C
:10058000F7BEF7BEF7BEF7BEF7BEF7BEF7BEF7BEC3
:10059000F7BEF7BEF7BEF7BEF7BEF7BEF7BEF7BEB3
:1005A000F7BEF7BEF7BEF7BEF7BEF7BEF7BEF7BEA3
:1005B000F7BEF7BEF7BEF7BEF7BEF7BEF7BEF7BE93
:1005C000F7BEF7BEF7BEF7BEF7BEF7BEF7BEF7BE83
:1005D000F7BEF7BEF7BEF7BEF7BEF7BEF7BEF7BE73
:1005E000F7BEF7BEF7BEF7BEF7BEF7BEF7BEF7BE63
:1005F000F7BEF7BEF7BEF7BEF7BEF7BEF7BEF7BE53
:10060000F7BEF7BEF7BEF7BEF7BEF7BEF7BEF7BE42
:10061000F7BEF7BEF7BEF7BEF7BEF7BEF7BEF7BE32
:10062000F7BEF7BEF7BEF7BEF7BEF7BEF7BEF7BE22
:10063000F7BEF7BEF7BEF7BEF7BEF7BEF7BEF7BE12
:10064000F7BEF7BEF7BEF7BEF7BEF7BEF7BEF7BE02
:10065000F7BEF7BEF7BEF7BEF7BEF7BEFF9CDDF3F1
:10066000E5F1EDF1E633E654EE54EE95EE95EEB697
:10067000EED6EEF7F6F7F6F6EEF7F75BFFBDF7BF4F
:10068000F7BFF79EF7BEF7BEF7BEF7BEF7BEF7BEE1
:10069000F7BEF7BEF7BEF7BEF7BEF7BEF7BEF7BEB2
:1006A000F7BEF7BEF7BEF7BEF7BEF7BEF7BEF7BEA2
:1006B000F7BEF7BEF7BEF7BEF7BEF7BEF7BEF7BE92
:1006C000F7BFFFFEFFFEF77BA46F518351226984C1
:1006D00082057A4582868286826582867A24824570
:1006E00071E351424101B4B0FFFEFFFFFFDEF77D31
:1006F000F79EF7BEF7BEF7BEF7BEF7BEF7BEF7BE72
:10070000F7BEF7BEF7BEF7BEF7BEF7BEF7BEF7BE41
:10071000F7BEF7BEF7BEF7BEF7BEF7BEF7BEF7BE31
:10072000F7BEF7BEF7BEF7BEF7BEF7BEF7BEF7BE21
:10073000F7BEF7BEF7BFFF9EFFBEFFBDF75AEF182B
:10074000F6F7F6F7F6D7F6F7F6D6EEB6EE95EE75BF
:10075000E674E633EE32E5F1DDF3FF9BFFBEF7BE54
:10076000F7BEF7BEF7BEF7BEF7BEF7BEF7BEF7BEE1
:10077000F7BEF7BEF7BEF7BEF7BEF7BEF7BEF7BED1
:10078000F7BEF7BEF7BEF7BEF7BEF7BEF7BEF7BEC1
:10079000F7BEF7BEF7BEF7BEF7BEF7BEF7BEF7BEB1
:1007A000F7BEF7BEF7BEF7BEF7BEF7BEF7BEF7BEA1
:1007B000F7BEF7BEF7BEF7BEF7BEF7BEF7BEF7BE91
:1007C000F7BEF7BEF7BEF7BEF7BEF7BEF7BEF7BE81
:1007D000F7BEF7BEF7BEF7BEF7BEF7BEF7BEF7BE71
:1007E000F7BEF7BEF7BEF7BEF7BEF7BEF7BEF7BE61
:1007F000F7BEF7BEF7BEF7BEF7BEF7BEF7BEF7BE51
:10080000F7BEF7BEF7BEF7BEF7BEF7BEF7BEF7BE40
:10081000F7BEF7BEF7BEF7BEF7BEF7BEF7BEF7BE30
:10082000F7BEF7BEF7BEF7BEF7BEF7BEF7BEF7BE20
:10083000F7BEF7BEF7BEF7BEF7DEF7BEFF9BDDF2F1
:10084000E5F1E5F1E653E654EE54EE95EE95EEB69D
:10085000EED6EEF7F6F7F6F6EF17EF19FF9EFF9FCD
:10086000F7BFFFBEFF9EF7BEF7BEF7BEF7BEF7BEEF
:10087000F7BEF7BEF7BEF7BEF7BEF7BEF7BEF7BED0
:10088000F7BEF7BEF7BEF7BEF7BEF7BEF7BEF7BEC0
:10089000F7BEF7BEF7BEF7BEF7BEF79EF7BEF7BED0
:1008A000FFFFF75CAC4E59A361E482878AC78AC711
:1008B00092C78AC792C78AC792E78AA682867A4574
:1008C0008266826682665142938BDEB9FFFEFFFF2D
:1008D000FFFFF7BEF7BEF7BEF7BEF7BEF7BEF7BE27
:1008E000F7BEF7BEF7BEF7BEF7BEF7BEF7BEF7BE60
:1008F000F7BEF7BEF7BEF7BEF7BEF7BEF7BEF7BE50
:10090000F7BEF7BEF7BEF7BEF7BEF7BEF7BEF7DD20
:10091000F7DEF7BEF79FFF9FFFBEFFBDEF19EF1891
:10092000F6F7F6F7F6D7F6F7F6D6EEB6EE96EE75DC
:10093000E674E633EE32E5F1DDF3FF7BF7BEF7BE9A
:10094000F7BEF7BEF7BEF7BEF7BEF7BEF7BEF7BEFF
:10095000F7BEF7BEF7BEF7BEF7BEF7BEF7BEF7BEEF
:10096000F7BEF7BEF7BEF7BEF7BEF7BEF7BEF7BEDF
:10097000F7BEF7BEF7BEF7BEF7BEF7BEF7BEF7BECF
:10098000F7BEF7BEF7BEF7BEF7BEF7BEF7BEF7BEBF
:10099000F7BEF7BEF7BEF7BEF7BEF7BEF7BEF7BEAF
:1009A000F7BEF7BEF7BEF7BEF7BEF7BEF7BEF7BE9F
:1009B000F7BEF7BEF7BEF7BEF7BEF7BEF7BEF7BE8F
:1009C000F7BEF7BEF7BEF7BEF7BEF7BEF7BEF7BE7F
:1009D000F7BEF7BEF7BEF7BEF7BEF7BEF7BEF7BE6F
:1009E000F7BEF7BEF7BEF7BEF7BEF7BEF7BEF7BE5F
:1009F000F7BEF7BEF7BEF7BEF7BEF7BEF7BEF7BE4F
:100A0000F7BEF7BEF7BEF7BEF7BEF7BEF7BEF7BE3E
:100A1000F7BEF7BEF7BEF7BEF7DEF7BEFF9BDDF20F
:100A2000EDD1EDF1E654E654EE54EE75EE95EEB6EA
:100A3000EED6EEF7F6F7F716EF17EEF8FF9DFFBECE
:100A4000F7BFFFBFF79EF7BEF7BEF7BEF7BEF7BE14
:100A5000F7BEF7BEF7BEF7BEF7BEF7BEF7BEF7BEEE
:100A6000F7BEF7BEF7BEF7BEF7BEF7BEF7BEF7BEDE
:100A7000F7BEF7BEF79EF7BFF7BEF7DEFFFFFFFF3B
:100A8000BDB659E671C38AC88AC78AE89308932815
:100A900093289B4993088AC77A667A457A467A668C
:100AA000826682457A457A6661E559E562267B4B26
:100AB000F73CFFFFFFFFF7BEF7BFF7BEF7BFF7BE7C
:100AC000F7BEF7BEF7BEF7BEF7BEF7BEF7BEF7BE7E
:100AD000F7BEF7BEF7BEF7BEF7BEF7BEF7BEF7BE6E
:100AE000F7BEF7BEF7BEF7BEF7BEF7BEF7BEF7BE5E
:100AF000F7BEF7BFF7BFF7BEFFBEFFBCE719EF18A1
:100B0000EF17EEF7EEF7EED7F6D6EEB6EE96EE75F9
:100B1000E674E633EE12EE12DDD3FF5BFFBEF7BEE6
:100B2000F7BEF7BEF7BEF7BEF7BEF7BEF7BEF7BE1D
:100B3000F7BEF7BEF7BEF7BEF7BEF7BEF7BEF7BE0D
:100B4000F7BEF7BEF7BEF7BEF7BEF7BEF7BEF7BEFD
:100B5000F7BEF7BEF7BEF7BEF7BEF7BEF7BEF7BEED
:100B6000F7BEF7BEF7BEF7BEF7BEF7BEF7BEF7BEDD
:100B7000F7BEF7BEF7BEF7BEF7BEF7BEF7BEF7BECD
:100B8000F7BEF7BEF7BEF7BEF7BEF7BEF7BEF7BEBD
:100B9000F7BEF7BEF7BEF7BEF7BEF7BEF7BEF7BEAD
:100BA000F7BEF7BEF7BEF7BEF7BEF7BEF7BEF7BE9D
:100BB000F7BEF7BEF7BEF7BEF7BEF7BEF7BEF7BE8D
:100BC000F7BEF7BEF7BEF7BEF7BEF7BEF7BEF7BE7D
:100BD000F7BEF7BEF7BEF7BEF7BEF7BEF7BEF7BE6D
:100BE000FFBEFFBDF7BEF7BEF7BEF7BEF7BEF7BE4E
:100BF000F7BEF7BEF7BEF7BEF7BEF7BEFF9CDDD46B
:100C0000EDD2EDF2EE33E654E654EE75EE95EEB627
:100C1000F6B7F6F7F6F7EEF7EF17EEF7F739FFDC72
:100C2000FFBEF79FF7BFF7BEF7BEF79EF79EFF9F89
:100C3000FF9EFF9FFF9EF7BEF7BEF7BEF7BEF7BE53
:100C4000F7BEF7BEF7BEF7BEF7BEF7BEF7BEF7BEFC
:100C5000F7BEF79EFFBFF79EF7DFF7DEFFFE8B6A5A
:100C60005941930782E793289328A38A9B49A36A53
:100C7000A36A8AE87A657A45828682A682A68AA7CE
:100C80008AA7828782878286828682667A4671C434
:100C900048E17AEAF79DFFFFEF9EF7DFEF9EFF9EA8
:100CA000F7BFF79FF79FF79FFF9EFF9EFFBEFFBD19
:100CB000F7BEF7BEF7BEF7BEF7BEF7BEF7BEF7BE8C
:100CC000F7BEF7BEF7BEF7BEF7BEF7BEFF9EFFBF8B
:100CD000F79FF79FF7BFF7BEFFDDEF3AEEF8EEF7AD
:100CE000EF17EEF7EED6F6D6EEB6EE95EE95EE757C
:100CF000E654E633EE12EDF1DDD3FF5BFFBEF7BE47
:100D0000F7BEF7BEF7BEF7BEF7BEF7BEFF9EFFBE4B
:100D1000FF9EF7BEF7BEF7BEF7BEF7BEF7BEF7BE43
:100D2000F7BEF7BEF7BEF7BEF7BEF7BEF7BEF7BE1B
:100D3000F7BEF7BEF7BEF7BEF7BEF7BEF7BEF7BE0B
:100D4000F7BEF7BEF7BEF7BEF7BEF7BEF7BEF7BEFB
:100D5000F7BEF7BEF7BEF7BEF7BEF7BEF7BEF7BEEB
:100D6000F7BEF7BEF7BEF7BEF7BEF7BEF7BEF7BEDB
:100D7000F7BEF7BEF7BEF7BEF7BEF7BEF7BEF7BECB
:100D8000F7BEF7BEF7BEF7BEF7BEF7BEF7BEF7BEBB
:100D9000F7BEF7BEF7BEF7BEF7BEF7BEF7BEF7BEAB
:100DA000F7BEF7BEF7BEF7BEF7BEF7BEF7BEF7BE9B
:100DB000F7BEF7BEF7BEF7BEF7BEF7BEF7BEF7BE8B
:100DC000F7BEF7BEF7BEF7BEF7BEF7BEF7BEF7BE7B
:100DD000F7BEF7BEF7BEF7BEF7BEF7BEFF9CE5F461
:100DE000EDD1EDD1E633E654EE54EE75EE95EEB668
:100DF000EED6EED6EEF7F6F6F717EF17EEF8F75A4F
:100E0000FFDDF7BEF7BEF7BEF7BDF7BEF7BEF7BD15
:100E1000F7BDF7BDF7BEF7BEF7BEF7BEF7BEF7BE2C
:100E2000F7BEF7BEF7BEF7BEF7BEF7BEF7BEF7BE1A
:100E3000F7BEF7BEF7BFF79EF79EFFDE7B6B6A66D5
:100E4000D510E591CD109B699B6AA3AAABCBA36992
:100E50007A45724582868AE7930892E892E892E89A
:100E600092E88AC78AC88AC78AC88AA782A782875F
:100E7000828669E459C4E6B8FFFFF79DFFDEFFBE36
:100E8000F7BFF7BFF7BFF7BEF7BEF7BEF7BEF7BEB7
:100E9000F7BEF7BEF7BEF7BEF7BEF7BEF7BEF7BEAA
:100EA000F7BDF7BEF7BEF7BEF7BEF7BEF7BEF79EBB
:100EB000F79FF7BFF7BEFFFEF77BEEF8F718EF17C7
:100EC000EEF7EED7EED6EED6EEB6EE95EE95EE74E4
:100ED000E654E633EE11E5D1DDF3FF7CF7BEF7BE55
:100EE000F7BEF7BEF7BEF7BEF7BEF7BEF7BEF7BE5A
:100EF000F7BEF7BEF7BEF7BEF7BEF7BEF7BEF7BE4A
:100F0000F7BEF7BEF7BEF7BEF7BEF7BEF7BEF7BE39
:100F1000F7BEF7BEF7BEF7BEF7BEF7BEF7BEF7BE29
:100F2000F7BEF7BEF7BEF7BEF7BEF7BEF7BEF7BE19
:100F3000F7BEF7BEF7BEF7BEF7BEF7BEF7BEF7BE09
:100F4000F7BEF7BEF7BEF7BEF7BEF7BEF7BEF7BEF9
:100F5000F7BEF7BEF7BEF7BEF7BEF7BEF7BEF7BEE9
:100F6000F7BEF7BEF7BEF7BEF7BEF7BEF7BEF7BED9
:100F7000F7BEF7BEF7BEF7BEF7BEF7BEF7BEF7BEC9
:100F8000F7BEF7BEF7BEF7BEF7BEF7BEF7BEF7BEB9
:100F9000F7BEF7BEF7BEF7BEF7BEF7BEF7BEF7BEA9
:100FA000F7BFF7BFF7BFF7BFF7BEF7BEF7BEF7BE95
:100FB000F7BEF7BEF7BEF7BEF7DEF7BEFFBDDDF446
:100FC000EDD2EDD1E613E634EE54EE74EE95EE95E7
:100FD000EEB6EED6EED6F6F7EEF7F717EEF7E6F842
:100FE000F77BFFBEF79EF7DEF7DEF7DDF7DEF7DD16
:100FF000F7DDF7DDF7BEF7BEF7BEF7BEF7BEF7BE0B
:10100000F7BEF7BEF7BEF7BEF7BEF7BEF7BEF7BE38
:10101000F7BEF7BEF7FFFFBEFFFF8BAC7266D55180
:10102000D570D550E5B29B69ABEBB42C9B696A04D3
:101030007A4593288B088B0793289B489B289328F5
:101040009B2893089308930892E88AC88AC88AC89C
:101050008AA68A857A456225FFDDFFDEF77DFFDF00
:10106000F7BFF7BEF7BEF7BEF7BEF7BEF7BEF7BED7
:10107000F7BEF7BEF7BEF7BEF7BEF7BEF7BEF7BEC8
:10108000F7BDF7BDF7BDF7DDF7DEF7DEF7DEF7BE3C
:10109000F7BFF7BEFFBEF79CE6D8F6F8F6F7EEF717
:1010A000EEF7EED6EED6F6D6EEB5EE95EE75EE741C
:1010B000E654E633EDF2E5D1DE14FF7CF7BEF7BE71
:1010C000F7BEF7BEF7BEF7BEF7BEF7BEF7BFF7BE77
:1010D000F7BEF7BEF7BEF7BEF79FF79EF7BEF7BEA7
:1010E000F7BEF7BEF7BEF7BEF7BEF7BEF7BEF7BE58
:1010F000F7BEF7BEF7BEF7BEF7BEF7BEF7BEF7BE48
:10110000F7BEF7BEF7BEF7BEF7BEF7BEF7BEF7BE37
:10111000F7BEF7BEF7BEF7BEF7BEF7BEF7BEF7BE27
:10112000F7BEF7BEF7BEF7BEF7BEF7BEF7BEF7BE17
:10113000F7BEF7BEF7BEF7BEF7BEF7BEF7BEF7BE07
:10114000F7BEF7BEF7BEF7BEF7BEF7BEF7BEF7BEF7
:10115000F7BEF7BEF7BEF7BEF7BEF7BEF7BEF7BEE7
:10116000F7BEF7BEF7BEF7BEF7BEF7BEF7BEF7BED7
:10117000F7BEF7BEF7BEF7BEFF9EFFBEF7BEF7BFD6
:10118000F7BFF7BEF7BEF7BEF7BEF7BEF7BEF7BEB6
:10119000F7BEF7BEF7BEF7BEF7BEF7BEFFBDDDF484
:1011A000E5D2E5D1E612EE34EE34EE74EE75EE954E
:1011B000EEB5EEB6F6D6F6D6EEB6EEF7EEF7EEF8FC
:1011C000E6B8F75BFFBDF7DFF7BEF7BEF7BEEFBED1
:1011D000EFBEEFDEF7BEF7BEF7BEF7BEF7BEF7BE57
:1011E000F7BEF7BEF7BEF7BEF7BEF7BEF7BEF7BE57
:1011F000F7BEF7BEEFBEFFFFC5337205CCCED54FAD
:10120000D56FE5D2B42CB40CB44C93497224AC0C19
:10121000DD71DD92E5D2B40C9B69A38AA38A9B6938
:10122000A3699B499B699B499B499329930993080F
:1012300092C792C68AA661E48B8CFFFFF7BFEFBF0F
:10124000F7BEF7BEF7BEF7BEF7BEF7DEF7DEF7DE96
:10125000F7BEF7BEF7BEF7BEF7BEF7BEF7BEF7BEE6
:10126000F7BEF79EF7BFF7BFF7BFF7BFF7BFF7BEF1
:10127000FFDEFFBDF77BEED8EED7F6D7F6F7EEF739
:10128000EEF6F6D6EED6EEB6EE95EE95EE74EE549C
:10129000E633E612EE12E5D1DDF4FFBDF7BEF7BE90
:1012A000F7BEF7BEF7BEF7BEF7BEF7BEEFBEF7DE7E
:1012B000F7BEFFBEFF9EF79EF7BFF7BFF7BEF7BEB4
:1012C000F7BEF7BEF7BEF7BEF7BEF7BEF7BEF7BE76
:1012D000F7BEF7BEF7BEF7BEF7BEF7BEF7BEF7BE66
:1012E000F7BEF7BEF7BEF7BEF7BEF7BEF7BEF7BE56
:1012F000F7BEF7BEF7BEF7BEF7BEF7BEF7BEF7BE46
:10130000F7BEF7BEF7BEF7BEF7BEF7BEF7BEF7BE35
:10131000F7BEF7BEF7BEF7BEF7BEF7BEF7BEF7BE25
:10132000F7BEF7BEF7BEF7BEF7BEF7BEF7BEF7BE15
:10133000F7BEF7BEF7BEF7BEF7BEF7BEF7BEF7BE05
:10134000F7BEF7BEF7BEF7BEF7BEF7BEF7BEF7BEF5
:10135000F7BEF7BEF7BEF7BEF7BEFFBEF7BEF7BFDC
:10136000F79EF7BEFFFFFF5CFFBEF7DFF79EF7BEFD
:10137000F7BEF7BEF7BEF7BEF7BEF7BEFFDDDE1560
:10138000E5D2E5D1EE12E633EE33EE54EE74EE958F
:10139000EE95EEB5EEB6F6D7EED7F6D6EEF6EEF75C
:1013A000EED7EEB7EF19F79DFFBEFFDFF79EF79E72
:1013B000F7BFF7BFF7BEF7BEF7BEF7BEF7BEF7BE83
:1013C000F7BEF7BEF7BEF7BEF7BEF7BEF7BEF7BE75
:1013D000F7BEF7BEFFBDF77C7287ABCBDD30D52EF5
:1013E000DDB0D570B42CBC8DAC0B7A65BC8DDD91B5
:1013F000D550D570DD91D530A3AAA3CAA3AAA38ADC
:10140000A38AA38AA38A9B699B699B499B499B49A1
:101410009329930882C77AA86247FF9DF7BFF7DF39
:10142000F7BEF79DFFBEF79DF7BEF7BEF7BEF7BE4E
:10143000F7BEF7BEF7BEF7BEF7BEF7BEF7BEF79F23
:10144000F79FF7BFF79FF79FF79FF7BFFFDFFFDE1D
:10145000FF9CEF19E6B7EED7F6F7F6F7F6D7EEF7FB
:10146000EED6EED6EEB6EE95EE95EE74EE74EE5444
:10147000E633E612EDF1E5D2D5D4FFDEF7BEF7BED6
:10148000F7BEF7BEF7BEF7BEF7BEF7BEF7BEF79ED4
:10149000FFBDFFFFFFBEF79EF79EF7BFF7BEF7BE8B
:1014A000F7BEF7BEF7BEF7BEF7BEF7BEF7BEF7BE94
:1014B000F7BEF7BEF7BEF7BEF7BEF7BEF7BEF7BE84
:1014C000F7BEF7BEF7BEF7BEF7BEF7BEF7BEF7BE74
:1014D000F7BEF7BEF7BEF7BEF7BEF7BEF7BEF7BE64
:1014E000F7BEF7BEF7BEF7BEF7BEF7BEF7BEF7BE54
:1014F000F7BEF7BEF7BEF7BEF7BEF7BEF7BEF7BE44
:10150000F7BEF7BEF7BEF7BEF7BEF7BEF7BEF7BE33
:10151000F7BEF7BEF7BEF7BEF7BEF7BEF7BEF7BE23
:10152000F7BEF7BEF7BEF7BEF7BEF7BEF7BEF7BE13
:10153000F7BEF7BEF7BEF7BEF7BEF7BEF7BEF7BF02
:10154000F7BEFFBDB4F1FFFFFFBEEF7DFFDFF79EEB
:10155000F7BEF7BEF7BEF7BEF7BEF7DEFFBDE65635
:10156000E5D2E5D1E5F2E612E633EE53EE54EE7441
:10157000EE95EE95EEB5EEB6EEB6EED6EED6EED62E
:10158000EEF7EED7E6B7DE98F71AFF9DFFFEFFDF16
:10159000FF9EF79EF79EF7BEF7BEF7BEF7BEF7BEFB
:1015A000F7BEF7BEF7BEF7BEF7BEF7BEF7BEF7BE93
:1015B000F7BEF79EFFFFBD337AC7CD0FD54FD54F8E
:1015C000D5B1BCADBC6DC4CE7A85AC0BD550CD2F9A
:1015D000D570D550D570D570ABEAABEAABCAA3CA0B
:1015E000A3CAA3AAA3AAA38AA3AAABCBA3AA9B4AD2
:1015F00093088AE882C87AA86A47FFFFFFFFFFFFC7
:10160000FFFFFFDEFFDEFFDEFFBEF7BEF7BEF7BE69
:10161000F7BEF7BEF7BEF7BEF7BEF7BEF7BEF7BF21
:10162000F7BFF79FF79FFF9EFFFFFFFFFF9DF73A72
:10163000E6D7E6B6F6F7F6D6EED6EED6EED7EED687
:10164000EED6EEB5EEB5EE95EE74EE74EE54EE33E6
:10165000E613E612E5F1E5D2DE35FFDEF7BEF7BEB2
:10166000F7BEF7BEF7BEF7BEF7BEF7BEFFBEFF9DE3
:10167000FFFFB532FF9DFFBEF79EF7BEF7BEF7BE78
:10168000F7BEF7BEF7BEF7BEF7BEF7BEF7BEF7BEB2
:10169000F7BEF7BEF7BEF7BEF7BEF7BEF7BEF7BEA2
:1016A000F7BEF7BEF7BEF7BEF7BEF7BEF7BEF7BE92
:1016B000F7BEF7BEF7BEF7BEF7BEF7BEF7BEF7BE82
:1016C000F7BEF7BEF7BEF7BEF7BEF7BEF7BEF7BE72
:1016D000F7BEF7BEF7BEF7BEF7BEF7BEF7BEF7BE62
:1016E000F7BEF7BEF7BEF7BEF7BEF7BEF7BEF7BE52
:1016F000F7BEF7BEF7BEF7BEF7BEF7BEF7BEF7BE42
:10170000F7BEF7BEF7BEF7BEF7BEF7BEF7BEF7BE31
:10171000F7BEF7BEF7BEF7BEF7BEF7BEF7BEF7BE21
:10172000FFDEDE578329ABCBFFFFFFFFF79EF7BE3F
:10173000F79EF7BEF7BEF7BEF7BDF7BEFFBDEEB82A
:10174000DDB2EDD1E5F1E5F2E613E633EE54EE5409
:10175000EE74EE95EE95EE96EEB6EEB6EEB5EED5EF
:10176000EEB5F6D6EEB5EED4E674DE75E696EF1974
:10177000FF9CFFDEFFDFFFDFF7DFF7BEF7BEF7BE40
:10178000F7BEF7BEF7BEF7BEF7BEF7BEFFDFFFFF3F
:10179000FFFFFFFFFF9D6A67AC6DD56FCD4FDDD1B9
:1017A000CD71BC8ECCEF9B698AE7CD2FCD2FCD506C
:1017B000CD50DD91DD91D550B44CB42BAC0BAC0BBE
:1017C000ABEBB3EBB40CABCA9B4982A682667A65DD
:1017D0007A657A6582658A868A865963A42ED636AA
:1017E000EF5CFFFFFFFFFFFFFFFFFFFFF7BEF7BE4E
:1017F000F7BEF7BEF7BEF7BEF7BEF7BEF7BEF7DF20
:10180000F7DFFFFFFFFEFFBCF739E695DE75E696D2
:10181000EEB6EEB5F6B5F695EEB6E6B6E6B7EEB6CA
:10182000EEB5EEB5EE95EE75EE74EE54EE33EE12C7
:10183000E612DDF2E5F1E5F2EE96FFBDF7BEF7BE8A
:10184000F7BEF7BEF7BEF7BEF7BEF7BEFFFFFFFE5F
:101850009C2E730AD636FFDEF7DFEFBEF7BEF7BE6B
:10186000F7BEF7BEF7BEF7BEF7BEF7BEF7BEF7BED0
:10187000F7BEF7BEF7BEF7BEF7BEF7BEF7BEF7BEC0
:10188000F7BEF7BEF7BEF7BEF7BEF7BEF7BEF7BEB0
:10189000F7BEF7BEF7BEF7BEF7BEF7BEF7BEF7BEA0
:1018A000F7BEF7BEF7BEF7BEF7BEF7BEF7BEF7BE90
:1018B000F7BEF7BEF7BEF7BEF7BEF7BEF7BEF7BE80
:1018C000F7BEF7BEF7BEF7BEF7BEF7BEF7BEF7BE70
:1018D000F7BEF7BEF7BEF7BEF7BEF7BEF7BEF7BE60
:1018E000F7BEF7BEF7BEF7BEF7BEF7BEF7BEF7BE50
:1018F000F7BEF7BEF7BEF7BEFFBEF7BEF7BFF7BF36
:10190000FFDEC532A3AAA369A42DF73AFFFFF7BEF5
:10191000F7DFEFBFF7BEFFDEF7BDFFBEFFBDF6F995
:10192000DDD2E5F2EDF2E5D2E5F3E613E634EE546E
:10193000EE54EE74EE94EE95EE95EE95EEB5EEB5B2
:10194000EE95EE95EE95EE94EE95EE94E674E654F3
:10195000DE34EE76EED8F73BFFDDFFFEFFFFFFDF64
:10196000F79EF7BFF79FF79EFFFFFFFFFFFFF75CB4
:10197000C5B5AC9182E98B49C4EFCD4FCD70DDB1D7
:10198000C50FC4CECD0F7A65B46DC50FCD2FCD5028
:10199000D591D570DDB1C50FB44CB44CB44CB42C5A
:1019A000BC4DB42C932882A782A68AC78AE78AE70F
:1019B0008AE78B0892E892E892E78AC76A0461C4D2
:1019C000598472479BACB512DE78FFBDFFFFFFFF65
:1019D000FFDFF79EF79EF7BEFFDEFFFFFFFFFFBDB5
:1019E000FF5AEEF8E675DE54DE54E674EE94EE959A
:1019F000EE95EE95EE95EE95EEB5EEB6E6B6EE9575
:101A0000EE95EE95EE74EE74EE54EE33E633E61298
:101A1000E5F2E5F1E5B1E5F3EED8FFDEFFBEF79EB6
:101A2000F7BEF7BFF7BFF7BEF7BEFFFFF73AAC2D23
:101A30009B8AA3CBC552FFDEF7BEF7BFF7BEF7BE4A
:101A4000F7BEF7BEF7BEF7BEF7BEF7BEF7BEF7BEEE
:101A5000F7BEF7BEF7BEF7BEF7BEF7BEF7BEF7BEDE
:101A6000F7BEF7BEF7BEF7BEF7BEF7BEF7BEF7BECE
:101A7000F7BEF7BEF7BEF7BEF7BEF7BEF7BEF7BEBE
:101A8000F7BEF7BEF7BEF7BEF7BEF7BEF7BEF7BEAE
:101A9000F7BEF7BEF7BEF7BEF7BEF7BEF7BEF7BE9E
:101AA000F7BEF7BEF7BEF7BEF7BEF7BEF7BEF7BE8E
:101AB000F7BEF7BEF7BEF7BEF7BEF7BEF7BEF7BE7E
:101AC000F7BEF7BEF7BEF7BEF7BEF7BEF7BEF7BE6E
:101AD000F7BEF7BEF7BEF7BEFF9DFFBEF7BFF7BF6D
:101AE000FFFEAC4DABA9B3CAA3689BA9EED8FFFF1C
:101AF000F7FFF7DFF7BEF7BEF7DEF7BDFFBDFF9BD1
:101B0000D5B3E5F3E5B1EDF2E5F3E5F3E613EE3435
:101B1000EE54EE53F674EE74E675E675E675EE95E2
:101B2000EE95EE95EE95EE95EE75EE54EE53EE33A2
:101B3000EE53E612E613DDF3D5D3DE15E6B8FFBDAE
:101B4000FFFFFFFFFFFFFFFFFFDE9C2F72A859A4DE
:101B5000598349017A85AC2BCD50CD50D591DDB15B
:101B6000C4EECCEFB44C8AE7C50FC50FCD2FD570AE
:101B7000D590D591DDB1B48DBC8DBC8DBC6DC4AE9E
:101B8000B42C7A457A457A86932993499B6993497F
:101B900093699B4993499349932993098AE882A7BA
:101BA000824669836162594159A36A67832CD617BB
:101BB000FFFFFFFFFFFFFFFFFFFEE6D9D616DDF4B4
:101BC000E5D1E5F2E613EE53E633E633EE74EE7458
:101BD000EE75EE95EE95EE95EE95EE95EE95EE752D
:101BE000EE75EE74EE54EE53EE33E613E612DE12AB
:101BF000E5F1EDD1EDF3D592FFBDF7BEF7BEFFBE27
:101C0000F79FEF7EF79EFFDFFFFFE6D99B69A38971
:101C1000B3EAA38AB44EFFDEF7BEF7BFF7BEF7BE46
:101C2000F7BEF7BEF7BEF7BEF7BEF7BEF7BEF7BE0C
:101C3000F7BEF7BEF7BEF7BEF7BEF7BEF7BEF7BEFC
:101C4000F7BEF7BEF7BEF7BEF7BEF7BEF7BEF7BEEC
:101C5000F7BEF7BEF7BEF7BEF7BEF7BEF7BEF7BEDC
:101C6000F7BEF7BEF7BEF7BEF7BEF7BEF7BEF7BECC
:101C7000F7BEF7BEF7BEF7BEF7BEF7BEF7BEF7BEBC
:101C8000F7BEF7BEF7BEF7BEF7BEF7BEF7BEF7BEAC
:101C9000F7BEF7BEF7BEF7BEF7BEF7BEF7BEF7BE9C
:101CA000F7BEF7BEF7BEF7BEF7BEF7BEF7BEF7BE8C
:101CB000F7BEF7BEF7BEF7BEFF9EF7BEF7BFF7BF92
:101CC000FF9DA3EBB3CAB3CAABEAABCA8B08C5117D
:101CD000FFDDFFFEFF9EF7BEF7DEF7DEF7BEFFDF9C
:101CE000EEF9CD71EDF2E5B0E5D2E5F2E5F2E612FE
:101CF000E613EE33EE53EE54E654EE74EE74EE74E7
:101D0000EE74EE74EE74EE74EE54EE54EE74EE5423
:101D1000E613DDB1D52FD50ECCEEC4CEBC8DB48E7E
:101D2000CD10E635CD739B6A82C782A6596171E3F7
:101D300071C37A259369C4CFCD50D5B1DDB1CD4FF4
:101D4000C4EED5508B08B44DC4EFCD4FCD70D590B7
:101D5000DD91DDD2C4EEBCADC4CEBC8DCCEF9B8A90
:101D60007A45AC0CCCEFC4CF9B8AA3AAA3AAA3AAA2
:101D7000A3AAA3AAA38AA38A9B6A9B4A93298AE857
:101D80008AC87A267A2572256A0459A359C53880EB
:101D900030608B29D5B3CD10BC6DBC8EC4AECCEEFB
:101DA000CD0ED550DDB1E5F2EE53EE53E633E63419
:101DB000EE54EE54EE74EE74EE74E674E674EE5483
:101DC000EE54EE34EE33E633E613E5F2E5F2E5F1F8
:101DD000E5F1E5D1DDB2EE97FFDEF7DFF7BFF7BF44
:101DE000F79EFFDFFFFFFFBCBD118329AC0BABEA01
:101DF000ABCAABEBA3ECFF7BFFDEF7BEF7BEF7BED3
:101E0000F7BEF7BEF7BEF7BEF7BEF7BEF7BEF7BE2A
:101E1000F7BEF7BEF7BEF7BEF7BEF7BEF7BEF7BE1A
:101E2000F7BEF7BEF7BEF7BEF7BEF7BEF7BEF7BE0A
:101E3000F7BEF7BEF7BEF7BEF7BEF7BEF7BEF7BEFA
:101E4000F7BEF7BEF7BEF7BEF7BEF7BEF7BEF7BEEA
:101E5000F7BEF7BEF7BEF7BEF7BEF7BEF7BEF7BEDA
:101E6000F7BEF7BEF7BEF7BEF7BEF7BEF7BEF7BECA
:101E7000F7BEF7BEF7BEF7BEF7BEF7BEF7BEF7BEBA
:101E8000F7BEF7BEF7BEF7BEF7BEF7BEF7BEF7BEAA
:101E9000F7BEF7BEF7BEF7BEFFBEF7BEF7BFF7BF90
:101EA000F71BA3CCABAAB3CAB3EAB3EBB3EBA38AD9
:101EB000AC2DEEF9FFFFFFDEF7BEEFBFEFBFEFBFC8
:101EC000FFDEDDF4E5D1EDB0EDD1EDD1EDD1E5D121
:101ED000E5F2E613E633EE54E634EE54EE54EE54F7
:101EE000EE54EE54EE54EE54EE54EE33E5F2DD9142
:101EF000CD2FCD0FD50ED50ED4EDDD2EDD2EC46C3D
:101F0000ABCA9B279B28AB89B3AABC0BB3CA69A2F7
:101F10007A048266A3CAC4EFCD50D591DDB1CD2F2E
:101F2000D550D55082A6BC8DC50FCD50D570D5915A
:101F3000E5D1D550C4CEC4EEC4CECD0FA3AA82C67F
:101F4000D550E5D2DDB2E5F3D530ABEBA3CBABCBCF
:101F5000A3CAABCBA3AAA3AAA38A9B6A93298B0883
:101F60008AC87A46720572257224722561C37A4640
:101F70009B28A369A327AB89C42CD4CEE52FDD0F02
:101F8000D52ECD0ED52FD54FD570E5D1EE53EE54CD
:101F9000E634EE54EE54EE54E654E654EE54EE5469
:101FA000EE34E633EE33E613E5F2E5D2E5D1EDF1BA
:101FB000E5F1E5D2D5B3FFFDF79DF7DFEFDFEF7E6B
:101FC000FFDFFFFFEED9AC4EA38AB40BAC2BABCA3C
:101FD000B3CAABA9A3CBF71AFFDEF7BEF7BEF7BEB5
:101FE000F7BEF7BEF7BEF7BEF7BEF7BEF7BEF7BE49
:101FF000F7BEF7BEF7BEF7BEF7BEF7BEF7BEF7BE39
:10200000F7BEF7BEF7BEF7BEF7BEF7BEF7BEF7BE28
:10201000F7BEF7BEF7BEF7BEF7BEF7BEF7BEF7BE18
:10202000F7BEF7BEF7BEF7BEF7BEF7BEF7BEF7BE08
:10203000F7BEF7BEF7BEF7BEF7BEF7BEF7BEF7BEF8
:10204000F7BEF7BEF7BEF7BEF7BEF7BEF7BEF7BEE8
:10205000F7BEF7BEF7BEF7BEF7BEF7BEF7BEF7BED8
:10206000F7BEF7BEF7BEF7BEF7BEF7BEF7BEF7BEC8
:10207000F7BEF7BEF7BEF7BEFFBEF7BEF7BFFFBFA6
:10208000EEFAA3CB8285B3EAB3EBABCABBEABBC91A
:10209000B3CA9BABC574FFFFFFFEF7BEEFDFEFBF18
:1020A000FFDFFF5BD570E5B1E5D1EDD1EDD1EDD12D
:1020B000E5D1E5F2E613E613E613EE33EE33EE5424
:1020C000EE33EE54EE33EE33EE13DD91D550D52FD3
:1020D000D52FCD2FCD0EDD4FD52FBC6CABC9ABA905
:1020E000ABA9B3C9B3AAB3CAB3CAB3CAB3CA9B49EB
:1020F00069C38AA7AC0CC4EFD550D591D570CD4F2C
:10210000CD2FC4AE9328CCEFCD0FD570D591DDD1B6
:10211000DD91CD0FC4CECD0FCCEFBC6D82C6D551B5
:10212000D550D550D571DD91DD91B42CB42CAC0BCC
:10213000AC0BAC0BAC0BAC0BABEBA3AA9B69930841
:1021400082A87A467A257A257A047A048245B40BE5
:10215000BC0BB3CAB3CAABAAABA9AB89BBEAD4EE7A
:10216000D52FD52FD4EED50ED52ED52FDD90EE134D
:10217000EE54EE33EE33EE33EE33E633EE33EE135E
:10218000E613E613E5F2E5F2E5D2E5F2EDF2E5B0AD
:10219000E5D2D572FF5AFFDEF79EEF9DF7BEFFFF37
:1021A000FFFFC5539BCCABEBBC0ABBEAABEAABEA87
:1021B000ABC98AA5A3CBEEF9FFBDF7DFF7BEF7BE2B
:1021C000F7BEF7BEF7BEF7BEF7BEF7BEF7BEF7BE67
:1021D000F7BEF7BEF7BEF7BEF7BEF7BEF7BEF7BE57
:1021E000F7BEF7BEF7BEF7BEF7BEF7BEF7BEF7BE47
:1021F000F7BEF7BEF7BEF7BEF7BEF7BEF7BEF7BE37
:10220000F7BEF7BEF7BEF7BEF7BEF7BEF7BEF7BE26
:10221000F7BEF7BEF7BEF7BEF7BEF7BEF7BEF7BE16
:10222000F7BEF7BEF7BEF7BEF7BEF7BEF7BEF7BE06
:10223000F7BEF7BEF7BEF7BEF7BEF7BEF7BEF7BEF6
:10224000F7BEF7BEF7BEF7BEF7BEF7BEF7BEF7BEE6
:10225000F7BEF7BEF7BEF7BEF7BEF7BEF7BFFFDEAD
:10226000E6B9A3AB7A249B28B40BB3EABC0ABC0A38
:10227000B3EAB42C9BAB9C0DEED8FFFEFFFFF79E9C
:10228000F7BEFFBDFF5ACD51DD91DD91EDF2EDD1ED
:10229000EDF2E5F2DDF2E5F2E5F2E5F2EE12E5F25D
:1022A000E5F2EE12EE13E5D2D530CD0FD52FD50FD6
:1022B000D50ED52FD52FBCADA3CAA3A9A3AAABCA4F
:1022C000ABCAB3CAB3EAB3EAB3EAB3EBB42CAC0C0F
:1022D0007226932ABC6DCD30D570D5B1CD70CD4F5F
:1022E000D550ABEBA3AAC4EFCD50CD70D5B1DDB1C5
:1022F000CD2FCCEFCD0FCD0FD5507AC6C4CED57033
:10230000D550D591D591DDB2DD91B44CBC8DB44C96
:10231000BC6DBC4CB44DB42CAC0BA3CA9B699308E8
:102320008AE87A4672257A267A2571E3B3CABC0B0D
:10233000ABEBABEBB3CBABCAABCAABCAA389A3685D
:10234000BC0BD4EED50ED4EED50ED50ED50ECD2FBA
:10235000E5D2EE13E5F2E612E612E632E613E5F216
:10236000E5F2E5D2E5D2E5F2E5F2E5D1E5B1E5D277
:10237000CD72F6FAFFFFF77DFFBEFFFEFFFEEED93E
:102380009BED9BABB40CBC0BBC0ABBEAAC0BB40B17
:102390009B077A44A3CBEEB9FFDEF7BEF7BEF7BECC
:1023A000F7BEF7BEF7BEF7BEF7BEF7BEF7BEF7BE85
:1023B000F7BEF7BEF7BEF7BEF7BEF7BEF7BEF7BE75
:1023C000F7BEF7BEF7BEF7BEF7BEF7BEF7BEF7BE65
:1023D000F7BEF7BEF7BEF7BEF7BEF7BEF7BEF7BE55
:1023E000F7BEF7BEF7BEF7BEF7BEF7BEF7BEF7BE45
:1023F000F7BEF7BEF7BEF7BEF7BEF7BEF7BEF7BE35
:10240000F7BEF7BEF7BEF7BEF7BEF7BEF7BEF7BE24
:10241000F7BEF7BEF7BEF7BEF7BEF7BEF7BEF7BE14
:10242000F7BEF7BEF7BEF7BEF7BEF7BEF7BEF7BE04
:10243000F7BEF7BEF7BEF7BEF7BEF7BFF7BFFFDECA
:10244000E6B8A3CB72248265B42BB40BB40AB40BE8
:10245000B42BB40BBC4CB40B9B8AC531FF9CFFFF63
:10246000FF9DFFBEFFDEF719CD71DDD2DD90E5D017
:10247000E5D1EE12E612E5D2E5D1E5D1E5F2E5F2DD
:10248000E5F1E5F2E5B1D50FCD0FD52FCCEED52F87
:10249000DD4FC4ADABEAA3A9A3CAABEAABEAABEA92
:1024A000ABEAB3EAB40BB40BB40BB40BB44CB42C1E
:1024B00082C79B6AC4CED550D571D591CD50CD2F52
:1024C000D5709B69C48ECCEFD570D571D5B1D59040
:1024D000CD0FCD0FD52FD530AC0BA3CACD50C4EF47
:1024E000D591D5B1D5D1DDD2CD50B46DBC8DBC8DDB
:1024F000BC8DBC8DBC6DBC4CB40CABCB9B69930844
:102500008AC87A667A267A467A2571C3C46DB40B76
:10251000B40BB40BABEBB40BABEBA3CAABEBABCADA
:10252000AB89A389BC4CD52FD52FD50FD52FD52F4F
:10253000CD0EE5B1EDF2E5F2E5F2E5F2E5F2E5D238
:10254000E5D2E5F2EDF2E5D1E5D1E5B1E5B1C55170
:10255000EED8FFFEF7BEFFBEFFFFFF9BC531A3CB4A
:10256000ABEBBC2CBC0BBC0BB40BB40BB42CBC0B3A
:1025700082657A24A3ABE698FFDFF79EF7BEF7BE2D
:10258000F7BEF7BEF7BEF7BEF7BEF7BEF7BEF7BEA3
:10259000F7BEF7BEF7BEF7BEF7BEF7BEF7BEF7BE93
:1025A000F7BEF7BEF7BEF7BEF7BEF7BEF7BEF7BE83
:1025B000F7BEF7BEF7BEF7BEF7BEF7BEF7BEF7BE73
:1025C000F7BEF7BEF7BEF7BEF7BEF7BEF7BEF7BE63
:1025D000F7BEF7BEF7BEF7BEF7BEF7BEF7BEF7BE53
:1025E000F7BEF7BEF7BEF7BEF7BEF7BEF7BEF7BE43
:1025F000F7BEF7BEF7BEF7BEF7BEF7BEF7BEF7BE33
:10260000F7BEF7BEF7BEF7BEF7BEF7BEF7BEF7BE22
:10261000F7BEF7BEF7BEF7BEF7BEF7BFF7BFFFBE08
:10262000EEB8A3AA7A2469E3ABEAAC0BAC2BAC2BD3
:10263000B42BBC2BBC2ABC2ABC2BAC0CA3ECDE16E6
:10264000FFFFFFFFEFDFFFDDF6F8C530DD90DD9027
:10265000DD90DDB1E5F2EE12EDF2E5F2E5D1E5D285
:10266000EE12E5D1CD0FD52FD52FCCEEDD4FD50E07
:10267000BC0BABA9ABC9ABE9ABC9ABEAB3EAB40AD3
:10268000B3EAB40AB40BB40AB40AB42AB40AB40B59
:10269000ABAAA389C4CFD550D571D591CD2FCD4F3D
:1026A000D5708B07C4CFC4EFD550DDD2DDB1CD508E
:1026B000CD2FD550D50FDD508B27BC8DCD0FCD50F4
:1026C000D591D591DDD2DDD2BCCEC4CEC4CEC4AEC0
:1026D000C4AEC4ADC4AEBC6DB40CA3CB9B699308AF
:1026E000828672457A467A267A268AC8BC4DB40B11
:1026F000B40BB40AB40AB40AB40AABEAABEAABCA84
:10270000B3CAABCAA3A9ABCAC4ADD550CD0FCD0FC8
:10271000D52FCD0EE5B1EDF2E5D1E5F2E5F1EE1301
:10272000EDF2E5D1DD91DD90E570E56FCD0FF6F8C6
:10273000FFDEFFBFF7FFFFFFCDF6A42DAC0BBC0AF9
:10274000C42BBC0ABC0AB40BAC0CAC0CB3EBBC2C59
:1027500071E37A04A3ACEEB9FFBFF7BFF7BEF7BED3
:10276000F7BEF7BEF7BEF7BEF7BEF7BEF7BEF7BEC1
:10277000F7BEF7BEF7BEF7BEF7BEF7BEF7BEF7BEB1
:10278000F7BEF7BEF7BEF7BEF7BEF7BEF7BEF7BEA1
:10279000F7BEF7BEF7BEF7BEF7BEF7BEF7BEF7BE91
:1027A000F7BEF7BEF7BEF7BEF7BEF7BEF7BEF7BE81
:1027B000F7BEF7BEF7BEF7BEF7BEF7BEF7BEF7BE71
:1027C000F7BEF7BEF7BEF7BEF7BEF7BEF7BEF7BE61
:1027D000F7BEF7BEF7BEF7BEF7BEF7BEF7BEF7BE51
:1027E000F7BEF7BEF7BEF7BEF7BEF7BEF7BEF7BE41
:1027F000F7BEF7BEF7BEF7BEF7DEF7DEF7BFFFBEE8
:10280000EED9A3EC720479E58AC6BC2CAC0BB40BF0
:10281000B42CB42BB42BBC2BB44BBC2BBC4CA3AAF8
:10282000B44DEEB8FFFDF7FFF7FFF77BD570E52D50
:10283000E54ED54FCD50E550E590E5D1E612EE32AC
:10284000E5D0D4EEDD0FD52FD50FD52FC4ADABCA53
:10285000A3A9ABCAB3EAB3CAB3EAB3EAB3EAB3EB28
:10286000B3EBB3EBB40BB40BB42BB42BBC4BB44CE9
:10287000A3AAA38ABCCDCD4FD570D550CD2FCD30D6
:10288000CD309348BC6DCD0FD571DDB1DD91D55004
:10289000D550D570D530C4CE9BCAC50FCD2FD5919C
:1028A000D5B1DDD2DDD2C50EC50ECD0FC4EECCEE56
:1028B000CCEECCEEBC8DB42CB40BA3CA9B4982A643
:1028C0007A467A467A667A457204B40CBC4CB42BCC
:1028D000BC2BBC0BB40BB40BB40BB40BB40BB40BD0
:1028E000B3EAB3EAABEAABCAA368BC2BD50FD4EE0C
:1028F000D50ED50FCD0FE5B1EE13E5D2E5F2D5B289
:10290000D570DD2FE56FE54FD570C550F73AFFFF65
:10291000FFFFFFFEF6D8AC2CA3EABC4BBC4CBC4C72
:10292000B44BB42BB42BB42BB40BB42BB42C92E714
:1029300071E38245A3ABEED9F7DEF7DFF7BEF7BE52
:10294000F7BEF7BEF7BEF7BEF7BEF7BEF7BEF7BEDF
:10295000F7BEF7BEF7BEF7BEF7BEF7BEF7BEF7BECF
:10296000F7BEF7BEF7BEF7BEF7BEF7BEF7BEF7BEBF
:10297000F7BEF7BEF7BEF7BEF7BEF7BEF7BEF7BEAF
:10298000F7BEF7BEF7BEF7BEF7BEF7BEF7BEF7BE9F
:10299000F7BEF7BEF7BEF7BEF7BEF7BEF7BEF7BE8F
:1029A000F7BEF7BEF7BEF7BEF7BEF7BEF7BEF7BE7F
:1029B000F7BEF7BEF7BEF7BEF7BEF7BEF7BEF7BE6F
:1029C000F7BEF7BEF7BEF7BEF7BEF7BEF7BEF7BE5F
:1029D000F7BEF7BEF7BEF7BEF7DEF7BEF7BEFFBE27
:1029E000EEF9A40C7A457A057204BC4CABEBB40B3F
:1029F000B42CB42BBC4CB42CB44CBC4CBC4CC46DEF
:102A0000B40CA40CC531EF1AFFFFFFFEFF5AD5D35B
:102A1000CD50D570DD70D50FD52FD54FD56FD56F73
:102A2000D54FCCEED50ED50FD50FBC4CABA9A3A975
:102A3000ABCAABEAB3EAB3EBB3EBB3EBB40BB40B97
:102A4000B40BB40BB40CB42BB42BB44BBC4CBC6C5B
:102A50009B8AAC0BC4EECD2FCD4FCD2FC4EFC50F4D
:102A6000B46D9348BC8DCD0FD570DD91D590D55008
:102A7000D550D550D550B46CA3EAC4EECD30D59125
:102A8000DDB1DDB1CD2FCD2FCD4FCD2FCD2FCD0F42
:102A9000CD0FC4CEBC6DB42CAC0B9B6982A77A451C
:102AA0007A467A6672257204A38AC48DB42BBC4C14
:102AB000B42BB42BB42BB42BB42BB40BB40BB40B7E
:102AC000B40BB40BABEAABEAB3EAA389B40BCCCD3D
:102AD000D50FD50FCD0FCD0FDD90D550D52FD54FBC
:102AE000D54FDD4FDD50CD30D5B3FF7BFFFEFFFF6F
:102AF000F71BC532A40DB44CC4ADBC2BBC4CBC4CB4
:102B0000BC4CB42BB42BB42BB42BAC0AB42C7A250C
:102B10007A047A24A3CCEEFAF7DEEFDFF7BEF7BE35
:102B2000F7BEF7BEF7BEF7BEF7BEF7BEF7BEF7BEFD
:102B3000F7BEF7BEF7BEF7BEF7BEF7BEF7BEF7BEED
:102B4000F7BEF7BEF7BEF7BEF7BEF7BEF7BEF7BEDD
:102B5000F7BEF7BEF7BEF7BEF7BEF7BEF7BEF7BECD
:102B6000F7BEF7BEF7BEF7BEF7BEF7BEF7BEF7BEBD
:102B7000F7BEF7BEF7BEF7BEF7BEF7BEF7BEF7BEAD
:102B8000F7BEF7BEF7BEF7BEF7BEF7BEF7BEF7BE9D
:102B9000F7BEF7BEF7BEF7BEF7BEF7BEF7BEF7BE8D
:102BA000F7BEF7BEF7BEF7BEF7BEF7BEF7BEF7BE7D
:102BB000F7BEF7BEF7BEF7BEF7BEF7BEF7BFFFBE64
:102BC000F73A9C0C7A4679E569E39B48BC6DB42CD6
:102BD000B42BB42BB44CBC2BB44CBC4CBC4CC46C10
:102BE000BC6CB46DAC4DB42CD592FFFDFFFFFFFF64
:102BF000DE77BCCED50DD570D550D52FD50FD50EDF
:102C0000CD0ECD0ED52FD50FBC4CA3A9ABCAB3EAC0
:102C1000B40BB3EAB3EBB40BB40BB40BBC0BB40BF7
:102C2000BC2BBC2BBC2CBC2CBC4BBC4CBC4CBC8DA6
:102C30009B69B42CC4CECD0ECD0FC50FC4EFC4EF2D
:102C40009BAA9B89C4CECD30D591DD91D570D5504E
:102C5000D550D550DD719BCAB44CC4EED550DDB112
:102C6000DDB1CD50CD2FD570CD2FCD0FD54FD54F58
:102C7000D530CD0FC4AEABEB93087A6672257A6679
:102C80007A45720469E3ABCBC48EBC4CBC6CBC4CC3
:102C9000BC4CBC4CBC2BBC2BB42BB42BB42BB40BFA
:102CA000B40BB40BB40BABEAABCAABEAABCAABCA5E
:102CB000CCADD50FCCEED50FCD0ECD0ED52FDD0D75
:102CC000DD2ECD0FC4CFDE15FFFEFFFFFFFED5B416
:102CD000A40DAC4EB46EB44CBC4CBC4BBC4CBC4C08
:102CE000BC4CB42BBC4CABEAB42BBC6C934969C351
:102CF0007A247A45AC0DF73BF7BEEFBFF7BEF7BEBF
:102D0000F7BEF7BEF7BEF7BEF7BEF7BEF7BEF7BE1B
:102D1000F7BEF7BEF7BEF7BEF7BEF7BEF7BEF7BE0B
:102D2000F7BEF7BEF7BEF7BEF7BEF7BEF7BEF7BEFB
:102D3000F7BEF7BEF7BEF7BEF7BEF7BEF7BEF7BEEB
:102D4000F7BEF7BEF7BEF7BEF7BEF7BEF7BEF7BEDB
:102D5000F7BEF7BEF7BEF7BEF7BEF7BEF7BEF7BECB
:102D6000F7BEF7BEF7BEF7BEF7BEF7BEF7BEF7BEBB
:102D7000F7BEF7BEF7BEF7BEF7BEF7BEF7BEF7BEAB
:102D8000F7BEF7BEF7BEF7BEF7BEF7BEF7BEF7BE9B
:102D9000F7BEF7BEF7BEF7BEF7BEF7BEF7BFFFBF81
:102DA000FFDDA46E82A779E47A4569C3ABEBB42C4E
:102DB000B42CB42BBC4BB44BBC4CBC4CC46CC46DDD
:102DC000BC4CC4ADBC8DC44BBC0A9BABC594FFBE10
:102DD000FFFFFFDCD5B3BD0FC52FD530D50FD4EF26
:102DE000D4EECD0EC4EEABEAA389B40BB3EAB40BB8
:102DF000B40BB40BB42BB42BB42BB42BB42BBC2B13
:102E0000BC4BBC4CBC4CBC4CBC4CBC6CBC6CBC6C23
:102E1000A38AABEBBCCEC4CEBCCEC4AEC4CFBC8DFB
:102E20008307A3EBC4EECD50D571D591D570CD50AD
:102E3000D570D570DD919369C4CECD0FD571DDB15C
:102E4000D591CD50D570D570D550D570CD30C4EF5B
:102E5000C48EA3CB8B087A667A457A457A4572256B
:102E600082869B69D50FCCCEBC6CBC6CBC6CBC6C38
:102E7000BC6CBC4CBC4CBC4CB42BB42BB42BB42B96
:102E8000B42BB42BB40BB42BB40BB3EAB3EAABCA78
:102E9000A389C46CD50ED4EED4EDD50ED50ED50FC6
:102EA000C4CFCD94FF9CFFFFFF9CCD949BABAC0B9C
:102EB000CCCEBC4CC48DC48DBC6CBC6CBC4CBC4C6E
:102EC000BC4CB42BB42BB40BBC4CABEB69E47A45D3
:102ED000720482A7AC4FFF9DFFDFF7BFF7BEF7BEBE
:102EE000F7BEF7BEF7BEF7BEF7BEF7BEF7BEF7BE3A
:102EF000F7BEF7BEF7BEF7BEF7BEF7BEF7BEF7BE2A
:102F0000F7BEF7BEF7BEF7BEF7BEF7BEF7BEF7BE19
:102F1000F7BEF7BEF7BEF7BEF7BEF7BEF7BEF7BE09
:102F2000F7BEF7BEF7BEF7BEF7BEF7BEF7BEF7BEF9
:102F3000F7BEF7BEF7BEF7BEF7BEF7BEF7BEF7BEE9
:102F4000F7BEF7BEF7BEF7BEF7BEF7BEF7BEF7BED9
:102F5000F7BEF7BEF7BEF7BEF7BEF7BEF7BEF7BEC9
:102F6000F7BEF7BEF7BEF7BEF7BEF7BEF7BEF7BEB9
:102F7000F7BEF7BEF7BEF7BEF7BEF7BEF7BFF7BFA7
:102F8000FFFEACAF8B087A057A2571E482A6BC4DB2
:102F9000B40BB42BB42BBC4CBC4CBC4CBC4CC46C64
:102FA000C46CBC6CC48CC48DC48EC48EB44DB46E61
:102FB000D5F5FFBDFFFFE6F7C550BC8ED4EFD4EFCB
:102FC000D4EFCD0EA3EAABCAB3EAB3EAB40BB40BA9
:102FD000B40BB40BB42BB42BB42BB42BBC2BBC4C08
:102FE000BC4CBC4CBC4CBC6CBC6CBC6CBC6CBC8DE0
:102FF000A3AAABCBBC8DC4AEBCAEC4AEBC8DABEB98
:1030000082C79BAAC4CECD50D591D591D570D5702D
:10301000D570D550D5509B89B48DCD0FD571DDB10C
:10302000CD70CD6FD570CD2FD571D550D550CCEF9B
:10303000A3AB82867A657245720482869308ABCB15
:10304000C4ADCCCEC48DBC6CC48DC46CBC6CBC6C2B
:10305000BC6CBC4CBC4CBC4CBC4CBC4CBC4CB42B39
:10306000B42BB42BB42BB40BB40BB40BB40BAC0B10
:10307000ABEBABA9C46CD4EECCEED50FBCADCD118F
:10308000E6B8FFFFFFBDD615B48FB44DC48DC4ADF7
:10309000C46CC48DC46CC46CC44CC46CBC6CBC4CDF
:1030A000BC4CB42CBC4CB42CBC4D82867225720531
:1030B00072048B08AC8FFFFEF7BEF7BFF7BEF7BEFA
:1030C000F7BEF7BEF7BEF7BEF7BEF7BEF7BEF7BE58
:1030D000F7BEF7BEF7BEF7BEF7BEF7BEF7BEF7BE48
:1030E000F7BEF7BEF7BEF7BEF7BEF7BEF7BEF7BE38
:1030F000F7BEF7BEF7BEF7BEF7BEF7BEF7BEF7BE28
:10310000F7BEF7BEF7BEF7BEF7BEF7BEF7BEF7BE17
:10311000F7BEF7BEF7BEF7BEF7BEF7BEF7BEF7BE07
:10312000F7BEF7BEF7BEF7BEF7BEF7BEF7BEF7BEF7
:10313000F7BEF7BEF7BEF7BEF7BEF7BEF7BEF7BEE7
:10314000F7BEF7BEF7BEF7BEF7BEF7BEF7BEF7BED7
:10315000F7BEF7BEF7BEF7BEF7BDF79EF7BFF7BFE6
:10316000FFFEC593936971E47A257A4669C49B4949
:10317000C48DB42BB44BBC6CBC4BBC4CBC4CBC4DD8
:10318000BC6DBC6CC48CBC8EBC8EC48DCC8CC46C31
:10319000BC8DAC8FCE37FFFDFFFCF6B7BC6DBC6DB0
:1031A000CCEFABEBA3CAABEAB3EAB40BB40BB40BF2
:1031B000B40BB40BB42BB42BB42BB42BBC4CBC4C05
:1031C000BC4CBC4CBC4CBC6CBC6CBC6CBC6CBC8DFE
:1031D000A38AA3CBBC4DBC6DBC6DBC6DB42C9B6AEB
:1031E00082A7A3AAC4CECD30D570D570D570D550E6
:1031F000D570D550CCEF9369B46CCD0FD570D59107
:10320000CD50CD4FCD6FD570D571DDB2BC6D8AE894
:103210007A457A656A047A65A3AABC6DC4CECCEF00
:10322000C4ADC48DBC6CBC6CC48CBC6DBC6CBC6CC3
:10323000BC6CBC6CBC6CBC6CB44CB44CB44CBC4CE6
:10324000BC2BBC2BB42BB42BB40BB40BB40BB40BF6
:10325000B40CABCAABA9C46CCD0FAC2CEE96FFFF7F
:10326000FFFED615B4B0B48EC48DCC8CCC8CC48D7E
:10327000C48CC48DBC6CBC6CBC6DBC6CBC4CBC6CDC
:10328000BC4CB42CB42CC48E9B2872047A467A258C
:1032900072049369CD93FFBDF79EF7BFF7BEF7BEEB
:1032A000F7BEF7BEF7BEF7BEF7BEF7BEF7BEF7BE76
:1032B000F7BEF7BEF7BEF7BEF7BEF7BEF7BEF7BE66
:1032C000F7BEF7BEF7BEF7BEF7BEF7BEF7BEF7BE56
:1032D000F7BEF7BEF7BEF7BEF7BEF7BEF7BEF7BE46
:1032E000F7BEF7BEF7BEF7BEF7BEF7BEF7BEF7BE36
:1032F000F7BEF7BEF7BEF7BEF7BEF7BEF7BEF7BE26
:10330000F7BEF7BEF7BEF7BEF7BEF7BEF7BEF7BE15
:10331000F7BEF7BEF7BEF7BEF7BEF7BEF7BEF7BE05
:10332000F7BEF7BEF7BEF7BEF7BEF7BEF7BEF7BEF5
:10333000F7BEF7BEF7BEF7BEFF9DFFBEF79FF7BF14
:10334000FFBEEED8A3CB7A057A267A267A4569C3E2
:103350009B68C48DB42BBC4BBC4BBC4CBC6DBC6DD2
:10336000BC6EBC8EBC8DBC8DBC8EC48DC48DCCADF2
:10337000BC8CC4CEB46CA40DD5F4FFDBFFFEEEB65E
:10338000A3EBB3AABBEBB40BB40BB42BB42BB42B91
:10339000B42BB42BBC4CBC4CBC4CBC4CBC4CBC6C1F
:1033A000BC6CBC6CC46DC46CC46CC48CC48DC4AE29
:1033B000A3AAA3AAB42CB44CB42CBC4DB42D93280E
:1033C00082C7A3AABCAECD0FD550CD30D54FD550B6
:1033D000D550D530B44C9B89BCCECD2FDD91D57066
:1033E000D570D570D570D590CD2FA3EB7A667225A8
:1033F000724582C6BC6DDD50CCEECCEEC4CDC4AD02
:10340000C4ADC4ADC4ADC4ADC48DC48DC48DC46DD4
:10341000BC8CBC6CBC6CBC6CBC6CBC6CBC6CB44C74
:10342000BC4CBC4CBC4CB42BB42BB42BB42BB40B49
:10343000B40CB40BB3EAA389CD30FFFFFFDDD59305
:10344000AC2DB44CC4CDC4ADC4ADC48DC4AEBCAD04
:10345000BC8DBC8DBC6DBC6DBC6DBC4DBC6CBC4C26
:10346000BC4BB42CC4AE9B6969C47A257A0572251D
:103470007265A3EBEEB7FFDDF79EF7BFF7BEF7BEB1
:10348000F7BEF7BEF7BEF7BEF7BEF7BEF7BEF7BE94
:10349000F7BEF7BEF7BEF7BEF7BEF7BEF7BEF7BE84
:1034A000F7BEF7BEF7BEF7BEF7BEF7BEF7BEF7BE74
:1034B000F7BEF7BEF7BEF7BEF7BEF7BEF7BEF7BE64
:1034C000F7BEF7BEF7BEF7BEF7BEF7BEF7BEF7BE54
:1034D000F7BEF7BEF7BEF7BEF7BEF7BEF7BEF7BE44
:1034E000F7BEF7BEF7BEF7BEF7BEF7BEF7BEF7BE34
:1034F000F7BEF7BEF7BEF7BEF7BEF7BEF7BEF7BE24
:10350000F7BEF7BEF7BEF7BEF7BEF7BEF7BEF7BE13
:10351000F7BEF7BEF7BEF7BEF7BEF7BEF7BFF7BF01
:10352000F7BEFFBCAC2D92C772057A267A467A4563
:1035300072049B89C48DBC4CBC4BBC6CBC6DBC6D17
:10354000BC6EBC8DBC8EC48DC48CC4ADC4AEBCADD1
:10355000C4AECCADCCCCC4D0B48FAC8ED5D2C5303B
:10356000A3AABBEBBBEBB40BB42BB42BBC2BBC2B77
:10357000BC2BBC2BBC4CBC4CBC6CBC6CBC6CBC6CCD
:10358000BC6CBC6CC46DC46DC48DC48DC4ADC4CEE4
:10359000A3AAA3AAAC0BAC0CB40CB40CAC0C8AE878
:1035A00082C7A3CBBC8DCD0FCD30CD0FCD2FCD2F6E
:1035B000CD2FCD0FA3CA9B89BCAECD2FD570CD50DA
:1035C000CD70D56FD570D570A3CA7A86722582A7C3
:1035D000B42CD50FCD0FC4CEC4CEC4ADC4CDC4CD94
:1035E000C4ADC4AEC4AEC4AEC48EC48DC48EC48ECD
:1035F000BC8DBC8DBC8CBC8CBC6CBC6CBC6CBC6C09
:10360000BC4CBC4CBC4CBC4BBC4BBC2BB42BB42CEE
:10361000B3EBB40BB42BB40BA40CCD72B4B0BC8E12
:10362000CCCEC4ADCCCDCCADC4ADC4AEBCAEBCADC7
:10363000BCADBC8DBC8DBC6DBC6DBC6DBC4CBC6CE4
:10364000BC4CC48D9B6971E47A467A25724672251A
:103650008AE7AC2CFFBCFF9DF7BFF7BFF7BEF7BEF4
:10366000F7BEF7BEF7BEF7BEF7BEF7BEF7BEF7BEB2
:10367000F7BEF7BEF7BEF7BEF7BEF7BEF7BEF7BEA2
:10368000F7BEF7BEF7BEF7BEF7BEF7BEF7BEF7BE92
:10369000F7BEF7BEF7BEF7BEF7BEF7BEF7BEF7BE82
:1036A000F7BEF7BEF7BEF7BEF7BEF7BEF7BEF7BE72
:1036B000F7BEF7BEF7BEF7BEF7BEF7BEF7BEF7BE62
:1036C000F7BEF7BEF7BEF7BEF7BEF7BEF7BEF7BE52
:1036D000F7BEF7BEF7BEF7BEF7BEF7BEF7BEF7BE42
:1036E000F7BEF7BEF7BEF7BEF7BEF7BEF7BEF7BE32
:1036F000F7BEF7BEF7BEF7BEF7BFF7BFF79FF79F5E
:10370000F7DEFFFDBCD0ABAB69E4722672267247D0
:10371000724672059B28C4ADBC6CBC4BBC4CC48DBE
:10372000BC6CC46DC46DC48DC48DC4ADC4ADC4AE19
:10373000C4AEC4AEC4CFC4CEC4ADD50FB40BA38940
:10374000B3EBB3EBB40BB40BBC2BBC2BBC2BBC2B23
:10375000BC4CBC4CBC4CBC6CBC6CBC6CBC6DBC8D67
:10376000BC8DBC8DBC8DBC8DBC8DC4ADBC8DC4ADC1
:10377000ABEA9348A3CAABEBABEBABEBA3AA8AE7EC
:1037800082C6A3CABC8DCCEFCD0FCD0FCD0FD530E7
:10379000D550BC8E8B089B69BC6DC4EFCD50CD2F2E
:1037A000CD2FD530D550ABEC7A6672459327CCEE51
:1037B000CD0EC4EEC4CEC4EEC4CEC4CEC4CEC4CEF0
:1037C000C4CEC4CEC4CEC4ADC4ADC4ADC4ADBCAD16
:1037D000C48DC48DC48DC48DBC6DBC6DBC6DBC6C02
:1037E000BC6CBC6CBC4CBC4CBC4CBC4BB44BB42B8C
:1037F000B42BB42BB40BB40BABEAABA9CCCECCEF4F
:10380000C4AEC4CEC4AEC4CEC4ADC4ADC4ADC4ADEC
:10381000C48DC48CBC8CBC8DBC6CBC4CC48EBC2C0C
:10382000CCCF932972047A457A467A46726769E466
:10383000B3CBC4F0FFFFF7BFF7BEF7BEF7BEF7BECE
:10384000F7BEF7BEF7BEF7BEF7BEF7BEF7BEF7BED0
:10385000F7BEF7BEF7BEF7BEF7BEF7BEF7BEF7BEC0
:10386000F7BEF7BEF7BEF7BEF7BEF7BEF7BEF7BEB0
:10387000F7BEF7BEF7BEF7BEF7BEF7BEF7BEF7BEA0
:10388000F7BEF7BEF7BEF7BEF7BEF7BEF7BEF7BE90
:10389000F7BEF7BEF7BEF7BEF7BEF7BEF7BEF7BE80
:1038A000F7BEF7BEF7BEF7BEF7BEF7BEF7BEF7BE70
:1038B000F7BEF7BEF7BEF7BEF7BEF7BEF7BEF7BE60
:1038C000F7BEF7BEF7BEF7BEF7BEF7BEF7BEF7BE50
:1038D000F7BEF7BEF7BEF7BEF7BEF7BEF7BFF7BF3E
:1038E000F7BEFFDDF739A3EC930772047A467A46F8
:1038F0007A26722572048AC6BC6DC4AEBC6DBC6CDF
:10390000BC6CC46CC48DC48CBCACC4ADC4ADC4AD03
:10391000C4CEC4AEC4CEC4CECCEEC48DABA9B3EB82
:10392000B40BBC0BBC0BB42BB42BBC4CBC4CBC4C74
:10393000BC4CBC4CBC6CBC6CBC6DBC6DBC8DBC8D43
:10394000BC8DBC8DC4ADC4ADC4ADC4ADC4AEC4AE3D
:10395000C4CE8B07A3AAABEBA3ABABEB934982A777
:1039600082A7A3AABC8DCD0FCCEFCCEECD0FCD0F8F
:10397000CCEFB44D82C79B69B44CC4EFCD2FCD0FB3
:10398000CD0FCD0FC4CF7A657A669B69DD91CD0EE0
:10399000CCEEC4EEC4EEC4EEC4EEC4CEC4CEC4CEEF
:1039A000C4CEC4CEC4CEC4CEC4CEC4AEC4ADC4ADE9
:1039B000C48DC48DC48DC48DC48DC48DBC6DBC6DCF
:1039C000BC6CBC6CBC6CBC4CBC4CBC4CBC4CBC4B58
:1039D000BC2BB42BB42BB40BB40BABEAB40BC4CEDE
:1039E000CCCFC4CEC4CEC4CEC4CDC4ADC4ADC4ADA2
:1039F000BC8DBC8DBC8DBC8DBC6DBC8DBC6DBC6DDF
:103A000082A672247A457A467A457A4672048AC733
:103A1000A3ABF73AFFBFEFDFF7BEFFBDF7BEF7BEC0
:103A2000F7BEF7BEF7BEF7BEF7BEF7BEF7BEF7BEEE
:103A3000F7BEF7BEF7BEF7BEF7BEF7BEF7BEF7BEDE
:103A4000F7BEF7BEF7BEF7BEF7BEF7BEF7BEF7BECE
:103A5000F7BEF7BEF7BEF7BEF7BEF7BEF7BEF7BEBE
:103A6000F7BEF7BEF7BEF7BEF7BEF7BEF7BEF7BEAE
:103A7000F7BEF7BEF7BEF7BEF7BEF7BEF7BEF7BE9E
:103A8000F7BEF7BEF7BEF7BEF7BEF7BEF7BEF7BE8E
:103A9000F7BEF7BEF7BEF7BEF7BEF7BEF7BEF7BE7E
:103AA000F7BEF7BEF7BEF7BEF7BEF7BEF7BEF7BE6E
:103AB000F7BEF7BEF7BEF7BEF7BEF7BEF79EF7BE7E
:103AC000EFBEF7DDFFFEAC90B40B7A247A247A4582
:103AD0007A457A467A467A457A45A3AACCCFC4AECF
:103AE000BC6CBC6CC48CC4ACBC8CC4ACC4ADC4AD2C
:103AF000C4ADC4CDC4CECCCECCCEABCAB42BB40BEB
:103B0000B40BBC0BBC2BB42BBC4CBC4CBC4CBC6C29
:103B1000BC6CBC6CBC6CBC8DBC8DBC8DBC8DC48DB8
:103B2000C4ADC4ADC4ADC4ADC4AEC4AEC4CEC4CEC9
:103B3000CCEEA3CA8B089B6AA3ABA38B8B087A86B7
:103B400093299B69B44CC4CEC4CEC4CEC4EFCCEF91
:103B5000C4AEABCB82A69349B44CC4EFC4EFC4EE61
:103B6000C4EED50FA3AA7A858B08D551CCEFCD0F23
:103B7000CCEECCEECCEECCEEC4EEC4EEC4EEC4EE95
:103B8000CCCEC4CEC4CEC4CEC4CEC4CEC4CEC4AEBD
:103B9000C4ADC4ADC4ADC48DC48DC48DC48DC48D3D
:103BA000C46DBC6CBC6CBC6CBC6CBC6CBC4CBC4C0C
:103BB000BC4CBC2BB42BB42BB42BB40BABEABC4C1D
:103BC000CCEFC4CEC4CEC4CEC4ADC4ADC4ADC4ADC0
:103BD000C48DBC8DBC6DBC6DC4AEC4AEABCB7A45E0
:103BE00072247A457A457A467A457A257A03B40C66
:103BF000BCB0FFFFEFBFEFDFF7BEFFBDF7BEF7BE04
:103C0000F7BEF7BEF7BEF7BEF7BEF7BEF7BEF7BE0C
:103C1000F7BEF7BEF7BEF7BEF7BEF7BEF7BEF7BEFC
:103C2000F7BEF7BEF7BEF7BEF7BEF7BEF7BEF7BEEC
:103C3000F7BEF7BEF7BEF7BEF7BEF7BEF7BEF7BEDC
:103C4000F7BEF7BEF7BEF7BEF7BEF7BEF7BEF7BECC
:103C5000F7BEF7BEF7BEF7BEF7BEF7BEF7BEF7BEBC
:103C6000F7BEF7BEF7BEF7BEF7BEF7BEF7BEF7BEAC
:103C7000F7BEF7BEF7BEF7BEF7BEF7BEF7BEF7BE9C
:103C8000F7BEF7BEF7BEF7BEF7BEF7BEF7BEF7BE8C
:103C9000F7BEF7BEF7BEF7BEF7BEF7BEFFBEF7BE74
:103CA000EFDEEFDEFFDEF73B9B89A3AA69A2826508
:103CB0007A457A45828772267A46720582A6BC4C7E
:103CC000CCEECCCDC48DC4ACC4ADC4ADC48DC4AD3C
:103CD000C4CDC4CEC4ADCCCEB40BABEAB40BB40BE4
:103CE000B42BBC2BBC2BBC4CBC4CBC4CBC6CBC4CDF
:103CF000BC6CBC6DBC6DBC8DBC8DC48DC48DC48DC5
:103D0000C4ADC4ADC4ADC4ADC4AEC4CEC4ADC4CEE8
:103D1000C4CECCEF9B6A82879B4A9B6A8AE8722555
:103D2000C48F9349B44CBC8DC4AEC4CEC4CFC4EFD1
:103D3000C4AE9B8A82A78B07AC0CBCAEC4CEBCAD14
:103D4000C4CEC4AE8B087A86C4AECD10CCEFCCEF17
:103D5000CD0FCCEECCEECCEECCEECCEEC4EEC4EE81
:103D6000CCEECCEEC4CEC4CEC4CEC4CEC4CEC4CE73
:103D7000C4CEC4ADC4ADC4ADC4ADC48DBC8DBC8D0A
:103D8000C48DC48DBC6DBC6CBC6CBC6CBC4CBC4CE0
:103D9000BC4CBC2BB42BB42BB42BB42BB40BABEA64
:103DA000C4CECCEEC4CEC4CEC4AEC4ADC4ADC4ADDE
:103DB000BC8DC48DCCEFCCEFB40C8AC772257A25AC
:103DC0007A657A457A457A457A4569C3B3CA9B8A4A
:103DD000F71AFFDFEFDFEFBFF7BEFFBDF7BEF7BE9D
:103DE000F7BEF7BEF7BEF7BEF7BEF7BEF7BEF7BE2B
:103DF000F7BEF7BEF7BEF7BEF7BEF7BEF7BEF7BE1B
:103E0000F7BEF7BEF7BEF7BEF7BEF7BEF7BEF7BE0A
:103E1000F7BEF7BEF7BEF7BEF7BEF7BEF7BEF7BEFA
:103E2000F7BEF7BEF7BEF7BEF7BEF7BEF7BEF7BEEA
:103E3000F7BEF7BEF7BEF7BEF7BEF7BEF7BEF7BEDA
:103E4000F7BEF7BEF7BEF7BEF7BEF7BEF7BEF7BECA
:103E5000F7BEF7BEF7BEF7BEF7BEF7BEF7BEF7BEBA
:103E6000F7BEF7BEF7BEF7BEF7BEF7BEF7BEF7BEAA
:103E7000F7BEF7BEF7BEF7BEF7BEF7BEFFBEF7BE92
:103E8000EFDEEFDEF7BEFFFFDDD4A3ECA3AA69E30C
:103E90007A4482667A467A877A6682667A4669C307
:103EA0008286B40BC48DC4CECCCEC4AEC4CEC4AD59
:103EB000C4ADC4ADCD0EC46CB3EAB40BB42BB42BFB
:103EC000B42BB42BBC2CBC4CBC4CBC6CBC4CBC6DE3
:103ED000BC6DC48DBC8DBC8DC4ADC4AEC4AEC4AD10
:103EE000C4AEC4CEC4CEC4CEC4CEC4CEC4CECCEE3A
:103EF000CCEECCEFDD51C4AF8AE77A457224B44DE5
:103F0000DD928B08B42CBC6DBC8EBC8EC4AEBCAE36
:103F1000BC6D8B0882A6A3CAA3AAB46DBC8DB46C79
:103F2000BCADB44D82C79328D550CD0FCD0FCD0F6A
:103F3000CD0FCD0FCD0FCD0FCD0FCD0FCD0FCCEEC3
:103F4000CCEFCCEFCCEECCEECCEECCEEC4CEC4CEEF
:103F5000C4CEC4CEC4CEC4CEC4CEC4ADC4ADC4AD34
:103F6000C48DC48DC48DC48DC48DBC6CBC4CBC6C64
:103F7000BC4CBC4CBC4CBC4CBC2BB42BB42BB40BBD
:103F8000AC0BC4CEC4AEC4CEC4AEC4CEC4CEC4CEBC
:103F9000CCCFC4AEABCB82A7720472257A667A46C8
:103FA000826682667A457A4571E4A38AABEBCDB42A
:103FB000FFFFEFBFEFBFF7BEF7BEF7BEF7BEF7BE1E
:103FC000F7BEF7BEF7BEF7BEF7BEF7BEF7BEF7BE49
:103FD000F7BEF7BEF7BEF7BEF7BEF7BEF7BEF7BE39
:103FE000F7BEF7BEF7BEF7BEF7BEF7BEF7BEF7BE29
:103FF000F7BEF7BEF7BEF7BEF7BEF7BEF7BEF7BE19
:10400000F7BEF7BEF7BEF7BEF7BEF7BEF7BEF7BE08
:10401000F7BEF7BEF7BEF7BEF7BEF7BEF7BEF7BEF8
:10402000F7BEF7BEF7BEF7BEF7BEF7BEF7BEF7BEE8
:10403000F7BEF7BEF7BEF7BEF7BEF7BEF7BEF7BED8
:10404000F7BEF7BEF7BEF7BEF7BEF7BEF7BEF7BEC8
:10405000F7BEF7BEF7BEF7BEF7BEF7BEFF9EF79EF0
:10406000EFBEEFDEF7BEFFBEFFDEB4D1AC0DA3AAFC
:10407000722372247A667A667A46826682668266DD
:104080007A45720482869B49B42CC4AECCEFD5101D
:10409000CCEECCCEC4ADB3EBB3EBBC2BB40BB42B9A
:1040A000B42BBC4CBC4CBC4CBC8DBC8DBC8DBC6D15
:1040B000BC6DBC8DC4ADC4ADC4ADC4ADC4ADC4CEC7
:1040C000C4CEC4CEC4CEC4CEC4CEC4CECCEECCEE10
:1040D000CCEECCEEC4CECD0FC4CFB42CC4AED53014
:1040E000D5309B89A3CABC6DBC6DB46DBC8EBC8E33
:1040F000AC0B93288AC7C4CE9328AC2CB46CAC4CC0
:10410000B44CABEC82A6B42CD530CD0FCD0FCD1076
:10411000CD0FCD0FCD0FCD0FCD0FCD0FCD0FCD0FBF
:10412000CD0FCD0FCCEECCEFCCEECCEECCEEC4CEA2
:10413000C4CEC4CEC4CEC4CEC4AEC4CEC4CEC4AE2F
:10414000C4AEC4AEC4AEC48DBC8DC48DC48DC48D8C
:10415000C46CBC6CBC4CBC4CBC4CB42BB42BB42B52
:10416000AC0AB44CCD0FCCEECD0FCCEFC4AEB42C1A
:104170009B49828672257A457A867A867A467A665D
:104180007A667A4572257204A38AB42CB48FFFFF35
:10419000F79EF7DFF7BEFFBDF7BEF7BFF7BEF7BE6E
:1041A000F7BEF7BEF7BEF7BEF7BEF7BEF7BEF7BE67
:1041B000F7BEF7BEF7BEF7BEF7BEF7BEF7BEF7BE57
:1041C000F7BEF7BEF7BEF7BEF7BEF7BEF7BEF7BE47
:1041D000F7BEF7BEF7BEF7BEF7BEF7BEF7BEF7BE37
:1041E000F7BEF7BEF7BEF7BEF7BEF7BEF7BEF7BE27
:1041F000F7BEF7BEF7BEF7BEF7BEF7BEF7BEF7BE17
:10420000F7BEF7BEF7BEF7BEF7BEF7BEF7BEF7BE06
:10421000F7BEF7BEF7BEF7BEF7BEF7BEF7BEF7BEF6
:10422000F7BEF7BEF7BEF7BEF7BEF7BEF7BEF7BEE6
:10423000F7BEF7BEF7BEF7BEF7BFF7BFFF9FFF9E03
:10424000F7BEEFBEF79EFF9FFFDFFF7DA40DABEA39
:10425000B3E97A4369E372257A658266826682668B
:10426000828682867A467A457A457A459308A3AA59
:10427000BC6DD550BC6DB3EBBC0BBC0BB40BBC4BD5
:10428000BC4CBC6CBC8DBC6DAC0BABCBA3AA9B89EE
:10429000A3AAAC0BBC6CC48DCCCECCCEC4CEC4CE49
:1042A000C4CECCCEC4CECCCECCCECCEECCEECCEEEE
:1042B000CCEECCEFCD0FD52FCD0FD50FDD50CD0FE0
:1042C000D50FABEB9B8AB44DB42CB46DBC6DBC6DFB
:1042D000ABEB93089349DD719328A3CAAC2BAC2BAD
:1042E000AC2BA3CB82A7C4CED52FCD2FCD0FCD1015
:1042F000CD10CD0FCD0FCD0FCD0FCD0FCD0FCD0FDD
:10430000CD0FCD0FCD0FCCEFCCEECCEECCEECCEE76
:10431000CCEEC4EEC4CEC4CEC4CEC4CEC4CEC4CEC5
:10432000C4AEBC4CABCBA38AA3AAABCAABCBB40B79
:10433000BC4CC48DC48DBC4CBC4CBC4CB42BB42BFD
:10434000B42BAC0BC4ADC4CEA3AA8AE78286722577
:104350007A667A667A4682877A867A667A677A6732
:104360007225720471E4B3EBB3CAB3A9FFFDF7BEC3
:10437000F7FFEF9EFFBCFF9CF7BFEFDFF7BEF7BE76
:10438000F7BEF7BEF7BEF7BEF7BEF7BEF7BEF7BE85
:10439000F7BEF7BEF7BEF7BEF7BEF7BEF7BEF7BE75
:1043A000F7BEF7BEF7BEF7BEF7BEF7BEF7BEF7BE65
:1043B000F7BEF7BEF7BEF7BEF7BEF7BEF7BEF7BE55
:1043C000F7BEF7BEF7BEF7BEF7BEF7BEF7BEF7BE45
:1043D000F7BEF7BEF7BEF7BEF7BEF7BEF7BEF7BE35
:1043E000F7BEF7BEF7BEF7BEF7BEF7BEF7BEF7BE25
:1043F000F7BEF7BEF7BEF7BEF7BEF7BEF7BEF7BE15
:10440000F7BEF7BEF7BEF7BEF7BEF7BEF7BEF7BE04
:10441000F7BEF7BEF7BEF7BEF7BEF7BFF79FF7BE12
:10442000F7BEF7BEF7BEFF9EF77EFFFFFFFFBCF0B3
:10443000AC0CBC8DA38982657A2472247A457A6695
:104440007A667A6682877A867A867A867266724514
:104450006A047245A3CAB40BBC4CB40BBC4CBC6C14
:10446000BC6CB40BA3A99328932893289B489B6901
:104470009B689B699B689B89AC0BBC8DC4CEC4CEEA
:10448000CCCEC4CEC4EEC4EECCEECCEECD0FCD0F70
:10449000CD0FCD0FCCEECCEECD2FD530C4CED55038
:1044A000CD2FBCAE9328ABEBAC0CB42CB42DB42DFB
:1044B000A3CB8AE7B42CDD91BC8D8B07A3CA9BAA42
:1044C000A3CBA3AA8AE7CD0FD550D52FD52FD52FB3
:1044D000D52FCD2FCD2FCD2FCD2FCD2FCD2FCD0F14
:1044E000CD0FCD0FCD0FCD0FCD0FCD0FCCEECCEE30
:1044F000CCEEC4EEC4EEC4EEC4CEC4EEBCADB42B60
:10450000A38A93489B699B699B4993489328930787
:104510009327A3A9B40BBC6DBC6CB42BBC4CBC4C96
:10452000B40BB42B9B6861A272447A8582A682A7E1
:104530007A667A8682877A667A467A467A247A24F6
:104540008265A38AC4CFA40DBCF1FFFFFFDEF7BED6
:10455000EFBEFFDEFF9DFF9DF7BEF7BFF7BEF7BEC4
:10456000F7BEF7BEF7BEF7BEF7BEF7BEF7BEF7BEA3
:10457000F7BEF7BEF7BEF7BEF7BEF7BEF7BEF7BE93
:10458000F7BEF7BEF7BEF7BEF7BEF7BEF7BEF7BE83
:10459000F7BEF7BEF7BEF7BEF7BEF7BEF7BEF7BE73
:1045A000F7BEF7BEF7BEF7BEF7BEF7BEF7BEF7BE63
:1045B000F7BEF7BEF7BEF7BEF7BEF7BEF7BEF7BE53
:1045C000F7BEF7BEF7BEF7BEF7BEF7BEF7BEF7BE43
:1045D000F7BEF7BEF7BEF7BEF7BEF7BEF7BEF7BE33
:1045E000F7BEF7BEF7BEF7BEF7BEF7BEF7BEF7BE23
:1045F000F7BEF7BEF7BEF7BEF7BEF7BEF7BEF7BE13
:10460000F7BEF7BEF7BEF7BEF7BFEF7DFFBEFFDD1B
:10461000D5D4A3EBB42CBC6DABCB92E882867A45A3
:10462000722472047204720372036A246A2572454A
:104630007A86A3CABC4CB42BB42BB42CBC6DB42C5E
:10464000A3A9932793279B89ABEAAC0BB40BAC0BC4
:10465000AC0BABEAA3CAA3CAA3CAAC2BC4ADC4CEED
:10466000CCEFCCEEC4EECCEECCEECD0ECD0FCD0F1C
:10467000CD0FCD2FCD2FCD2FCD2FCD2FCD2FCD2F7A
:10468000CD2FD5509308A3AAABCBABEBAC0CB40D9C
:10469000A38B8AE7C4CED550DD919B8A8B089B699A
:1046A0009B8993498B08D530D550D52FD54FD54E02
:1046B000D54FCD2FCD2FCD2FCD2FCD2FCD2FCD0F12
:1046C000CD2FCD2FCD2FCD2FCD0FCD0FCD0FCD0F8A
:1046D000CD0FCCEECCEECCEEC4EEBCADAC0BA3CA91
:1046E000A3CAA3CAABEBAC0BB42CAC0BAC0BABEAC0
:1046F0009B8993289348A3A9BC6CBC8DB44CB42C63
:10470000BC2BB42BB42B9307722472446A0472043A
:1047100072247204720472057A2582A79328ABA9C9
:10472000C48DB42C9BECD616FFFEFFDEF7BEF7BEA1
:10473000F7BEF7BEF7BEF7BEF7BEF7BEF7BEF7BED1
:10474000F7BEF7BEF7BEF7BEF7BEF7BEF7BEF7BEC1
:10475000F7BEF7BEF7BEF7BEF7BEF7BEF7BEF7BEB1
:10476000F7BEF7BEF7BEF7BEF7BEF7BEF7BEF7BEA1
:10477000F7BEF7BEF7BEF7BEF7BEF7BEF7BEF7BE91
:10478000F7BEF7BEF7BEF7BEF7BEF7BEF7BEF7BE81
:10479000F7BEF7BEF7BEF7BEF7BEF7BEF7BEF7BE71
:1047A000F7BEF7BEF7BEF7BEF7BEF7BEF7BEF7BE61
:1047B000F7BEF7BEF7BEF7BEF7BEF7BEF7BEF7BE51
:1047C000F7BEF7BEF7BEF7BEF7BEF7BEF7BEF7BE41
:1047D000F7BEF7BEF7BEF7BEF7BEF7BEF7BEF7BE31
:1047E000F7BEF7BEF7BEF7BEF7BFF7DFFFDEFFBDD0
:1047F000FFFDFF5ABCF09BCBB40CC48EBC6DB42C37
:10480000B42CB3EBABCAABAAABEAABEBB40BB42C96
:10481000C46CBC2BBC2ABC4CB42CBC6DB40B9B48E8
:1048200093279B48ABEAB44CC4ADC4AEC4CEC4CE4F
:10483000C4CEC4CEBC8DB44CAC0BABEBB44CC4AD4D
:10484000CCEECCEECCEECD0FCD0FCD0FCD0FCD0FEE
:10485000CD0FCD2FCD0FCD2FCD2FCD2FCD2FCD2FB8
:10486000CD4FDD71A3AA9B899B8AABCBABEBABECA5
:104870009B8A8AE7D530CD30D550D55082C68B285B
:10488000936982C79BAAD571CD2FD54FD54FD54FF0
:10489000D54FCD2FCD4FCD4FCD2FCD2FCD2FCD2FD0
:1048A000CD2FD52FCD2FCD0FCD0FCD0FCD0FCD0FC0
:1048B000CD0FCD0FCD0FCCEEC4ADB44CAC0BAC0BCB
:1048C000B42CBC8DC4CEC4CEC4CEC4CEC4AEC4AD94
:1048D000BC4CABEAA3A993279B89B44CBC6CBC4CE1
:1048E000B42BB40BBC4BBC6CB44CAC2CABECABCA17
:1048F000ABCAABCAABCAB40CC44DC46DB44DB46E34
:10490000938AC531FF5BFFFEFFBEF79EF7BEF7BE81
:10491000F7BEF7BEF7BEF7BEF7BEF7BEF7BEF7BEEF
:10492000F7BEF7BEF7BEF7BEF7BEF7BEF7BEF7BEDF
:10493000F7BEF7BEF7BEF7BEF7BEF7BEF7BEF7BECF
:10494000F7BEF7BEF7BEF7BEF7BEF7BEF7BEF7BEBF
:10495000F7BEF7BEF7BEF7BEF7BEF7BEF7BEF7BEAF
:10496000F7BEF7BEF7BEF7BEF7BEF7BEF7BEF7BE9F
:10497000F7BEF7BEF7BEF7BEF7BEF7BEF7BEF7BE8F
:10498000F7BEF7BEF7BEF7BEF7BEF7BEF7BEF7BE7F
:10499000F7BEF7BEF7BEF7BEF7BEF7BEF7BEF7BE6F
:1049A000F7BEF7BEF7BEF7BEF7BEF7BEF7BEF7BE5F
:1049B000F7BEF7BEF7BEF7BEF7BEF7BEF7BEF7BE4F
:1049C000F7BEF7BEF7BEF7BEF7DFF7BEF7BEF79E3E
:1049D000FFBEFFBDFFFFFFBDDE15B4AFAC6EB48EF2
:1049E000AC4DB46DBCAEBCAFBCAFBCAFC4AEC4CEFE
:1049F000C46CB40ABC2ABC2BBC6CB40B93289B6956
:104A0000B40BC48DC48DC4ADC4ADBC8DC4ADC4AD38
:104A1000C4CECCCECCEECCEFC4CEBC8DBC6CBC8DA9
:104A2000CCEECCEFCD0FCD0FCD0FCD0FCD2FCD2FA9
:104A3000CD2FD52FCD2FCD2FCD2FCD4FCD4FD55025
:104A4000D550D550D5308B079B69A3AAA3AAA38ABA
:104A50009349A3CAD591DD91D570D591DDB1936904
:104A60008B078B28CD30D591CD2FD550D56FD56FF5
:104A7000D56FD550D550D550D550CD4FCD4FCD4F0A
:104A8000D52FCD2FCD2FCD2FCD2FCD0FCD0FCD0F9E
:104A9000CD0FCD0FCD0FCD0FBCADBC6CBCADC4EEFA
:104AA000CCEFCCEFC4CEC4CEC4CEC4AEC4ADC4CE65
:104AB000C4CEC4CEC4ADB44C9B899348B42CBC4C7A
:104AC000B42CBC2BB40BB40BC4CFBCAFBCAFBCAECE
:104AD000BCAEBC8EBC8EB46DB42DBC8EB511CDF603
:104AE000FFFEFFFFFFBEFFBEFFBFFFBFF7BEF7BE6B
:104AF000F7BEF7BEF7BEF7BEF7BEF7BEF7BEF7BE0E
:104B0000F7BEF7BEF7BEF7BEF7BEF7BEF7BEF7BEFD
:104B1000F7BEF7BEF7BEF7BEF7BEF7BEF7BEF7BEED
:104B2000F7BEF7BEF7BEF7BEF7BEF7BEF7BEF7BEDD
:104B3000F7BEF7BEF7BEF7BEF7BEF7BEF7BEF7BECD
:104B4000F7BEF7BEF7BEF7BEF7BEF7BEF7BEF7BEBD
:104B5000F7BEF7BEF7BEF7BEF7BEF7BEF7BEF7BEAD
:104B6000F7BEF7BEF7BEF7BEF7BEF7BEF7BEF7BE9D
:104B7000F7BEF7BEF7BEF7BEF7BEF7BEF7BEF7BE8D
:104B8000F7BEF7BEF7BEF7BEF7BEF7BEF7BEF7BE7D
:104B9000F7BEF7BEF7BEF7BEF7BEF7BEF7BEF7BE6D
:104BA000F7BEF7BEF7BEF7BEEFBEF7DFF7BFF7BF42
:104BB000F7BEF7BFF7BEFFDFFFFFFFFFFF9CE6F981
:104BC000E698DE56D615D5F5D616DE16E656E65626
:104BD000A3EBB42BB44BB42CB40B9B68A3AABC4C72
:104BE000BC6CC48DC48DC4ADC4ADC4ADC4AEC4CEA4
:104BF000C4CEC4CEC4CECCEECCEEC4CEC4ADC4AD17
:104C0000C4CECD0FCD0FCD0FCD0FCD2FCD0FCD2FCE
:104C1000D52FCD2FCD4FCD4FCD50CD50CD4FCD50E9
:104C2000D570CD50DDB29B898B079B699B8A9B69B0
:104C300082E7BCCED570D570CD50D570D570E5D299
:104C4000DDB1DDB2DD91D550D570D570D570D570A0
:104C5000D570D570D570D570CD50D570CD50CD4FA5
:104C6000D52FD550D52FCD2FD52FD52FCD2FCD2F1B
:104C7000CD0FCD0FCD0FCD0FC4CEC4CEC4EEC4EE3C
:104C8000C4CEC4CEC4CEC4CEC4CEC4AEC4AEC48D15
:104C9000C48DC48DBC8DBC8DBC4CA3CA9B89AC0B90
:104CA000BC6CBC2BBC2BB42BBCAFEE97DE35D63521
:104CB000D615D616DE36DE77EEF9FF9CFFFFFFFF36
:104CC000FFBEF7BEFFDFF7BFF79FF79FF7BEF7BE48
:104CD000F7BEF7BEF7BEF7BEF7BEF7BEF7BEF7BE2C
:104CE000F7BEF7BEF7BEF7BEF7BEF7BEF7BEF7BE1C
:104CF000F7BEF7BEF7BEF7BEF7BEF7BEF7BEF7BE0C
:104D0000F7BEF7BEF7BEF7BEF7BEF7BEF7BEF7BEFB
:104D1000F7BEF7BEF7BEF7BEF7BEF7BEF7BEF7BEEB
:104D2000F7BEF7BEF7BEF7BEF7BEF7BEF7BEF7BEDB
:104D3000F7BEF7BEF7BEF7BEF7BEF7BEF7BEF7BECB
:104D4000F7BEF7BEF7BEF7BEF7BEF7BEF7BEF7BEBB
:104D5000F7BEF7BEF7BEF7BEF7BEF7BEF7BEF7BEAB
:104D6000F7BEF7BEF7BEF7BEF7BEF7BEF7BEF7BE9B
:104D7000F7BEF7BEF7BEF7BEF7BEF7BEF7BEF7BE8B
:104D8000F7BEF7BEF7BEF7BEF7BFF7BFF7BEF7BF78
:104D9000F7BFF7BFEFBFEFBFF7BFF7BFF7FFFFFFEB
:104DA000FFFFFFFFFFFFFFFFFFDFFFFFFFFFCD93D1
:104DB000A40CAC4CB46DB40BABCAABCABC6CBC6D30
:104DC000C48DBC6DBC6DC48DC4ADC4ADC4ADC4AE2A
:104DD000C4CEC4CEC4CEC4EECCEECCEECCEECCEF82
:104DE000CCEFCD0FCD0FCD0FCD2FCD2FCD2FCD2F84
:104DF000D52FD52FCD50CD50D550D550D550D550DD
:104E0000D550D550D570D53082C68B2893698B2864
:104E10009349D571D590D570D570D570D570D570B2
:104E2000D570D570D570D570D570D570D570D5705A
:104E3000D570D570D550D550D550D550D550D5500A
:104E4000D52FD52FD52FCD2FD52FD52FCD2FCD2F5A
:104E5000CD0FCD0FCD0FCD0FCCEECD0FCD0FCCEEB6
:104E6000CCEECCEECCEEC4CDC4CEC4CDC4ADC4AD7E
:104E7000C48DC4ADC48DC48DC4ADBC6CABEBA3CA32
:104E8000B42CBC4BBC2BB42CA3ECFFDCFFFEFFFE10
:104E9000FFDEFFFFFFFFFFFFFFFFFFDEF7BEF7BEF6
:104EA000F7BFF7BFF7BFF7BFF7BFF7BFF7BEF7BE54
:104EB000F7BEF7BEF7BEF7BEF7BEF7BEF7BEF7BE4A
:104EC000F7BEF7BEF7BEF7BEF7BEF7BEF7BEF7BE3A
:104ED000F7BEF7BEF7BEF7BEF7BEF7BEF7BEF7BE2A
:104EE000F7BEF7BEF7BEF7BEF7BEF7BEF7BEF7BE1A
:104EF000F7BEF7BEF7BEF7BEF7BEF7BEF7BEF7BE0A
:104F0000F7BEF7BEF7BEF7BEF7BEF7BEF7BEF7BEF9
:104F1000F7BEF7BEF7BEF7BEF7BEF7BEF7BEF7BEE9
:104F2000F7BEF7BEF7BEF7BEF7BEF7BEF7BEF7BED9
:104F3000F7BEF7BEF7BEF7BEF7BEF7BEF7BEF7BEC9
:104F4000F7BEF7BEF7BEF7BEF7BEF7BEF7BEF7BEB9
:104F5000F7BEF7BEF7BEF7BEF7BEF7BEF7BEF7BEA9
:104F6000F7BEF7BEF7BEF7BEF7BEF7BEF7BEF7BE99
:104F7000F7BFF7BEF7BEF7BFF7BFF7BFF7BFF7BF83
:104F8000F7BFF7DFF7DFF7BFF7BFFF9DFF9C9BCCB5
:104F9000AC4CB44CB44CB40BABEABC4CBC6DBC6D6B
:104FA000C48DC4AEC4ADC4CEC4AEC4AEC4CECCEE0B
:104FB000CCCECCCECCEECCEECCEECCEECD0FCD0F1D
:104FC000CD0FCCEFCD2FCD2FCD2FD52FCD2FD52F52
:104FD000D52FD530CD4FD550D550D550D550D570D3
:104FE000D570D570D570DD91C50F8B0782E683072C
:104FF000CD10DDB1D570D570CD50D570D570D570D0
:10500000D570D570D570D570D570D570D570D57078
:10501000D570D550D570D570D550D550D550D55008
:10502000D550D550D550D52FD550D52FD52FD52FDC
:10503000CD2FCD0FCD0FCD0FCD2FCD0FCCEECD0F72
:10504000CD0ECD0EC4CEC4EEC4CEC4CEC4EEC4AE1E
:10505000C4AEC4ADC4ADBC8DBC8DBC8DBC8DAC0B21
:10506000B3EBC46CBC2BB42BA40CCD93FFBEF7DE0A
:10507000F7DFF7BFF7BEEF9EEF9EF7BFF7BFF7BEB4
:10508000F7BFF7BFF7BFF7BFF7BEFFBDF7BEF7BE6D
:10509000F7BEF7BEF7BEF7BEF7BEF7BEF7BEF7BE68
:1050A000F7BEF7BEF7BEF7BEF7BEF7BEF7BEF7BE58
:1050B000F7BEF7BEF7BEF7BEF7BEF7BEF7BEF7BE48
:1050C000F7BEF7BEF7BEF7BEF7BEF7BEF7BEF7BE38
:1050D000F7BEF7BEF7BEF7BEF7BEF7BEF7BEF7BE28
:1050E000F7BEF7BEF7BEF7BEF7BEF7BEF7BEF7BE18
:1050F000F7BEF7BEF7BEF7BEF7BEF7BEF7BEF7BE08
:10510000F7BEF7BEF7BEF7BEF7BEF7BEF7BEF7BEF7
:10511000F7BEF7BEF7BEF7BEF7BEF7BEF7BEF7BEE7
:10512000F7BEF7BEF7BEF7BEF7BEF7BEF7BEF7BED7
:10513000F7BEF7BEF7BEF7BEF7BEF7BEF7BEF7BEC7
:10514000F7BEF7BEF7BEF7BEF7BEF7BEF7BEF7BEB7
:10515000F7BEF7BEF7BEF7BEFF9EFF9EFFBEFFBEC7
:10516000F7BEFFBEF79EF79EFFBFFFDED615A3EC8E
:10517000B42CBC4BBC4BB42BBC4CBC6DBC6CC48DB8
:10518000C48DC48DC48DC4ADC4ADC4ADC4AEC4CED5
:10519000C4CEC4CECCCECCEECD0FCD0FCCEFCD0F48
:1051A000CD0FCD0FCD2FCD0FD52FD52FD52FD52F5F
:1051B000D52FD550D550D550D550D570D550D570A8
:1051C000D570D570D591CD50DDD2DDB2D550DDB2E0
:1051D000DDB2D570D570D590D591D570D590D590DC
:1051E000D570D590D590D590D570D590D591D591D5
:1051F000D570D570D570D570D570D550D550D550E7
:10520000D550D52FD530D52FD550D530D52FD52F3A
:10521000CD2FCD2FCD0FCD2FCD0FCD0FCD0FCD0F4E
:10522000CD0ECCEEC4EEC4CDC4CDC4CDC4CDC4AD82
:10523000C4ADC4ADC4ADC4ADC48DBC8DBC6DBC6DBE
:10524000BC4CC44CC44BBC4CA42D9C4FFFDEF7BEE1
:10525000F7BEF7BEF79EF7BFF7BFF79FFF9FF79E1A
:10526000F7BFF7BFF7BFF7BEFFBDFFBDF7BEF7BE85
:10527000F7BEF7BEF7BEF7BEF7BEF7BEF7BEF7BE86
:10528000F7BEF7BEF7BEF7BEF7BEF7BEF7BEF7BE76
:10529000F7BEF7BEF7BEF7BEF7BEF7BEF7BEF7BE66
:1052A000F7BEF7BEF7BEF7BEF7BEF7BEF7BEF7BE56
:1052B000F7BEF7BEF7BEF7BEF7BEF7BEF7BEF7BE46
:1052C000F7BEF7BEF7BEF7BEF7BEF7BEF7BEF7BE36
:1052D000F7BEF7BEF7BEF7BEF7BEF7BEF7BEF7BE26
:1052E000F7BEF7BEF7BEF7BEF7BEF7BEF7BEF7BE16
:1052F000F7BEF7BEF7BEF7BEF7BEF7BEF7BEF7BE06
:10530000F7BEF7BEF7BEF7BEF7BEF7BEF7BEF7BEF5
:10531000F7BEF7BEF7BEF7BEF7BEF7BEF7BEF7BEE5
:10532000F7BEF7BEF7BEF7BEF7BEF7BEF7BEF7BED5
:10533000F7BEF7BEF7BEF7BEF7BEF7BEF7BEF7BEC5
:10534000F7BEF7BEF7BEF7BFFFDFFFDDBC8EB40CC4
:10535000B44CBC4CC44BBC4CBC6CBC6DC48DBC8D43
:10536000BC8DBC8DBC6DC46EC48EBC8EBCAEBCAEE0
:10537000C4AEC4ADCCCECCEFCCEFCD10CD10CD0FA4
:10538000CD0FCD2FCD2FCD2FCD2FCD4FCD2FD55014
:10539000D550D550D550D550D570D550D570D57085
:1053A000D570D570D570D590D570D591DDB1D5912A
:1053B000D590D590D590D590D590D590D590D590C5
:1053C000D590D570D570D590D590D590D590D590F5
:1053D000D590D570D570D570D570D570D570D57085
:1053E000D570D570D550D550D550D550CD4FCD4F67
:1053F000D52FCD2FCD2FCD2FCD0FCD0FCD0FCD0F45
:10540000CCEEC4EEC4CEBCADC4ADC4AEC48DBC8DB8
:10541000C48DC48CC48CCC8CCC8CC4ADBC6CBC6D29
:10542000BC6CBC4CBC4CB44CB44CA3CAF6B7FFBE6D
:10543000F7BFEFBFF7BEFF9EFFBEF7BFF7BFF7BED8
:10544000F7BEF7BEF7BEF7BEF7BEF7BEF7BEF7BEB4
:10545000F7BEF7BEF7BEF7BEF7BEF7BEF7BEF7BEA4
:10546000F7BEF7BEF7BEF7BEF7BEF7BEF7BEF7BE94
:10547000F7BEF7BEF7BEF7BEF7BEF7BEF7BEF7BE84
:10548000F7BEF7BEF7BEF7BEF7BEF7BEF7BEF7BE74
:10549000F7BEF7BEF7BEF7BEF7BEF7BEF7BEF7BE64
:1054A000F7BEF7BEF7BEF7BEF7BEF7BEF7BEF7BE54
:1054B000F7BEF7BEF7BEF7BEF7BEF7BEF7BEF7BE44
:1054C000F7BEF7BEF7BEF7BEF7BEF7BEF7BEF7BE34
:1054D000F7BEF7BEF7BEF7BEF7BEF7BEF7BEF7BE24
:1054E000F7BEF7BEF7BEF7BEF7BEF7BEF7BEF7BE14
:1054F000F7BEF7BEF7BEF7BEF7BEF7BEF7BEF7BE04
:10550000F7BEF7BEF7BEF7BEF7BEF7BEF7BEF7BEF3
:10551000F7BEF7BEF7BEF7BEF7BEF7BEF7BEF7BEE3
:10552000F7BEF7BEF7BEF7BFF7DFF719A3EBB44C32
:10553000B44CBC4CBC6CBC4CBC6DC48DBC6DBC6C68
:10554000BC4CBC4CBC4CBC4DBC4CB46DB46DB46DCF
:10555000BC6CC46DC48DC4CEC4CFCCEFCD10CD30E7
:10556000CD2FD52FCD2FCD2FCD2FD550D550D550D8
:10557000D550D550D550D570D570D570D570D57063
:10558000D570D570D590D570D590D590D590D59053
:10559000D590D590D590D590D590D590D590D590E3
:1055A000D590D590D590D590D590D590D590D590D3
:1055B000D590D590D570D590D570CD70D570CD7073
:1055C000D570D570D570D550D550D550D550CD505B
:1055D000D52FD52FCD2FCD2FD52FCD0FCD0FCCCE75
:1055E000C4CDC4ADBC8DB48DBC8DBC6DBC4DB44DB3
:1055F000B46DBC6CBC4CBC6CBC8CBC8DBC8DBC8D0F
:10560000BC8DBC6CBC6CBC6CB42BB40BC4F0FFFE8A
:10561000F7DFEF9FFFDFFFBDFFBEF7BFF7BFF7BEAE
:10562000F7BEF7BEF7BEF7BEF7BEF7BEF7BEF7BED2
:10563000F7BEF7BEF7BEF7BEF7BEF7BEF7BEF7BEC2
:10564000F7BEF7BEF7BEF7BEF7BEF7BEF7BEF7BEB2
:10565000F7BEF7BEF7BEF7BEF7BEF7BEF7BEF7BEA2
:10566000F7BEF7BEF7BEF7BEF7BEF7BEF7BEF7BE92
:10567000F7BEF7BEF7BEF7BEF7BEF7BEF7BEF7BE82
:10568000F7BEF7BEF7BEF7BEF7BEF7BEF7BEF7BE72
:10569000F7BEF7BEF7BEF7BEF7BEF7BEF7BEF7BE62
:1056A000F7BEF7BEF7BEF7BEF7BEF7BEF7BEF7BE52
:1056B000F7BEF7BEF7BEF7BEF7BEF7BEF7BEF7BE42
:1056C000F7BEF7BEF7BEF7BEF7BEF7BEF7BEF7BE32
:1056D000F7BEF7BEF7BEF7BEF7BEF7BEF7BEF7BE22
:1056E000F7BEF7BEF7BEF7BEF7BEF7BEF7BEF7BE12
:1056F000F7BEF7BEF7BEF7BEF7BEF7BEF7BEF7BE02
:10570000F7BEF7BEF7BEF7BFFFDED5D4A3EBBC4DA7
:10571000B44CBC4CC44CBC6DBC6DBC6DBC4CBC4CE6
:10572000BC4CBC4CBC4CBC4BBC4CB44CB46CB46C12
:10573000BC4CBC6DBC8DBCADC4ADC4CECCEFCD0FEC
:10574000CD2FD52FCD4FCD4FCD50D550D550D55095
:10575000D550D570D570D570D570D570D570D57041
:10576000D570D570D590D590D590D591D591D5914E
:10577000D591D591D591D591D591D591D591D591F9
:10578000D591D591D591D591D591D591D591D591E9
:10579000D591D590D590D590D590D570D570D57040
:1057A000D570D570D570D570D570D550D550D55031
:1057B000D52FD52FD52FD52FCD2FCD0EC4CEC4ADFF
:1057C000C4ADBC8DBC8CB46CB46CB46CBC4CB44D6E
:1057D000B44CB44CB44CB44CB44DB46DB48DBC8D1D
:1057E000BC8DBC6DBC6CBC6DB42CB44BAC0CFFBDA3
:1057F000F79EF7FFF79EFFBEFFBEF7BFF7BFF7BEEE
:10580000F7BEF7BEF7BEF7BEF7BEF7BEF7BEF7BEF0
:10581000F7BEF7BEF7BEF7BEF7BEF7BEF7BEF7BEE0
:10582000F7BEF7BEF7BEF7BEF7BEF7BEF7BEF7BED0
:10583000F7BEF7BEF7BEF7BEF7BEF7BEF7BEF7BEC0
:10584000F7BEF7BEF7BEF7BEF7BEF7BEF7BEF7BEB0
:10585000F7BEF7BEF7BEF7BEF7BEF7BEF7BEF7BEA0
:10586000F7BEF7BEF7BEF7BEF7BEF7BEF7BEF7BE90
:10587000F7BEF7BEF7BEF7BEF7BEF7BEF7BEF7BE80
:10588000F7BEF7BEF7BEF7BEF7BEF7BEF7BEF7BE70
:10589000F7BEF7BEF7BEF7BEF7BEF7BEF7BEF7BE60
:1058A000F7BEF7BEF7BEF7BEF7BEF7BEF7BEF7BE50
:1058B000F7BEF7BEF7BEF7BEF7BEF7BEF7BEF7BE40
:1058C000F7BEF7BEF7BEF7BEF7BEF7BEF7BEF7BE30
:1058D000F7BEF7BEF7BEF7BEF7BEF7BEF7BEF7BE20
:1058E000F7BEF7BEF7BEEF9EFFFEB4AFB42CBC4CC4
:1058F000B44DBC4CC46CBC4CBC6DBC4CB42CB42B77
:10590000B42BB42BB42BB42BB42BB42BB42CB44C7D
:10591000B42CB44CBC6CBC8CBCADC4ADC4CEC4EE19
:10592000CD0FD550D54FCD4FCD4FD550CD50D57093
:10593000D570D570D570D570D570D590D590D590DF
:10594000D570D570D591D591D590D591D591D5916A
:10595000D591D590D590D590D590D590D590D5901E
:10596000D590D590D590D590D590D591D591D5910C
:10597000D591D590D591D591D570D570D570D5905C
:10598000D590D570D570D570D570D570CD50D570F7
:10599000D530D530D530D530CCEFC4EEC4CEBCAD8B
:1059A000BC8CBC6CB44CB44CB44CB44CB42CB42CC7
:1059B000B40BB42CB42CB44CB44CB44DBC8DBC6CF6
:1059C000BC6CBC6DBC8DB44CB44CBC4CA40BE6B8E8
:1059D000FFBEF7BFF7BEFFBEFFBEF7BFF7BFF7BE04
:1059E000F7BEF7BEF7BEF7BEF7BEF7BEF7BEF7BE0F
:1059F000F7BEF7BEF7BEF7BEF7BEF7BEF7BEF7BEFF
:105A0000F7BEF7BEF7BEF7BEF7BEF7BEF7BEF7BEEE
:105A1000F7BEF7BEF7BEF7BEF7BEF7BEF7BEF7BEDE
:105A2000F7BEF7BEF7BEF7BEF7BEF7BEF7BEF7BECE
:105A3000F7BEF7BEF7BEF7BEF7BEF7BEF7BEF7BEBE
:105A4000F7BEF7BEF7BEF7BEF7BEF7BEF7BEF7BEAE
:105A5000F7BEF7BEF7BEF7BEF7BEF7BEF7BEF7BE9E
:105A6000F7BEF7BEF7BEF7BEF7BEF7BEF7BEF7BE8E
:105A7000F7BEF7BEF7BEF7BEF7BEF7BEF7BEF7BE7E
:105A8000F7BEF7BEF7BEF7BEF7BEF7BEF7BEF7BE6E
:105A9000F7BEF7BEF7BEF7BEF7BEF7BEF7BEF7BE5E
:105AA000F7BEF7BEF7BEF7BEF7BEF7BEF7BEF7BE4E
:105AB000F7BEF7BEF7BEF7BEF7BEF7BEF7BEF7BE3E
:105AC000F7BEF7BEF7BEFFDEFF3A9BABBC4CBC4C4B
:105AD000BC6DBC6DBC4CBC4CB44CB42CB42CB42CC4
:105AE000AC0BABEBAC0CAC2CA40BAC0BAC2CB42CBB
:105AF000B44DB44DB42CBC6CB46CBCADC4EEC4EEAF
:105B0000CCEFCD30CD50D570D570D570D570D57067
:105B1000D570D570D570D570D590D570D570D5901D
:105B2000D591D591D590D590D590D591D590D5904A
:105B3000D590D5B1D5B1D5B1D5B1D5B1D5B1D5B156
:105B4000D5B1D5B1D5B1D5B1D5B1D590D590D59088
:105B5000D591D590D590D590D591D591D590D5703A
:105B6000D590D590D570D570D570D570D570CD50F5
:105B7000D550D550D530CD0FCCEFC4CEC4AEB46D1A
:105B8000BC8DB44CB44CB42CB44DAC2DAC0CABEBC4
:105B9000B40BB40BB40BABEBB40BBC2BBC2BB44CA5
:105BA000BC6CBC6CBC6CBC8DBC6CB44CB42CBCF080
:105BB000FFFEF79EFFDFF79EFFBEF7BEF7BFF7BE03
:105BC000F7BEF7BEF7BEF7BEF7BEF7BEF7BEF7BE2D
:105BD000F7BEF7BEF7BEF7BEF7BEF7BEF7BEF7BE1D
:105BE000F7BEF7BEF7BEF7BEF7BEF7BEF7BEF7BE0D
:105BF000F7BEF7BEF7BEF7BEF7BEF7BEF7BEF7BEFD
:105C0000F7BEF7BEF7BEF7BEF7BEF7BEF7BEF7BEEC
:105C1000F7BEF7BEF7BEF7BEF7BEF7BEF7BEF7BEDC
:105C2000F7BEF7BEF7BEF7BEF7BEF7BEF7BEF7BECC
:105C3000F7BEF7BEF7BEF7BEF7BEF7BEF7BEF7BEBC
:105C4000F7BEF7BEF7BEF7BEF7BEF7BEF7BEF7BEAC
:105C5000F7BEF7BEF7BEF7BEF7BEF7BEF7BEF7BE9C
:105C6000F7BEF7BEF7BEF7BEF7BEF7BEF7BEF7BE8C
:105C7000F7BEF7BEF7BEF7BEF7BEF7BEF7BEF7BE7C
:105C8000F7BEF7BEF7BEF7BEF7BEF7BEF7BEF7BE6C
:105C9000F7BEF7BEF7BEF7BEF7BEF7BEF7BEF7BE5C
:105CA000F7BEF7BEF7BEFFDED616AC0CBC4BBC4C45
:105CB000BC4CB44DBC4CBC4CB42CB42CAC0CA3ECC4
:105CC000A42DAC4E8B8B7B298B8BBCD0B46EA3CC1C
:105CD0009B8BB44DD510BC6EB44DB44CC4ADC4CE8A
:105CE000CCEFCD0FCD2FD550D550D570D550D57028
:105CF000D570D570D570D570D570D570D570D5905C
:105D0000DD90D590D591D591D590D591D591D5915E
:105D1000D591D5B1D591D591D591D591D591D59133
:105D2000D591D591D591D591D5B1D591D591D59123
:105D3000D591D590D591D591D590D590D590D59038
:105D4000D570D570D570D570D570D570D570D5504B
:105D5000D550D530CD0FCCEFC4AEBC8DBC6DB44D9D
:105D6000AC0DC4CFC4CFA3CCA3ACB42DBCD0A3EC9A
:105D70008308938BAC2DB42CAC0BB3CABC2BB42BC7
:105D8000B44CB44CBC6CBC6CBC6CBC4CB44CAC4D9A
:105D9000FFBDFFBEF79EF7BEF7BEF7BEF7BFF7BE6B
:105DA000F7BEF7BEF7BEF7BEF7BEF7BEF7BEF7BE4B
:105DB000F7BEF7BEF7BEF7BEF7BEF7BEF7BEF7BE3B
:105DC000F7BEF7BEF7BEF7BEF7BEF7BEF7BEF7BE2B
:105DD000F7BEF7BEF7BEF7BEF7BEF7BEF7BEF7BE1B
:105DE000F7BEF7BEF7BEF7BEF7BEF7BEF7BEF7BE0B
:105DF000F7BEF7BEF7BEF7BEF7BEF7BEF7BEF7BEFB
:105E0000F7BEF7BEF7BEF7BEF7BEF7BEF7BEF7BEEA
:105E1000F7BEF7BEF7BEF7BEF7BEF7BEF7BEF7BEDA
:105E2000F7BEF7BEF7BEF7BEF7BEF7BEF7BEF7BECA
:105E3000F7BEF7BEF7BEF7BEF7BEF7BEF7BEF7BEBA
:105E4000F7BEF7BEF7BEF7BEF7BEF7BEF7BEF7BEAA
:105E5000F7BEF7BEF7BEF7BEF7BEF7BEF7BEF7BE9A
:105E6000F7BEF7BEF7BEF7BEF7BEF7BEF7BEF7BE8A
:105E7000F7BEF7BEF7BEF7BEF7BEF7BEF7BEF7BE7A
:105E8000F7BEF7BEF7BEFFFFBD11B42CBC2BC44C50
:105E9000B44CB44CB42CB42BB40BAC0BA40CA3EC8E
:105EA0007B2A62678BEEC5F6EEFA5A2720002000A7
:105EB000200028004923BC90CCF0BC4DBC8DBC8D8B
:105EC000C4CECCEFCD2FD550D570D570D570D57050
:105ED000D570D570D570D570D570D590D570DD9151
:105EE000DD91DDB1D591D591D591DDB1D5B1D5B1EA
:105EF000D5B1DDB1DDB1DDB1DDB1DDB1DDB1DDB13A
:105F0000DDB1DDB1DDB1DDB1DDB1D5B1D5B1D5B139
:105F1000DDB1D591D591D591D591D591D591D5902A
:105F2000D570D570D570D570D570D570D550D57069
:105F3000D530D530C4EFC4CFC4AEBC6DBC6CB46D2D
:105F4000DDB37AA8308218001800200038C1ACD127
:105F5000E6B983CD6288830AAC2DB40BB40BB42BA5
:105F6000B42BB44CB44CBC6CBC6DBC6CBC4CABEB3B
:105F7000F71AFFDFF7BEF7BEF7BEF7BFF7BFF7BEF2
:105F8000F7BEF7BEF7BEF7BEF7BEF7BEF7BEF7BE69
:105F9000F7BEF7BEF7BEF7BEF7BEF7BEF7BEF7BE59
:105FA000F7BEF7BEF7BEF7BEF7BEF7BEF7BEF7BE49
:105FB000F7BEF7BEF7BEF7BEF7BEF7BEF7BEF7BE39
:105FC000F7BEF7BEF7BEF7BEF7BEF7BEF7BEF7BE29
:105FD000F7BEF7BEF7BEF7BEF7BEF7BEF7BEF7BE19
:105FE000F7BEF7BEF7BEF7BEF7BEF7BEF7BEF7BE09
:105FF000F7BEF7BEF7BEF7BEF7BEF7BEF7BEF7BEF9
:10600000F7BEF7BEF7BEF7BEF7BEF7BEF7BEF7BEE8
:10601000F7BEF7BEF7BEF7BEF7BEF7BEF7BEF7BED8
:10602000F7BEF7BEF7BEF7BEF7BEF7BEF7BEF7BEC8
:10603000F7BEF7BEF7BEF7BEF7BEF7BEF7BEF7BEB8
:10604000F7BEF7BEF7BEF7BEF7BEF7BEF7BEF7BEA8
:10605000F7BEF7BEF7BEF7BEF7BEF7BEF7BEF7BE98
:10606000F7BEF7BEF7BEFFBDA40DB42CBC4BC48C6D
:10607000BC4CB40CB40CB40BAC0BA40C8B8B7B4A97
:10608000B533FFBDFFFFB57500001800490251424E
:1060900061635941384010007267BCCFB46DBC6C6D
:1060A000C4ADC4EFCD2FD550D570D570D570D57097
:1060B000D570D590D570D590D590DD90D590DD91E7
:1060C000DD91D5B1D5B1D5B1D591DDB1DDB1DDB1C0
:1060D000D5B1DDB1DDB1DDB1DDB1DDB1DDB1DDB158
:1060E000DDB1DDB1DDB1DDB1DDB1D5B1DDB1DDB148
:1060F000DDB1D591D591D591D5B1D591D591D59029
:10610000D591D590D570D570D570D570D570D57026
:10611000D550CD10CCCFC4AEBC8DB48DBCAEA40CCC
:1061200010001000408061636183596340A000004B
:106130004208FFFFFFBFB5757B2B8B6BAC0DB40B1B
:10614000AC0BB40BB42CBC4CBC6CBC6CB42BB42CE2
:10615000D5F5F79DFFDFF7BEF7BEF7BEF7BEF7BE7A
:10616000F7BEF7BEF7BEF7BEF7BEF7BEF7BEF7BE87
:10617000F7BEF7BEF7BEF7BEF7BEF7BEF7BEF7BE77
:10618000F7BEF7BEF7BEF7BEF7BEF7BEF7BEF7BE67
:10619000F7BEF7BEF7BEF7BEF7BEF7BEF7BEF7BE57
:1061A000F7BEF7BEF7BEF7BEF7BEF7BEF7BEF7BE47
:1061B000F7BEF7BEF7BEF7BEF7BEF7BEF7BEF7BE37
:1061C000F7BEF7BEF7BEF7BEF7BEF7BEF7BEF7BE27
:1061D000F7BEF7BEF7BEF7BEF7BEF7BEF7BEF7BE17
:1061E000F7BEF7BEF7BEF7BEF7BEF7BEF7BEF7BE07
:1061F000F7BEF7BEF7BEF7BEF7BEF7BEF7BEF7BEF7
:10620000F7BEF7BEF7BEF7BEF7BEF7BEF7BEF7BEE6
:10621000F7BEF7BEF7BEF7BEF7BEF7BEF7BEF7BED6
:10622000F7BEF7BEF7BEF7BEF7BEF7BEF7BEF7BEC6
:10623000F7BEF7BEF7BEF7BFF7BFFF9EFF9EF79E04
:10624000F7FFEF9EFFBDF6F8A3EBB46DB44DB42C91
:10625000B42CB40CB3ECB3ECA3CC7B2BA513E75D4F
:10626000E75DFFFF83AE0000510171828A03922235
:1062700092028A0281A2692118005A06BD10BC6DE3
:10628000C4AEC4CEC4EECD2FCD4FD570D570D57071
:10629000D591D571D570D570D590D591D5B1D59111
:1062A000D5B1D5B1D591D591D591D5B1D5B1D5B11E
:1062B000D591DDB1DDB1DDB1DDB1DDB1DDB1DDB196
:1062C000DDB1D591D5B1D5B1D5B1D591D5B1D5B1D6
:1062D000D5B1D5B1D5B1DDB1D590D590D590D5900A
:1062E000D590D591D570D570D570D590D570CD702D
:1062F000BD50CCEED4ADC48CB4CDA4AE8BCD1000CB
:106300003840698381E38A0392238A0381E27182A0
:1063100030003882FFDFEFBFE77FA5147B2AA3EBB5
:10632000ABEBB42DAC2DB42CB42CBC4CBC4CB42C6D
:10633000BCD0FFFEF79EEFBFF7BFF7BEF7BEF7BEBC
:10634000F7BEF7BEF7BEF7BEF7BEF7BEF7BEF7BEA5
:10635000F7BEF7BEF7BEF7BEF7BEF7BEF7BEF7BE95
